:020000040800F2
:10000000D0280020D1010008B9650008BB650008B0
:10001000BF650008C3650008C76500080000000050
:10002000000000000000000000000000CB65000898
:10003000CD650008000000002F9900083D48000829
:10004000EB010008EB010008EB010008EB010008E0
:10005000EB010008EB010008EB010008EB010008D0
:10006000EB010008EB010008EB010008EB010008C0
:10007000EB010008EB0100088F1B0008EB010008F2
:10008000EB010008EB010008EB010008EB010008A0
:10009000EB010008EB010008EB010008EB01000890
:1000A000EB010008EB010008EB010008EB01000880
:1000B000EB0100084F050008EB010008EB01000808
:1000C000EB010008EB010008EB010008EB01000860
:1000D000EB010008F5490008EB010008EB010008FE
:1000E000EB010008EB010008EB01000800F002F84A
:1000F00000F061F80AA090E8000C82448344AAF161
:100100000107DA4501D100F056F8AFF2090EBAE85E
:100110000F0013F0010F18BFFB1A43F0010318473B
:10012000D8A60000F8A600000A444FF0000C10F812
:10013000013B13F0070408BF10F8014B1D1108BF65
:1001400010F8015B641E05D010F8016B641E01F805
:10015000016BF9D113F0080F1EBF10F8014BAD1C55
:100160000C1B09D16D1E58BF01F801CBFAD505E073
:1001700014F8016B01F8016B6D1EF9D59142D6D3CD
:10018000704700000023002400250026103A28BFF5
:1001900078C1FBD8520728BF30C148BF0B607047F9
:1001A000642909F05784002070471FB5AFF3008021
:1001B0001FBD10B510BD09F0C0FE1146FFF7F5FFD9
:1001C00006F0B1F909F0DEFEFFF7F3FF04F0B8FB2B
:1001D0000948804709480047FEE7FEE7FEE7FEE7DB
:1001E000FEE7FEE7FEE7FEE7FEE7FEE70448054917
:1001F000054A064B7047000099660008ED000008AC
:10020000D0220020D0280020D0240020D02400209C
:1002100000B587B001214FF4017003F0C9F84FF425
:10022000004003F029F80320ADF8040000208DF809
:10023000070001A92E4802F011FE2E4802F096FB9D
:10024000002002908DF80C008DF80D004FF4602016
:1002500004900020059001208DF8180002A925487F
:1002600002F0ABFB0121234802F0D2FB214802F04F
:10027000F1FB00BF1F4802F0F2FB0028FAD11D4835
:1002800002F0F7FB00BF1B4802F0F8FB0028FAD190
:1002900007B000BD10B504460723012221461548CA
:1002A00002F021FC0121134802F0F2FB00BF022101
:1002B000104802F041FD0028F9D00E4802F078FC09
:1002C00010BD2DE9F04104460D460026002708E048
:1002D0002046FFF7DFFF0644052004F000FB781CF2
:1002E000C7B2AF42F4DBB6FBF5F080B2BDE8F081F7
:1002F000000801400024014008B50121082003F056
:1003000057F84020ADF8000010208DF803000320BE
:100310008DF802006946044802F0A0FD4021024821
:1003200002F046FE08BD0000000C014008B50121A6
:10033000182003F03DF84FF42870ADF80000482075
:100340008DF803006946074802F088FD4FF46040CD
:10035000ADF8000048208DF803006946024802F01D
:100360007DFD08BD000C01400010014010B54E4855
:100370000078012815D14D480078012811D04A484D
:10038000401E0078401C4849491E08700846007805
:10039000192806D90020891C0870891E0870491C7C
:1003A00008704FF40051424802F0E6FD3E49183112
:1003B0000870153901F11402127851F822008047B3
:1003C00039491731087010BD10B5FFF7CFFF10BDC8
:1003D00035481830007808B9012070470020FCE744
:1003E00031481830007808B9022070470020FCE737
:1003F0002D481830007808B9032070470020FCE72A
:1004000029481830007888B92748801E0078401C99
:100410002549891E087008460078502804D3012019
:1004200024490870042070470320FCE71E48801E02
:100430000078502822D201201F4908701A48401C19
:100440000078401C1849491C08700120491E08709A
:10045000481C007802280FD1481E007819280BD2BA
:100460000020491C0870891E0870491C0870012072
:100470000E4908700420D6E70420D4E70420D2E710
:1004800009481830007840B90748801E0078401CA1
:100490000549891E0870032070470020054908702F
:1004A0000149891E0870F7E70500002002000020BE
:1004B00000100140010000200000002008B50121CB
:1004C000182002F075FF10208DF8030003208DF82E
:1004D00002004FF48070ADF800006946044802F055
:1004E000BDFC4FF48071024802F060FD08BD0000C1
:1004F000000C01407FB504460D460121022002F0A8
:1005000064FFADF80840ADF804500020ADF80A00D3
:10051000ADF8060001A9634803F080F801224121EB
:10052000604803F0C7FB1D208DF8000000208DF807
:10053000010003208DF8020001208DF803006846B9
:1005400002F0A9F90121574803F08FFB7FBD10B5D8
:100550000121544803F02BFE18B10121514803F04A
:1005600037FE10BD30B589B004460D46012102208A
:1005700002F02BFF0121092002F01AFF01214A4855
:1005800002F037FD2020ADF8200018208DF8230060
:1005900003208DF8220008A9444802F05FFCADF862
:1005A0001840ADF814500020ADF81A00ADF8160050
:1005B00005A93C4803F032F87020ADF80400012092
:1005C000ADF806000020ADF80A00ADF80C0001A956
:1005D000344803F0A2F80821324803F07CFC0121E2
:1005E000304803F040FC01212E4803F03EFB09B0E7
:1005F00030BD10B52E48007810F0800F4CD101218D
:100600002C4803F0D4FDD0B12948007810F0400FF9
:1006100015D02748007800F03F003F280AD1244831
:10062000007840F08000224908704FF6FF702249A0
:10063000088004E01E480078401C1D490870022113
:100640001C4803F0B4FD38B31948007810F0400F8F
:100650000FD01748007840F0800015490870154801
:1006600003F086FD144908800021124803F095FC30
:1006700012E000200E4908700F49088000210D4843
:1006800003F060FD0A48007840F040000849087017
:100690000221084803F081FC0321064803F098FD7D
:1006A00010BD00000004004000081A00000C0140CA
:1006B0001E000020000C00402000002008B5012191
:1006C000152002F075FE10208DF8030003208DF830
:1006D000020040F20340ADF800006946044802F011
:1006E000BDFB40F20341024802F060FC08BD00007F
:1006F000000C014010B554480078012815D153482A
:100700000078012811D05048401E0078401C4E4906
:10071000491E087008460078192806D90020891C4F
:100720000870891E0870491C08704FF40071484811
:1007300002F022FC444918310870153901F1140205
:10074000127851F8220080473F491731087010BDD8
:1007500010B5FFF7CFFF10BD3B481830007808B93F
:10076000012070470020FCE737481830007808B9AE
:10077000022070470020FCE733481830007810BB97
:100780000120344908703048401C0078401C2E4934
:10079000491C08700120491E0870481C0078022876
:1007A0000FD1481E007819280BD20020491C087070
:1007B000891E0870491C0870012024490870042013
:1007C00070470320FCE70020FAE71F481830007844
:1007D00010BB1D48801E0078401C1B49891E0870F4
:1007E000081D007850B908460078642804D100201C
:1007F00008700120091D0870032070471248801EF0
:100800000078322806D100200F49891E0870012087
:10081000114908700320F0E70420EEE70A48183079
:10082000007840B90848801E0078401C0649891E9F
:100830000870032070470020074908700249891E8C
:100840000870091D0870F5E7290000202600002027
:10085000000C0140240000202500002010B54D4868
:100860000078012815D14C480078012811D049485A
:10087000401E0078401C4749491E08700846007811
:10088000192806D90020891C0870891E0870491C87
:1008900008704FF40041414802F06EFB3D491831A9
:1008A0000870153901F11402127851F822008047BE
:1008B00038491731087010BD10B5FFF7CFFF10BDD4
:1008C00034481830007808B9012070470020FCE750
:1008D00030481830007808B9022070470020FCE743
:1008E0002C481830007808B9032070470020FCE736
:1008F00028481830007888B92648801E0078401CA7
:100900002449891E087008460078502804D3012025
:1009100023490870042070470320FCE71D48801E0F
:100920000078502822D201201E4908701948401C26
:100930000078401C1749491C08700120491E0870A6
:10094000481C007802280FD1481E007819280BD2C5
:100950000020491C0870891E0870491C087001207D
:100960000D4908700420D6E70420D4E70420D2E71C
:1009700008481830007840B90648801E0078401CAE
:100980000449891E08700320704700200149891E10
:100990000870F9E74900002046000020000C0140E3
:1009A00045000020440000200020FB4908607047FB
:1009B0000120F949086070470020F8490860704735
:1009C0000120F649086070470020F449091F0860BB
:1009D00070470120F149091F0860704770B504464F
:1009E0000E46002516E0FFF7E7FF022003F055FF53
:1009F00004F08000802802D1FFF7EBFF01E0FFF751
:100A0000E3FFFFF7DDFF022003F047FF6006040E5F
:100A1000681CC5B2B542E6DB70BD10B50446FFF7F1
:100A2000C3FF04218020FFF7D9FF08212046FFF7EC
:100A3000D5FFFFF7BDFF10BD2DE9F04104460D467F
:100A40001646FFF7B1FF0321A020FFF7C7FFA1065D
:100A5000080E0621FFF7C2FF002706E028780821CC
:100A6000FFF7BCFF6D1C781CC7B2B742F6DBFFF77F
:100A70009FFFBDE8F08170B504460D46FFF794FF77
:100A80000321A020FFF7AAFFA106080E0621FFF709
:100A9000A5FF08212846FFF7A1FFFFF789FF70BDDA
:100AA00070B504460D46FFF77FFF0321A020FFF736
:100AB00095FFA106080E0621FFF790FF04212846A6
:100AC000FFF78CFFFFF774FF70BD10B50120B2492E
:100AD000091D08600B22B2490020FFF7ADFF10BDD1
:100AE00010B50B22AF490020FFF7A6FF0020AA494E
:100AF000091D086010BD08B501210D2002F058FC49
:100B00000121A94802F075FA10208DF80300032096
:100B10008DF802001820ADF800006946A34802F0E5
:100B20009DF91821A14802F041FA4FF41840ADF8A0
:100B3000000069469E4802F091F94FF418419C4824
:100B400002F034FA0A2003F0CAFE5220FFF765FFD4
:100B50003020FFF762FF0020FFF75FFF0A20FFF75A
:100B60005CFF0220FFF759FF0620FFF756FF0A201F
:100B700003F0B5FEFFF7B4FF4FF4FA7003F0AFFED9
:100B8000FFF7A3FF4FF4FA7003F0A9FEFFF7A8FFE9
:100B90004FF4FA7003F0A3FEFFF797FF4FF4FA70DB
:100BA00003F09DFEFFF79CFF4FF4FA7003F097FEF1
:100BB000FFF78BFF4FF4FA7003F091FE08BD38B5D4
:100BC00004464FF47A7094FBF0F100FB114064216D
:100BD00090FBF1F0C0B28DF80000642094FBF0F1BE
:100BE00000FB11400A2190FBF1F0C0B28DF801002A
:100BF0000A2094FBF0F100FB1140C0B28DF8020016
:100C00009DF800006B49085C8DF800009DF801001C
:100C1000085C8DF801009DF80200085C8DF8020068
:100C2000032269460E20FFF707FF00205A49091DDD
:100C3000086038BD08B500200090032269460E20E8
:100C4000FFF7FAFE00205449091D086008BD38B5B9
:100C500004464FF47A7094FBF0F100FB11406421DC
:100C600090FBF1F0C0B28DF80000642094FBF0F12D
:100C700000FB11400A2190FBF1F0C0B28DF8010099
:100C80000A2094FBF0F100FB1140C0B28DF8020085
:100C90009DF800004749085C8DF800009DF80100B0
:100CA000085C8DF801009DF80200085C8DF80200D8
:100CB0004148007858B1414800788DF800003F481D
:100CC00040788DF801003D4880788DF802000322BD
:100CD00069460820FFF7B0FE00202F49091D086073
:100CE00038BD38B504464FF47A7094FBF0F100FB40
:100CF0001140642190FBF1F0C0B28DF80000642037
:100D000094FBF0F100FB11400A2190FBF1F0C0B21E
:100D10008DF801000A2094FBF0F100FB1140C0B2F5
:100D20008DF802009DF800002249085C8DF8000053
:100D30009DF80100085C8DF801009DF80200085C38
:100D40008DF802001E48007830B100208DF80000B8
:100D50008DF801008DF80200032269460620FFF796
:100D60006BFE00200C49091D086038BD10B50B2230
:100D700014490020FFF760FE00200749091D0860A4
:100D800010BD10B50B2210490020FFF755FE0020C2
:100D90000149091D086010BD8C812142B00121422A
:100DA0003C0300207000002000023000000C0140D5
:100DB00000080140CF00002063000020BD0000209B
:100DC00064000020650000209100002010B50B2277
:100DD000BB490020FFF730FE0020BA49086010BD73
:100DE00010B50B22B8490020FFF726FE0020B549B8
:100DF000086010BD10B50B22B4490020FFF71CFE9F
:100E00000020B049086010BD10B50B22B049002089
:100E1000FFF712FE0020AB49086010BD10B5AD48C9
:100E2000007800F0F700AB4908700846007840F001
:100E300010000870084601781420FFF71CFE0020FF
:100E4000A049086010BD10B5A248007800F0EF007E
:100E5000A04908700846007840F00800087008466D
:100E600001781420FFF707FE00209649086010BDA6
:100E700010B59848007800F0DF00964908700846E1
:100E8000007840F040000870084601781420FFF711
:100E9000F2FD00208B49086010BD10B58D48007828
:100EA00000F0BF008B4908700846007840F0200031
:100EB0000870084601781420FFF7DDFD0020814905
:100EC000086010BD38B504464FF47A7094FBF0F119
:100ED00000FB1140642190FBF1F0C0B28DF80000DE
:100EE000642094FBF0F100FB11400A2190FBF1F02B
:100EF000C0B28DF801000A2094FBF0F100FB114014
:100F0000C0B28DF802009DF800007349085C8DF8AE
:100F100000009DF80100085C8DF801009DF80200BA
:100F2000085C8DF80200032269460220FFF784FD69
:100F300000206449086038BD10B5032267490820C5
:100F4000FFF77AFD00205F49086010BD70B50446C8
:100F50000D46D0205F490870084601781420FFF73D
:100F60008AFDFFF7E9FF2046FFF729FE2846FFF735
:100F7000A9FF00205349086070BD10B580211D20D5
:100F8000FFF779FD10BD10B500211D20FFF773FD9F
:100F900010BD38B50446642094FBF0F100FB11400D
:100FA0000A2190FBF1F0C0B28DF800000A2094FBFA
:100FB000F0F100FB1140C0B28DF801009DF8000077
:100FC0004549085C8DF800009DF80100085C8DF82B
:100FD0000100022269460C20FFF72EFD002039494E
:100FE000086038BD08B500200090022269460C2038
:100FF000FFF722FD00203349086008BD38B50446DC
:10100000642094FBF0F100FB11400A2190FBF1F009
:10101000C0B28DF800000A2094FBF0F100FB1140F3
:10102000C0B28DF801009DF800002B49085C8DF8D6
:1010300000009DF80100085C8DF80100022269465D
:101040001020FFF7F9FC00201E49086038BD08B5E4
:1010500000200090022269461020FFF7EDFC0020DE
:101060001849086008BD08B50020009003226946B1
:101070000220FFF7E1FC00201249086008BD10B50E
:101080001448007840F001001249087008460178C1
:101090001420FFF7F0FC00200A49086010BD10B5CD
:1010A0000C48007800F0FE000A49087008460178F4
:1010B0001420FFF7E0FC00200249086010BD00008A
:1010C0009C00002090812142A7000020B200002057
:1010D0007B00002062000020CF000020BD00002027
:1010E00010B54D480078012815D14C4800780128EA
:1010F00011D04948401E0078401C4749491E0870DD
:1011000008460078192806D90020891C0870891E15
:101110000870491C08704FF40041414801F02CFF51
:101120003D4918310870153901F11402127851F84F
:101130002200804738491731087010BD10B5FFF7FD
:10114000CFFF10BD34481830007808B9012070472F
:101150000020FCE730481830007808B902207047BA
:101160000020FCE72C481830007808B903207047AD
:101170000020FCE728481830007888B92648801EEF
:101180000078401C2449891E0870084600785028C1
:1011900004D3012023490870042070470320FCE792
:1011A0001D48801E0078502822D201201E49087058
:1011B0001948401C0078401C1749491C0870012040
:1011C000491E0870481C007802280FD1481E00787C
:1011D00019280BD20020491C0870891E0870491C70
:1011E000087001200D4908700420D6E70420D4E7D8
:1011F0000420D2E708481830007840B90648801E1D
:101200000078401C0449891E0870032070470020A4
:101210000149891E0870F9E7E5000020E20000207E
:10122000000C0140E1000020E000002010B54E4815
:101230000078012815D14D480078012811D04A487E
:10124000401E0078401C4849491E08700846007836
:10125000192806D90020891C0870891E0870491CAD
:1012600008702021424801F087FE3F49183108707C
:10127000153901F11402127851F8220080473A49D9
:101280001731087010BD10B5FFF7D0FF10BD3648FC
:101290001830007808B9012070470020FCE7324878
:1012A0001830007808B9022070470020FCE72E486B
:1012B0001830007808B9032070470020FCE72A485E
:1012C0001830007888B92848801E0078401C2649CC
:1012D000891E087008460078502804D3012025494B
:1012E0000870042070470320FCE71F48801E007828
:1012F000502822D20120204908701B48401C007849
:10130000401C1949491C08700120491E0870481CDE
:10131000007802280FD1481E007819280BD200202F
:10132000491C0870891E0870491C087001200F496B
:1013300008700420D6E70420D4E70420D2E70A4846
:101340001830007840B90848801E0078401C0649D3
:10135000891E087003207047002006490870024962
:10136000891E0870F7E70000050100200201002037
:10137000000C0140010100200001002010B54E4882
:101380000078012815D14D480078012811D04A482D
:10139000401E0078401C4849491E087008460078E5
:1013A000192806D90020891C0870891E0870491C5C
:1013B00008704FF48041424801F0DEFD3E4918318B
:1013C0000870153901F11402127851F82200804793
:1013D00039491731087010BD10B5FFF7CFFF10BDA8
:1013E00035481830007808B9012070470020FCE724
:1013F00031481830007808B9022070470020FCE717
:101400002D481830007808B9032070470020FCE709
:1014100029481830007888B92748801E0078401C79
:101420002549891E087008460078502804D30120F9
:1014300024490870042070470320FCE71E48801EE2
:101440000078502822D201201F4908701A48401CF9
:101450000078401C1849491C08700120491E08707A
:10146000481C007802280FD1481E007819280BD29A
:101470000020491C0870891E0870491C0870012052
:101480000E4908700420D6E70420D4E70420D2E7F0
:1014900009481830007840B90748801E0078401C81
:1014A0000549891E0870032070470020054908700F
:1014B0000149891E0870F7E725010020220100205C
:1014C00000100140210100202001002010B54D48EE
:1014D0000078012815D14C480078012811D04948DE
:1014E000401E0078401C4749491E08700846007895
:1014F000192806D90020891C0870891E0870491C0B
:1015000008704FF40041414801F036FD3D49183163
:101510000870153901F11402127851F82200804741
:1015200038491731087010BD10B5FFF7CFFF10BD57
:1015300034481830007808B9012070470020FCE7D3
:1015400030481830007808B9022070470020FCE7C6
:101550002C481830007808B9032070470020FCE7B9
:1015600028481830007888B92648801E0078401C2A
:101570002449891E087008460078502804D30120A9
:1015800023490870042070470320FCE71D48801E93
:101590000078502822D201201E4908701948401CAA
:1015A0000078401C1749491C08700120491E08702A
:1015B000481C007802280FD1481E007819280BD249
:1015C0000020491C0870891E0870491C0870012001
:1015D0000D4908700420D6E70420D4E70420D2E7A0
:1015E00008481830007840B90648801E0078401C32
:1015F0000449891E08700320704700200149891E94
:101600000870F9E74501002042010020000C01406C
:10161000410100204001002010B54D48007801280C
:1016200015D14C480078012811D04948401E007857
:10163000401C4749491E087008460078192806D9F9
:101640000020891C0870891E0870491C08704FF41E
:101650000041414801F090FC3D49183108701539AE
:1016600001F11402127851F82200804738491731ED
:10167000087010BD10B5FFF7CFFF10BD344818300B
:10168000007808B9012070470020FCE73048183086
:10169000007808B9022070470020FCE72C48183079
:1016A000007808B9032070470020FCE7284818306C
:1016B000007888B92648801E0078401C2449891E7D
:1016C000087008460078502804D301202349087088
:1016D000042070470320FCE71D48801E0078502836
:1016E00022D201201E4908701948401C0078401C75
:1016F0001749491C08700120491E0870481C0078D1
:1017000002280FD1481E007819280BD20020491C4E
:101710000870891E0870491C087001200D49087066
:101720000420D6E70420D4E70420D2E70848183084
:10173000007840B90648801E0078401C0449891E84
:1017400008700320704700200149891E0870F9E7DE
:101750006501002062010020000C014061010020B1
:101760006001002010B54E480078012815D14D4881
:101770000078012811D04A48401E0078401C484992
:10178000491E087008460078192806D90020891CCF
:101790000870891E0870491C08708021424801F0B9
:1017A000EBFB3F4918310870153901F1140212782A
:1017B00051F8220080473A491731087010BD10B522
:1017C000FFF7D0FF10BD36481830007808B9012067
:1017D00070470020FCE732481830007808B9022032
:1017E00070470020FCE72E481830007808B9032025
:1017F00070470020FCE72A481830007888B928484C
:10180000801E0078401C2649891E08700846007812
:10181000502804D301202549087004207047032074
:10182000FCE71F48801E0078502822D20120204962
:1018300008701B48401C0078401C1949491C08705E
:101840000120491E0870481C007802280FD1481E4C
:10185000007819280BD20020491C0870891E0870D6
:10186000491C087001200F4908700420D6E70420A5
:10187000D4E70420D2E70A481830007840B9084875
:10188000801E0078401C0649891E0870032070479E
:101890000020064908700249891E0870F7E7000019
:1018A0008501002082010020000C01408101002000
:1018B0008001002000206249C873087448744861A0
:1018C0000883488388604860086070477EB56E462C
:1018D00000210A460B460EC600BF00240025584AC8
:1018E0005083128B564B5B8B9A420ADB544A128B05
:1018F000534B5B8BD21A534B1A8064229B1C1A8069
:1019000007E04F4A528B4E4B1B8BD21A4D4B9B1C00
:101910001A804C4A1288322A04DB4A4A921C1288E6
:10192000322A64DA464A128B454B5B8BD21A0092FC
:10193000434A5268424B9A601A4612685A60009AAB
:101940001A601A4612685B68D21A00923C4A126802
:101950003B4B5B68A2EB4302394B9B681A440292F3
:10196000374AD27B009B5A430092354A127C344B53
:101970001B685A430192324A527C029B5A4302929C
:10198000DDE900231A44029B1A4400922C4B009A72
:101990005B691A442A4B5A611A465269002A1BDDB8
:1019A0001A465269322392FBF3F2274B1A801A46E9
:1019B0001288264B1B889A4203DC244A1288224B49
:1019C0001A80214A1288224B1B889A4208DB204A3F
:1019D00012881D4B1A8003E01C4A12881A4B1A8089
:1019E000194A128832235A43154B5A6126E0144A89
:1019F000128B134B5B8B9A4210DB154A1288124BE9
:101A00001A8000220E4B5A619A605A601A600E4A80
:101A1000128832235A430A4B5A610FE00B4A12884C
:101A2000094B1A800022064B5A619A605A601A606C
:101A3000054A128832235A43014B5A617EBD000089
:101A400048030020A6010020A0010020A4010020DE
:101A5000A20100202DE9F04104460D4617461E461E
:101A60000121084601F097FC204602F0B9FDFF482D
:101A70000680FF48056047601020FD4988600846E1
:101A8000C660002008618020486100208861C8612C
:101A900008624FF48050486200208862204602F0BD
:101AA00047FEBDE8F08110B504460021204602F053
:101AB0006AFEEE480188EF4802F07AFE01212046D6
:101AC00002F061FE10BD08B50121084601F063FC7B
:101AD000E848143002F084FDE748E5490860E7482B
:101AE0004860002088604620C8600020086180208F
:101AF000486100208861C86108624FF480504862E4
:101B000000208862DB48143002F012FE01224021DE
:101B1000D948001F02F05EFC0121D648143002F0C3
:101B200032FED44802F05CFDD348D1490860D44865
:101B30004860102088604620C8600020086180202E
:101B4000486100208861C86108624FF48050486293
:101B500000208862C74802F0EBFD01220221C5483F
:101B600002F01DFE01228021C348001F02F032FC5A
:101B70000E208DF8000003208DF801008DF8020082
:101B800001208DF80300684600F085FE08BD10B501
:101B90004FF4005002F012FE30B14FF4005002F04A
:101BA00020FE0020B749087010BD002203E000238A
:101BB0008354531CDAB28A42F9DB704770B504468D
:101BC0000D4600BFAF4800780128FBD02A462146C9
:101BD000AB4808F01BF80021A64802F0D4FD2946C6
:101BE000A44802F0E5FD0121A24802F0CCFD01204D
:101BF000A449087070BD08B50121042001F0D8FB8C
:101C000004208DF8030003208DF802002020ADF899
:101C1000000069469C4801F021F91020ADF8000051
:101C20006946994801F01AF908BD08B597A00068FF
:101C3000009004216846FFF7C1FF08BD08B594A0D5
:101C40000068009004216846FFF7B8FF08BD08B59A
:101C500090A00068009004216846FFF7AFFF08BD20
:101C600008B58DA00068009004216846FFF7A6FF24
:101C700008BD08B589A00068009004216846FFF7F8
:101C80009DFF08BD7CB504460D46164684A103C9D8
:101C9000CDE900018DF801408DF802504FF47A70C3
:101CA00096FBF0F100FB1160642190FBF1F0C0B2F3
:101CB0008DF80300642096FBF0F100FB11600A210F
:101CC00090FBF1F0C0B28DF804000A2096FBF0F111
:101CD00000FB1160C0B28DF8050007216846FFF7D0
:101CE0006DFF7CBDFEB504460D46164668466EA1E6
:101CF0008CC98CC08DF80240052095FBF0F100FBEB
:101D00001150281A4FF47A7190FBF1F201FB120086
:101D1000642190FBF1F0C0B28DF80300052095FB23
:101D2000F0F100FB1150281A642190FBF1F201FB45
:101D300012000A2190FBF1F0C0B28DF804000520DA
:101D400095FBF0F100FB1150281A0A2190FBF1F2EB
:101D500001FB1200C0B28DF80500052096FBF0F1E2
:101D600000FB1160301A4FF47A7190FBF1F201FB25
:101D70001200642190FBF1F0C0B28DF8060005203E
:101D800096FBF0F100FB1160301A642190FBF1F238
:101D900001FB12000A2190FBF1F0C0B28DF80700A0
:101DA000052096FBF0F100FB1160301A0A2190FB30
:101DB000F1F201FB1200C0B28DF808006846FFF78F
:101DC000FDFEFEBD38B504463AA0006800908DF8CF
:101DD000024004216846FFF7F1FE38BD38B50446DD
:101DE00035A0006800908DF8024004216846FFF796
:101DF000E5FE38BD00B585B00E2101A807F04CFF07
:101E00002E48006800902E480088052190FBF1F2D2
:101E100001FB12002A490988081A4FF47A7190FBD5
:101E2000F1F201FB1200642190FBF1F0C0B28DF8D9
:101E3000020023480088052190FBF1F201FB12000B
:101E40001F490988081A642190FBF1F201FB120076
:101E50000A2190FBF1F0C0B28DF803001848008809
:101E6000052190FBF1F201FB12002BE0BE010020E6
:101E70006403002044000240043801409003002025
:101E80001C040020B001002000080140FE0101FFF9
:101E9000FE0102FFFE0A01FFFE0201FFFE0202FF39
:101EA000FE0000000000FF00FE0700000000000030
:101EB00000FF0000FE0800FFFE0900FFBCA60008AE
:101EC000E6010020FF490988081A0A2190FBF1F277
:101ED00001FB1200C0B28DF80400FB480079E8B3A2
:101EE000FA480088052190FBF1F201FB1200F74946
:101EF0000988081A4FF47A7190FBF1F201FB120085
:101F0000642190FBF1F0C0B28DF80500EF48008825
:101F1000052190FBF1F201FB1200EC490988081A37
:101F2000642190FBF1F201FB12000A2190FBF1F019
:101F3000C0B28DF80600E5480088052190FBF1F25B
:101F400001FB1200E1490988081A0A2190FBF1F20D
:101F500001FB1200C0B28DF8070009E0FFE709207D
:101F60008DF8050006208DF8060000208DF807008A
:101F7000D548C078012823D1D54800884FF47A711C
:101F800090FBF1F201FB1200642190FBF1F0C0B272
:101F90008DF80800CE48008890FBF1F201FB12009A
:101FA0000A2190FBF1F0C0B28DF80900C848008802
:101FB00090FBF1F201FB1200C0B28DF80A003CE088
:101FC000C4480088052190FBF1F201FB1200C149D1
:101FD0000988081A4FF47A7190FBF1F201FB1200A4
:101FE000642190FBF1F0C0B28DF80800B948008878
:101FF000052190FBF1F201FB1200B6490988081A8D
:10200000642190FBF1F201FB12000A2190FBF1F038
:10201000C0B28DF80900AF480088052190FBF1F2AD
:1020200001FB1200AB490988081A0A2190FBF1F262
:1020300001FB1200C0B28DF80A0001208DF80B00E0
:10204000A14800798DF80C009F48C0788DF80D00EC
:102050009D4880788DF80E0002208DF80F00012039
:102060008DF81000FF208DF8110012216846FFF74F
:10207000A5FD05B000BD00B587B0122102A807F08C
:102080000BFE9548006801908E4800884FF47A71E5
:1020900090FBF1F201FB1200642190FBF1F0C0B261
:1020A0008DF806008748008890FBF1F201FB1200D2
:1020B0000A2190FBF1F0C0B28DF80700814800883A
:1020C00090FBF1F201FB1200C0B28DF808007F48CE
:1020D00000884FF47A7190FBF1F201FB1200642149
:1020E00090FBF1F0C0B28DF809007848008890FBB1
:1020F000F1F201FB12000A2190FBF1F0C0B28DF861
:102100000A007248008890FBF1F201FB1200C0B295
:102110008DF80B0000208DF80C008DF80D008DF867
:102120000E008DF80F008DF810008DF81100684832
:1021300000884FF47A7190FBF1F201FB12006421E8
:1021400090FBF1F0C0B28DF812006148008890FB5E
:10215000F1F201FB12000A2190FBF1F0C0B28DF800
:1021600013005B48008890FBF1F201FB1200C0B243
:102170008DF81400574800884FF47A7190FBF1F203
:1021800001FB1200642190FBF1F0C0B28DF8150044
:102190005048008890FBF1F201FB12000A2190FBED
:1021A000F1F0C0B28DF816004A48008890FBF1F2B9
:1021B00001FB1200C0B28DF8170001208DF8180045
:1021C000FF208DF81900162101A8FFF7F7FC07B0D2
:1021D00000BD2DE9FF4104460D4616461F463E4907
:1021E000091D684691E80C1180E80C110A20B4FB27
:1021F000F0F03C21B0FBF1F04FF47A71B0FBF1F25A
:1022000001FB12006421B0FBF1F0C0B28DF80200B6
:102210000A20B4FBF0F03C21B0FBF1F06421B0FBEC
:10222000F1F201FB12000A21B0FBF1F0C0B28DF80F
:1022300003000A20B4FBF0F03C21B0FBF1F00A21CE
:10224000B0FBF1F201FB1200C0B28DF804003C209B
:10225000B4FBF0F0B0FBF1F201FB1200C0B28DF85C
:102260000500052095FBF0F100FB1150281A4FF4F2
:102270007A7190FBF1F201FB1200642190FBF1F006
:10228000C0B28DF80600052095FBF0F100FB11505F
:10229000281A642190FBF1F201FB12000A2190FB45
:1022A000F1F0C0B28DF80700052095FBF0F100FBBE
:1022B0001150281A0A2190FBF1F201FB1200C0B262
:1022C0000CE00000E6010020AA010020EC01002043
:1022D000E2010020E0010020C0A600088DF80800FF
:1022E000FF48007988B3052096FBF0F100FB1160F0
:1022F000301A4FF47A7190FBF1F201FB1200642165
:1023000090FBF1F0C0B28DF80900052096FBF0F1CA
:1023100000FB1160301A642190FBF1F201FB120006
:102320000A2190FBF1F0C0B28DF80A00052096FB5F
:10233000F0F100FB1160301A0A2190FBF1F201FB71
:102340001200C0B28DF80B0007E0FFE700208DF807
:1023500009008DF80A008DF80B0009208DF80C009B
:1023600006208DF80D0000208DF80E00FF208DF85E
:102370000F0010216846FFF721FCBDE8FF813EB544
:1023800004460D46D74968460EC90EC04FF47A7010
:1023900094FBF0F100FB1140642190FBF1F0C0B21E
:1023A0008DF80200642094FBF0F100FB11400A213B
:1023B00090FBF1F0C0B28DF803000A2094FBF0F11D
:1023C00000FB1140C0B28DF804004FF47A7095FB09
:1023D000F0F100FB1150642190FBF1F0C0B28DF8D8
:1023E0000500642095FBF0F100FB11500A2190FBE1
:1023F000F1F0C0B28DF806000A2095FBF0F100FB69
:102400001150C0B28DF80700FF208DF80800092197
:102410006846FFF7D3FB3EBD1CB50446B1490C31FD
:1024200003C9CDE900010A20B4FBF0F03C21B0FB68
:10243000F1F04FF47A71B0FBF1F201FB120064216C
:10244000B0FBF1F0C0B28DF802000A20B4FBF0F04E
:102450003C21B0FBF1F06421B0FBF1F201FB120072
:102460000A21B0FBF1F0C0B28DF803000A20B4FBE2
:10247000F0F03C21B0FBF1F00A21B0FBF1F201FBDE
:102480001200C0B28DF80400FF208DF8050006216F
:102490006846FFF793FB1CBD08B593A00068009049
:1024A00004216846FFF78AFB08BD08B58FA00068C5
:1024B000009004216846FFF781FB08BD08B58CA099
:1024C0000068009004216846FFF778FB08BD70B5EE
:1024D00004460E460025042E00DA70BD2078FE2842
:1024E0007BD16078092879D008DC092831D2DFE86F
:1024F00000F0301831457AA3F6F5F4000E286ED0BE
:1025000008DC0A286CD00B286BD00C286AD00D2868
:102510001FD142E10F2878D0232877D03128F7D176
:102520006BE1A078012808D1E078FF2805D10120CF
:10253000704908706A4988700BE0A078022808D1B9
:10254000E078FF2805D101206B490870022064491A
:1025500088707EE1A078012806D1E078FF2803D1B9
:1025600001206649087008E0A078022805D1E078CB
:10257000FF2802D10020614908706AE1A078012893
:102580000ED12079FF280BD101205D4908705D49EB
:102590000870E0785C49088001205C4908701BE005
:1025A000A078022801D1012000E00020A1780329B1
:1025B00001D1012100E0002108430DD02079FF283E
:1025C0000AD101204E4908704E490870E0784E4902
:1025D000088002204D4908703BE13BE1C9E0E9E099
:1025E000C8E0C8E0D0E0A078012810D12079FF2809
:1025F0000DD101204649087046490870E0784249EB
:10260000088001204149087015E0E4E0EEE0A07880
:10261000022802D0A07803280DD12079FF280AD102
:1026200001203B4908703B490870E0783649088032
:102630000220364908700CE1A078012823D1A07946
:10264000FF2820D1012034490870E0780A2190FB4E
:10265000F1F201FB12006421484321790A2291FB27
:10266000F2F302FB131101EB810100EB41006179F0
:1026700091FBF2F302FB1311084423490880012067
:102680002249087028E0A078022802D0A078032808
:1026900022D1A079FF281FD101201F490870E078BE
:1026A0000A2190FBF1F201FB1200642148432179D9
:1026B0000A2291FBF2F302FB131101EB810100EB03
:1026C0004100617991FBF2F302FB131108440E49BA
:1026D000088002200D490870BBE049E037E01DE0AA
:1026E000AA010020D4A60008FE3101FFFE3102FF3E
:1026F000FE2201FF00000020B1010020B7010020F0
:1027000080010020B4010020B2010020F701002068
:1027100000010020B5010020B6010020A0780128AA
:1027200009D1E078FF2806D101204B49087000202C
:102730004A4908700AE0A078022807D1E078FF280B
:1027400004D10120444908704449087081E0A07810
:10275000012802D0A078022809D1E078FF2806D10C
:102760003F4802883F4801880120FFF7BBFA70E02C
:102770006FE06EE06DE0A078012804D1E078FF28DA
:1027800001D1FFF737FB64E0A078012804D1E0789D
:10279000FF2801D1FFF76FFC5BE0A078012808D18A
:1027A000E078FF2805D12F4801882F480088FFF7DF
:1027B000E6FD4EE0A07801280CD1E078FF2809D191
:1027C0002A48038826480288294801882948006841
:1027D000FFF7FFFC3DE0A078012806D1E078FF2854
:1027E00003D124480068FFF717FE32E0E078FF28A5
:1027F00002D1A078204908702BE0A07802280ED1E1
:10280000E078FF280BD102201C49087000201C49E9
:10281000087001201B490870FFF747FE18E094F884
:102820004200FF2814D1002505E0A81C205C1649B1
:102830004855681CC5B2402DF7DB13484078104955
:10284000087001200D4908700E490870FFF724FE3A
:1028500000BF00BF41E6000020010020F70100207A
:10286000EC010020E6010020E2010020EE01002042
:10287000E0010020080200200D020020B801002025
:10288000BC010020BD010020620400203249014348
:10289000324A1160704770B5002100230F22C478BE
:1028A0000CB32E4C246804F4E064C4F5E064210AFF
:1028B000C1F10403CA40447804FA03F18478144057
:1028C00021430901264C0678A155047804F01F0520
:1028D0000124AC4005786D114FF0E02606EB85052C
:1028E000C5F8004109E0047804F01F040125A54063
:1028F0001C4C0678761144F8265070BD1A4A0A40DE
:102900000243164B1B1F1A60704741B1134A121D38
:10291000126802434FF0E023C3F8102D07E00F4A7E
:10292000121D126882434FF0E023C3F8102D704748
:10293000042808D14FF0E021096941F004014FF06B
:10294000E022116107E04FF0E021096921F0040164
:102950004FF0E022116170470000FA050CED00E035
:1029600000E400E080E100E080FFFF1F10B50446B6
:10297000F748844208D10121401500F033FD0021C1
:10298000601500F02FFD17E0F248844208D10121C4
:10299000001500F027FD0021201500F023FD0BE0BD
:1029A000ED48844208D10121C80300F01BFD00213D
:1029B0004FF4004000F016FD10BD30B5002200239A
:1029C0004268E64C22400D790C6844EA0524224313
:1029D00042608268E24C2240D1E902542C434D7996
:1029E00044EA450422438260C26A22F470020C7CED
:1029F000641EE4B2234342EA0352C26230BD0021A6
:102A00000160017141718160C160012101747047F1
:102A100021B1826842F00102826003E0826822F004
:102A200001028260704721B1826842F48072826044
:102A300003E0826822F480728260704710B5002340
:102A4000CBB21AB144681C43446002E044689C4322
:102A5000446010BD816841F0080181607047014603
:102A600000208A6812F0080F01D0012000E0002049
:102A70007047816841F00401816070470146002081
:102A80008A6812F0040F01D0012000E00020704796
:102A900021B1826842F4A002826003E0826822F4DD
:102AA000A00282607047014600208A6812F4800FFD
:102AB00001D0012000E00020704710B50022002363
:102AC000426822F460424B1E42EA4332426010BD2B
:102AD00021B1426842F40062426003E0426822F49D
:102AE000006242607047F0B500240025092911DD1D
:102AF000C468A1F10A0606EB4607072606FA07F5A1
:102B0000AC43A1F10A0606EB460603FA06F52C4390
:102B1000C4600CE0046901EB4107072606FA07F5DB
:102B2000AC4301EB410603FA06F52C430461072A86
:102B30000FDA446B561E06EB86071F2606FA07F5CA
:102B4000AC43561E06EB860601FA06F52C43446399
:102B500022E00D2A0FDA046BD61F06EB86071F262C
:102B600006FA07F5AC43D61F06EB860601FA06F512
:102B70002C43046310E0C46AA2F10D0606EB86073D
:102B80001F2606FA07F5AC43A2F10D0606EB8606F2
:102B900001FA06F52C43C462F0BD21B1826842F40B
:102BA0008012826003E0826822F4801282607047A3
:102BB0000146C86C80B2704765484C300068704769
:102BC00021B1426842F48062426003E0426822F42C
:102BD00080624260704721B1426842F48052426094
:102BE00003E0426822F4805242607047002282680B
:102BF00022F4E0420A438260704721B1826842F4C5
:102C00000042826003E0826822F4004282607047E2
:102C100021B1826842F40212826003E0826822F4E9
:102C2000021282607047014600208A6812F4001F79
:102C300001D0012000E000207047F0B500240025FD
:102C40000026092911DDC468A1F10A0707EB470C2A
:102C5000072707FA0CF5AC43A1F10A0707EB470772
:102C600003FA07F52C43C4600CE0046901EB410C46
:102C7000072707FA0CF5AC4301EB410703FA07F508
:102C80002C430461846BC4F30156D71C06F1010C7C
:102C9000A7EB0C0707EB870C1F2707FA0CF5AC43D3
:102CA000D71C06F1010CA7EB0C0707EB870701FA0D
:102CB00007F52C438463F0BD10B500220023826B1E
:102CC00022F440124B1E42EA0352826310BD10B53B
:102CD0000023034618460B441A6010BD0246002329
:102CE00013461A4601F128000344186880B2704761
:102CF000002242681B4B1A400A43426070474162FF
:102D0000826270470022426822F01F020A4342603A
:102D1000704740B10E490831096841F40001124A78
:102D2000C2F8081407E00A490831096821F40001D3
:102D30000D4AC2F8081470470246002013680B427F
:102D400001D0012000E000207047CA4302607047B4
:102D50000024014000280140003C0140FFFEF0FF3C
:102D6000FDF7F1FFFFFD3FFF0020014070B5024677
:102D70000020002300240B125568CEB205EA060499
:102D800015681D4202D00CB1012000E0002070BD8A
:102D900000220A12D34303607047000010B50446B6
:102DA000C748844208D10121042000F01BFB002108
:102DB000042000F017FB46E0C248844208D10121FC
:102DC000082000F00FFB0021082000F00BFB3AE088
:102DD000BD48844208D10121102000F003FB0021EE
:102DE000102000F0FFFA2EE0B848844208D10121FB
:102DF000202000F0F7FA0021202000F0F3FA22E072
:102E0000B348844208D10121402000F0EBFA0021B0
:102E1000402000F0E7FA16E0AE48844208D10121D4
:102E2000802000F0DFFA0021802000F0DBFA0AE0C9
:102E3000A948844207D10121801500F0D3FA00216E
:102E4000A01500F0CFFA10BD10B50121084600F022
:102E5000C9FA0021012000F0C5FA10BDF0B500222A
:102E60000023002400250026002791F803C00CF061
:102E70000F0291F803C01CF0100F03D091F802C0AC
:102E80004CEA0202B1F800C01CF0FF0F31D0066816
:102E900000242BE04FF0010C0CFA04F5B1F800C04F
:102EA0000CEA0503AB4220D1A5004FF00F0C0CFA41
:102EB00005F7BE4302FA05FC4CEA060691F803C08A
:102EC000BCF1280F06D14FF0010C0CFA04FCC0F83D
:102ED00014C00AE091F803C0BCF1480F05D14FF0CF
:102EE000010C0CFA04FCC0F810C0641C082CD1D3EF
:102EF0000660B1F800C0BCF1FF0F34DD4668002465
:102F00002EE004F1080C4FF0010E0EFA0CF5B1F8AA
:102F100000C00CEA0503AB4221D1A5004FF00F0C15
:102F20000CFA05F7BE4302FA05FC4CEA060691F8D6
:102F300003C0BCF1280F05D104F1080C0EFA0CFEF9
:102F4000C0F814E091F803C0BCF1480F07D104F1B8
:102F5000080C4FF0010E0EFA0CFEC0F810E0641CD5
:102F6000082CCED34660F0BD4FF6FF7101800221E0
:102F700081700421C17070470246002093680B42A3
:102F800001D0012000E0002070470146886880B22F
:102F9000704702460020D3680B4201D0012000E0B8
:102FA000002070470146C86880B2704701617047D1
:102FB000416170470AB1016100E041617047C16041
:102FC00070474FF480320A43826181618261826975
:102FD000826970470022414B1A684FF680731A408D
:102FE00042EA00120A433D4B1A6070473C49C861EF
:102FF0007047F0B5002200230024002500F00046B1
:10300000B6F1004F02D1354EF46901E0334E7468D9
:10301000C0F3034582B200F44016B6F5401F08D154
:1030200024F070642D4E766826F070662B4F7E601B
:1030300012E000F48016B6F5801F06D1032606FACA
:1030400005F39C4344F0706406E0460D360102FA35
:1030500006F6B44344F0706421B1460D360102FA1D
:1030600006F6344300F00046B6F1004F02D11B4E85
:10307000F46101E0194E7460F0BD30B500228B0799
:103080001C0F0F2303FA04F2144B08338C1053F86F
:10309000244094438D1043F825408C1053F824307D
:1030A0008C07240F00FA04F423430C4C08348D10D1
:1030B00044F8253030BD0A49DC3108607047000013
:1030C00000080140000C01400010014000140140C4
:1030D00000180140001C0140002001400000014098
:1030E00000002042DB48006840F00100D949086038
:1030F00008464068D8490840D649486008460068F4
:10310000D6490840D34908600846006820F480206A
:1031100008600846406820F4FE0048604FF41F0035
:1031200088607047CB49096821F48031C94A116031
:103130001146096821F480211160B0F5803F03D069
:10314000B0F5802F0ED106E0C249096841F4803104
:10315000C04A116007E0BF49096841F4A021BD4A97
:10316000116000E000BF00BF704710B501460022AB
:10317000002300204A11012A02D1B64C236806E040
:10318000022A02D1B34C236A01E0B24C636A01F017
:103190001F02012494401C4201D0012000E00020C5
:1031A00010BD70B500240025002600BF3120FFF7B8
:1031B000DCFF0646641CB4F5A06F01D0002EF5D0EC
:1031C0003120FFF7D2FF08B1012500E00025284695
:1031D00070BD00219F4A116821F0F80141EAC00149
:1031E000116070479E49086070470022994B5A68E9
:1031F00022F47C1240EA01031A43964B5A6070474E
:103200009749086670470021924A516821F00301EE
:103210000143516070478F48406800F00C007047D0
:1032200000218C4A516821F0F00101435160704740
:103230000021884A516821F4E061014351607047E0
:103240000021844A516821F4605141EAC001516073
:10325000704729B17F4A527A02437E4B5A7206E088
:103260007C4A527AC343DBB21A407A4B5A72704797
:103270007B49D831086070470021764A516821F4B3
:1032800040410143516070470021724A2032117061
:10329000704A82F82010012802D004280AD104E0E4
:1032A00001216C4A2032117005E00521694A203263
:1032B000117000E000BF00BF70476A4908607047A6
:1032C0006449096A0143634A116270476549443998
:1032D0000860704730B500210022002300245D4DB6
:1032E0006D6805F00C0121B1042905D0082923D10E
:1032F00005E05D4D056022E05B4D05601FE0554D2A
:103300006D6805F47012534D6D6805F48033022525
:1033100005EB92421BB9554D554305600BE04D4DF1
:103320006D6815F4003F03D0504D5543056002E031
:103330004D4D5543056002E04B4D056000BF00BF99
:10334000444D6D6805F0F0010909494D6C5C056854
:10335000E54045603F4D6D6805F4E061090A444D64
:103360006C5C4568E54085603A4D6D6805F46051D8
:10337000C90A3F4D6C5C4568E540C560354D6D68D8
:1033800005F44041890B3A4D10356C5CC568B5FBBE
:10339000F4F5056130BD29B12E4A526902432D4B27
:1033A0005A6104E02B4A526982432A4B5A617047A2
:1033B00029B1284A92690243264B9A6104E0254AC2
:1033C00092698243234B9A61704729B1214AD2699D
:1033D0000243204BDA6104E01E4AD26982431D4B4E
:1033E000DA61704729B11B4AD2680243194BDA608F
:1033F00004E0184AD2688243164BDA60704729B15C
:10340000144A12690243134B1A6104E0114A12690B
:103410008243104B1A617047124940390860704767
:103420000F49C86470470B49C87170470948406A22
:1034300040F0807007494862704701460020054A05
:1034400092680A4201D0012000E000207047014943
:1034500088727047001002400000FFF8FFFFF6FE80
:10346000000042428004424200127A0000093D00FE
:10347000C001002010B50446FF48844208D1012154
:10348000C014FFF7AFFF0021E014FFF7ABFFC4E06B
:10349000B4F1804F08D101210846FFF7B0FF0021A9
:1034A0000120FFF7ACFFB8E0F448844208D10121C5
:1034B0000220FFF7A4FF00210220FFF7A0FFACE0ED
:1034C000EF48844208D101210420FFF798FF002132
:1034D0000420FFF794FFA0E0EA48844208D10121CC
:1034E0000820FFF78CFF00210820FFF788FF94E0F9
:1034F000E548844208D101211020FFF780FF002118
:103500001020FFF77CFF88E0E048844208D10121C9
:103510002020FFF774FF00212020FFF770FF7CE0E0
:10352000DB48844208D101214014FFF75BFF0021F2
:103530006014FFF757FF70E0D648844209D101219B
:10354000C804FFF74FFF00214FF40020FFF74AFFA8
:1035500063E0D148844209D101210805FFF742FF09
:1035600000214FF48010FFF73DFF56E0CB48844226
:1035700009D101214805FFF735FF00214FF4001064
:10358000FFF730FF49E0C648844208D101214020BE
:10359000FFF735FF00214020FFF731FF3DE0C14834
:1035A000844208D101218020FFF729FF00218020DB
:1035B000FFF725FF31E0BC48844208D10121801586
:1035C000FFF71DFF0021A015FFF719FF25E0B74801
:1035D000844209D101210804FFF704FF00214FF4C0
:1035E0008030FFF7FFFE18E0B148844209D1012185
:1035F0004804FFF7F7FE00214FF40030FFF7F2FE1A
:103600000BE0AC48844208D101218804FFF7EAFEB0
:1036100000214FF48020FFF7E5FE10BD0022028854
:10362000954B98420ED09A4B98420BD0B0F1804FF8
:1036300008D0924B984205D0914B984202D0914BC2
:10364000984204D14FF68F731A404B881A438E4B21
:10365000984207D08D4B984204D04FF6FF431A4052
:10366000CB881A4302808B8883850B880385824B25
:1036700098420BD0864B984208D08C4B984205D08C
:103680008B4B984202D08B4B984201D10B7A038628
:1036900001238382704770B5002200230024058C2B
:1036A0004FF6FE7635400584038C8488028B4FF6F6
:1036B0008F752A40B51E2A400D882A43751E2B405F
:1036C0000D892B434D882B436B4DA8420BD0704D79
:1036D000A84208D0754DA84205D0754DA84202D029
:1036E000744DA84213D14FF6F7752B404D892B43EB
:1036F0004FF6FB752B408D882B434FF6FF652C4012
:103700004FF6FF552C408D892C43CD892C43848066
:103710000283CD888586038470BD70B500220023A6
:103720000024058C4FF6EF7635400584038C8488A1
:10373000028B48F6FF752A404FF6FF452A400D8858
:103740002D0642EA15424FF6DF752B400D892D05F7
:1037500043EA15434D882D0543EA1543464DA842DB
:1037600002D04B4DA8421BD14FF67F752B404D899F
:103770002D0543EA15434FF6BF752B408D882D0567
:1037800043EA15434FF6FF352C404FF2FF752C40AE
:103790008D89AD0444EA1544CD89AD0444EA15444D
:1037A00084800283CD880587038470BD70B50022B4
:1037B00000230024058C4FF6FF6635400584038CFA
:1037C0008488828B4FF68F752A404FF6FC752A400D
:1037D0000D882A434FF6FF552B400D892D0643EAED
:1037E00015434D882D0643EA1543234DA84202D0C8
:1037F000274DA8421BD14FF2FF752B404D892D0656
:1038000043EA15434FF6FF352B408D882D0643EADA
:1038100015434EF6FF752C404DF6FF752C408D89F3
:103820002D0544EA1544CD892D0544EA15448480CC
:103830008283CD888587038470BD70B50022002304
:103840000024058C4EF6FF7635400584038C848871
:10385000828B48F6FF752A404FF6FF452A400D88B7
:103860002D0642EA15424DF6FF752B400D892D07B6
:1038700043EA15434D881FE0002C0140000400403E
:1038800000080040000C0040001000400014004000
:1038900000340140004C0140005001400054014000
:1038A00000180040001C0040002000400040014083
:1038B00000440140004801402D0743EA1543F84DFC
:1038C000A84202D0F74DA84206D14BF6FF752C4016
:1038D0008D89AD0544EA154484808283CD88A0F8A3
:1038E0004050038470BD828B4FF2FF331A408283B5
:1038F000828B0B0642EA134282837047F0B50024A4
:1039000000250026078C4EF6FF7C07EA0C0707848B
:10391000848B058C0F073E0C40F6FF473C40170692
:1039200044EA17441F0744EA1744DD4FB8420ED05B
:10393000DC4FB8420BD0B0F1804F08D0DA4FB8421C
:1039400005D0DA4FB84202D0D94FB84206D14DF671
:10395000FF773D4046F480573D4305E047F6FF576B
:103960003D4041F480573D4384830584F0BD828B04
:103970004FF6F3731A408283828B0A438283704727
:10398000F0B5002400250026078C4FF6FF6C07EAEF
:103990000C070784848B058C0F063E0C4FF60C77C2
:1039A0003C401F0542EA17473C43BD4FB8420ED08A
:1039B000BC4FB8420BD0B0F1804F08D0BA4FB842DC
:1039C00005D0BA4FB84202D0B94FB84206D14FF62F
:1039D000FF573D4046F480773D4305E04FF2FF57E7
:1039E0003D4041F480773D4384830584F0BD028BE4
:1039F0004FF2FF331A400283028B0B0642EA134256
:103A000002837047F0B5002400250026078C4FF68E
:103A1000EF7C07EA0C070784048B058C0F053E0C2E
:103A200040F6FF473C401F0744EA1744170644EAA4
:103A300017449B4FB8420ED09A4FB8420BD0B0F10A
:103A4000804F08D0984FB84205D0984FB84202D066
:103A5000974FB84206D14FF6DF773D4046F010074A
:103A60003D4305E04FF65F773D4041F010073D4391
:103A700004830584F0BD028B4FF6F3731A40028372
:103A8000028B0A4302837047F0B500240025068CA0
:103A90004FF6FE773E400684048B058C4FF60C767D
:103AA00034401E0542EA164634437D4EB0420ED0E5
:103AB0007C4EB0420BD0B0F1804F08D07A4EB0426D
:103AC00005D07A4EB04202D0794EB04206D14FF6C0
:103AD000FD76354041F00106354305E04FF6F576B9
:103AE000354041F00106354304830584F0BD70B5CF
:103AF00004460D466A4884420ED06A4884420BD080
:103B0000B4F1804F08D06848844205D067488442A9
:103B100002D06748844200D100E000BF288850B935
:103B20002B89AA8869882046FFF7AEFFE9882046DE
:103B3000FFF7A1FF25E0288804280AD12B89AA884D
:103B400069882046FFF75EFFE9882046FFF74FFFB0
:103B500017E0288808280AD12B89AA886988204676
:103B6000FFF70EFFE9882046FFF701FF09E02B89E8
:103B7000AA8869882046FFF7C1FEE9882046FFF73A
:103B8000B2FE70BD2DE9F04104460D460026012726
:103B9000688808B9022600E00026A888012801D11B
:103BA000022700E001272888A0B92B89AA88698804
:103BB0002046FFF769FFE9882046FFF75CFF2B8965
:103BC0003A4631462046FFF71DFFE9882046FFF7B9
:103BD0000EFF13E02B89AA8869882046FFF712FFA1
:103BE000E9882046FFF703FF2B893A4631462046F5
:103BF000FFF74AFFE9882046FFF73DFFBDE8F08167
:103C00000A884B881A438B881A43CB881A430B893E
:103C10001A434B891A438B891A43A0F844207047F2
:103C20004FF6FF71818000210180C18041800172C7
:103C300070470021018041808180C18001814181E4
:103C40008181C181704700210180418001218180F3
:103C50000021C18001817047002101804180818065
:103C6000C180018141818181704721B1028842F088
:103C70000102028004E002884FF6FE731A400280BF
:103C8000704731B1B0F8442042F40042A0F844201B
:103C900005E0B0F84420C2F30E02A0F844207047BB
:103CA000002C0140003401400004004000080040A6
:103CB000000C004010B51AB183890B43838104E0E6
:103CC0008389CC43A4B22340838110BD8182704795
:103CD00041EA0203A0F84830704710B51AB1838951
:103CE0000B43838104E08389CC43A4B223408381C6
:103CF00010BD01894FF6F872114001817047002212
:103D000002894FF68F731A400A430281704730B51B
:103D100004460D4629462046FFF7F1FF208940F072
:103D20000700208130BD2DE9F04104460D461646BE
:103D30001F46602D06D13B46012231462046FFF743
:103D400061FE05E03B46012231462046FFF79CFE1E
:103D500029462046FFF7D3FF208940F00700208145
:103D6000BDE8F08130B500240489E4B21D0642EAC2
:103D700015450D432C43048130BD2DE9F041044627
:103D80000D461646984600274346324629462046A9
:103D9000FFF7E8FF27894FF6F870074047F007075D
:103DA0004FF68F70074047F070072781BDE8F0811C
:103DB000F0B504460D4616461F463B463246294698
:103DC0002046FFF7CFFF208940F480402081F0BDDE
:103DD000018582827047002202884FF68F731A4055
:103DE0000A4302807047F0B50024002500260489AC
:103DF000058B068C4FF6F8773C400C434FF6FC479A
:103E00003D4040F201173D434FF6DD773E401F0530
:103E100042EA17473E43048105830684F0BD002231
:103E2000028B4FF68F731A400A43028370470022B9
:103E3000028B48F6FF731A400B0642EA13420283D4
:103E400070470022828B4FF68F731A400A43828399
:103E500070470022828B48F6FF731A400B0642EA35
:103E600013428283704721B1028842F080020280AF
:103E700004E002884FF67F731A400280704721B138
:103E8000828842F00402828004E082884FF6FB734D
:103E90001A408280704721B1828842F008028280F5
:103EA00004E082884FF6F7731A408280704721B190
:103EB000828842F00102828004E082884FF6FE731D
:103EC0001A40828070470022028B4FF6F7731A4027
:103ED0000A43028370470022028B4FF2FF731A409D
:103EE0000B0642EA1342028370470022828B4FF690
:103EF000F7731A400A43828370470022828B4FF285
:103F0000FF731A400B0642EA134282837047002275
:103F1000028B4FF6FB731A400A430283704700225C
:103F2000028B4FF6FF331A400B0642EA134202831C
:103F300070470022828B4FF6FB731A400A4382833C
:103F400070470022828B4FF6FF331A400B0642EA7D
:103F50001342828370470022028B4FF67F731A4010
:103F60000A43028370470022028BC2F30E020B0643
:103F700042EA1342028370470022828B4FF67F731E
:103F80001A400A43828370470022828BC2F30E02DA
:103F90000B0642EA1342828370470022028C4FF6DE
:103FA000FD731A400A43028470470022028C4FF6C8
:103FB000F7731A400A43028470470022028C4FF6BE
:103FC000DF731A400B0542EA134202847047002255
:103FD000028C4FF67F731A400B0542EA13420284AB
:103FE00070470022028C4FF6FF531A400B0642EA3C
:103FF0001342028470470022028C4FF2FF731A4072
:104000000B0642EA1342028470470022028C4DF6EE
:10401000FF731A400B0742EA13420284704730B51F
:10402000002301248C40A3B2048CDD43ADB22C40AC
:104030000484048C02FA01F5ADB22C43048430BD33
:1040400030B5002304248C40A3B2048CDD43ADB210
:104050002C400484048C02FA01F5ADB22C43048494
:1040600030BD70B5002300240346184618330125DF
:104070008D40ACB2058CE643B6B23540058409B13B
:10408000082909D103EB61031D6825F070051D6047
:104090001D6815431D600CE00D1FADB203EB6503F9
:1040A0001D6825F4E0451D601D68160645EA1645A5
:1040B0001D6070BD21B1028842F00202028004E05E
:1040C00002884FF6FD731A400280704721B10288C2
:1040D00042F00402028004E002884FF6FB731A40AB
:1040E0000280704721B1828842F08002828004E021
:1040F00082884FF67F731A408280704702884FF69D
:10410000F7731A40028002880A430280704782884F
:104110004FF68F731A40828082880A4382807047EC
:1041200002894FF6F8731A40028102890A4302811C
:10413000704702894FF67F731A40028102890A4351
:1041400002817047818470478185704781867047FE
:104150000187704781877047A0F840107047028838
:104160004FF6FF431A40028002880A4302807047DC
:104170000146888E70470146088F70470146888F38
:1041800070470146B1F8400070470146888C70477F
:104190000146088D704702460020138A0B4201D069
:1041A000012000E000207047CA430282704730B50A
:1041B0000246002000230024158A05EA01039589A0
:1041C00005EA010413B10CB1012000E0002030BD6C
:1041D000CA4302827047000010B50446FB4884427F
:1041E00009D101218803FFF7FDF800214FF4804039
:1041F000FFF7F8F832E0F648844209D1012148047B
:10420000FFF7FDF800214FF40030FFF7F8F825E044
:10421000F048844209D101218804FFF7F0F8002119
:104220004FF48020FFF7EBF818E0EB48844209D107
:104230000121C804FFF7E3F800214FF40020FFF745
:10424000DEF80BE0E548844208D101210805FFF7BC
:10425000D6F800214FF48010FFF7D1F810BD2DE9FA
:10426000F04786B004460D460026002700BFB14641
:10427000B246A88900B100BFA246268A4CF6FF705C
:104280000640E88806432682A6894EF6F3100640CB
:10429000A88829890843698908430643A681A68A14
:1042A0004FF6FF400640A8890643A68201A8FFF703
:1042B00011F85446C548824501D1049F00E0039F90
:1042C000A08910F4004F08D007EBC70000EB0710DF
:1042D00029684900B0FBF1F807E007EBC70000EBE5
:1042E000071029688900B0FBF1F86420B8FBF0F0F2
:1042F00006013009642101FB1089A08910F4004FE8
:1043000009D0322101EBC9006421B0FBF1F000F0CB
:104310000700064308E0322101EB09106421B0FBDD
:10432000F1F000F00F000643268106B0BDE8F087EB
:104330004FF41651016000218180C18001810C2160
:10434000418100218181704710B50022028A4FF21D
:10435000FF031A400B884C8823438C882343CC8866
:1043600023431A43028210BD0021018041808180D5
:10437000C180704721B1828942F40052828104E0F9
:1043800082894DF6FF731A4082817047F0B5002490
:10439000002500260023A1F510676A3F00D100BF69
:1043A0000346C1F3421401F01F05012707FA05F681
:1043B000012C01D10C3304E0022C01D1103300E0B8
:1043C00014331AB11F6837431F6002E01F68B743F8
:1043D0001F60F0BD10B51AB1838A0B43838204E0DD
:1043E000838ACC43A4B22340838210BD028A4FF655
:1043F000F0731A400282028A0A430282704782895D
:104400004FF2FF731A40828182890A43828170478A
:1044100021B1828942F00202828104E082894FF652
:10442000FD731A4082817047028A4FF6DF731A408B
:104430000282028A0A430282704721B1028A42F450
:104440008042028204E0028A4BF6FF731A40028225
:104450007047C1F308028280704701468888C0F324
:1044600008007047818941F0010181817047028B0A
:10447000D2B20283028B42EA012202837047028B8E
:1044800002F47F420283028B0A430283704721B108
:10449000828A42F02002828204E0828A4FF6DF7331
:1044A0001A408282704721B1828A42F010028282D1
:1044B00004E0828A4FF6EF731A408282704721B17E
:1044C000828A42F00802828204E0828A4FF6F77301
:1044D0001A408282704721B1828942F4004282816F
:1044E00003E08289C2F30E028281704721B1828A81
:1044F00042F40062828204E0828A4FF2FF731A4023
:1045000082827047828A4FF6FB731A408282828AC7
:104510000A438282704721B1828A42F0020282827B
:1045200004E0828A4FF6FD731A4082827047024689
:104530000020B1F5007F00D100BF13880B4201D0ED
:10454000012000E00020704701F40072B2F5007F06
:1045500000D100BFCA430280704770B502460023F5
:10456000002400250020A1F510666A3E00D100BF9E
:10457000C1F3421501F01F04012606FA04F4012DCF
:1045800002D19689344006E0022D02D1168A3440C9
:1045900001E0968A34400B12012606FA03F31688CE
:1045A000334014B10BB1012000E0002070BD10B504
:1045B00000220023A1F510646A3C00D100BF0A125A
:1045C00001249440A3B2DC43048010BD00380140B4
:1045D0000044004000480040004C004000500040B3
:1045E00001684FF6FE7211400160002101604160D8
:1045F0008160C1608F49884208D18E490839496875
:1046000041F00F018B4A083A516090E0894914311A
:10461000884208D187490839496841F0F001854A44
:10462000083A516083E083492831884208D18149A2
:104630000839496841F470617E4A083A516076E071
:104640007C493C31884208D17A490839496841F4AB
:104650007041784A083A516069E0764950318842A1
:1046600008D174490839496841F47021714A083AFF
:1046700051605CE06F496431884208D16D49083966
:10468000496841F470016B4A083A51604FE069494A
:104690007831884208D167490839496841F070612A
:1046A000644A083A516042E06349884208D1011FD8
:1046B000096841F00F015F4A083AC2F8041436E075
:1046C0005D491431884209D15B49091F096841F0ED
:1046D000F001584A083AC2F8041428E05649283133
:1046E000884209D15449091F096841F47061514A4F
:1046F000083AC2F804141AE04F493C31884209D103
:104700004D49091F096841F470414A4A083AC2F804
:1047100004140CE048495031884208D14649091F29
:10472000096841F47021434A083AC2F804147047FA
:1047300010B50022026847F6F0739A430C6A8B6842
:1047400023430C6923434C6923438C692343CC697D
:1047500023434C6A23438C6A23431A430260CB6889
:1047600043600B6883604B68C36010BD002101602B
:1047700041608160C160016141618161C16101622B
:1047800041628162704721B1026842F00102026019
:1047900004E002684FF6FE731A40026070471AB1D7
:1047A00003680B43036002E003688B4303607047B8
:1047B000416070470146486880B270470246002059
:1047C000002112F0805F03D01B4B083B196802E008
:1047D000184B083B1968114201D0012000E000206D
:1047E000704710F0805F03D01349091F086002E092
:1047F000104908394860704702460020002112F035
:10480000805F03D00C4B083B196802E0094B083B62
:104810001968114201D0012000E00020704710F01B
:10482000805F03D00449091F086002E0014908398C
:1048300048607047080002400804024010B502F0CA
:10484000F5F802F034FA02F00CF910BD10B56FF073
:104850000400FEF76DF8334800683349B0FBF1F00F
:10486000324908702F4800682F49B0FBF1F44FF42B
:10487000FA60444302202D49891C08804FF0E02053
:10488000006940F002004FF0E021086108464461F1
:10489000006940F00100086110BD70B500244FF0C0
:1048A000E0267569214E367800FB06F100BF4FF017
:1048B000E026B36910E04FF0E026B2699A420BD0CF
:1048C0009A4202D29E1A344402E0AE1A1E44344484
:1048D00013468C4200D300E0EDE700BF70BD70B519
:1048E000044613480078012814D11048801C008821
:1048F000844207DB0D48801C008894FBF0F52846B5
:1049000004F07EFB0948801C008894FBF0F100FB5A
:10491000114084B24FF47A7104FB01F0FFF7BDFF40
:1049200070BD0000C002002000127A00D4010020F7
:10493000FA02002010B54FF4A060FDF7A7FF10BDEC
:10494000014600BF704700BF464A128812F0400F70
:10495000FAD0C2B2434B1B1D1A80704710B586B007
:104960000446012144F20500FEF722FD4FF40070D9
:10497000ADF8140003208DF8160018208DF81700EC
:1049800005A93948FEF76AFA4FF48060ADF81400C3
:1049900004208DF8170005A93348FEF75FFA25209B
:1049A0008DF8000003208DF801008DF80200012031
:1049B0008DF803006846FDF76EFF01940020ADF806
:1049C0000800ADF80A00ADF80C00ADF810000C209E
:1049D000ADF80E0001A92348FFF741FC012240F287
:1049E00024412048FFF7D2FC01211E48FFF7C2FCFA
:1049F00006B010BD10B502F019F840F22441194874
:104A0000FFF7ABFD50B3002400211848FFF7BBFEB1
:104A10001648FFF7CFFEC0F1460084B22246144983
:104A2000144805F0F3F81448048021461148FDF7B6
:104A30004EFDE1B20F48FDF7B8F840F224410948B5
:104A4000FFF7B5FD0748FFF708FD46210748FFF7C8
:104A5000AFFE01210548FFF796FE00BF02F001F806
:104A600010BD00000038014000080140580002401D
:104A700090030020D6030020D801002010B5FF4A83
:104A80001288521CFD4B1A801A461288FC4B1B8858
:104A90009A4205DB0122FB4B1A700022F74B1A8069
:104AA000F94A12782AB1F94A1268521CF74B1A6077
:104AB00002E00022F54B1A60F44A1268F44B9A4265
:104AC00002D30022F14B1A60F24A1278012A67D110
:104AD000F14A1288521CF04B1A801A461288B2F51D
:104AE000167F07DBED4A1288521CEC4B1A8000221D
:104AF000E94B1A80EA4A1278521EC2EBC202521DDA
:104B0000E84B9B5C64225343E54A1278521EC2EB89
:104B1000C202921DE34CA25C02EB820203EB420351
:104B2000DF4A1278521EC2EBC202D21DA25C1A44A6
:104B3000DA4B1B889A4212DCD94A1278521CD84BA5
:104B40001A70224612781B789A4205DA0222D14B5B
:104B50001A700022D24B1A700022D04B1A80D04A11
:104B60001278521EC2EBC202921CCE4B9B5C642296
:104B70005343CB4A1278521EC2EBC202D21CC94C1C
:104B8000A25C02EB820203EB4203C54A1278521E7A
:104B9000C2EBC202121DA25C1A44C34B1A8009E088
:104BA000BC4A1278022A05D1B422BF4B1A800022D7
:104BB000BA4B1A8010BDB84A921C1278072A0CD240
:104BC000DFE802F00405060708090A0005E004E032
:104BD00003E002E001E000E000BF00BFAE4A921C2B
:104BE0001278521CAC4B9B1C1A701A461278062A7B
:104BF00001DD00221A707047F8B505460E46ECB18B
:104C0000A548C01C0278A9A1204604F0E9FEA248EC
:104C1000C01C0078401CA049C91C08702146A74848
:104C2000006803F0FDFA00909DF8000030B16B467B
:104C300000221146A248006804F0BCFCF8BD7CB517
:104C40000024002500269AE001AB009300230322F4
:104C500001219C48006802F00EFC9B48007868B96E
:104C6000681C85B2052D02DCFCF709FA30E00A2D3C
:104C700002DAFCF714FA2BE0002529E092480078CC
:104C8000012802D1FCF7FBF922E08F4800780228C6
:104C90000DD1681C85B2142D02DCFCF7F0F917E089
:104CA000282D02DAFCF7FBF912E0002510E0864817
:104CB000007803280CD1681C85B20A2D02DCFCF7B1
:104CC000DEF905E0142D02DAFCF7E9F900E0002531
:104CD0007E4800887E49098888421FDB601C84B2B8
:104CE000B42071490880012C03D101207949086062
:104CF00014E0062C03D10020764908600EE00B2C4E
:104D000003D101207349086008E0102C03D1002072
:104D10007049086002E0202C00DB00246E48007817
:104D2000012829D1701C86B2042E03DC01206949B8
:104D3000086021E0082E03DC0020664908601BE0C3
:104D40000C2E03DC01206349086015E0102E03DC03
:104D50000020604908600FE0142E03DC01205D494B
:104D6000086009E0182E03DC00205A49086003E0BF
:104D700000205949087000263220FFF7B0FD63E794
:104D80002DE9FE4F4FF00008C146C24600200190B9
:104D900083469EE102AB0093012303224FF6FF718D
:104DA0004848006802F067FB044608F101001FFA5A
:104DB00080F809F101001FFA80F9B9F1010F17D14C
:104DC00046480088052190FBF1F201FB120043499F
:104DD0000988081A80B201903C480088052190FBA0
:104DE000F1F201FB120039490988081A1FFA80FB09
:104DF0003A48078814F0040F02D0FBF7C2FF65E1C0
:104E000014F0080F02D0FBF7E1FF5FE114F0100F80
:104E100002D0FBF7E5FF59E114F0200F02D0FBF7B9
:104E2000E9FF53E114F0020F05D0FBF74EFE02201C
:104E30002B4988704AE114F0010FE0D00120284985
:104E4000887028480088044202D0002008704DE095
:104E5000012023490870FBF7E1FF134805883E460F
:104E60001A480088052190FBF1F201FB1200174956
:104E70000988081A80B2009036E000000402002081
:104E8000020200209E010020F901002008020020FB
:104E900084270900B80100209C020020BA010020EC
:104EA000BC01002062040020E2010020414C494581
:104EB0004E54454B2025303364000000AC020020E6
:104EC000B8020020BC0200200D020020EC010020EE
:104ED000E601002098812142BD010020E001002070
:104EE000AA01002098020020FBF7B1FEF9480088D3
:104EF000044271D00120F849C8708246F748008802
:104F0000401CF649088008460088FA280ADB02ABF4
:104F10000022F0480188F248006802F008FC0020F6
:104F2000EE490880FBF7A4FFEE48007801281CD169
:104F3000ED48007810B9ED48007818B12846FBF725
:104F40003EFE0DE0B8F1190F02D1FBF773FE07E04A
:104F5000B8F1320F04DB4FF000082846FBF72FFEB4
:104F6000E3480088FBF7AEFF90E0DE4800780228B7
:104F70001DD1DD48007810B9DC48007820B1DC484C
:104F80000088FBF79FFF0EE0B8F1190F02D1FCF784
:104F90006AF808E0B8F1320F05DB4FF00008D4489A
:104FA0000088FBF78FFF2846FBF709FE6EE0D1482B
:104FB0000078012822D1CC48007810B9CB4800787D
:104FC00020B1CD480078FBF7E4FF0FE0B8F1190FEE
:104FD00003D1FCF707F809E03AE0B8F1320F05DB3E
:104FE0004FF00008C4480078FBF7D3FF2846FBF7D2
:104FF000E6FDC2480078FCF701F847E0BD480078BC
:10500000022821D1B848007810B9B848007820B1FA
:10501000BA480078FBF7F2FF0EE0B8F1190F02D1A1
:10502000FCF715F808E0B8F1320F05DB4FF0000887
:10503000B2480078FBF7E2FFAF480078FBF7A9FF22
:105040002846FBF7BCFD21E02846FBF7B8FD1DE034
:105050000220A149C870BAF1000F04D04FF0000A35
:105060000020A049087000209C490880FBF715FF2C
:10507000052096FBF0F100FB1160301A80B2009021
:10508000FBF79DFD9A480088FBF71CFFB9F1C80F9C
:105090001CDD4FF000099A480088052190FBF1F2D1
:1050A00001FB120096490988091A019881420BD127
:1050B00094480088052190FBF1F201FB1200914910
:1050C0000988081A584501D0FCF794FE1420FFF710
:1050D00006FC5FE67CB5002530E001AB00930023C1
:1050E000032211467E48006802F0C5F9044686494D
:1050F00009880C4201D000251DE001208349086089
:105100008349C1F8A80140F6B830854206DC681C26
:1051100085B200207D49091D08600CE078480088B0
:10512000822804DA01207949091D086003E0002083
:105130007649091D08606420FFF7D1FBCDE71CB557
:10514000AEE001AB0093002303223C2164480068D9
:1051500002F091F9044614F0040F18D000206D49B4
:10516000088001AB00224FF6C3715D48006802F071
:10517000DEFA0120654908606549C1F8A801634964
:10518000091D08604FF475705D49088052E014F005
:10519000080F18D000205F49088001AB00224FF6AD
:1051A000C3714F48006802F0C2FA012057490860F5
:1051B0005749C1F8A8015549091D086040F2CF3090
:1051C0004F49088036E014F0100F18D000205149E4
:1051D000088001AB00224FF6C3714148006802F01D
:1051E000A6FA0120494908604949C1F8A801474980
:1051F000091D086040F2CA30414908801AE014F0E5
:10520000200F17D000204349088001AB00224FF641
:10521000C3713348006802F08AFA01203B490860F4
:105220003B49C1F8A8013949091D086040F2C53061
:105230003349088000203749088001AB00224FF62F
:10524000C3712748006802F072FA01202F490860F4
:105250002F49C1F8A8012D49091D086002201E49E7
:10526000C870FCF7C7FD01202949C1F89801FA2050
:10527000FFF735FB0020254918310860FA20FFF7B9
:105280002EFB01202249C1F89801FA20FFF727FBE5
:1052900000201E49183108604FF44870FFF71FFBCB
:1052A0004FE72DE9F04F87B004461B480088A04225
:1052B00003DD002007B0BDE8F08F1748B0F8780094
:1052C000A04201DA1548F5E74FF000084FF03D091C
:1052D0001F2749E09A020020AA010020FE010020B9
:1052E000BC020020F7010020810100200101002004
:1052F000E6010020F8010020F0010020F10100206B
:10530000E0010020EC0100208C020020808121427D
:10531000008021428A0200200E02002000009643F5
:10532000F94830F81700A04208DDB94609EB08003B
:1053300000EBD071C1F347010F4615E0F24830F899
:105340001700A04208DAB84609EB080000EBD0715C
:10535000C1F347010F4607E007EB8706304604F02C
:10536000C5FF05462846A5E7A9EB08000128D7D1C7
:1053700007EB8706E44931F8180004F0D0FF0690E7
:10538000E14931F8190004F0CAFF0590304604F0F5
:10539000ADFF0490DDE9050105F070F803902046AB
:1053A00004F0BDFF0190069905F068F8D749029016
:1053B00004F0BAFF8346039904F07AFE824604990A
:1053C00004F0EAFD0546284674E72DE9F04F89B060
:1053D00000240025002600BF002700BF4FF0010871
:1053E0004FF00109F0E00A210020FAF76AFF0446B5
:1053F0000A210120FAF765FF064640F6077084424D
:1054000008DB08AB0122C2480188C248006802F0EC
:105410008EF973E040F6CF50844208DB08AB0122DE
:10542000BD480188BB48006802F081F966E008AB1E
:105430000022B7480188B748006802F078F9B4F54F
:10544000E87F02DA42F2107525E040F669508442A6
:1054500002DB45F2D5251EE0B04804FB00FB00202E
:10546000CDE904B0AEA00CC805991BEB0200594170
:10547000CDE9020104EB8400C0EB8410C0F5242ABE
:10548000002003465246CDE906A0029804F083FAB4
:105490000546CDE90001A8B2FFF703FF824604F0FC
:1054A000F9FEA14908800846008800EBC0000521EC
:1054B00090FBF1F020309C49088008460088B0F548
:1054C000967F11DB08460088B0F5B97F0CDA0846F4
:1054D0000088642190FBF1F201FB120092490988D7
:1054E00008449149088009E08F480088B0F5B97FE9
:1054F00004DB8D48008846308B490880B6F55D6F27
:1055000012DD0020894908800120894908700020A7
:1055100088490871B8F1000F53D0FCF753FC4FF0E5
:1055200000084FF001094CE0012082490871B9F1EF
:10553000000F05D0FCF746FC4FF000094FF00108C2
:1055400000207B490870B6F5E87F02DA42F2107756
:1055500025E040F66950864202DB45F2D5271EE081
:105560006E4806FB00FB0020CDE904B06CA00CC81F
:1055700005991BEB02005941CDE9020106EB8600BB
:10558000C0EB8610C0F5242A002003465246CDE920
:1055900006A0029804F0FFF90746CDE90001B8B271
:1055A000FFF77FFE824604F075FE604908800846DA
:1055B000008800EBC000052190FBF1F020305B4932
:1055C00008806420FFF78BF90DE77CB500240025E7
:1055D000002611E301AA00215748006802F02EFAC4
:1055E0000446701C86B2152C57D2DFE804F0560B27
:1055F0005779C3DBE75656F7F5F4F3F2F1565656F2
:105600005656F0004D48008828B14C4800884C4957
:105610000988884241D101AB00224FF6FF713D4815
:10562000006802F084F84748008847490988084321
:105630004249088001AB01220846018835480068CC
:1056400002F075F8012041490860002040490870C7
:105650004049087040490870404908704FF4AF70E5
:105660003F490880E1203F49088001203E490870F9
:10567000304988703B48018839480088FBF766FC50
:10568000012035490870FCF7D0FAFCF7B3FB344829
:10569000028801210620FCF7F5FAA0E201AB002206
:1056A0004FF6FF711B48006802F041F8244800885B
:1056B0002249088001AB012208460188154800688C
:1056C00002F035F8012021490860002026490870C1
:1056D00026490870022017498870FCF7AFFA7EE26D
:1056E00001AB00930023032201210A48006801F066
:1056F000C2FE1D48007830B101201D49087000200D
:105700001249283108606AE20E0200200000A04021
:1057100090020020BC0200209602002060011200CE
:105720000000905F01000000E0010020EC0100207B
:1057300063000020AA010020A80200208A020020A5
:105740008E0200208C0200209A02002080812142DB
:10575000F0010020F1010020F7010020F8010020F5
:10576000E2010020E6010020F9010020FA010020FA
:10577000FC0100200DB9012000E00020C5B245B1B8
:1057800001AB0122FA480188FA48006801F0CFFF16
:1057900007E001AB0022F6480188F648006801F0F6
:1057A000C6FF1CE201AB0122F3480188F148006802
:1057B00001F0BDFF0120F149087010E201AB0022A9
:1057C000ED480188EB48006801F0B1FF07E205E20F
:1057D00001E290E155E1BCE085E0FFE7E8480078B0
:1057E00010B30020E6490870E6480078012807D188
:1057F000E5480088E54909880844E34908800AE04B
:10580000E0480078022806D1E1480088DF4909888D
:105810000844DF49088001AB0122D7480188D548F8
:10582000006801F084FF26E0D6480078012805D101
:10583000D5480088401DD44908801CE0D148007834
:10584000022805D1D2480088401DD149088012E0C5
:10585000D0480078012805D1CF480078401CCE49B7
:10586000087008E0CB480078022804D1CB480078C3
:105870000A30CA490870C4480088C9490988884262
:1058800003DDC7480088C0490880C1480088C54971
:105890000988884203DDC3480088BD490880BE48A6
:1058A0000078632802DD0020BB490870BB480078FF
:1058B000322802DD0020B9490870B248007801287A
:1058C00006D1B148028801210320FCF7DBF909E089
:1058D000AC480078022805D1AD4802880221032097
:1058E000FCF7D0F97BE1A7480078012805D1A6484C
:1058F0000088401DA449088012E0A64800780128CD
:1059000005D1A5480078401CA349087008E0A148CB
:105910000078022804D1A14800780A309F49087015
:10592000994800889E490988884203DD9C48008880
:105930009549088098480078632802DD0020964940
:10594000087096480078322802DD002093490870DC
:1059500045E195480078002835D00020924908702C
:105960008848007801280FD187480088B42807DDCF
:105970008548008885490988401A8349088019E0CC
:10598000B4208149088015E07E480078022811D1B2
:105990007F48008885490988884207DD7C4800885F
:1059A0007A490988401A7A49088003E07F480088CC
:1059B0007749088001AB01226F4801886D48006873
:1059C00001F0B5FE47E06F48007801280DD16E4820
:1059D0000088B42805D06C480088401F6A490880B8
:1059E00039E0B4206849088035E06648007802282C
:1059F00010D1674800886D490988884205DD6448F0
:105A00000088401F6249088025E068480088604996
:105A1000088020E05F48007801280CD15E480078BB
:105A200028B15D480078401E5B49087013E0632090
:105A3000594908700FE05748007802280BD15748A1
:105A4000007828B1554800780A385449087002E0B7
:105A50003220524908704B480078012806D14A4844
:105A6000028801210420FCF70DF909E0454800787F
:105A7000022805D14648028802210420FCF702F9D9
:105A8000ADE04048007801280DD13F480088B42897
:105A900005DD3D480088401F3B4908802AE0B420CE
:105AA0003949088026E03B480078012812D138485F
:105AB00000883E490988884207DD35480088334917
:105AC0000988401A3249088014E038480088304973
:105AD00008800FE02F48007802280BD12F4800786B
