:020000040800F2
:1000000048280020D1010008996100089B61000880
:100010009F610008A3610008A761000800000000BC
:10002000000000000000000000000000AB610008BC
:10003000AD610008000000000F9500087946000837
:10004000EB010008EB010008EB010008EB010008E0
:10005000EB010008EB010008EB010008EB010008D0
:10006000EB010008EB010008EB010008EB010008C0
:10007000EB010008EB0100084F1B0008EB01000832
:10008000EB010008EB010008EB010008EB010008A0
:10009000EB010008EB010008EB010008EB01000890
:1000A000EB010008EB010008EB010008EB01000880
:1000B000EB0100084F050008EB010008EB01000808
:1000C000EB010008EB010008EB010008EB01000860
:1000D000EB01000831480008EB010008EB010008C3
:1000E000EB010008EB010008EB01000800F002F84A
:1000F00000F061F80AA090E8000C82448344AAF161
:100100000107DA4501D100F056F8AFF2090EBAE85E
:100110000F0013F0010F18BFFB1A43F0010318473B
:10012000B8A20000D8A200000A444FF0000C10F85A
:10013000013B13F0070408BF10F8014B1D1108BF65
:1001400010F8015B641E05D010F8016B641E01F805
:10015000016BF9D113F0080F1EBF10F8014BAD1C55
:100160000C1B09D16D1E58BF01F801CBFAD505E073
:1001700014F8016B01F8016B6D1EF9D59142D6D3CD
:10018000704700000023002400250026103A28BFF5
:1001900078C1FBD8520728BF30C148BF0B607047F9
:1001A000642909F04782002070471FB5AFF3008033
:1001B0001FBD10B510BD09F0B0FC1146FFF7F5FFEB
:1001C00005F07DFF09F0CEFCFFF7F3FF04F0D6FA4F
:1001D0000948804709480047FEE7FEE7FEE7FEE7DB
:1001E000FEE7FEE7FEE7FEE7FEE7FEE70448054917
:1001F000054A064B7047000079620008ED000008D0
:1002000048220020482800204824002048240020BC
:1002100000B587B001214FF4017002F0E7FF4FF401
:10022000004002F047FF0320ADF8040000208DF8E5
:10023000070001A92E4802F02FFD2E4802F0B4FA63
:10024000002002908DF80C008DF80D004FF4602016
:1002500004900020059001208DF8180002A925487F
:1002600002F0C9FA0121234802F0F0FA214802F015
:100270000FFB00BF1F4802F010FB0028FAD11D48F9
:1002800002F015FB00BF1B4802F016FB0028FAD154
:1002900007B000BD10B504460723012221461548CA
:1002A00002F03FFB0121134802F010FB00BF0221C6
:1002B000104802F05FFC0028F9D00E4802F096FBCF
:1002C00010BD2DE9F04104460D460026002708E048
:1002D0002046FFF7DFFF0644052004F01EFA781CD5
:1002E000C7B2AF42F4DBB6FBF5F080B2BDE8F081F7
:1002F000000801400024014008B50121082002F057
:1003000075FF4020ADF8000010208DF80300032099
:100310008DF802006946044802F0BEFC4021024804
:1003200002F064FD08BD0000000C014008B5012189
:10033000182002F05BFF4FF42870ADF80000482051
:100340008DF803006946074802F0A6FC4FF46040B0
:10035000ADF8000048208DF803006946024802F01D
:100360009BFC08BD000C01400010014010B54E4838
:100370000078012815D14D480078012811D04A484D
:10038000401E0078401C4849491E08700846007805
:10039000192806D90020891C0870891E0870491C7C
:1003A00008704FF40051424802F004FD3E491831F4
:1003B0000870153901F11402127851F822008047B3
:1003C00039491731087010BD10B5FFF7CFFF10BDC8
:1003D00035481830007808B9012070470020FCE744
:1003E00031481830007808B9022070470020FCE737
:1003F0002D481830007808B9032070470020FCE72A
:1004000029481830007888B92748801E0078401C99
:100410002549891E087008460078502804D3012019
:1004200024490870042070470320FCE71E48801E02
:100430000078502822D201201F4908701A48401C19
:100440000078401C1849491C08700120491E08709A
:10045000481C007802280FD1481E007819280BD2BA
:100460000020491C0870891E0870491C0870012072
:100470000E4908700420D6E70420D4E70420D2E710
:1004800009481830007840B90748801E0078401CA1
:100490000549891E0870032070470020054908702F
:1004A0000149891E0870F7E70500002002000020BE
:1004B00000100140010000200000002008B50121CB
:1004C000182002F093FE10208DF8030003208DF811
:1004D00002004FF48070ADF800006946044802F055
:1004E000DBFB4FF48071024802F07EFC08BD000087
:1004F000000C01407FB504460D460121022002F0A8
:1005000082FEADF80840ADF804500020ADF80A00B6
:10051000ADF8060001A9634802F09EFF01224121C7
:10052000604803F0E5FA1D208DF8000000208DF8EA
:10053000010003208DF8020001208DF803006846B9
:1005400002F0C7F80121574803F0ADFA7FBD10B59E
:100550000121544803F049FD18B10121514803F02D
:1005600055FD10BD30B589B004460D46012102206D
:1005700002F049FE0121092002F038FE01214A481B
:1005800002F055FC2020ADF8200018208DF8230043
:1005900003208DF8220008A9444802F07DFBADF845
:1005A0001840ADF814500020ADF81A00ADF8160050
:1005B00005A93C4802F050FF7020ADF8040001206E
:1005C000ADF806000020ADF80A00ADF80C0001A956
:1005D000344802F0C0FF0821324803F09AFB0121A1
:1005E000304803F05EFB01212E4803F05CFA09B0AD
:1005F00030BD10B52E48007810F0800F4CD101218D
:100600002C4803F0F2FCD0B12948007810F0400FDC
:1006100015D02748007800F03F003F280AD1244831
:10062000007840F08000224908704FF6FF702249A0
:10063000088004E01E480078401C1D490870022113
:100640001C4803F0D2FC38B31948007810F0400F72
:100650000FD01748007840F0800015490870154801
:1006600003F0A4FC144908800021124803F0B3FBF6
:1006700012E000200E4908700F49088000210D4843
:1006800003F07EFC0A48007840F0400008490870FA
:100690000221084803F09FFB0321064803F0B6FC43
:1006A00010BD00000004004000081A00000C0140CA
:1006B0001E000020000C00402000002008B5012191
:1006C000152002F093FD10208DF8030003208DF813
:1006D000020040F20340ADF800006946044802F011
:1006E000DBFA40F20341024802F07EFB08BD000045
:1006F000000C014010B554480078012815D153482A
:100700000078012811D05048401E0078401C4E4906
:10071000491E087008460078192806D90020891C4F
:100720000870891E0870491C08704FF40071484811
:1007300002F040FB444918310870153901F11402E8
:10074000127851F8220080473F491731087010BDD8
:1007500010B5FFF7CFFF10BD3B481830007808B93F
:10076000012070470020FCE737481830007808B9AE
:10077000022070470020FCE733481830007810BB97
:100780000120344908703048401C0078401C2E4934
:10079000491C08700120491E0870481C0078022876
:1007A0000FD1481E007819280BD20020491C087070
:1007B000891E0870491C0870012024490870042013
:1007C00070470320FCE70020FAE71F481830007844
:1007D00010BB1D48801E0078401C1B49891E0870F4
:1007E000081D007850B908460078642804D100201C
:1007F00008700120091D0870032070471248801EF0
:100800000078322806D100200F49891E0870012087
:10081000114908700320F0E70420EEE70A48183079
:10082000007840B90848801E0078401C0649891E9F
:100830000870032070470020074908700249891E8C
:100840000870091D0870F5E7290000202600002027
:10085000000C0140240000202500002010B54D4868
:100860000078012815D14C480078012811D049485A
:10087000401E0078401C4749491E08700846007811
:10088000192806D90020891C0870891E0870491C87
:1008900008704FF40041414802F08CFA3D4918318C
:1008A0000870153901F11402127851F822008047BE
:1008B00038491731087010BD10B5FFF7CFFF10BDD4
:1008C00034481830007808B9012070470020FCE750
:1008D00030481830007808B9022070470020FCE743
:1008E0002C481830007808B9032070470020FCE736
:1008F00028481830007888B92648801E0078401CA7
:100900002449891E087008460078502804D3012025
:1009100023490870042070470320FCE71D48801E0F
:100920000078502822D201201E4908701948401C26
:100930000078401C1749491C08700120491E0870A6
:10094000481C007802280FD1481E007819280BD2C5
:100950000020491C0870891E0870491C087001207D
:100960000D4908700420D6E70420D4E70420D2E71C
:1009700008481830007840B90648801E0078401CAE
:100980000449891E08700320704700200149891E10
:100990000870F9E74900002046000020000C0140E3
:1009A00045000020440000200020FB4908607047FB
:1009B0000120F949086070470020F8490860704735
:1009C0000120F649086070470020F449091F0860BB
:1009D00070470120F149091F0860704770B504464F
:1009E0000E46002516E0FFF7E7FF022003F073FE36
:1009F00004F08000802802D1FFF7EBFF01E0FFF751
:100A0000E3FFFFF7DDFF022003F065FE6006040E42
:100A1000681CC5B2B542E6DB70BD10B50446FFF7F1
:100A2000C3FF04218020FFF7D9FF08212046FFF7EC
:100A3000D5FFFFF7BDFF10BD2DE9F04104460D467F
:100A40001646FFF7B1FF0321A020FFF7C7FFA1065D
:100A5000080E0621FFF7C2FF002706E028780821CC
:100A6000FFF7BCFF6D1C781CC7B2B742F6DBFFF77F
:100A70009FFFBDE8F08170B504460D46FFF794FF77
:100A80000321A020FFF7AAFFA106080E0621FFF709
:100A9000A5FF08212846FFF7A1FFFFF789FF70BDDA
:100AA00070B504460D46FFF77FFF0321A020FFF736
:100AB00095FFA106080E0621FFF790FF04212846A6
:100AC000FFF78CFFFFF774FF70BD10B50120B2492E
:100AD000091D08600B22B2490020FFF7ADFF10BDD1
:100AE00010B50B22AF490020FFF7A6FF0020AA494E
:100AF000091D086010BD08B501210D2002F076FB2C
:100B00000121A94802F093F910208DF80300032079
:100B10008DF802001820ADF800006946A34802F0E5
:100B2000BBF81821A14802F05FF94FF41840ADF866
:100B3000000069469E4802F0AFF84FF418419C4807
:100B400002F052F90A2003F0E8FD5220FFF765FF9A
:100B50003020FFF762FF0020FFF75FFF0A20FFF75A
:100B60005CFF0220FFF759FF0620FFF756FF0A201F
:100B700003F0D3FDFFF7B4FF4FF4FA7003F0CDFD9F
:100B8000FFF7A3FF4FF4FA7003F0C7FDFFF7A8FFCC
:100B90004FF4FA7003F0C1FDFFF797FF4FF4FA70BE
:100BA00003F0BBFDFFF79CFF4FF4FA7003F0B5FDB7
:100BB000FFF78BFF4FF4FA7003F0AFFD08BD38B5B7
:100BC00004464FF47A7094FBF0F100FB114064216D
:100BD00090FBF1F0C0B28DF80000642094FBF0F1BE
:100BE00000FB11400A2190FBF1F0C0B28DF801002A
:100BF0000A2094FBF0F100FB1140C0B28DF8020016
:100C00009DF800006B49085C8DF800009DF801001C
:100C1000085C8DF801009DF80200085C8DF8020068
:100C2000032269460E20FFF707FF00205A49091DDD
:100C3000086038BD08B500200090032269460E20E8
:100C4000FFF7FAFE00205449091D086008BD38B5B9
:100C500004464FF47A7094FBF0F100FB11406421DC
:100C600090FBF1F0C0B28DF80000642094FBF0F12D
:100C700000FB11400A2190FBF1F0C0B28DF8010099
:100C80000A2094FBF0F100FB1140C0B28DF8020085
:100C90009DF800004749085C8DF800009DF80100B0
:100CA000085C8DF801009DF80200085C8DF80200D8
:100CB0004148007858B1414800788DF800003F481D
:100CC00040788DF801003D4880788DF802000322BD
:100CD00069460820FFF7B0FE00202F49091D086073
:100CE00038BD38B504464FF47A7094FBF0F100FB40
:100CF0001140642190FBF1F0C0B28DF80000642037
:100D000094FBF0F100FB11400A2190FBF1F0C0B21E
:100D10008DF801000A2094FBF0F100FB1140C0B2F5
:100D20008DF802009DF800002249085C8DF8000053
:100D30009DF80100085C8DF801009DF80200085C38
:100D40008DF802001E48007830B100208DF80000B8
:100D50008DF801008DF80200032269460620FFF796
:100D60006BFE00200C49091D086038BD10B50B2230
:100D700014490020FFF760FE00200749091D0860A4
:100D800010BD10B50B2210490020FFF755FE0020C2
:100D90000149091D086010BD8C812142B00121422A
:100DA000340300207100002000023000000C0140DC
:100DB00000080140D000002064000020BE00002098
:100DC00065000020660000209200002010B50B2274
:100DD000AB490020FFF730FE0020AA49086010BD93
:100DE00010B50B22A8490020FFF726FE0020A549D8
:100DF000086010BD10B50B22A4490020FFF71CFEAF
:100E00000020A049086010BD10B50B22A0490020A9
:100E1000FFF712FE00209B49086010BD10B59D48E9
:100E2000007800F0F7009B4908700846007840F011
:100E300010000870084601781420FFF71CFE0020FF
:100E40009049086010BD10B59248007800F0EF009E
:100E5000904908700846007840F00800087008467D
:100E600001781420FFF707FE00208649086010BDB6
:100E700010B58848007800F0DF0086490870084601
:100E8000007840F040000870084601781420FFF711
:100E9000F2FD00207B49086010BD10B57D48007848
:100EA00000F0BF007B4908700846007840F0200041
:100EB0000870084601781420FFF7DDFD0020714915
:100EC000086010BD38B504464FF47A7094FBF0F119
:100ED00000FB1140642190FBF1F0C0B28DF80000DE
:100EE000642094FBF0F100FB11400A2190FBF1F02B
:100EF000C0B28DF801000A2094FBF0F100FB114014
:100F0000C0B28DF802009DF800006349085C8DF8BE
:100F100000009DF80100085C8DF801009DF80200BA
:100F2000085C8DF80200032269460220FFF784FD69
:100F300000205449086038BD10B5032257490820E5
:100F4000FFF77AFD00204F49086010BD70B50446D8
:100F50000D46D0204F490870084601781420FFF74D
:100F60008AFDFFF7E9FF2046FFF729FE2846FFF735
:100F7000A9FF00204349086070BD10B580211D20E5
:100F8000FFF779FD10BD10B500211D20FFF773FD9F
:100F900010BD38B50446642094FBF0F100FB11400D
:100FA0000A2190FBF1F0C0B28DF800000A2094FBFA
:100FB000F0F100FB1140C0B28DF801009DF8000077
:100FC0003549085C8DF800009DF80100085C8DF83B
:100FD0000100022269460C20FFF72EFD002029495E
:100FE000086038BD08B500200090022269460C2038
:100FF000FFF722FD00202349086008BD38B50446EC
:10100000642094FBF0F100FB11400A2190FBF1F009
:10101000C0B28DF800000A2094FBF0F100FB1140F3
:10102000C0B28DF801009DF800001B49085C8DF8E6
:1010300000009DF80100085C8DF80100022269465D
:101040001020FFF7F9FC00200E49086038BD08B5F4
:1010500000200090022269461020FFF7EDFC0020DE
:101060000849086008BD08B50020009003226946C1
:101070000220FFF7E1FC00200249086008BD0000E3
:101080009D00002090812142A8000020B300002094
:101090007C00002062000020D0000020BE00002064
:1010A00010B54D480078012815D14C48007801282A
:1010B00011D04948401E0078401C4749491E08701D
:1010C00008460078192806D90020891C0870891E56
:1010D0000870491C08704FF40041414801F06AFE55
:1010E0003D4918310870153901F11402127851F890
:1010F0002200804738491731087010BD10B5FFF73E
:10110000CFFF10BD34481830007808B9012070476F
:101110000020FCE730481830007808B902207047FA
:101120000020FCE72C481830007808B903207047ED
:101130000020FCE728481830007888B92648801E2F
:101140000078401C2449891E087008460078502801
:1011500004D3012023490870042070470320FCE7D2
:101160001D48801E0078502822D201201E49087098
:101170001948401C0078401C1749491C0870012080
:10118000491E0870481C007802280FD1481E0078BC
:1011900019280BD20020491C0870891E0870491CB0
:1011A000087001200D4908700420D6E70420D4E718
:1011B0000420D2E708481830007840B90648801E5D
:1011C0000078401C0449891E0870032070470020E5
:1011D0000149891E0870F9E7E5000020E2000020BF
:1011E000000C0140E1000020E000002010B54E4856
:1011F0000078012815D14D480078012811D04A48BF
:10120000401E0078401C4849491E08700846007876
:10121000192806D90020891C0870891E0870491CED
:1012200008702021424801F0C5FD3F49183108707F
:10123000153901F11402127851F8220080473A4919
:101240001731087010BD10B5FFF7D0FF10BD36483C
:101250001830007808B9012070470020FCE73248B8
:101260001830007808B9022070470020FCE72E48AB
:101270001830007808B9032070470020FCE72A489E
:101280001830007888B92848801E0078401C26490C
:10129000891E087008460078502804D3012025498B
:1012A0000870042070470320FCE71F48801E007868
:1012B000502822D20120204908701B48401C007889
:1012C000401C1949491C08700120491E0870481C1F
:1012D000007802280FD1481E007819280BD2002070
:1012E000491C0870891E0870491C087001200F49AC
:1012F00008700420D6E70420D4E70420D2E70A4887
:101300001830007840B90848801E0078401C064913
:10131000891E0870032070470020064908700249A2
:10132000891E0870F7E70000050100200201002077
:10133000000C0140010100200001002010B54E48C2
:101340000078012815D14D480078012811D04A486D
:10135000401E0078401C4849491E08700846007825
:10136000192806D90020891C0870891E0870491C9C
:1013700008704FF48041424801F01CFD3E4918318D
:101380000870153901F11402127851F822008047D3
:1013900039491731087010BD10B5FFF7CFFF10BDE8
:1013A00035481830007808B9012070470020FCE764
:1013B00031481830007808B9022070470020FCE757
:1013C0002D481830007808B9032070470020FCE74A
:1013D00029481830007888B92748801E0078401CBA
:1013E0002549891E087008460078502804D301203A
:1013F00024490870042070470320FCE71E48801E23
:101400000078502822D201201F4908701A48401C39
:101410000078401C1849491C08700120491E0870BA
:10142000481C007802280FD1481E007819280BD2DA
:101430000020491C0870891E0870491C0870012092
:101440000E4908700420D6E70420D4E70420D2E730
:1014500009481830007840B90748801E0078401CC1
:101460000549891E0870032070470020054908704F
:101470000149891E0870F7E725010020220100209C
:1014800000100140210100202001002010B54D482E
:101490000078012815D14C480078012811D049481E
:1014A000401E0078401C4749491E087008460078D5
:1014B000192806D90020891C0870891E0870491C4B
:1014C00008704FF40041414801F074FC3D49183167
:1014D0000870153901F11402127851F82200804782
:1014E00038491731087010BD10B5FFF7CFFF10BD98
:1014F00034481830007808B9012070470020FCE714
:1015000030481830007808B9022070470020FCE706
:101510002C481830007808B9032070470020FCE7F9
:1015200028481830007888B92648801E0078401C6A
:101530002449891E087008460078502804D30120E9
:1015400023490870042070470320FCE71D48801ED3
:101550000078502822D201201E4908701948401CEA
:101560000078401C1749491C08700120491E08706A
:10157000481C007802280FD1481E007819280BD289
:101580000020491C0870891E0870491C0870012041
:101590000D4908700420D6E70420D4E70420D2E7E0
:1015A00008481830007840B90648801E0078401C72
:1015B0000449891E08700320704700200149891ED4
:1015C0000870F9E74501002042010020000C0140AD
:1015D000410100204001002010B54D48007801284D
:1015E00015D14C480078012811D04948401E007898
:1015F000401C4749491E087008460078192806D93A
:101600000020891C0870891E0870491C08704FF45E
:101610000041414801F0CEFB3D49183108701539B1
:1016200001F11402127851F822008047384917312D
:10163000087010BD10B5FFF7CFFF10BD344818304B
:10164000007808B9012070470020FCE730481830C6
:10165000007808B9022070470020FCE72C481830B9
:10166000007808B9032070470020FCE728481830AC
:10167000007888B92648801E0078401C2449891EBD
:10168000087008460078502804D3012023490870C8
:10169000042070470320FCE71D48801E0078502876
:1016A00022D201201E4908701948401C0078401CB5
:1016B0001749491C08700120491E0870481C007811
:1016C00002280FD1481E007819280BD20020491C8F
:1016D0000870891E0870491C087001200D490870A7
:1016E0000420D6E70420D4E70420D2E708481830C5
:1016F000007840B90648801E0078401C0449891EC5
:1017000008700320704700200149891E0870F9E71E
:101710006501002062010020000C014061010020F1
:101720006001002010B54E480078012815D14D48C1
:101730000078012811D04A48401E0078401C4849D2
:10174000491E087008460078192806D90020891C0F
:101750000870891E0870491C08708021424801F0F9
:1017600029FB3F4918310870153901F1140212782C
:1017700051F8220080473A491731087010BD10B562
:10178000FFF7D0FF10BD36481830007808B90120A7
:1017900070470020FCE732481830007808B9022072
:1017A00070470020FCE72E481830007808B9032065
:1017B00070470020FCE72A481830007888B928488C
:1017C000801E0078401C2649891E08700846007853
:1017D000502804D3012025490870042070470320B5
:1017E000FCE71F48801E0078502822D201202049A3
:1017F00008701B48401C0078401C1949491C08709F
:101800000120491E0870481C007802280FD1481E8C
:10181000007819280BD20020491C0870891E087016
:10182000491C087001200F4908700420D6E70420E5
:10183000D4E70420D2E70A481830007840B90848B5
:10184000801E0078401C0649891E087003207047DE
:101850000020064908700249891E0870F7E7000059
:101860008501002082010020000C01408101002040
:101870008001002000206249C873087448744861E0
:101880000883488388604860086070477EB56E466C
:1018900000210A460B460EC600BF00240025584A08
:1018A0005083128B564B5B8B9A420ADB544A128B45
:1018B000534B5B8BD21A534B1A8064229B1C1A80A9
:1018C00007E04F4A528B4E4B1B8BD21A4D4B9B1C41
:1018D0001A804C4A1288322A04DB4A4A921C128827
:1018E000322A64DA464A128B454B5B8BD21A00923D
:1018F000434A5268424B9A601A4612685A60009AEC
:101900001A601A4612685B68D21A00923C4A126842
:101910003B4B5B68A2EB4302394B9B681A44029233
:10192000374AD27B009B5A430092354A127C344B93
:101930001B685A430192324A527C029B5A430292DC
:10194000DDE900231A44029B1A4400922C4B009AB2
:101950005B691A442A4B5A611A465269002A1BDDF8
:101960001A465269322392FBF3F2274B1A801A4629
:101970001288264B1B889A4203DC244A1288224B89
:101980001A80214A1288224B1B889A4208DB204A7F
:1019900012881D4B1A8003E01C4A12881A4B1A80C9
:1019A000194A128832235A43154B5A6126E0144AC9
:1019B000128B134B5B8B9A4210DB154A1288124B29
:1019C0001A8000220E4B5A619A605A601A600E4AC1
:1019D000128832235A430A4B5A610FE00B4A12888D
:1019E000094B1A800022064B5A619A605A601A60AD
:1019F000054A128832235A43014B5A617EBD0000CA
:101A000040030020A6010020A0010020A401002026
:101A1000A20100202DE9F04104460D4617461E465E
:101A20000121084601F0D5FB204602F0F7FCFF48F3
:101A30000680FF48056047601020FD498860084621
:101A4000C660002008618020486100208861C8616C
:101A500008624FF48050486200208862204602F0FD
:101A600085FDBDE8F08110B504460021204602F056
:101A7000A8FDEE480188EF4802F0B8FD012120469C
:101A800002F09FFD10BD08B50121084601F0A1FB41
:101A9000E848143002F0C2FCE748E5490860E7482E
:101AA0004860002088603220C860002008618020E3
:101AB000486100208861C86108624FF48050486224
:101AC00000208862DB48143002F050FD01224021E2
:101AD000D948001F02F09CFB0121D648143002F0C7
:101AE00070FDD44802F09AFCD348D1490860D4482C
:101AF0004860102088603220C86000200861802083
:101B0000486100208861C86108624FF480504862D3
:101B100000208862C74802F029FD01220221C54841
:101B200002F05BFD01228021C348001F02F070FB20
:101B30000E208DF8000003208DF801008DF80200C2
:101B400001208DF80300684600F0C3FD08BD10B504
:101B50004FF4005002F050FD30B14FF4005002F04D
:101B60005EFD0020B749087010BD002203E000238D
:101B70008354531CDAB28A42F9DB704770B50446CD
:101B80000D4600BFAF4800780128FBD02A46214609
:101B9000AB4807F02BFE0021A64802F012FD2946B3
:101BA000A44802F023FD0121A24802F00AFD012011
:101BB000A449087070BD08B50121042001F016FB8E
:101BC00004208DF8030003208DF802002020ADF8DA
:101BD000000069469C4801F05FF81020ADF8000055
:101BE0006946994801F058F808BD08B597A0006803
:101BF000009004216846FFF7C1FF08BD08B594A016
:101C00000068009004216846FFF7B8FF08BD08B5DA
:101C100090A00068009004216846FFF7AFFF08BD60
:101C200008B58DA00068009004216846FFF7A6FF64
:101C300008BD08B589A00068009004216846FFF738
:101C40009DFF08BD7CB504460D46164684A103C918
:101C5000CDE900018DF801408DF802504FF47A7003
:101C600096FBF0F100FB1160642190FBF1F0C0B233
:101C70008DF80300642096FBF0F100FB11600A214F
:101C800090FBF1F0C0B28DF804000A2096FBF0F151
:101C900000FB1160C0B28DF8050007216846FFF710
:101CA0006DFF7CBDFEB504460D46164668466EA126
:101CB0008CC98CC08DF80240052095FBF0F100FB2B
:101CC0001150281A4FF47A7190FBF1F201FB1200C7
:101CD000642190FBF1F0C0B28DF80300052095FB64
:101CE000F0F100FB1150281A642190FBF1F201FB86
:101CF00012000A2190FBF1F0C0B28DF8040005201B
:101D000095FBF0F100FB1150281A0A2190FBF1F22B
:101D100001FB1200C0B28DF80500052096FBF0F122
:101D200000FB1160301A4FF47A7190FBF1F201FB65
:101D30001200642190FBF1F0C0B28DF8060005207E
:101D400096FBF0F100FB1160301A642190FBF1F278
:101D500001FB12000A2190FBF1F0C0B28DF80700E0
:101D6000052096FBF0F100FB1160301A0A2190FB70
:101D7000F1F201FB1200C0B28DF808006846FFF7CF
:101D8000FDFEFEBD38B504463AA0006800908DF80F
:101D9000024004216846FFF7F1FE38BD38B504461D
:101DA00035A0006800908DF8024004216846FFF7D6
:101DB000E5FE38BD00B585B00E2101A807F05CFD39
:101DC0002E48006800902E480088052190FBF1F213
:101DD00001FB12002A490988081A4FF47A7190FB16
:101DE000F1F201FB1200642190FBF1F0C0B28DF81A
:101DF000020023480088052190FBF1F201FB12004C
:101E00001F490988081A642190FBF1F201FB1200B6
:101E10000A2190FBF1F0C0B28DF803001848008849
:101E2000052190FBF1F201FB12002BE0B80100202C
:101E30005C03002044000240043801408803002075
:101E4000EC030020B001002000080140FE0101FF6A
:101E5000FE0102FFFE0A01FFFE0201FFFE0202FF79
:101E6000FE0000000000FF00FE0700000000000070
:101E700000FF0000FE0800FFFE0900FF9CA2000812
:101E8000E2010020FF490988081A0A2190FBF1F2BB
:101E900001FB1200C0B28DF80400FB480079E8B3E2
:101EA000FA480088052190FBF1F201FB1200F74986
:101EB0000988081A4FF47A7190FBF1F201FB1200C5
:101EC000642190FBF1F0C0B28DF80500EF48008866
:101ED000052190FBF1F201FB1200EC490988081A78
:101EE000642190FBF1F201FB12000A2190FBF1F05A
:101EF000C0B28DF80600E5480088052190FBF1F29C
:101F000001FB1200E1490988081A0A2190FBF1F24D
:101F100001FB1200C0B28DF8070009E0FFE70920BD
:101F20008DF8050006208DF8060000208DF80700CA
:101F3000D548C078012823D1D54800884FF47A715C
:101F400090FBF1F201FB1200642190FBF1F0C0B2B2
:101F50008DF80800CE48008890FBF1F201FB1200DA
:101F60000A2190FBF1F0C0B28DF80900C848008842
:101F700090FBF1F201FB1200C0B28DF80A003CE0C8
:101F8000C4480088052190FBF1F201FB1200C14911
:101F90000988081A4FF47A7190FBF1F201FB1200E4
:101FA000642190FBF1F0C0B28DF80800B9480088B8
:101FB000052190FBF1F201FB1200B6490988081ACD
:101FC000642190FBF1F201FB12000A2190FBF1F079
:101FD000C0B28DF80900AF480088052190FBF1F2EE
:101FE00001FB1200AB490988081A0A2190FBF1F2A3
:101FF00001FB1200C0B28DF80A0001208DF80B0021
:10200000A14800798DF80C009F48C0788DF80D002C
:102010009D4880788DF80E0002208DF80F00012079
:102020008DF81000FF208DF8110012216846FFF78F
:10203000A5FD05B000BD00B587B0122102A807F0CC
:102040001BFC9548006801908E4800884FF47A7117
:1020500090FBF1F201FB1200642190FBF1F0C0B2A1
:102060008DF806008748008890FBF1F201FB120012
:102070000A2190FBF1F0C0B28DF80700814800887A
:1020800090FBF1F201FB1200C0B28DF808007F480E
:1020900000884FF47A7190FBF1F201FB1200642189
:1020A00090FBF1F0C0B28DF809007848008890FBF1
:1020B000F1F201FB12000A2190FBF1F0C0B28DF8A1
:1020C0000A007248008890FBF1F201FB1200C0B2D6
:1020D0008DF80B0000208DF80C008DF80D008DF8A8
:1020E0000E008DF80F008DF810008DF81100684873
:1020F00000884FF47A7190FBF1F201FB1200642129
:1021000090FBF1F0C0B28DF812006148008890FB9E
:10211000F1F201FB12000A2190FBF1F0C0B28DF840
:1021200013005B48008890FBF1F201FB1200C0B283
:102130008DF81400574800884FF47A7190FBF1F243
:1021400001FB1200642190FBF1F0C0B28DF8150084
:102150005048008890FBF1F201FB12000A2190FB2D
:10216000F1F0C0B28DF816004A48008890FBF1F2F9
:1021700001FB1200C0B28DF8170001208DF8180085
:10218000FF208DF81900162101A8FFF7F7FC07B012
:1021900000BD2DE9FF4104460D4616461F463E4947
:1021A000091D684691E80C1180E80C110A20B4FB67
:1021B000F0F03C21B0FBF1F04FF47A71B0FBF1F29A
:1021C00001FB12006421B0FBF1F0C0B28DF80200F7
:1021D0000A20B4FBF0F03C21B0FBF1F06421B0FB2D
:1021E000F1F201FB12000A21B0FBF1F0C0B28DF850
:1021F00003000A20B4FBF0F03C21B0FBF1F00A210F
:10220000B0FBF1F201FB1200C0B28DF804003C20DB
:10221000B4FBF0F0B0FBF1F201FB1200C0B28DF89C
:1022200005004FF47A7095FBF0F100FB115064212A
:1022300090FBF1F0C0B28DF80600642095FBF0F140
:1022400000FB11500A2190FBF1F0C0B28DF807009D
:102250000A2095FBF0F100FB1150C0B28DF8080088
:102260004FF47A7096FBF0F100FB1160642190FB53
:10227000F1F0C0B28DF80900642096FBF0F100FB8C
:1022800011600BE0E2010020AA010020E80100201B
:10229000DE010020DC010020A0A200080A2190FB42
:1022A000F1F0C0B28DF80A000A2096FBF0F100FBB5
:1022B0001160C0B28DF80B00FF208DF80C000D21CD
:1022C0006846FFF75BFCBDE8FF813EB504460D465E
:1022D000EB4968460EC90EC04FF47A7094FBF0F1DA
:1022E00000FB1140642190FBF1F0C0B28DF80200B8
:1022F000642094FBF0F100FB11400A2190FBF1F007
:10230000C0B28DF803000A2094FBF0F100FB1140ED
:10231000C0B28DF804004FF47A7095FBF0F100FB29
:102320001150642190FBF1F0C0B28DF805006420DB
:1023300095FBF0F100FB11500A2190FBF1F0C0B2C7
:102340008DF806000A2095FBF0F100FB1150C0B299
:102350008DF80700FF208DF8080009216846FFF777
:102360000DFC3EBD1CB50446C5490C3103C9CDE981
:1023700000010A20B4FBF0F03C21B0FBF1F04FF477
:102380007A71B0FBF1F201FB12006421B0FBF1F0B5
:10239000C0B28DF802000A20B4FBF0F03C21B0FB83
:1023A000F1F06421B0FBF1F201FB12000A21B0FB55
:1023B000F1F0C0B28DF803000A20B4FBF0F03C212C
:1023C000B0FBF1F00A21B0FBF1F201FB1200C0B248
:1023D0008DF80400FF208DF8050006216846FFF700
:1023E000CDFB1CBD08B5A7A000680090042168467D
:1023F000FFF7C4FB08BD70B504460D46042D00DA96
:1024000070BD2078FE287ED1607810281CD2DFE8CD
:1024100000F01B081C30597BC6DFF8F9FAFBF3F219
:10242000F1F0A078012806D1E078FF2803D101203F
:102430009549087008E0A078022805D1E078FF28C7
:1024400002D101209149087017E1A078012806D136
:10245000E078FF2803D101208D49087008E0A078BA
:10246000022805D1E078FF2802D1002088490870B1
:1024700003E1A07801280BD12079FF2808D10120A1
:102480008449087084490870E0788449088018E01D
:10249000A078022801D1012000E00020A1780329C2
:1024A00001D1012100E0002108430AD02079FF2852
:1024B00007D101207749087077490870E07877499B
:1024C0000880DAE0A07801280BD12079FF2808D114
:1024D00001207349087073490870E0786F490880DB
:1024E00010E0A078022802D0A07803280AD1207931
:1024F000FF2807D101206A4908706A490870E0780E
:1025000066490880B9E0B9E0A078012820D1A07917
:10251000FF281DD1012064490870E0780A2190FB52
:10252000F1F201FB12006421484321790A2291FB58
:10253000F2F302FB131101EB810100EB4100617921
:1025400091FBF2F302FB131108445449088025E083
:10255000A078022802D0A07803281FD1A079FF28F4
:102560001CD1012050490870E0780A2190FBF1F25B
:1025700001FB12006421484321790A2291FBF2F306
:1025800002FB131101EB810100EB4100617991FB2A
:10259000F2F302FB13110844404908806DE0A07873
:1025A000012809D1E078FF2806D101203F490870B1
:1025B00000203F4908700AE0A078022807D1E0789F
:1025C000FF2804D10120394908703949087054E0C6
:1025D000A078012802D0A078022809D1E078FF284D
:1025E00006D134480288344801880120FFF75AFB9D
:1025F00043E037E026E019E00FE005E003E001E00A
:10260000FFE73AE039E038E0A078012804D1E0782B
:10261000FF2801D1FFF7CEFB2FE0A078012804D1DD
:10262000E078FF2801D1FFF706FD26E0A078012819
:1026300007D1E078FF2804D1002120480088FFF767
:1026400044FE1AE0A07801280BD1E078FF2808D1D9
:102650000023184802881A4801881A480068FFF7C2
:1026600098FD0AE0A078012806D1E078FF2803D180
:1026700014480068FFF776FE00BF00BFC0E6000008
:10268000B4A20008FE2201FF00000020B1010020DA
:10269000B701002080010020B4010020B201002019
:1026A00000010020B5010020B6010020200100201B
:1026B000F3010020E8010020E2010020DE010020FB
:1026C000DC0100200402002032490143324A11603B
:1026D000704770B5002100230F22C4780CB32E4C34
:1026E000246804F4E064C4F5E064210AC1F1040341
:1026F000CA40447804FA03F1847814402143090164
:10270000264C0678A155047804F01F050124AC403E
:1027100005786D114FF0E02606EB8505C5F8004100
:1027200009E0047804F01F040125A5401C4C06783C
:10273000761144F8265070BD1A4A0A400243164BDF
:102740001B1F1A60704741B1134A121D12680243E1
:102750004FF0E023C3F8102D07E00F4A121D126856
:1027600082434FF0E023C3F8102D7047042808D1AE
:102770004FF0E021096941F004014FF0E0221161BE
:1027800007E04FF0E021096921F004014FF0E02259
:10279000116170470000FA050CED00E000E400E074
:1027A00080E100E080FFFF1F10B50446F748844237
:1027B00008D10121401500F033FD0021601500F023
:1027C0002FFD17E0F248844208D10121001500F0E6
:1027D00027FD0021201500F023FD0BE0ED48844289
:1027E00008D10121C80300F01BFD00214FF4004077
:1027F00000F016FD10BD30B5002200234268E64C03
:1028000022400D790C6844EA052422434260826824
:10281000E24C2240D1E902542C434D7944EA45046C
:1028200022438260C26A22F470020C7C641EE4B20D
:10283000234342EA0352C26230BD002101600171AC
:1028400041718160C16001210174704721B18268CA
:1028500042F00102826003E0826822F0010282609D
:10286000704721B1826842F48072826003E082681E
:1028700022F480728260704710B50023CBB21AB187
:1028800044681C43446002E044689C43446010BDBB
:10289000816841F0080181607047014600208A6824
:1028A00012F0080F01D0012000E00020704781687D
:1028B00041F0040181607047014600208A6812F0EF
:1028C000040F01D0012000E00020704721B1826890
:1028D00042F4A002826003E0826822F4A0028260D7
:1028E0007047014600208A6812F4800F01D0012051
:1028F00000E00020704710B500220023426822F457
:1029000060424B1E42EA4332426010BD21B1426830
:1029100042F40062426003E0426822F400624260D6
:102920007047F0B500240025092911DDC468A1F124
:102930000A0606EB4607072606FA07F5AC43A1F19F
:102940000A0606EB460603FA06F52C43C4600CE0C3
:10295000046901EB4107072606FA07F5AC4301EBD2
:10296000410603FA06F52C430461072A0FDA446B8B
:10297000561E06EB86071F2606FA07F5AC43561EC1
:1029800006EB860601FA06F52C43446322E00D2A85
:102990000FDA046BD61F06EB86071F2606FA07F52B
:1029A000AC43D61F06EB860601FA06F52C430463FA
:1029B00010E0C46AA2F10D0606EB86071F2606FA90
:1029C00007F5AC43A2F10D0606EB860601FA06F503
:1029D0002C43C462F0BD21B1826842F4801282604F
:1029E00003E0826822F48012826070470146C86C5E
:1029F00080B2704765484C300068704721B142682A
:102A000042F48062426003E0426822F480624260E5
:102A1000704721B1426842F48052426003E042684C
:102A200022F48052426070470022826822F4E04221
:102A30000A438260704721B1826842F4004282609A
:102A400003E0826822F400428260704721B182680C
:102A500042F40212826003E0826822F40212826071
:102A60007047014600208A6812F4001F01D001203F
:102A700000E000207047F0B5002400250026092959
:102A800011DDC468A1F10A0707EB470C072707FA15
:102A90000CF5AC43A1F10A0707EB470703FA07F56A
:102AA0002C43C4600CE0046901EB410C072707FAD2
:102AB0000CF5AC4301EB410703FA07F52C43046125
:102AC000846BC4F30156D71C06F1010CA7EB0C076D
:102AD00007EB870C1F2707FA0CF5AC43D71C06F150
:102AE000010CA7EB0C0707EB870701FA07F52C434E
:102AF0008463F0BD10B500220023826B22F44012E3
:102B00004B1E42EA0352826310BD10B500230346F8
:102B100018460B441A6010BD0246002313461A469D
:102B200001F128000344186880B27047002242680F
:102B30001B4B1A400A4342607047416282627047F1
:102B40000022426822F01F020A434260704740B1EF
:102B50000E490831096841F40001124AC2F808140C
:102B600007E00A490831096821F400010D4AC2F85A
:102B7000081470470246002013680B4201D0012060
:102B800000E000207047CA43026070470024014003
:102B900000280140003C0140FFFEF0FFFDF7F1FF7F
:102BA000FFFD3FFF0020014070B5024600200023DA
:102BB00000240B125568CEB205EA060415681D42C2
:102BC00002D00CB1012000E0002070BD00220A12EA
:102BD000D34303607047000010B50446C7488442E1
:102BE00008D10121042000F01BFB0021042000F08B
:102BF00017FB46E0C248844208D10121082000F0BA
:102C00000FFB0021082000F00BFB3AE0BD48844296
:102C100008D10121102000F003FB0021102000F05A
:102C2000FFFA2EE0B848844208D10121202000F0AC
:102C3000F7FA0021202000F0F3FA22E0B3488442A2
:102C400008D10121402000F0EBFA0021402000F0E3
:102C5000E7FA16E0AE48844208D10121802000F056
:102C6000DFFA0021802000F0DBFA0AE0A948844264
:102C700007D10121801500F0D3FA0021A01500F042
:102C8000CFFA10BD10B50121084600F0C9FA0021A5
:102C9000012000F0C5FA10BDF0B500220023002489
:102CA00000250026002791F803C00CF00F0291F8D0
:102CB00003C01CF0100F03D091F802C04CEA0202CE
:102CC000B1F800C01CF0FF0F31D0066800242BE0E3
:102CD0004FF0010C0CFA04F5B1F800C00CEA050342
:102CE000AB4220D1A5004FF00F0C0CFA05F7BE4304
:102CF00002FA05FC4CEA060691F803C0BCF1280F65
:102D000006D14FF0010C0CFA04FCC0F814C00AE024
:102D100091F803C0BCF1480F05D14FF0010C0CFA3B
:102D200004FCC0F810C0641C082CD1D30660B1F8B4
:102D300000C0BCF1FF0F34DD466800242EE004F132
:102D4000080C4FF0010E0EFA0CF5B1F800C00CEAB9
:102D50000503AB4221D1A5004FF00F0C0CFA05F78B
:102D6000BE4302FA05FC4CEA060691F803C0BCF12A
:102D7000280F05D104F1080C0EFA0CFEC0F814E07F
:102D800091F803C0BCF1480F07D104F1080C4FF0D3
:102D9000010E0EFA0CFEC0F810E0641C082CCED315
:102DA0004660F0BD4FF6FF71018002218170042161
:102DB000C17070470246002093680B4201D0012089
:102DC00000E0002070470146886880B270470246E4
:102DD0000020D3680B4201D0012000E000207047A2
:102DE0000146C86880B27047016170474161704711
:102DF0000AB1016100E041617047C16070474FF462
:102E000080320A438261816182618269826970478E
:102E10000022414B1A684FF680731A4042EA0012B2
:102E20000A433D4B1A6070473C49C8617047F0B592
:102E3000002200230024002500F00046B6F1004FD8
:102E400002D1354EF46901E0334E7468C0F3034596
:102E500082B200F44016B6F5401F08D124F0706429
:102E60002D4E766826F070662B4F7E6012E000F4DF
:102E70008016B6F5801F06D1032606FA05F39C439B
:102E800044F0706406E0460D360102FA06F6B443DB
:102E900044F0706421B1460D360102FA06F634435F
:102EA00000F00046B6F1004F02D11B4EF46101E084
:102EB000194E7460F0BD30B500228B071C0F0F2334
:102EC00003FA04F2144B08338C1053F82440944353
:102ED0008D1043F825408C1053F824308C07240FB4
:102EE00000FA04F423430C4C08348D1044F82530C8
:102EF00030BD0A49DC31086070470000000801401D
:102F0000000C014000100140001401400018014075
:102F1000001C014000200140000001400000204250
:102F2000DB48006840F00100D94908600846406865
:102F3000D8490840D649486008460068D649084044
:102F4000D34908600846006820F4802008600846DD
:102F5000406820F4FE0048604FF41F00886070470E
:102F6000CB49096821F48031C94A116011460968CA
:102F700021F480211160B0F5803F03D0B0F5802F9F
:102F80000ED106E0C249096841F48031C04A11609F
:102F900007E0BF49096841F4A021BD4A116000E083
:102FA00000BF00BF704710B501460022002300207B
:102FB0004A11012A02D1B64C236806E0022A02D146
:102FC000B34C236A01E0B24C636A01F01F02012492
:102FD00094401C4201D0012000E0002010BD70B5DB
:102FE00000240025002600BF3120FFF7DCFF064645
:102FF000641CB4F5A06F01D0002EF5D03120FFF78E
:10300000D2FF08B1012500E00025284670BD00214F
:103010009F4A116821F0F80141EAC0011160704730
:103020009E49086070470022994B5A6822F47C122E
:1030300040EA01031A43964B5A6070479749086665
:1030400070470021924A516821F003010143516009
:1030500070478F48406800F00C00704700218C4A90
:10306000516821F0F0010143516070470021884A06
:10307000516821F4E0610143516070470021844AA6
:10308000516821F4605141EAC0015160704729B193
:103090007F4A527A02437E4B5A7206E07C4A527A49
:1030A000C343DBB21A407A4B5A7270477B49D8311E
:1030B000086070470021764A516821F4404101437D
:1030C000516070470021724A20321170704A82F8B4
:1030D0002010012802D004280AD104E001216C4A02
:1030E0002032117005E00521694A2032117000E09C
:1030F00000BF00BF70476A49086070476449096AA9
:103100000143634A1162704765494439086070475A
:1031100030B500210022002300245D4D6D6805F0CC
:103120000C0121B1042905D0082923D105E05D4D0A
:10313000056022E05B4D05601FE0554D6D6805F4AC
:103140007012534D6D6805F48033022505EB9242F1
:103150001BB9554D554305600BE04D4D6D6815F499
:10316000003F03D0504D5543056002E04D4D55439F
:10317000056002E04B4D056000BF00BF444D6D6827
:1031800005F0F0010909494D6C5C0568E5404560B2
:103190003F4D6D6805F4E061090A444D6C5C45687B
:1031A000E54085603A4D6D6805F46051C90A3F4DB0
:1031B0006C5C4568E540C560354D6D6805F440417F
:1031C000890B3A4D10356C5CC568B5FBF4F50561AB
:1031D00030BD29B12E4A526902432D4B5A6104E099
:1031E0002B4A526982432A4B5A61704729B1284AB7
:1031F00092690243264B9A6104E0254A9269824310
:10320000234B9A61704729B1214AD2690243204B6E
:10321000DA6104E01E4AD26982431D4BDA617047CD
:1032200029B11B4AD2680243194BDA6004E0184AFC
:10323000D2688243164BDA60704729B1144A12698A
:103240000243134B1A6104E0114A12698243104B86
:103250001A61704712494039086070470F49C864C5
:1032600070470B49C87170470948406A40F0807048
:1032700007494862704701460020054A92680A42A1
:1032800001D0012000E0002070470149887270479A
:10329000001002400000FFF8FFFFF6FE000042426F
:1032A0008004424200127A0000093D00BA01002069
:1032B00010B50446FF48844208D10121C014FFF72D
:1032C000AFFF0021E014FFF7ABFFC4E0B4F1804F83
:1032D00008D101210846FFF7B0FF00210120FFF7C8
:1032E000ACFFB8E0F448844208D101210220FFF786
:1032F000A4FF00210220FFF7A0FFACE0EF488442CA
:1033000008D101210420FFF798FF00210420FFF7D6
:1033100094FFA0E0EA48844208D101210820FFF789
:103320008CFF00210820FFF788FF94E0E5488442E5
:1033300008D101211020FFF780FF00211020FFF7A6
:103340007CFF88E0E048844208D101212020FFF77B
:1033500074FF00212020FFF770FF7CE0DB488442EF
:1033600008D101214014FFF75BFF00216014FFF733
:1033700057FF70E0D648844209D10121C804FFF705
:103380004FFF00214FF40020FFF74AFF63E0D148D0
:10339000844209D101210805FFF742FF00214FF4C3
:1033A0008010FFF73DFF56E0CB48844209D1012150
:1033B0004805FFF735FF00214FF40010FFF730FFFD
:1033C00049E0C648844208D101214020FFF735FF7B
:1033D00000214020FFF731FF3DE0C148844208D181
:1033E00001218020FFF729FF00218020FFF725FF22
:1033F00031E0BC48844208D101218015FFF71DFF50
:103400000021A015FFF719FF25E0B748844209D134
:1034100001210804FFF704FF00214FF48030FFF77B
:10342000FFFE18E0B148844209D101214804FFF7AA
:10343000F7FE00214FF40030FFF7F2FE0BE0AC483E
:10344000844208D101218804FFF7EAFE00214FF4ED
:103450008020FFF7E5FE10BD00220288954B9842C0
:103460000ED09A4B98420BD0B0F1804F08D0924BBF
:10347000984205D0914B984202D0914B984204D18A
:103480004FF68F731A404B881A438E4B984207D0E1
:103490008D4B984204D04FF6FF431A40CB881A4315
:1034A00002808B8883850B880385824B98420BD0E2
:1034B000864B984208D08C4B984205D08B4B984253
:1034C00002D08B4B984201D10B7A03860123838271
:1034D000704770B5002200230024058C4FF6FE765D
:1034E00035400584038C8488028B4FF68F752A4003
:1034F000B51E2A400D882A43751E2B400D892B438B
:103500004D882B436B4DA8420BD0704DA84208D07C
:10351000754DA84205D0754DA84202D0744DA84201
:1035200013D14FF6F7752B404D892B434FF6FB75A2
:103530002B408D882B434FF6FF652C404FF6FF55EF
:103540002C408D892C43CD892C4384800283CD88E7
:103550008586038470BD70B5002200230024058C8D
:103560004FF6EF7635400584038C8488028B48F64D
:10357000FF752A404FF6FF452A400D882D0642EA86
:1035800015424FF6DF752B400D892D0543EA154393
:103590004D882D0543EA1543464DA84202D04B4DB8
:1035A000A8421BD14FF67F752B404D892D0543EA6C
:1035B00015434FF6BF752B408D882D0543EA154303
:1035C0004FF6FF352C404FF2FF752C408D89AD042E
:1035D00044EA1544CD89AD0444EA1544848002834D
:1035E000CD880587038470BD70B5002200230024B8
:1035F000058C4FF6FF6635400584038C8488828BEA
:103600004FF68F752A404FF6FC752A400D882A43E5
:103610004FF6FF552B400D892D0643EA15434D8883
:103620002D0643EA1543234DA84202D0274DA84258
:103630001BD14FF2FF752B404D892D0643EA1543F0
:103640004FF6FF352B408D882D0643EA15434EF685
:10365000FF752C404DF6FF752C408D892D0544EAF1
:103660001544CD892D0544EA154484808283CD8894
:103670008587038470BD70B5002200230024058C6B
:103680004EF6FF7635400584038C8488828B48F69D
:10369000FF752A404FF6FF452A400D882D0642EA65
:1036A00015424DF6FF752B400D892D0743EA154352
:1036B0004D881FE0002C014000040040000800403D
:1036C000000C004000100040001400400034014095
:1036D000004C0140005001400054014000180040DF
:1036E000001C004000200040004001400044014018
:1036F000004801402D0743EA1543F84DA84202D087
:10370000F74DA84206D14BF6FF752C408D89AD05CB
:1037100044EA154484808283CD88A0F84050038415
:1037200070BD828B4FF2FF331A408283828B0B066F
:1037300042EA134282837047F0B500240025002638
:10374000078C4EF6FF7C07EA0C070784848B058CF8
:103750000F073E0C40F6FF473C40170644EA17446B
:103760001F0744EA1744DD4FB8420ED0DC4FB84281
:103770000BD0B0F1804F08D0DA4FB84205D0DA4F05
:10378000B84202D0D94FB84206D14DF6FF773D403E
:1037900046F480573D4305E047F6FF573D4041F46E
:1037A00080573D4384830584F0BD828B4FF6F373CD
:1037B0001A408283828B0A4382837047F0B50024CB
:1037C00000250026078C4FF6FF6C07EA0C070784DC
:1037D000848B058C0F063E0C4FF60C773C401F0582
:1037E00042EA17473C43BD4FB8420ED0BC4FB842E7
:1037F0000BD0B0F1804F08D0BA4FB84205D0BA4FC5
:10380000B84202D0B94FB84206D14FF6FF573D40FB
:1038100046F480773D4305E04FF2FF573D4041F4C9
:1038200080773D4384830584F0BD028B4FF2FF33E4
:103830001A400283028B0B0642EA1342028370474E
:10384000F0B5002400250026078C4FF6EF7C07EA30
:103850000C070784048B058C0F053E0C40F6FF47D0
:103860003C401F0744EA1744170644EA17449B4F9D
:10387000B8420ED09A4FB8420BD0B0F1804F08D06A
:10388000984FB84205D0984FB84202D0974FB842EF
:1038900006D14FF6DF773D4046F010073D4305E087
:1038A0004FF65F773D4041F010073D4304830584A8
:1038B000F0BD028B4FF6F3731A400283028B0A436A
:1038C00002837047F0B500240025068C4FF6FE7782
:1038D0003E400684048B058C4FF60C7634401E0562
:1038E00042EA164634437D4EB0420ED07C4EB04282
:1038F0000BD0B0F1804F08D07A4EB04205D07A4E4E
:10390000B04202D0794EB04206D14FF6FD76354036
:1039100041F00106354305E04FF6F576354041F0BC
:103920000106354304830584F0BD70B504460D4699
:103930006A4884420ED06A4884420BD0B4F1804F6A
:1039400008D06848844205D06748844202D067485E
:10395000844200D100E000BF288850B92B89AA8892
:1039600069882046FFF7AEFFE9882046FFF7A1FFF0
:1039700025E0288804280AD12B89AA88698820464E
:10398000FFF75EFFE9882046FFF74FFF17E0288822
:1039900008280AD12B89AA8869882046FFF70EFFDC
:1039A000E9882046FFF701FF09E02B89AA8869888A
:1039B0002046FFF7C1FEE9882046FFF7B2FE70BD42
:1039C0002DE9F04104460D4600260127688808B914
:1039D000022600E00026A888012801D1022700E085
:1039E00001272888A0B92B89AA8869882046FFF773
:1039F00069FFE9882046FFF75CFF2B893A4631468C
:103A00002046FFF71DFFE9882046FFF70EFF13E071
:103A10002B89AA8869882046FFF712FFE98820468B
:103A2000FFF703FF2B893A4631462046FFF74AFF4E
:103A3000E9882046FFF73DFFBDE8F0810A884B8802
:103A40001A438B881A43CB881A430B891A434B8934
:103A50001A438B891A43A0F8442070474FF6FF7130
:103A6000818000210180C180418001727047002166
:103A7000018041808180C180018141818181C1813A
:103A80007047002101804180012181800021C18097
:103A9000018170470021018041808180C1800181C6
:103AA00041818181704721B1028842F00102028088
:103AB00004E002884FF6FE731A400280704731B16D
:103AC000B0F8442042F40042A0F8442005E0B0F8E9
:103AD0004420C2F30E02A0F844207047002C01409D
:103AE000003401400004004000080040000C004089
:103AF00010B51AB183890B43838104E08389CC43D9
:103B0000A4B22340838110BD8182704741EA020341
:103B1000A0F84830704710B51AB183890B438381F0
:103B200004E08389CC43A4B22340838110BD018982
:103B30004FF6F872114001817047002202894FF65A
:103B40008F731A400A430281704730B504460D4610
:103B500029462046FFF7F1FF208940F00700208129
:103B600030BD2DE9F04104460D4616461F46602D36
:103B700006D13B46012231462046FFF761FE05E0B3
:103B80003B46012231462046FFF79CFE294620464F
:103B9000FFF7D3FF208940F007002081BDE8F081C6
:103BA00030B500240489E4B21D0642EA15450D43F0
:103BB0002C43048130BD2DE9F04104460D461646E4
:103BC000984600274346324629462046FFF7E8FF3D
:103BD00027894FF6F870074047F007074FF68F70B8
:103BE000074047F070072781BDE8F081F0B5044633
:103BF0000D4616461F463B46324629462046FFF7ED
:103C0000CFFF208940F480402081F0BD0185828271
:103C10007047002202884FF68F731A400A430280D1
:103C20007047F0B50024002500260489058B068C1A
:103C30004FF6F8773C400C434FF6FC473D4040F2CE
:103C400001173D434FF6DD773E401F0542EA174717
:103C50003E43048105830684F0BD0022028B4FF6AB
:103C60008F731A400A43028370470022028B48F682
:103C7000FF731A400B0642EA134202837047002288
:103C8000828B4FF68F731A400A438283704700225B
:103C9000828B48F6FF731A400B0642EA1342828376
:103CA000704721B1028842F08002028004E002885D
:103CB0004FF67F731A400280704721B1828842F02C
:103CC0000402828004E082884FF6FB731A408280EF
:103CD000704721B1828842F00802828004E0828825
:103CE0004FF6F7731A408280704721B1828842F004
:103CF0000102828004E082884FF6FE731A408280BF
:103D000070470022028B4FF6F7731A400A43028372
:103D100070470022028B4FF2FF731A400B0642EAF3
:103D20001342028370470022828B4FF6F7731A40CA
:103D30000A43828370470022828B4FF2FF731A403E
:103D40000B0642EA1342828370470022028B4FF631
:103D5000FB731A400A43028370470022028B4FF61E
:103D6000FF331A400B0642EA1342028370470022D7
:103D7000828B4FF6FB731A400A43828370470022FE
:103D8000828B4FF6FF331A400B0642EA13428283BE
:103D900070470022028B4FF67F731A400A4302835A
:103DA00070470022028BC2F30E020B0642EA134256
:103DB000028370470022828B4FF67F731A400A43BA
:103DC000828370470022828BC2F30E020B0642EA06
:103DD0001342828370470022028C4FF6FD731A4013
:103DE0000A43028470470022028C4FF6F7731A4090
:103DF0000A43028470470022028C4FF6DF731A4098
:103E00000B0542EA1342028470470022028C4FF6EF
:103E10007F731A400B0542EA134202847047002266
:103E2000028C4FF6FF531A400B0642EA13420284FB
:103E300070470022028C4FF2FF731A400B0642EAD1
:103E40001342028470470022028C4DF6FF731A4021
:103E50000B0742EA13420284704730B50023012465
:103E60008C40A3B2048CDD43ADB22C400484048C9E
:103E700002FA01F5ADB22C43048430BD30B5002305
:103E800004248C40A3B2048CDD43ADB22C400484E6
:103E9000048C02FA01F5ADB22C43048430BD70B538
:103EA0000023002403461846183301258D40ACB288
:103EB000058CE643B6B23540058409B1082909D11D
:103EC00003EB61031D6825F070051D601D68154337
:103ED0001D600CE00D1FADB203EB65031D6825F4FA
:103EE000E0451D601D68160645EA16451D6070BD5B
:103EF00021B1028842F00202028004E002884FF6FB
:103F0000FD731A400280704721B1028842F004021A
:103F1000028004E002884FF6FB731A40028070476B
:103F200021B1828842F08002828004E082884FF6CC
:103F30007F731A408280704702884FF6F7731A40E9
:103F4000028002880A430280704782884FF68F738E
:103F50001A40828082880A438280704702894FF625
:103F6000F8731A40028102890A430281704702896C
:103F70004FF67F731A40028102890A43028170471B
:103F800081847047818570478186704701877047BB
:103F900081877047A0F84010704702884FF6FF43B2
:103FA0001A40028002880A43028070470146888EC8
:103FB00070470146088F70470146888F7047014659
:103FC000B1F8400070470146888C70470146088D63
:103FD000704702460020138A0B4201D0012000E006
:103FE00000207047CA430282704730B50246002065
:103FF00000230024158A05EA0103958905EA0104D6
:1040000013B10CB1012000E0002030BDCA43028290
:104010007047000010B50446FB48844209D10121D5
:104020008803FFF7FDF800214FF48040FFF7F8F810
:1040300032E0F648844209D101214804FFF7FDF837
:1040400000214FF40030FFF7F8F825E0F0488442F3
:1040500009D101218804FFF7F0F800214FF48020F6
:10406000FFF7EBF818E0EB48844209D10121C804BE
:10407000FFF7E3F800214FF40020FFF7DEF80BE034
:10408000E548844208D101210805FFF7D6F8002150
:104090004FF48010FFF7D1F810BD2DE9F04786B03E
:1040A00004460D460026002700BFB146B246A88947
:1040B00000B100BFA246268A4CF6FF700640E88891
:1040C00006432682A6894EF6F3100640A888298961
:1040D0000843698908430643A681A68A4FF6FF4034
:1040E0000640A8890643A68201A8FFF711F85446A6
:1040F000C548824501D1049F00E0039FA08910F4C8
:10410000004F08D007EBC70000EB071029684900F3
:10411000B0FBF1F807E007EBC70000EB07102968D8
:104120008900B0FBF1F86420B8FBF0F0060130091B
:10413000642101FB1089A08910F4004F09D03221BD
:1041400001EBC9006421B0FBF1F000F00700064369
:1041500008E0322101EB09106421B0FBF1F000F01E
:104160000F000643268106B0BDE8F0874FF41651D4
:10417000016000218180C18001810C2141810021E9
:104180008181704710B50022028A4FF2FF031A4066
:104190000B884C8823438C882343CC8823431A43C1
:1041A000028210BD0021018041808180C180704762
:1041B00021B1828942F40052828104E082894DF665
:1041C000FF731A4082817047F0B500240025002655
:1041D0000023A1F510676A3F00D100BF0346C1F379
:1041E000421401F01F05012707FA05F6012C01D141
:1041F0000C3304E0022C01D1103300E014331AB167
:104200001F6837431F6002E01F68B7431F60F0BD9F
:1042100010B51AB1838A0B43838204E0838ACC43AE
:10422000A4B22340838210BD028A4FF6F0731A4075
:104230000282028A0A430282704782894FF2FF7328
:104240001A40828182890A438281704721B1828922
:1042500042F00202828104E082894FF6FD731A4027
:1042600082817047028A4FF6DF731A400282028A07
:104270000A430282704721B1028A42F480420282DC
:1042800004E0028A4BF6FF731A4002827047C1F3C2
:1042900008028280704701468888C0F30800704792
:1042A000818941F0010181817047028BD2B2028382
:1042B000028B42EA012202837047028B02F47F42A2
:1042C0000283028B0A430283704721B1828A42F043
:1042D0002002828204E0828A4FF6DF731A408282D3
:1042E000704721B1828A42F01002828204E0828A01
:1042F0004FF6EF731A408282704721B1828A42F0F2
:104300000802828204E0828A4FF6F7731A408282A2
:10431000704721B1828942F40042828103E08289A0
:10432000C2F30E028281704721B1828A42F4006298
:10433000828204E0828A4FF2FF731A4082827047C1
:10434000828A4FF6FB731A408282828A0A438282F3
:10435000704721B1828A42F00202828204E0828A9E
:104360004FF6FD731A408282704702460020B1F575
:10437000007F00D100BF13880B4201D0012000E074
:104380000020704701F40072B2F5007F00D100BF39
:10439000CA430280704770B50246002300240025FE
:1043A0000020A1F510666A3E00D100BFC1F342159E
:1043B00001F01F04012606FA04F4012D02D19689AA
:1043C000344006E0022D02D1168A344001E0968A7C
:1043D00034400B12012606FA03F31688334014B159
:1043E0000BB1012000E0002070BD10B500220023B9
:1043F000A1F510646A3C00D100BF0A120124944068
:10440000A3B2DC43048010BD0038014000440040EA
:1044100000480040004C00400050004001684FF64A
:10442000FE72114001600021016041608160C16045
:104430008F49884208D18E490839496841F00F01F7
:104440008B4A083A516090E089491431884208D17A
:1044500087490839496841F0F001854A083A5160B6
:1044600083E083492831884208D181490839496865
:1044700041F470617E4A083A516076E07C493C31F3
:10448000884208D17A490839496841F47041784A2C
:10449000083A516069E076495031884208D1744940
:1044A0000839496841F47021714A083A51605CE06A
:1044B0006F496431884208D16D490839496841F42F
:1044C00070016B4A083A51604FE06949783188427F
:1044D00008D167490839496841F07061644A083A6F
:1044E000516042E06349884208D1011F096841F0E8
:1044F0000F015F4A083AC2F8041436E05D491431EE
:10450000884209D15B49091F096841F0F001584A06
:10451000083AC2F8041428E056492831884209D1E3
:104520005449091F096841F47061514A083AC2F8B8
:1045300004141AE04F493C31884209D14D49091F02
:10454000096841F470414A4A083AC2F804140CE080
:1045500048495031884208D14649091F096841F449
:104560007021434A083AC2F80414704710B500227B
:10457000026847F6F0739A430C6A8B6823430C6910
:1045800023434C6923438C692343CC6923434C6AFE
:1045900023438C6A23431A430260CB6843600B6851
:1045A00083604B68C36010BD002101604160816081
:1045B000C160016141618161C161016241628162E9
:1045C000704721B1026842F00102026004E0026813
:1045D0004FF6FE731A40026070471AB103680B432E
:1045E000036002E003688B430360704741607047DB
:1045F0000146486880B2704702460020002112F050
:10460000805F03D01B4B083B196802E0184B083B46
:104610001968114201D0012000E00020704710F01D
:10462000805F03D01349091F086002E01049083970
:104630004860704702460020002112F0805F03D0DE
:104640000C4B083B196802E0094B083B1968114202
:1046500001D0012000E00020704710F0805F03D0FF
:104660000449091F086002E00149083948607047A1
:10467000080002400804024010B501F0C7FF02F034
:1046800006F901F0DEFF10BD10B56FF00400FEF773
:104690006DF8334800683349B0FBF1F032490870D7
:1046A0002F4800682F49B0FBF1F44FF4FA604443FF
:1046B00002202D49891C08804FF0E020006940F05D
:1046C00002004FF0E021086108464461006940F0B3
:1046D0000100086110BD70B500244FF0E026756937
:1046E000214E367800FB06F100BF4FF0E026B3699B
:1046F00010E04FF0E026B2699A420BD09A4202D203
:104700009E1A344402E0AE1A1E44344413468C42CE
:1047100000D300E0EDE700BF70BD70B5044613485C
:104720000078012814D11048801C0088844207DBDF
:104730000D48801C008894FBF0F5284604F050FAE0
:104740000948801C008894FBF0F100FB114084B202
:104750004FF47A7104FB01F0FFF7BDFF70BD00005C
:10476000B802002000127A00CE010020F2020020E0
:1047700010B54FF4A060FDF7A7FF10BD014600BFC4
:10478000704700BF464A128812F0400FFAD0C2B2FA
:10479000434B1B1D1A80704710B586B0044601219B
:1047A00044F20500FEF722FD4FF40070ADF814004E
:1047B00003208DF8160018208DF8170005A9394838
:1047C000FEF76AFA4FF48060ADF8140004208DF80B
:1047D000170005A93348FEF75FFA25208DF8000081
:1047E00003208DF801008DF8020001208DF80300F0
:1047F0006846FDF76EFF01940020ADF80800ADF8A3
:104800000A00ADF80C00ADF810000C20ADF80E0059
:1048100001A92348FFF741FC012240F2244120482E
:10482000FFF7D2FC01211E48FFF7C2FC06B010BD05
:1048300010B501F0EBFE40F224411948FFF7ABFD43
:1048400050B3002400211848FFF7BBFE1648FFF7BD
:10485000CFFEC0F1320084B222461449144804F05D
:10486000C5FF1448048021461148FDF7C4FDE1B29C
:104870000F48FDF77AF940F224410948FFF7B5FDEA
:104880000748FFF708FD32210748FFF7AFFE012177
:104890000548FFF796FE00BF01F0D3FE10BD0000F3
:1048A0000038014000080140580002408803002001
:1048B000BA030020D4010020FF4A1288521CFE4B8C
:1048C0001A801A461288FD4B1B889A4205DB01228A
:1048D000FB4B1A700022F84B1A80FA4A12782AB160
:1048E000F94A1268521CF84B1A6002E00022F64B9B
:1048F0001A60F54A1268F54B9A4202D30022F24B35
:104900001A607047F24A1278072A0CD2DFE802F0E8
:104910000405060708090A0005E004E003E002E0D8
:1049200001E000E000BF00BFE94A1278521CE84BEA
:104930001A701A461278062A01DD00221A70704792
:10494000F8B505460E46ECB1E148401C0278E1A1FD
:10495000204604F035FEDE48401C0078401CDC494F
:10496000491C08702146DF48006803F049FA0090AE
:104970009DF8000030B16B4600221146DA4800680D
:1049800004F008FCF8BD1CB52CE001AB009300233B
:1049900003220121D548006802F05DFBD44800885D
:1049A000D4490988884219DBB420D3490880012002
:1049B000D2490860FA20FFF7B0FE0020D049C1F8C4
:1049C0009801FA20FFF7A9FE0120CC490860FA20DF
:1049D000FFF7A3FE0020CA49C1F898014FF44870C0
:1049E000FFF79BFED1E72DE9FE4F4FF00008C146CF
:1049F000C246002001908346A3E102AB009301234D
:104A000003224FF6FF71B948006802F024FB044608
:104A100008F101001FFA80F809F101001FFA80F97E
:104A2000B9F1010F17D1B7480088052190FBF1F2C9
:104A300001FB1200B3490988081A80B20190AC4802
:104A40000088052190FBF1F201FB1200A8490988BA
:104A5000081A1FFA80FBAB48078814F0040F02D035
:104A6000FCF78FF96AE114F0080F02D0FCF7AEF9F9
:104A700064E114F0100F02D0FCF7B2F95EE114F01B
:104A8000200F02D0FCF7B6F958E114F0020F05D060
:104A9000FCF71BF802209C4988704FE114F0010FCD
:104AA000E0D001209849887098480088044202D0DC
:104AB0000020087015E0012093490870FCF7AEF95A
:104AC0008D4805883E468A480088052190FBF1F212
:104AD00001FB120086490988081A80B20090FCF791
:104AE000B6F88B480088044271D001208649C8700E
:104AF000824688480088401C86490880084600880D
:104B0000FA280ADB02AB0022814801887748006856
:104B100002F0FDFB00207F490880FCF7A9F97E48E0
:104B2000007801281CD17D48007810B97C480078B5
:104B300018B12846FCF743F80DE0B8F1190F02D17F
:104B4000FCF778F807E0B8F1320F04DB4FF000080B
:104B50002846FCF734F867480088FCF7B3F990E082
:104B60006D48007802281DD16C48007810B96C4857
:104B7000007820B15F480088FCF7A4F90EE0B8F196
:104B8000190F02D1FCF76FFA08E0B8F1320F05DB1C
:104B90004FF0000857480088FCF794F92846FCF7C6
:104BA0000EF86EE05F480078012822D15B4800785B
:104BB00010B95B48007820B15B480078FCF7E9F950
:104BC0000FE0B8F1190F03D1FCF70CFA09E03AE055
:104BD000B8F1320F05DB4FF0000853480078FCF7BE
:104BE000D8F92846FBF7EBFF50480078FCF706FAA7
:104BF00047E04C480078022821D14848007810B995
:104C00004748007820B149480078FCF7F7F90EE0F2
:104C1000B8F1190F02D1FCF71AFA08E0B8F1320F17
:104C200005DB4FF0000841480078FCF7E7F93E4803
:104C30000078FCF7AEF92846FBF7C1FF21E02846D3
:104C4000FBF7BDFF1DE002202F49C870BAF1000F2D
:104C500004D04FF0000A00202F49087000202D4991
:104C60000880FCF71AF9052096FBF0F100FB1160B3
:104C7000301A80B20090FBF7A2FF1E480088FCF7B4
:104C800021F9B9F1C80F59DD4FF000091D4800881E
:104C9000052190FBF1F201FB12001A490988091A5B
:104CA0000198814248D112480088052190FBF1F219
:104CB00001FB12000E493BE000020020FE01002033
:104CC0009E010020F5010020040200208427090035
:104CD00096020020414C49454E54454B2025303327
:104CE00064000000A4020020B0020020B4020020F2
:104CF000E8010020E2010020DE010020988121422D
:104D000000802142DC010020AA0100209202002044
:104D100094020020FA010020F3010020810100200C
:104D200001010020F4010020EC010020ED01002031
:104D30000988081A584501D0FDF73CF81420FFF700
:104D4000ECFC5AE67CB5002530E001AB0093002373
:104D500003221146FC48006802F07DF90446FB4935
:104D600009880C4201D000251DE00120F8490860A7
:104D7000F849C1F8A80140F6B830854206DC681C45
:104D800085B20020F249091D08600CE0F248008855
:104D9000822804DA0120EE49091D086003E00020A2
:104DA000EB49091D08606420FFF7B7FCCDE71CB58F
:104DB000ABE001AB0093002303223C21E2480068F2
:104DC00002F049F9044614F0040F18D00020E3491A
:104DD000088001AB00224FF6C371DB48006802F087
:104DE00096FA0120DA490860DA49C1F8A801D849E1
:104DF000091D08604FF47570D749088052E014F01F
:104E0000080F18D00020D549088001AB00224FF6CA
:104E1000C371CD48006802F07AFA0120CC490860DD
:104E2000CC49C1F8A801CA49091D086040F2CF3039
:104E3000C949088036E014F0100F18D00020C74987
:104E4000088001AB00224FF6C371BF48006802F032
:104E50005EFA0120BE490860BE49C1F8A801BC49FC
:104E6000091D086040F2CA30BB4908801AE014F0FE
:104E7000200F17D00020B949088001AB00224FF65F
:104E8000C371B148006802F042FA0120B0490860DD
:104E9000B049C1F8A801AE49091D086040F2C5300B
:104EA000AD4908800020AD49088001AB00224FF6D3
:104EB000C371A548006802F02AFA0120A4490860DD
:104EC000A449C1F8A801A249091D0860FCF772FFB6
:104ED0000120A049C1F89801FA20FFF71EFC00202C
:104EE0009B4918310860FA20FFF717FC0120994907
:104EF000C1F89801FA20FFF710FC002094491831FE
:104F000008604FF44870FFF708FC52E72DE9F04FB6
:104F100087B0044692480088A04203DD002007B015
:104F2000BDE8F08F8E48B0F87800A04201DA8D48D5
:104F3000F5E74FF000084FF03D091F2723E08848B0
:104F400030F81700A04208DDB94609EB080000EB75
:104F5000D071C1F347010F4615E0814830F81700C2
:104F6000A04208DAB84609EB080000EBD071C1F3A3
:104F700047010F4607E007EB8706304604F0A6FF1F
:104F800005462846CBE7A9EB08000128D7D107EB57
:104F90008706734931F8180004F0B1FF0690704994
:104FA00031F8190004F0ABFF0590304604F08EFF95
:104FB0000490DDE9050105F051F80390204604F066
:104FC0009EFF0190069905F049F86749029004F0A8
:104FD0009BFF8346039904F05BFE8246049904F02C
:104FE000CBFD054628469AE72DE9F04F89B000240D
:104FF0000025002600BF002700BF4FF001084FF03A
:10500000010914E10A210020FBF75BF904460A219B
:105010000120FBF756F9064640F60770844208DB8C
:1050200008AB0122514801884748006802F06FF937
:1050300073E040F6CF50844208DB08AB01224C48B5
:1050400001884148006802F062F966E008AB00227E
:10505000464801883C48006802F059F9B4F5E87FF9
:1050600002DA42F2107525E040F66950844202DB14
:1050700045F2D5251EE03F4804FB00FB0020CDE9AA
:1050800004B03DA00CC805991BEB02005941CDE9C5
:10509000020104EB8400C0EB8410C0F5242A002038
:1050A00003465246CDE906A0029804F064FA05468C
:1050B000CDE90001A8B2FFF729FF824604F0DAFE2D
:1050C000254908800846008800EBC000052190FBB8
:1050D000F1F020302049088008460088B0F5967F1E
:1050E00011DB08460088B0F5B97F0CDA0846008865
:1050F000642190FBF1F201FB120017490988084472
:105100001549088009E014480088B0F5B97F04DB30
:1051100011480088463010490880B6F55D6F35DDCE
:105120000020174908800120164908700020164900
:105130000871B8F1000F77D0FCF724FE4FF000089B
:105140004FF0010970E00000B40200208602002048
:105150008081214200802142DC0100208402002065
:1051600008020020000096430000A0408A020020B0
:1051700090020020600112000000905F010000001A
:10518000E801002064000020AA0100200120FE495F
:105190000871B9F1000F05D0FCF7F4FD4FF00009DC
:1051A0004FF001080020F9490870B6F5E87F02DAEF
:1051B00042F2107726E040F66950864202DB45F263
:1051C000D5271FE0F24806FB00FB0020CDE904B024
:1051D000AFF25C000CC805991BEB02005941CDE908
:1051E000020106EB8600C0EB8610C0F5242A0020E1
:1051F00003465246CDE906A0029804F0BCF90746E2
:10520000CDE90001B8B2FFF781FE824604F032FE1C
:10521000E04908800846008800EBC000052190FBAB
:10522000F1F02030DB4908806420FFF776FAE9E6E8
:105230007CB5002400260025D3E201AA0021D6482F
:10524000006802F0EBF90446681C85B2152C53D2B5
:10525000DFE804F0520B5372869EAA5252B3F4F365
:10526000F2F1F05252525252EF00CC48008828B16D
:10527000CA480088CA49098888423DD101AB00224A
:105280004FF6FF71C748006802F041F8C648008831
:10529000C64909880843C149088001AB0122084674
:1052A0000188C048006802F032F80120C049086057
:1052B0000020C0490870C0490870C0490870C04942
:1052C00008704FF4AF70BF490880E120BE490880E4
:1052D0000120BE490870BC480188BA480088FBF725
:1052E00035FE0120B5490870FCF77FFCB5480288FF
:1052F00001210620FCF7A6FC66E201AB00224FF676
:10530000FF71A848006802F002F8A5480088A34988
:10531000088001AB012208460188A248006801F01C
:10532000F6FF0120A24908600020A8490870A8499A
:105330000870FCF763FC47E201AB009300230322F3
:1053400001219848006801F086FEA048007830B13D
:105350000120A0490870002095492831086033E2F7
:105360000EB9012000E00020C6B246B101AB012217
:10537000994801888B48006801F0C9FF07E001AB3C
:105380000022954801888748006801F0C0FF1BE2B1
:1053900001AB0122854801888248006801F0B7FF0F
:1053A00001208E4908700FE201AB00227F4801887E
:1053B0007C48006801F0ABFF06E289480078D0B174
:1053C0000020874908707D480078012807D17D4872
:1053D00000888449098808447A49088038E0774879
:1053E0000078022834D1784800887E49098808442A
:1053F000754908802CE071480078012805D1714872
:105400000088401D6F49088022E06C48007802281F
:1054100005D16D480088401D6B49088018E0684838
:10542000007801280BD163480078401C614908705E
:105430000EE0C8E1C4E17CE141E177E040E0604892
:105440000078022804D15C4800780A305A49087074
:105450005C48008864490988884203DD6248008806
:10546000584908805848008860490988884203DD07
:105470005E480088544908804E480078632802DD61
:1054800000204C4908704C480078322802DD00208A
:105490004949087049480078012806D149480288DE
:1054A00001210320FCF7CEFB09E0444800780228E4
:1054B00005D14548028802210320FCF7C3FB83E1A4
:1054C0003E480078012805D13E480088401D3D49EE
:1054D000088012E03A480078012805D13548007864
:1054E000401C3449087008E035480078022804D18F
:1054F000314800780A3030490870324800883A490B
:105500000988884203DD384800882E4908802948E8
:105510000078632802DD00202649087026480078BC
:10552000322802DD0020244908704DE1304800781F
:1055300040B300202E4908702048007801280FD180
:1055400020480088B42807DD1E48008825490988BE
:10555000401A1C4908809CE0B4201A49088098E051
:105560001648007802280CD117480088214909887C
:10557000884241DD144800881A490988401A1249B6
:10558000088086E03DE00000AA01002064000020C1
:1055900060011200E8010020A00200208402002027
:1055A00088020020B402002086020020940200201D
:1055B00080812142EC010020ED010020F301002058
:1055C000F4010020DE010020E2010020F5010020AE
:1055D000F6010020F8010020920200204001002086
:1055E000B4010020B2010020E0010020E40100200D
:1055F000B5010020E6010020FF480088FF4908802F
:1056000047E0FF48007801280DD1FE480088B42803
:1056100005D0FC480088401FFA49088039E0B420D2
:10562000F849088035E0F6480078022810D1F348A0
:105630000088F1490988884205DDF0480088401F4C
:10564000EE49088025E0EC480088EC49088020E01D
:10565000ED48007801280CD1EC48007828B1EB48DF
:105660000078401EE949087013E06320E74908709C
:105670000FE0E548007802280BD1E548007828B112
:10568000E34800780A38E249087002E03220E04935
:105690000870DB480078012806D1DA480288012129
:1056A0000420FCF7CFFA09E0D5480078022805D19C
:1056B000D248028802210420FCF7C4FA84E0D048D2
:1056C000007801280DD1CF480088B42805DDCD48E9
:1056D0000088401FCB4908802AE0B420C9490880CF
:1056E00026E0C9480078012812D1C4480088C24980
:1056F0000988884207DDC1480088C6490988401AE0
:10570000BE49088014E0BC480088BC4908800FE00E
:10571000BD48007802280BD1BD48007828B1BC48AC
:1057200000780A38BA49087002E03220B849087097
:105730004AE0B348007801281DD1B6480088B64930
:105740000988884204DDB4480088AE4908800BE02F
:10575000B0480088B42803DAB420AA49088003E0DE
:10576000AC480088A7490880A64802880121052086
:10577000FCF768FA23E0A248007802281FD1A54868
:105780000088A6490988884204DDA44800889B490E
:1057900008800EE09F48008897490988884204DA0B
:1057A000954800889549088003E09A480088934905
:1057B00008809248028802210520FCF743FA03E0A2
:1057C000FCF710FE00E000BF00BF01209449086014
:1057D0003220FEF7A2FF00209249C1F898019249B9
:1057E00008802AE52DE9FC47002400BF002500269B
:1057F000A046A1464FF0010AEFE101AB009301235F
:10580000032240F23D118948006801F024FC07465C
:10581000874909880F4203D1FAF7D6FDFAF798FFB6
:105820008448007818B1012400208249087065B9C5
:105830008148007808B1022401258048007840B1F1
:10584000022400207D49087003E07B48007800B9FD
:10585000002517F0010F7ED0FBF72EF8FBF79CFD1B
:10586000FBF74CFC76480078C0B17648007810B958
:105870007548007840B10324BAF1000F0ED0FCF750
:10588000CFF94FF0000A09E0002070490870BAF122
:10589000000F03D1FCF7CDF94FF0010A6C480078F6
:1058A00018B1042400206A4908706A48007818B1C9
:1058B00005240020674908702EB96748007830B188
:1058C0000E24012603E06448007800B900266348EE
:1058D000007818B1062400206049087060480088EC
:1058E0000742B8D0FBF7AFFCFBF749FFFBF7FCFD25
:1058F000FBF7A0FE5B48007808B300205949087008
:105900003F480078401C3E4908700846007802284D
:1059100001DD012008703A480078012806D1394895
:10592000028801210620FCF78DF905E03348028842
:1059300002210620FCF786F90020334908704A4806
:10594000007818B1092400204749087047480078BA
:1059500028B10B2400E036E1002044490870444897
:105960000078002847D000202F49088001202C49CA
:105970000860814608F101001FFA80F8B8F10A0FAB
:1059800078DB4FF000081E480078012804D11D483C
:105990000088401D1B49088019480078022805D15D
:1059A00016480088401D1549088012E01648007806
:1059B000012805D115480078401C1449087008E0FA
:1059C00011480078022804D1114800780A301049A3
:1059D00008700C48008810490988884203DD0E4889
:1059E000008808490880054800880C4909888842D1
:1059F00044DD0A483FE065E0E6010020E2010020C6
:105A0000F3010020DE010020F4010020EC01002061
:105A1000ED010020B2010020E0010020E40100209F
:105A20009881214200802142FA010020B402002026
:105A30008A0200200000002001000020B1010020A7
:105A4000F501002025000020B7010020F80100200A
:105A5000440000202001002021010020E00000205F
:105A6000940200204001002080010020000100205D
:105A70008101002097E00088FC490880FC480078FC
:105A8000632802DD0020FA490870FA4800783228BD
:105A900002DD0020F7490870F7480078012806D198
:105AA000F648028801210320FCF7CCF884E0F24894
:105AB00000780228FAD1ED48028802210320FCF781
:105AC000C1F879E0EE48007800286DD00020ED495B
:105AD00008800120EC490860814608F101001FFAA6
