:020000040800F2
:10000000D0280020D101000801680008036800081A
:10001000076800080B6800080F680008000000006F
:10002000000000000000000000000000136800084D
:100030001568000800000000779B0008F9490008D7
:10004000EB010008EB010008EB010008EB010008E0
:10005000EB010008EB010008EB010008EB010008D0
:10006000EB010008EB010008EB010008EB010008C0
:10007000EB010008EB010008831B0008EB010008FE
:10008000EB010008EB010008EB010008EB010008A0
:10009000EB010008EB010008EB010008EB01000890
:1000A000EB010008EB010008EB010008EB01000880
:1000B000EB0100084F050008EB010008EB01000808
:1000C000EB010008EB010008EB010008EB01000860
:1000D000EB010008B14B0008EB010008EB01000840
:1000E000EB010008EB010008EB01000800F002F84A
:1000F00000F061F80AA090E8000C82448344AAF161
:100100000107DA4501D100F056F8AFF2090EBAE85E
:100110000F0013F0010F18BFFB1A43F0010318473B
:1001200020A9000040A900000A444FF0000C10F87C
:10013000013B13F0070408BF10F8014B1D1108BF65
:1001400010F8015B641E05D010F8016B641E01F805
:10015000016BF9D113F0080F1EBF10F8014BAD1C55
:100160000C1B09D16D1E58BF01F801CBFAD505E073
:1001700014F8016B01F8016B6D1EF9D59142D6D3CD
:10018000704700000023002400250026103A28BFF5
:1001900078C1FBD8520728BF30C148BF0B607047F9
:1001A000642909F07B85002070471FB5AFF30080FC
:1001B0001FBD10B510BD09F0E4FF1146FFF7F5FFB4
:1001C00006F0C5FA0AF002F8FFF7F3FF04F096FC18
:1001D0000948804709480047FEE7FEE7FEE7FEE7DB
:1001E000FEE7FEE7FEE7FEE7FEE7FEE70448054917
:1001F000054A064B70470000E1680008ED00000862
:10020000D0220020D0280020D0240020D02400209C
:1002100000B587B001214FF4017003F0A7F94FF446
:10022000004003F007F90320ADF8040000208DF82A
:10023000070001A92E4802F0EFFE2E4802F074FCE0
:10024000002002908DF80C008DF80D004FF4602016
:1002500004900020059001208DF8180002A925487F
:1002600002F089FC0121234802F0B0FC214802F091
:10027000CFFC00BF1F4802F0D0FC0028FAD11D4877
:1002800002F0D5FC00BF1B4802F0D6FC0028FAD1D2
:1002900007B000BD10B504460723012221461548CA
:1002A00002F0FFFC0121134802F0D0FC00BF022144
:1002B000104802F01FFE0028F9D00E4802F056FD4B
:1002C00010BD2DE9F04104460D460026002708E048
:1002D0002046FFF7DFFF0644052004F0DEFB781C14
:1002E000C7B2AF42F4DBB6FBF5F080B2BDE8F081F7
:1002F000000801400024014008B50121082003F056
:1003000035F94020ADF8000010208DF803000320DF
:100310008DF802006946044802F07EFE4021024842
:1003200002F024FF08BD0000000C014008B50121C7
:10033000182003F01BF94FF42870ADF80000482096
:100340008DF803006946074802F066FE4FF46040EE
:10035000ADF8000048208DF803006946024802F01D
:100360005BFE08BD000C01400010014010B54E4876
:100370000078012815D14D480078012811D04A484D
:10038000401E0078401C4849491E08700846007805
:10039000192806D90020891C0870891E0870491C7C
:1003A00008704FF40051424802F0C4FE3E49183133
:1003B0000870153901F11402127851F822008047B3
:1003C00039491731087010BD10B5FFF7CFFF10BDC8
:1003D00035481830007808B9012070470020FCE744
:1003E00031481830007808B9022070470020FCE737
:1003F0002D481830007808B9032070470020FCE72A
:1004000029481830007888B92748801E0078401C99
:100410002549891E087008460078502804D3012019
:1004200024490870042070470320FCE71E48801E02
:100430000078502822D201201F4908701A48401C19
:100440000078401C1849491C08700120491E08709A
:10045000481C007802280FD1481E007819280BD2BA
:100460000020491C0870891E0870491C0870012072
:100470000E4908700420D6E70420D4E70420D2E710
:1004800009481830007840B90748801E0078401CA1
:100490000549891E0870032070470020054908702F
:1004A0000149891E0870F7E70500002002000020BE
:1004B00000100140010000200000002008B50121CB
:1004C000182003F053F810208DF8030003208DF856
:1004D00002004FF48070ADF800006946044802F055
:1004E0009BFD4FF48071024802F03EFE08BD000003
:1004F000000C01407FB504460D460121022003F0A7
:1005000042F8ADF80840ADF804500020ADF80A00FC
:10051000ADF8060001A9634803F05EF9012241210C
:10052000604803F0A5FC1D208DF8000000208DF828
:10053000010003208DF8020001208DF803006846B9
:1005400002F087FA0121574803F06DFC7FBD10B51A
:100550000121544803F009FF18B10121514803F06B
:1005600015FF10BD30B589B004460D4601210220AB
:1005700003F009F80121092002F0F8FF01214A489F
:1005800002F015FE2020ADF8200018208DF8230081
:1005900003208DF8220008A9444802F03DFDADF883
:1005A0001840ADF814500020ADF81A00ADF8160050
:1005B00005A93C4803F010F97020ADF804000120B3
:1005C000ADF806000020ADF80A00ADF80C0001A956
:1005D000344803F080F90821324803F05AFD012124
:1005E000304803F01EFD01212E4803F01CFC09B029
:1005F00030BD10B52E48007810F0800F4CD101218D
:100600002C4803F0B2FED0B12948007810F0400F1A
:1006100015D02748007800F03F003F280AD1244831
:10062000007840F08000224908704FF6FF702249A0
:10063000088004E01E480078401C1D490870022113
:100640001C4803F092FE38B31948007810F0400FB0
:100650000FD01748007840F0800015490870154801
:1006600003F064FE144908800021124803F073FD72
:1006700012E000200E4908700F49088000210D4843
:1006800003F03EFE0A48007840F040000849087038
:100690000221084803F05FFD0321064803F076FEBF
:1006A00010BD00000004004000081A00000C0140CA
:1006B0001E000020000C00402000002008B5012191
:1006C000152002F053FF10208DF8030003208DF851
:1006D000020040F20340ADF800006946044802F011
:1006E0009BFC40F20341024802F03EFD08BD0000C1
:1006F000000C014010B554480078012815D153482A
:100700000078012811D05048401E0078401C4E4906
:10071000491E087008460078192806D90020891C4F
:100720000870891E0870491C08704FF40071484811
:1007300002F000FD444918310870153901F1140226
:10074000127851F8220080473F491731087010BDD8
:1007500010B5FFF7CFFF10BD3B481830007808B93F
:10076000012070470020FCE737481830007808B9AE
:10077000022070470020FCE733481830007810BB97
:100780000120344908703048401C0078401C2E4934
:10079000491C08700120491E0870481C0078022876
:1007A0000FD1481E007819280BD20020491C087070
:1007B000891E0870491C0870012024490870042013
:1007C00070470320FCE70020FAE71F481830007844
:1007D00010BB1D48801E0078401C1B49891E0870F4
:1007E000081D007850B908460078642804D100201C
:1007F00008700120091D0870032070471248801EF0
:100800000078322806D100200F49891E0870012087
:10081000114908700320F0E70420EEE70A48183079
:10082000007840B90848801E0078401C0649891E9F
:100830000870032070470020074908700249891E8C
:100840000870091D0870F5E7290000202600002027
:10085000000C0140240000202500002010B54D4868
:100860000078012815D14C480078012811D049485A
:10087000401E0078401C4749491E08700846007811
:10088000192806D90020891C0870891E0870491C87
:1008900008704FF40041414802F04CFC3D491831CA
:1008A0000870153901F11402127851F822008047BE
:1008B00038491731087010BD10B5FFF7CFFF10BDD4
:1008C00034481830007808B9012070470020FCE750
:1008D00030481830007808B9022070470020FCE743
:1008E0002C481830007808B9032070470020FCE736
:1008F00028481830007888B92648801E0078401CA7
:100900002449891E087008460078502804D3012025
:1009100023490870042070470320FCE71D48801E0F
:100920000078502822D201201E4908701948401C26
:100930000078401C1749491C08700120491E0870A6
:10094000481C007802280FD1481E007819280BD2C5
:100950000020491C0870891E0870491C087001207D
:100960000D4908700420D6E70420D4E70420D2E71C
:1009700008481830007840B90648801E0078401CAE
:100980000449891E08700320704700200149891E10
:100990000870F9E74900002046000020000C0140E3
:1009A00045000020440000200020FB4908607047FB
:1009B0000120F949086070470020F8490860704735
:1009C0000120F649086070470020F449091F0860BB
:1009D00070470120F149091F0860704770B504464F
:1009E0000E46002516E0FFF7E7FF022004F033F87B
:1009F00004F08000802802D1FFF7EBFF01E0FFF751
:100A0000E3FFFFF7DDFF022004F025F86006040E87
:100A1000681CC5B2B542E6DB70BD10B50446FFF7F1
:100A2000C3FF04218020FFF7D9FF08212046FFF7EC
:100A3000D5FFFFF7BDFF10BD2DE9F04104460D467F
:100A40001646FFF7B1FF0321A020FFF7C7FFA1065D
:100A5000080E0621FFF7C2FF002706E028780821CC
:100A6000FFF7BCFF6D1C781CC7B2B742F6DBFFF77F
:100A70009FFFBDE8F08170B504460D46FFF794FF77
:100A80000321A020FFF7AAFFA106080E0621FFF709
:100A9000A5FF08212846FFF7A1FFFFF789FF70BDDA
:100AA00070B504460D46FFF77FFF0321A020FFF736
:100AB00095FFA106080E0621FFF790FF04212846A6
:100AC000FFF78CFFFFF774FF70BD10B50120B2492E
:100AD000091D08600B22B2490020FFF7ADFF10BDD1
:100AE00010B50B22AF490020FFF7A6FF0020AA494E
:100AF000091D086010BD08B501210D2002F036FD6A
:100B00000121A94802F053FB10208DF803000320B7
:100B10008DF802001820ADF800006946A34802F0E5
:100B20007BFA1821A14802F01FFB4FF41840ADF8E2
:100B3000000069469E4802F06FFA4FF418419C4845
:100B400002F012FB0A2003F0A8FF5220FFF765FF16
:100B50003020FFF762FF0020FFF75FFF0A20FFF75A
:100B60005CFF0220FFF759FF0620FFF756FF0A201F
:100B700003F093FFFFF7B4FF4FF4FA7003F08DFF1B
:100B8000FFF7A3FF4FF4FA7003F087FFFFF7A8FF0A
:100B90004FF4FA7003F081FFFFF797FF4FF4FA70FC
:100BA00003F07BFFFFF79CFF4FF4FA7003F075FF33
:100BB000FFF78BFF4FF4FA7003F06FFF08BD38B5F5
:100BC00004464FF47A7094FBF0F100FB114064216D
:100BD00090FBF1F0C0B28DF80000642094FBF0F1BE
:100BE00000FB11400A2190FBF1F0C0B28DF801002A
:100BF0000A2094FBF0F100FB1140C0B28DF8020016
:100C00009DF800006B49085C8DF800009DF801001C
:100C1000085C8DF801009DF80200085C8DF8020068
:100C2000032269460E20FFF707FF00205A49091DDD
:100C3000086038BD08B500200090032269460E20E8
:100C4000FFF7FAFE00205449091D086008BD38B5B9
:100C500004464FF47A7094FBF0F100FB11406421DC
:100C600090FBF1F0C0B28DF80000642094FBF0F12D
:100C700000FB11400A2190FBF1F0C0B28DF8010099
:100C80000A2094FBF0F100FB1140C0B28DF8020085
:100C90009DF800004749085C8DF800009DF80100B0
:100CA000085C8DF801009DF80200085C8DF80200D8
:100CB0004148007858B1414800788DF800003F481D
:100CC00040788DF801003D4880788DF802000322BD
:100CD00069460820FFF7B0FE00202F49091D086073
:100CE00038BD38B504464FF47A7094FBF0F100FB40
:100CF0001140642190FBF1F0C0B28DF80000642037
:100D000094FBF0F100FB11400A2190FBF1F0C0B21E
:100D10008DF801000A2094FBF0F100FB1140C0B2F5
:100D20008DF802009DF800002249085C8DF8000053
:100D30009DF80100085C8DF801009DF80200085C38
:100D40008DF802001E48007830B100208DF80000B8
:100D50008DF801008DF80200032269460620FFF796
:100D60006BFE00200C49091D086038BD10B50B2230
:100D700014490020FFF760FE00200749091D0860A4
:100D800010BD10B50B2210490020FFF755FE0020C2
:100D90000149091D086010BD8C812142B00121422A
:100DA0003C0300207000002000023000000C0140D5
:100DB00000080140CF00002063000020BD0000209B
:100DC00064000020650000209100002010B50B2277
:100DD000B8490020FFF730FE0020B749086010BD79
:100DE00010B50B22B5490020FFF726FE0020B249BE
:100DF000086010BD10B50B22B1490020FFF71CFEA2
:100E00000020AD49086010BD10B50B22AD4900208F
:100E1000FFF712FE0020A849086010BD10B5AA48CF
:100E2000007800F0F700A84908700846007840F004
:100E300010000870084601781420FFF71CFE0020FF
:100E40009D49086010BD10B59F48007800F0EF0084
:100E50009D4908700846007840F008000870084670
:100E600001781420FFF707FE00209349086010BDA9
:100E700010B59548007800F0DF00934908700846E7
:100E8000007840F040000870084601781420FFF711
:100E9000F2FD00208849086010BD10B58A4800782E
:100EA00000F0BF00884908700846007840F0200034
:100EB0000870084601781420FFF7DDFD00207E4908
:100EC000086010BD10B5032280490820FFF7B4FD6B
:100ED00000207949086010BD70B504460D46D02049
:100EE00079490870084601781420FFF7C4FDFFF720
:100EF000E9FF00207049086070BD10B580211D20F9
:100F0000FFF7B9FD10BD10B500211D20FFF7B3FD9F
:100F100010BD38B50446642094FBF0F100FB11408D
:100F20000A2190FBF1F0C0B28DF800000A2094FB7A
:100F3000F0F100FB1140C0B28DF801009DF80000F7
:100F40006349085C8DF800009DF80100085C8DF88D
:100F50000100022269460C20FFF76EFD0020564971
:100F6000086038BD08B500200090022269460C20B8
:100F7000FFF762FD00205049086008BD38B50446FF
:100F8000642094FBF0F100FB11400A2190FBF1F08A
:100F9000C0B28DF800000A2094FBF0F100FB114074
:100FA000C0B28DF801009DF800004949085C8DF839
:100FB00000009DF80100085C8DF8010002226946DE
:100FC0001020FFF739FD00203B49086038BD08B507
:100FD00000200090022269461020FFF72DFD00201E
:100FE0003549086008BD38B504464FF47A7094FB63
:100FF000F0F100FB1140642190FBF1F0C0B28DF8DC
:101000000000642094FBF0F100FB11400A2190FBEA
:10101000F1F0C0B28DF801000A2094FBF0F100FB62
:101020001140C0B28DF802009DF800002849085C0C
:101030008DF800009DF80100085C8DF801009DF816
:101040000200085C8DF80200032269460220FFF7C7
:10105000F3FC00201849086038BD08B50020009056
:10106000032269460220FFF7E7FC002012490860CE
:1010700008BD10B51448007840F00100124908700E
:10108000084601781420FFF7F6FC00200A490860A2
:1010900010BD10B50C48007800F0FE000A49087039
:1010A000084601781420FFF7E6FC0020024908609A
:1010B00010BD00009C00002090812142A70000206C
:1010C000B20000207B00002062000020BD00002054
:1010D000CF00002010B54D480078012815D14C48AC
:1010E0000078012811D04948401E0078401C47492B
:1010F000491E087008460078192806D90020891C66
:101100000870891E0870491C08704FF4004141485E
:1011100002F010F83D4918310870153901F1140238
:10112000127851F82200804738491731087010BDF5
:1011300010B5FFF7CFFF10BD34481830007808B95C
:10114000012070470020FCE730481830007808B9CB
:10115000022070470020FCE72C481830007808B9BE
:10116000032070470020FCE728481830007888B931
:101170002648801E0078401C2449891E08700846B5
:101180000078502804D301202349087004207047B8
:101190000320FCE71D48801E0078502822D2012041
:1011A0001E4908701948401C0078401C1749491C0A
:1011B00008700120491E0870481C007802280FD1D1
:1011C000481E007819280BD20020491C0870891E7F
:1011D0000870491C087001200D4908700420D6E7EA
:1011E0000420D4E70420D2E708481830007840B93A
:1011F0000648801E0078401C0449891E08700320A0
:10120000704700200149891E0870F9E7E5000020B9
:10121000E2000020000C0140E1000020E00000207E
:1012200010B54E480078012815D14D4800780128A6
:1012300011D04A48401E0078401C4849491E087099
:1012400008460078192806D90020891C0870891ED4
:101250000870491C08702021424801F06BFF3F498B
:1012600018310870153901F11402127851F8220072
:1012700080473A491731087010BD10B5FFF7D0FF0D
:1012800010BD36481830007808B90120704700209A
:10129000FCE732481830007808B902207047002077
:1012A000FCE72E481830007808B90320704700206A
:1012B000FCE72A481830007888B92848801E007852
:1012C000401C2649891E087008460078502804D31F
:1012D000012025490870042070470320FCE71F48BF
:1012E000801E0078502822D20120204908701B4817
:1012F000401C0078401C1949491C08700120491EF7
:101300000870481C007802280FD1481E0078192860
:101310000BD20020491C0870891E0870491C0870F7
:1013200001200F4908700420D6E70420D4E70420E8
:10133000D2E70A481830007840B90848801E007883
:10134000401C0649891E087003207047002006498A
:1013500008700249891E0870F7E7000005010020A7
:1013600002010020000C01400101002000010020CA
:1013700010B54E480078012815D14D480078012855
:1013800011D04A48401E0078401C4849491E087048
:1013900008460078192806D90020891C0870891E83
:1013A0000870491C08704FF48041424801F0C2FEA9
:1013B0003E4918310870153901F11402127851F8BC
:1013C0002200804739491731087010BD10B5FFF76A
:1013D000CFFF10BD35481830007808B9012070479C
:1013E0000020FCE731481830007808B90220704727
:1013F0000020FCE72D481830007808B9032070471A
:101400000020FCE729481830007888B92748801E5A
:101410000078401C2549891E08700846007850282D
:1014200004D3012024490870042070470320FCE7FE
:101430001E48801E0078502822D201201F490870C3
:101440001A48401C0078401C1849491C08700120AB
:10145000491E0870481C007802280FD1481E0078E9
:1014600019280BD20020491C0870891E0870491CDD
:10147000087001200E4908700420D6E70420D4E744
:101480000420D2E709481830007840B90748801E88
:101490000078401C0549891E087003207047002011
:1014A000054908700149891E0870F7E725010020E9
:1014B0002201002000100140210100202001002015
:1014C00010B54D480078012815D14C480078012806
:1014D00011D04948401E0078401C4749491E0870F9
:1014E00008460078192806D90020891C0870891E32
:1014F0000870491C08704FF40041414801F01AFE81
:101500003D4918310870153901F11402127851F86B
:101510002200804738491731087010BD10B5FFF719
:10152000CFFF10BD34481830007808B9012070474B
:101530000020FCE730481830007808B902207047D6
:101540000020FCE72C481830007808B903207047C9
:101550000020FCE728481830007888B92648801E0B
:101560000078401C2449891E0870084600785028DD
:1015700004D3012023490870042070470320FCE7AE
:101580001D48801E0078502822D201201E49087074
:101590001948401C0078401C1749491C087001205C
:1015A000491E0870481C007802280FD1481E007898
:1015B00019280BD20020491C0870891E0870491C8C
:1015C000087001200D4908700420D6E70420D4E7F4
:1015D0000420D2E708481830007840B90648801E39
:1015E0000078401C0449891E0870032070470020C1
:1015F0000149891E0870F9E74501002042010020D9
:10160000000C0140410100204001002010B54D4870
:101610000078012815D14C480078012811D049489C
:10162000401E0078401C4749491E08700846007853
:10163000192806D90020891C0870891E0870491CC9
:1016400008704FF40041414801F074FD3D491831E4
:101650000870153901F11402127851F82200804700
:1016600038491731087010BD10B5FFF7CFFF10BD16
:1016700034481830007808B9012070470020FCE792
:1016800030481830007808B9022070470020FCE785
:101690002C481830007808B9032070470020FCE778
:1016A00028481830007888B92648801E0078401CE9
:1016B0002449891E087008460078502804D3012068
:1016C00023490870042070470320FCE71D48801E52
:1016D0000078502822D201201E4908701948401C69
:1016E0000078401C1749491C08700120491E0870E9
:1016F000481C007802280FD1481E007819280BD208
:101700000020491C0870891E0870491C08700120BF
:101710000D4908700420D6E70420D4E70420D2E75E
:1017200008481830007840B90648801E0078401CF0
:101730000449891E08700320704700200149891E52
:101740000870F9E76501002062010020000C0140EB
:10175000610100206001002010B54E48007801288A
:1017600015D14D480078012811D04A48401E007814
:10177000401C4849491E087008460078192806D9B7
:101780000020891C0870891E0870491C087080217F
:10179000424801F0CFFC3F4918310870153901F17A
:1017A0001402127851F8220080473A491731087024
:1017B00010BD10B5FFF7D0FF10BD364818300078C7
:1017C00008B9012070470020FCE732481830007843
:1017D00008B9022070470020FCE72E481830007836
:1017E00008B9032070470020FCE72A481830007829
:1017F00088B92848801E0078401C2649891E087038
:1018000008460078502804D3012025490870042098
:1018100070470320FCE71F48801E0078502822D222
:101820000120204908701B48401C0078401C1949C1
:10183000491C08700120491E0870481C00780228C5
:101840000FD1481E007819280BD20020491C0870BF
:10185000891E0870491C087001200F490870042077
:10186000D6E70420D4E70420D2E70A4818300078ED
:1018700040B90848801E0078401C0649891E08703F
:10188000032070470020064908700249891E08702D
:10189000F7E700008501002082010020000C0140D4
:1018A000810100208001002000206249C873087473
:1018B00048744861088348838860486008607047BE
:1018C0007EB56E4600210A460B460EC600BF0024B8
:1018D0000025584A5083128B564B5B8B9A420ADB89
:1018E000544A128B534B5B8BD21A534B1A8064228F
:1018F0009B1C1A8007E04F4A528B4E4B1B8BD21A0F
:101900004D4B9B1C1A804C4A1288322A04DB4A4AEF
:10191000921C1288322A64DA464A128B454B5B8B42
:10192000D21A0092434A5268424B9A601A46126891
:101930005A60009A1A601A4612685B68D21A0092BE
:101940003C4A12683B4B5B68A2EB4302394B9B68F5
:101950001A440292374AD27B009B5A430092354A7E
:10196000127C344B1B685A430192324A527C029BD0
:101970005A430292DDE900231A44029B1A44009262
:101980002C4B009A5B691A442A4B5A611A465269D9
:10199000002A1BDD1A465269322392FBF3F2274BD1
:1019A0001A801A461288264B1B889A4203DC244A66
:1019B0001288224B1A80214A1288224B1B889A4295
:1019C00008DB204A12881D4B1A8003E01C4A12884B
:1019D0001A4B1A80194A128832235A43154B5A61FE
:1019E00026E0144A128B134B5B8B9A4210DB154A8C
:1019F0001288124B1A8000220E4B5A619A605A606C
:101A00001A600E4A128832235A430A4B5A610FE079
:101A10000B4A1288094B1A800022064B5A619A60C1
:101A20005A601A60054A128832235A43014B5A61A0
:101A30007EBD000048030020A6010020A001002078
:101A4000A4010020A20100202DE9F04104460D462A
:101A500017461E460121084601F07BFD204602F094
:101A60009DFEF7480680F748056047601020F5495D
:101A700088600846C6600020086180204861002018
:101A80008861C86108624FF4805048620020886213
:101A9000204602F02BFFBDE8F08110B5044600217E
:101AA000204602F04EFFE6480188E74802F05EFF5C
:101AB0000121204602F045FF10BD08B5012108466E
:101AC00001F047FDE048143002F068FEDF48DD49D0
:101AD0000860DF484860002088604620C860002019
:101AE00008618020486100208861C86108624FF465
:101AF0008050486200208862D348143002F0F6FE1D
:101B000001224021D148001F02F042FD0121CE48B0
:101B1000143002F016FFCC4802F040FECB48C94911
:101B20000860CC484860102088604620C8600020CB
:101B300008618020486100208861C86108624FF414
:101B40008050486200208862BF4802F0CFFE012228
:101B50000221BD4802F001FF01228021BB48001F85
:101B600002F016FD0E208DF8000003208DF8010014
:101B70008DF8020001208DF80300684600F069FF2F
:101B800008BD10B54FF4005002F0F6FE30B14FF42E
:101B9000005002F004FF0020AF49087010BD002281
:101BA00003E000238354531CDAB28A42F9DB704706
:101BB00070B504460D4600BFA74800780128FBD049
:101BC0002A462146A34808F045F900219E4802F024
:101BD000B8FE29469C4802F0C9FE01219A4802F04D
:101BE000B0FE01209C49087070BD08B50121042099
:101BF00001F0BCFC04208DF8030003208DF80200E6
:101C00002020ADF800006946944801F005FA102044
:101C1000ADF800006946914801F0FEF908BD08B52D
:101C20008FA00068009004216846FFF7C1FF08BD3F
:101C300008B58CA00068009004216846FFF7B8FF43
:101C400008BD08B588A00068009004216846FFF729
:101C5000AFFF08BD08B585A0006800900421684664
:101C6000FFF7A6FF08BD08B581A000680090042119
:101C70006846FFF79DFF08BD7CB504460D46164635
:101C80007CA103C9CDE900018DF801408DF8025017
:101C90007A48007801281FD14FF47A7096FBF0F152
:101CA00000FB1160642190FBF1F0C0B28DF80300DD
:101CB000642096FBF0F100FB11600A2190FBF1F02B
:101CC000C0B28DF804000A2096FBF0F100FB116011
:101CD000C0B28DF8050026E0A6F1200000EB8000E0
:101CE000092190FBF1F086B24FF47A7096FBF0F187
:101CF00000FB1160642190FBF1F0C0B28DF803008D
:101D0000642096FBF0F100FB11600A2190FBF1F0DA
:101D1000C0B28DF804000A2096FBF0F100FB1160C0
:101D2000C0B28DF8050007216846FFF741FF7CBD72
:101D3000FEB504460D461646684651A18CC98CC0B6
:101D40008DF80240052095FBF0F100FB1150281A98
:101D50004FF47A7190FBF1F201FB1200642190FBC9
:101D6000F1F0C0B28DF80300052095FBF0F100FB07
:101D70001150281A642190FBF1F201FB12000A2194
:101D800090FBF1F0C0B28DF80400052095FBF0F156
:101D900000FB1150281A0A2190FBF1F201FB1200FE
:101DA000C0B28DF80500052096FBF0F100FB116034
:101DB000301A4FF47A7190FBF1F201FB12006421AA
:101DC00090FBF1F0C0B28DF80600052096FBF0F113
:101DD00000FB1160301A642190FBF1F201FB12004C
:101DE0000A2190FBF1F0C0B28DF80700052096FBA8
:101DF000F0F100FB1160301A0A2190FBF1F201FBB7
:101E00001200C0B28DF808006846FFF7D1FEFEBD93
:101E100038B504461DA0006800908DF802400421EA
:101E20006846FFF7C5FE38BD38B5044618A00068FF
:101E300000908DF8024004216846FFF7B9FE38BDD6
:101E4000BE01002064030020440002400438014029
:101E5000900300201C040020B00100200008014075
:101E6000FE0101FFFE0102FFFE0A01FFFE0201FF6B
:101E7000FE0202FFFE0000000000FF00AA01002099
:101E8000FE0700000000000000FF0000FE0800FF49
:101E9000FE0900FF2DE9F04186B004460E2102A89C
:101EA00008F01EF8FF480068019000250026002772
:101EB000A8468DF80540FC480078012823D1FB484E
:101EC00000884FF47A7190FBF1F201FB120064215B
:101ED00090FBF1F0C0B28DF80600F448008890FB4A
:101EE000F1F201FB12000A2190FBF1F0C0B28DF873
:101EF0000700EE48008890FBF1F201FB1200C0B22F
:101F00008DF808002DE0E9480088202809DBE74823
:101F10000088203800EB8000092190FBF1F086B2A8
:101F200000E000264FF47A7096FBF0F100FB1160A0
:101F3000642190FBF1F0C0B28DF80600642096FB9E
:101F4000F0F100FB11600A2190FBF1F0C0B28DF8B6
:101F500007000A2096FBF0F100FB1160C0B28DF87B
:101F60000800D1480079002856D0CF4800780128D1
:101F700023D1CF4800884FF47A7190FBF1F201FB36
:101F80001200642190FBF1F0C0B28DF80900C8483E
:101F9000008890FBF1F201FB12000A2190FBF1F0A6
:101FA000C0B28DF80A00C248008890FBF1F201FB34
:101FB0001200C0B28DF80B0037E0BD480088202821
:101FC00009DBBB480088203800EB8000092190FB2A
:101FD000F1F085B200E000254FF47A7095FBF0F146
:101FE00000FB1150642190FBF1F0C0B28DF80900A4
:101FF000642095FBF0F100FB11500A2190FBF1F0F9
:10200000C0B28DF80A000A2095FBF0F100FB1150D8
:10201000C0B28DF80B0008E009208DF809000620F9
:102020008DF80A0000208DF80B009F48C078012829
:1020300058D19D480078012823D19E4800884FF44C
:102040007A7190FBF1F201FB1200642190FBF1F038
:10205000C0B28DF80C009748008890FBF1F201FBAC
:1020600012000A2190FBF1F0C0B28DF80D009148EA
:10207000008890FBF1F201FB1200C0B28DF80E0057
:10208000AEE08C48008820280ADB8A480088203887
:1020900000EB8000092190FBF1F01FFA80F801E0CD
:1020A0004FF000084FF47A7098FBF0F100FB1180BC
:1020B000642190FBF1F0C0B28DF80C00642098FB15
:1020C000F0F100FB11800A2190FBF1F0C0B28DF815
:1020D0000D000A2098FBF0F100FB1180C0B28DF8D2
:1020E0000E007DE07048C078022856D16E48007816
:1020F000012823D1704800884FF47A7190FBF1F2E7
:1021000001FB1200642190FBF1F0C0B28DF80C00CD
:102110006948008890FBF1F201FB12000A2190FB54
:10212000F1F0C0B28DF80D006348008890FBF1F229
:1021300001FB1200C0B28DF80E0051E05E4800882D
:10214000202809DB5C480088203800EB800009214A
:1021500090FBF1F087B200E000274FF47A7097FB14
:10216000F0F100FB1170642190FBF1F0C0B28DF82A
:102170000C00642097FBF0F100FB11700A2190FB2A
:10218000F1F0C0B28DF80D000A2097FBF0F100FBD2
:102190001170C0B28DF80E0022E0474800884FF45D
:1021A0007A7190FBF1F201FB1200642190FBF1F0D7
:1021B000C0B28DF80C004048008890FBF1F201FBA2
:1021C00012000A2190FBF1F0C0B28DF80D003A48E0
:1021D000008890FBF1F201FB1200C0B28DF80E00F6
:1021E00001208DF80F00304800798DF810002E483E
:1021F000C0788DF811002C4880788DF812000220EC
:102200008DF81300284800788DF81400FF208DF811
:102210001500122101A8FFF7CBFC06B0BDE8F08144
:1022200000B587B0122102A807F05AFE1D48001D14
:10223000006801901D4800884FF47A7190FBF1F21C
:1022400001FB1200642190FBF1F0C0B28DF8060092
:102250001648008890FBF1F201FB12000A2190FB66
:10226000F1F0C0B28DF807001048008890FBF1F241
:1022700001FB1200C0B28DF808000D4800884FF431
:102280007A7190FBF1F201FB1200642190FBF1F0F6
:10229000C0B28DF809000648008890FBF1F201FBFE
:1022A00012000BE004A90008AA010020E6010020AA
:1022B000EC010020E2010020E00100200A2190FB57
:1022C000F1F0C0B28DF80A00FD48008890FBF1F2F1
:1022D00001FB1200C0B28DF80B0000208DF80C003D
:1022E0008DF80D008DF80E008DF80F008DF81000A0
:1022F0008DF81100F34800884FF47A7190FBF1F2E9
:1023000001FB1200642190FBF1F0C0B28DF81200C5
:10231000EC48008890FBF1F201FB12000A2190FBCF
:10232000F1F0C0B28DF81300E648008890FBF1F29E
:1023300001FB1200C0B28DF81400E34800884FF48E
:102340007A7190FBF1F201FB1200642190FBF1F035
:10235000C0B28DF81500DC48008890FBF1F201FB5B
:1023600012000A2190FBF1F0C0B28DF81600D64899
:10237000008890FBF1F201FB1200C0B28DF817004B
:1023800001208DF81800FF208DF81900162101A8F2
:10239000FFF70EFC07B000BD2DE9FF4104460D46D6
:1023A00016461F46C949684691E80C1180E80C1191
:1023B0000A20B4FBF0F03C21B0FBF1F04FF47A714D
:1023C000B0FBF1F201FB12006421B0FBF1F0C0B2EE
:1023D0008DF802000A20B4FBF0F03C21B0FBF1F0D4
:1023E0006421B0FBF1F201FB12000A21B0FBF1F015
:1023F000C0B28DF803000A20B4FBF0F03C21B0FB22
:10240000F1F00A21B0FBF1F201FB1200C0B28DF82D
:1024100004003C20B4FBF0F0B0FBF1F201FB120031
:10242000C0B28DF80500052095FBF0F100FB1150BE
:10243000281A4FF47A7190FBF1F201FB120064212B
:1024400090FBF1F0C0B28DF80600052095FBF0F18D
:1024500000FB1150281A642190FBF1F201FB1200DD
:102460000A2190FBF1F0C0B28DF80700052095FB22
:10247000F0F100FB1150281A0A2190FBF1F201FB48
:102480001200C0B28DF808009148007988B3052089
:1024900096FBF0F100FB1160301A4FF47A7190FB5B
:1024A000F1F201FB1200642190FBF1F0C0B28DF853
:1024B0000900052096FBF0F100FB1160301A642141
:1024C00090FBF1F201FB12000A2190FBF1F0C0B287
:1024D0008DF80A00052096FBF0F100FB1160301A20
:1024E0000A2190FBF1F201FB1200C0B28DF80B0043
:1024F00007E0FFE700208DF809008DF80A008DF84D
:102500000B0009208DF80C0006208DF80D0000202E
:102510008DF80E00FF208DF80F0010216846FFF7A0
:1025200047FBBDE8FF813EB504460D4667491031C3
:1025300068460EC90EC04FF47A7094FBF0F100FBB0
:102540001140642190FBF1F0C0B28DF802006420CC
:1025500094FBF0F100FB11400A2190FBF1F0C0B2B6
:102560008DF803000A2094FBF0F100FB1140C0B28B
:102570008DF804004FF47A7095FBF0F100FB1150D8
:10258000642190FBF1F0C0B28DF80500642095FB4A
:10259000F0F100FB11500A2190FBF1F0C0B28DF870
:1025A00006000A2095FBF0F100FB1150C0B28DF837
:1025B0000700FF208DF8080009216846FFF7F8FAA8
:1025C0003EBD1CB5044641491C3103C9CDE900019B
:1025D0000A20B4FBF0F03C21B0FBF1F04FF47A712B
:1025E000B0FBF1F201FB12006421B0FBF1F0C0B2CC
:1025F0008DF802000A20B4FBF0F03C21B0FBF1F0B2
:102600006421B0FBF1F201FB12000A21B0FBF1F0F2
:10261000C0B28DF803000A20B4FBF0F03C21B0FBFF
:10262000F1F00A21B0FBF1F201FB1200C0B28DF80B
:102630000400FF208DF8050006216846FFF7B8FA70
:102640001CBD08B523A00068009004216846FFF770
:10265000AFFA08BD08B520A00068009004216846C4
:10266000FFF7A6FA08BD08B51CA000680090042179
:102670006846FFF79DFA08BD70B504460E46002572
:10268000042E00DA70BD2078FE286FD1607809280A
:102690006DD008DC092842D2DFE800F0412942561B
:1026A0008CB5FEFDFC000E287ED019DC0A287CD0FB
:1026B0000B287BD00C287AD00D2830D138E10000CF
:1026C000EC010020E2010020E00100200CA900083C
:1026D000AA010020FE3101FFFE3102FFFE2201FFB0
:1026E0000F2879D0232878D03128E6D150E1A0787E
:1026F000012808D1E078FF2805D10120BB490870E6
:10270000BB4988700BE0A078022808D1E078FF2848
:1027100005D10120B74908700220B549887063E1EE
:10272000A078012806D1E078FF2803D10120B24922
:10273000087008E0A078022805D1E078FF2802D1CF
:102740000020AD4908704FE1A078012810D1207910
:10275000FF280DD10120A9490870A9490870E07827
:10276000A84908800120A849087022E03DE1CAE09C
:10277000A078022801D1012000E00020A1780329DF
:1027800001D1012100E00021084312D02079FF2867
:102790000FD101209949087099490870E07899494A
:1027A00008800220984903E0CFE0ADE0ADE0B6E05C
:1027B000087019E1A078012810D12079FF280DD1E7
:1027C00001209249087092490870E0788D4908808C
:1027D00001208D49087015E0C8E0D2E0A0780228F9
:1027E00002D0A07803280DD12079FF280AD101203A
:1027F0008649087086490870E0788249088002207E
:1028000081490870F0E0A078012823D1A079FF2841
:1028100020D101207F490870E0780A2190FBF1F275
:1028200001FB12006421484321790A2291FBF2F353
:1028300002FB131101EB810100EB4100617991FB77
:10284000F2F302FB131108446E49088001206E491F
:1028500008702CE0A078022802D0A078032826D1A6
:10286000A079FF2823D101206A490870E0780A2165
:1028700090FBF1F201FB12006421484321790A2206
:1028800091FBF2F302FB131101EB810100EB41001C
:10289000617902E036E024E00AE091FBF2F302FB0A
:1028A00013110844574908800220574908709BE0DB
:1028B000A078012809D1E078FF2806D101205649E7
:1028C00008700020504908700AE0A078022807D15B
:1028D000E078FF2804D101204F4908704A49087068
:1028E00082E0A078012802D0A078022809D1E078FF
:1028F000FF2806D149480288494801880120FFF78E
:1029000017FA71E070E06FE06EE0A078012805D161
:10291000E078FF2802D10B20FFF7BCFA64E0A07832
:10292000012804D1E078FF2801D1FFF779FC5BE0B2
:10293000A078012808D1E078FF2805D1384801881F
:1029400038480088FFF7EFFD4EE0A07801280CD151
:10295000E078FF2809D1344803883048028833489A
:10296000018833480068FFF717FD3DE0A078012893
:1029700006D1E078FF2803D12D480068FFF721FE3B
:1029800032E0E078FF2802D1A0782A4908702BE0D5
:10299000A07802280ED1E078FF280BD1022026492A
:1029A0000870002025490870012025490870FFF7AC
:1029B00051FE18E094F84200FF2814D1002505E0EC
:1029C000A81C205C1F494855681CC5B2402DF7DB88
:1029D0001C484078194908700120174908701849A7
:1029E0000870FFF72EFE00BF00BF4BE6000000207E
:1029F000AA010020B1010020B701002080010020C1
:102A0000B4010020B2010020F701002000010020E5
:102A1000B5010020B601002020010020EC010020BB
:102A2000E6010020E2010020EE010020E00100208C
:102A3000080200200D020020B8010020BC01002087
:102A4000BD0100206204002032490143324A116076
:102A5000704770B5002100230F22C4780CB32E4CB0
:102A6000246804F4E064C4F5E064210AC1F10403BD
:102A7000CA40447804FA03F18478144021430901E0
:102A8000264C0678A155047804F01F050124AC40BB
:102A900005786D114FF0E02606EB8505C5F800417D
:102AA00009E0047804F01F040125A5401C4C0678B9
:102AB000761144F8265070BD1A4A0A400243164B5C
:102AC0001B1F1A60704741B1134A121D126802435E
:102AD0004FF0E023C3F8102D07E00F4A121D1268D3
:102AE00082434FF0E023C3F8102D7047042808D12B
:102AF0004FF0E021096941F004014FF0E02211613B
:102B000007E04FF0E021096921F004014FF0E022D5
:102B1000116170470000FA050CED00E000E400E0F0
:102B200080E100E080FFFF1F10B50446F7488442B3
:102B300008D10121401500F033FD0021601500F09F
:102B40002FFD17E0F248844208D10121001500F062
:102B500027FD0021201500F023FD0BE0ED48844205
:102B600008D10121C80300F01BFD00214FF40040F3
:102B700000F016FD10BD30B5002200234268E64C7F
:102B800022400D790C6844EA0524224342608268A1
:102B9000E24C2240D1E902542C434D7944EA4504E9
:102BA00022438260C26A22F470020C7C641EE4B28A
:102BB000234342EA0352C26230BD00210160017129
:102BC00041718160C16001210174704721B1826847
:102BD00042F00102826003E0826822F0010282601A
:102BE000704721B1826842F48072826003E082689B
:102BF00022F480728260704710B50023CBB21AB104
:102C000044681C43446002E044689C43446010BD37
:102C1000816841F0080181607047014600208A68A0
:102C200012F0080F01D0012000E0002070478168F9
:102C300041F0040181607047014600208A6812F06B
:102C4000040F01D0012000E00020704721B182680C
:102C500042F4A002826003E0826822F4A002826053
:102C60007047014600208A6812F4800F01D00120CD
:102C700000E00020704710B500220023426822F4D3
:102C800060424B1E42EA4332426010BD21B14268AD
:102C900042F40062426003E0426822F40062426053
:102CA0007047F0B500240025092911DDC468A1F1A1
:102CB0000A0606EB4607072606FA07F5AC43A1F11C
:102CC0000A0606EB460603FA06F52C43C4600CE040
:102CD000046901EB4107072606FA07F5AC4301EB4F
:102CE000410603FA06F52C430461072A0FDA446B08
:102CF000561E06EB86071F2606FA07F5AC43561E3E
:102D000006EB860601FA06F52C43446322E00D2A01
:102D10000FDA046BD61F06EB86071F2606FA07F5A7
:102D2000AC43D61F06EB860601FA06F52C43046376
:102D300010E0C46AA2F10D0606EB86071F2606FA0C
:102D400007F5AC43A2F10D0606EB860601FA06F57F
:102D50002C43C462F0BD21B1826842F480128260CB
:102D600003E0826822F48012826070470146C86CDA
:102D700080B2704765484C300068704721B14268A6
:102D800042F48062426003E0426822F48062426062
:102D9000704721B1426842F48052426003E04268C9
:102DA00022F48052426070470022826822F4E0429E
:102DB0000A438260704721B1826842F40042826017
:102DC00003E0826822F400428260704721B1826889
:102DD00042F40212826003E0826822F402128260EE
:102DE0007047014600208A6812F4001F01D00120BC
:102DF00000E000207047F0B50024002500260929D6
:102E000011DDC468A1F10A0707EB470C072707FA91
:102E10000CF5AC43A1F10A0707EB470703FA07F5E6
:102E20002C43C4600CE0046901EB410C072707FA4E
:102E30000CF5AC4301EB410703FA07F52C430461A1
:102E4000846BC4F30156D71C06F1010CA7EB0C07E9
:102E500007EB870C1F2707FA0CF5AC43D71C06F1CC
:102E6000010CA7EB0C0707EB870701FA07F52C43CA
:102E70008463F0BD10B500220023826B22F440125F
:102E80004B1E42EA0352826310BD10B50023034675
:102E900018460B441A6010BD0246002313461A461A
:102EA00001F128000344186880B27047002242688C
:102EB0001B4B1A400A43426070474162826270476E
:102EC0000022426822F01F020A434260704740B16C
:102ED0000E490831096841F40001124AC2F8081489
:102EE00007E00A490831096821F400010D4AC2F8D7
:102EF000081470470246002013680B4201D00120DD
:102F000000E000207047CA4302607047002401407F
:102F100000280140003C0140FFFEF0FFFDF7F1FFFB
:102F2000FFFD3FFF0020014070B502460020002356
:102F300000240B125568CEB205EA060415681D423E
:102F400002D00CB1012000E0002070BD00220A1266
:102F5000D34303607047000010B50446C74884425D
:102F600008D10121042000F01BFB0021042000F007
:102F700017FB46E0C248844208D10121082000F036
:102F80000FFB0021082000F00BFB3AE0BD48844213
:102F900008D10121102000F003FB0021102000F0D7
:102FA000FFFA2EE0B848844208D10121202000F029
:102FB000F7FA0021202000F0F3FA22E0B34884421F
:102FC00008D10121402000F0EBFA0021402000F060
:102FD000E7FA16E0AE48844208D10121802000F0D3
:102FE000DFFA0021802000F0DBFA0AE0A9488442E1
:102FF00007D10121801500F0D3FA0021A01500F0BF
:10300000CFFA10BD10B50121084600F0C9FA002121
:10301000012000F0C5FA10BDF0B500220023002405
:1030200000250026002791F803C00CF00F0291F84C
:1030300003C01CF0100F03D091F802C04CEA02024A
:10304000B1F800C01CF0FF0F31D0066800242BE05F
:103050004FF0010C0CFA04F5B1F800C00CEA0503BE
:10306000AB4220D1A5004FF00F0C0CFA05F7BE4380
:1030700002FA05FC4CEA060691F803C0BCF1280FE1
:1030800006D14FF0010C0CFA04FCC0F814C00AE0A1
:1030900091F803C0BCF1480F05D14FF0010C0CFAB8
:1030A00004FCC0F810C0641C082CD1D30660B1F831
:1030B00000C0BCF1FF0F34DD466800242EE004F1AF
:1030C000080C4FF0010E0EFA0CF5B1F800C00CEA36
:1030D0000503AB4221D1A5004FF00F0C0CFA05F708
:1030E000BE4302FA05FC4CEA060691F803C0BCF1A7
:1030F000280F05D104F1080C0EFA0CFEC0F814E0FC
:1031000091F803C0BCF1480F07D104F1080C4FF04F
:10311000010E0EFA0CFEC0F810E0641C082CCED391
:103120004660F0BD4FF6FF710180022181700421DD
:10313000C17070470246002093680B4201D0012005
:1031400000E0002070470146886880B27047024660
:103150000020D3680B4201D0012000E0002070471E
:103160000146C86880B2704701617047416170478D
:103170000AB1016100E041617047C16070474FF4DE
:1031800080320A438261816182618269826970470B
:103190000022414B1A684FF680731A4042EA00122F
:1031A0000A433D4B1A6070473C49C8617047F0B50F
:1031B000002200230024002500F00046B6F1004F55
:1031C00002D1354EF46901E0334E7468C0F3034513
:1031D00082B200F44016B6F5401F08D124F07064A6
:1031E0002D4E766826F070662B4F7E6012E000F45C
:1031F0008016B6F5801F06D1032606FA05F39C4318
:1032000044F0706406E0460D360102FA06F6B44357
:1032100044F0706421B1460D360102FA06F63443DB
:1032200000F00046B6F1004F02D11B4EF46101E000
:10323000194E7460F0BD30B500228B071C0F0F23B0
:1032400003FA04F2144B08338C1053F824409443CF
:103250008D1043F825408C1053F824308C07240F30
:1032600000FA04F423430C4C08348D1044F8253044
:1032700030BD0A49DC310860704700000008014099
:10328000000C0140001001400014014000180140F2
:10329000001C0140002001400000014000002042CD
:1032A000DB48006840F00100D949086008464068E2
:1032B000D8490840D649486008460068D6490840C1
:1032C000D34908600846006820F48020086008465A
:1032D000406820F4FE0048604FF41F00886070478B
:1032E000CB49096821F48031C94A11601146096847
:1032F00021F480211160B0F5803F03D0B0F5802F1C
:103300000ED106E0C249096841F48031C04A11601B
:1033100007E0BF49096841F4A021BD4A116000E0FF
:1033200000BF00BF704710B50146002200230020F7
:103330004A11012A02D1B64C236806E0022A02D1C2
:10334000B34C236A01E0B24C636A01F01F0201240E
:1033500094401C4201D0012000E0002010BD70B557
:1033600000240025002600BF3120FFF7DCFF0646C1
:10337000641CB4F5A06F01D0002EF5D03120FFF70A
:10338000D2FF08B1012500E00025284670BD0021CC
:103390009F4A116821F0F80141EAC00111607047AD
:1033A0009E49086070470022994B5A6822F47C12AB
:1033B00040EA01031A43964B5A60704797490866E2
:1033C00070470021924A516821F003010143516086
:1033D00070478F48406800F00C00704700218C4A0D
:1033E000516821F0F0010143516070470021884A83
:1033F000516821F4E0610143516070470021844A23
:10340000516821F4605141EAC0015160704729B10F
:103410007F4A527A02437E4B5A7206E07C4A527AC5
:10342000C343DBB21A407A4B5A7270477B49D8319A
:10343000086070470021764A516821F440410143F9
:10344000516070470021724A20321170704A82F830
:103450002010012802D004280AD104E001216C4A7E
:103460002032117005E00521694A2032117000E018
:1034700000BF00BF70476A49086070476449096A25
:103480000143634A116270476549443908607047D7
:1034900030B500210022002300245D4D6D6805F049
:1034A0000C0121B1042905D0082923D105E05D4D87
:1034B000056022E05B4D05601FE0554D6D6805F429
:1034C0007012534D6D6805F48033022505EB92426E
:1034D0001BB9554D554305600BE04D4D6D6815F416
:1034E000003F03D0504D5543056002E04D4D55431C
:1034F000056002E04B4D056000BF00BF444D6D68A4
:1035000005F0F0010909494D6C5C0568E54045602E
:103510003F4D6D6805F4E061090A444D6C5C4568F7
:10352000E54085603A4D6D6805F46051C90A3F4D2C
:103530006C5C4568E540C560354D6D6805F44041FB
:10354000890B3A4D10356C5CC568B5FBF4F5056127
:1035500030BD29B12E4A526902432D4B5A6104E015
:103560002B4A526982432A4B5A61704729B1284A33
:1035700092690243264B9A6104E0254A926982438C
:10358000234B9A61704729B1214AD2690243204BEB
:10359000DA6104E01E4AD26982431D4BDA6170474A
:1035A00029B11B4AD2680243194BDA6004E0184A79
:1035B000D2688243164BDA60704729B1144A126907
:1035C0000243134B1A6104E0114A12698243104B03
:1035D0001A61704712494039086070470F49C86442
:1035E00070470B49C87170470948406A40F08070C5
:1035F00007494862704701460020054A92680A421E
:1036000001D0012000E00020704701498872704716
:10361000001002400000FFF8FFFFF6FE00004242EB
:103620008004424200127A0000093D00C0010020DF
:1036300010B50446FF48844208D10121C014FFF7A9
:10364000AFFF0021E014FFF7ABFFC4E0B4F1804FFF
:1036500008D101210846FFF7B0FF00210120FFF744
:10366000ACFFB8E0F448844208D101210220FFF702
:10367000A4FF00210220FFF7A0FFACE0EF48844246
:1036800008D101210420FFF798FF00210420FFF753
:1036900094FFA0E0EA48844208D101210820FFF706
:1036A0008CFF00210820FFF788FF94E0E548844262
:1036B00008D101211020FFF780FF00211020FFF723
:1036C0007CFF88E0E048844208D101212020FFF7F8
:1036D00074FF00212020FFF770FF7CE0DB4884426C
:1036E00008D101214014FFF75BFF00216014FFF7B0
:1036F00057FF70E0D648844209D10121C804FFF782
:103700004FFF00214FF40020FFF74AFF63E0D1484C
:10371000844209D101210805FFF742FF00214FF43F
:103720008010FFF73DFF56E0CB48844209D10121CC
:103730004805FFF735FF00214FF40010FFF730FF79
:1037400049E0C648844208D101214020FFF735FFF7
:1037500000214020FFF731FF3DE0C148844208D1FD
:1037600001218020FFF729FF00218020FFF725FF9E
:1037700031E0BC48844208D101218015FFF71DFFCC
:103780000021A015FFF719FF25E0B748844209D1B1
:1037900001210804FFF704FF00214FF48030FFF7F8
:1037A000FFFE18E0B148844209D101214804FFF727
:1037B000F7FE00214FF40030FFF7F2FE0BE0AC48BB
:1037C000844208D101218804FFF7EAFE00214FF46A
:1037D0008020FFF7E5FE10BD00220288954B98423D
:1037E0000ED09A4B98420BD0B0F1804F08D0924B3C
:1037F000984205D0914B984202D0914B984204D107
:103800004FF68F731A404B881A438E4B984207D05D
:103810008D4B984204D04FF6FF431A40CB881A4391
:1038200002808B8883850B880385824B98420BD05E
:10383000864B984208D08C4B984205D08B4B9842CF
:1038400002D08B4B984201D10B7A038601238382ED
:10385000704770B5002200230024058C4FF6FE76D9
:1038600035400584038C8488028B4FF68F752A407F
:10387000B51E2A400D882A43751E2B400D892B4307
:103880004D882B436B4DA8420BD0704DA84208D0F9
:10389000754DA84205D0754DA84202D0744DA8427E
:1038A00013D14FF6F7752B404D892B434FF6FB751F
:1038B0002B408D882B434FF6FF652C404FF6FF556C
:1038C0002C408D892C43CD892C4384800283CD8864
:1038D0008586038470BD70B5002200230024058C0A
:1038E0004FF6EF7635400584038C8488028B48F6CA
:1038F000FF752A404FF6FF452A400D882D0642EA03
:1039000015424FF6DF752B400D892D0543EA15430F
:103910004D882D0543EA1543464DA84202D04B4D34
:10392000A8421BD14FF67F752B404D892D0543EAE8
:1039300015434FF6BF752B408D882D0543EA15437F
:103940004FF6FF352C404FF2FF752C408D89AD04AA
:1039500044EA1544CD89AD0444EA154484800283C9
:10396000CD880587038470BD70B500220023002434
:10397000058C4FF6FF6635400584038C8488828B66
:103980004FF68F752A404FF6FC752A400D882A4362
:103990004FF6FF552B400D892D0643EA15434D8800
:1039A0002D0643EA1543234DA84202D0274DA842D5
:1039B0001BD14FF2FF752B404D892D0643EA15436D
:1039C0004FF6FF352B408D882D0643EA15434EF602
:1039D000FF752C404DF6FF752C408D892D0544EA6E
:1039E0001544CD892D0544EA154484808283CD8811
:1039F0008587038470BD70B5002200230024058CE8
:103A00004EF6FF7635400584038C8488828B48F619
:103A1000FF752A404FF6FF452A400D882D0642EAE1
:103A200015424DF6FF752B400D892D0743EA1543CE
:103A30004D881FE0002C01400004004000080040B9
:103A4000000C004000100040001400400034014011
:103A5000004C01400050014000540140001800405B
:103A6000001C004000200040004001400044014094
:103A7000004801402D0743EA1543F84DA84202D003
:103A8000F74DA84206D14BF6FF752C408D89AD0548
:103A900044EA154484808283CD88A0F84050038492
:103AA00070BD828B4FF2FF331A408283828B0B06EC
:103AB00042EA134282837047F0B5002400250026B5
:103AC000078C4EF6FF7C07EA0C070784848B058C75
:103AD0000F073E0C40F6FF473C40170644EA1744E8
:103AE0001F0744EA1744DD4FB8420ED0DC4FB842FE
:103AF0000BD0B0F1804F08D0DA4FB84205D0DA4F82
:103B0000B84202D0D94FB84206D14DF6FF773D40BA
:103B100046F480573D4305E047F6FF573D4041F4EA
:103B200080573D4384830584F0BD828B4FF6F37349
:103B30001A408283828B0A4382837047F0B5002447
:103B400000250026078C4FF6FF6C07EA0C07078458
:103B5000848B058C0F063E0C4FF60C773C401F05FE
:103B600042EA17473C43BD4FB8420ED0BC4FB84263
:103B70000BD0B0F1804F08D0BA4FB84205D0BA4F41
:103B8000B84202D0B94FB84206D14FF6FF573D4078
:103B900046F480773D4305E04FF2FF573D4041F446
:103BA00080773D4384830584F0BD028B4FF2FF3361
:103BB0001A400283028B0B0642EA134202837047CB
:103BC000F0B5002400250026078C4FF6EF7C07EAAD
:103BD0000C070784048B058C0F053E0C40F6FF474D
:103BE0003C401F0744EA1744170644EA17449B4F1A
:103BF000B8420ED09A4FB8420BD0B0F1804F08D0E7
:103C0000984FB84205D0984FB84202D0974FB8426B
:103C100006D14FF6DF773D4046F010073D4305E003
:103C20004FF65F773D4041F010073D430483058424
:103C3000F0BD028B4FF6F3731A400283028B0A43E6
:103C400002837047F0B500240025068C4FF6FE77FE
:103C50003E400684048B058C4FF60C7634401E05DE
:103C600042EA164634437D4EB0420ED07C4EB042FE
:103C70000BD0B0F1804F08D07A4EB04205D07A4ECA
:103C8000B04202D0794EB04206D14FF6FD763540B3
:103C900041F00106354305E04FF6F576354041F039
:103CA0000106354304830584F0BD70B504460D4616
:103CB0006A4884420ED06A4884420BD0B4F1804FE7
:103CC00008D06848844205D06748844202D06748DB
:103CD000844200D100E000BF288850B92B89AA880F
:103CE00069882046FFF7AEFFE9882046FFF7A1FF6D
:103CF00025E0288804280AD12B89AA8869882046CB
:103D0000FFF75EFFE9882046FFF74FFF17E028889E
:103D100008280AD12B89AA8869882046FFF70EFF58
:103D2000E9882046FFF701FF09E02B89AA88698806
:103D30002046FFF7C1FEE9882046FFF7B2FE70BDBE
:103D40002DE9F04104460D4600260127688808B990
:103D5000022600E00026A888012801D1022700E001
:103D600001272888A0B92B89AA8869882046FFF7EF
:103D700069FFE9882046FFF75CFF2B893A46314608
:103D80002046FFF71DFFE9882046FFF70EFF13E0EE
:103D90002B89AA8869882046FFF712FFE988204608
:103DA000FFF703FF2B893A4631462046FFF74AFFCB
:103DB000E9882046FFF73DFFBDE8F0810A884B887F
:103DC0001A438B881A43CB881A430B891A434B89B1
:103DD0001A438B891A43A0F8442070474FF6FF71AD
:103DE000818000210180C1804180017270470021E3
:103DF000018041808180C180018141818181C181B7
:103E00007047002101804180012181800021C18013
:103E1000018170470021018041808180C180018142
:103E200041818181704721B1028842F00102028004
:103E300004E002884FF6FE731A400280704731B1E9
:103E4000B0F8442042F40042A0F8442005E0B0F865
:103E50004420C2F30E02A0F844207047002C014019
:103E6000003401400004004000080040000C004005
:103E700010B51AB183890B43838104E08389CC4355
:103E8000A4B22340838110BD8182704741EA0203BE
:103E9000A0F84830704710B51AB183890B4383816D
:103EA00004E08389CC43A4B22340838110BD0189FF
:103EB0004FF6F872114001817047002202894FF6D7
:103EC0008F731A400A430281704730B504460D468D
:103ED00029462046FFF7F1FF208940F007002081A6
:103EE00030BD2DE9F04104460D4616461F46602DB3
:103EF00006D13B46012231462046FFF761FE05E030
:103F00003B46012231462046FFF79CFE29462046CB
:103F1000FFF7D3FF208940F007002081BDE8F08142
:103F200030B500240489E4B21D0642EA15450D436C
:103F30002C43048130BD2DE9F04104460D46164660
:103F4000984600274346324629462046FFF7E8FFB9
:103F500027894FF6F870074047F007074FF68F7034
:103F6000074047F070072781BDE8F081F0B50446AF
:103F70000D4616461F463B46324629462046FFF769
:103F8000CFFF208940F480402081F0BD01858282EE
:103F90007047002202884FF68F731A400A4302804E
:103FA0007047F0B50024002500260489058B068C97
:103FB0004FF6F8773C400C434FF6FC473D4040F24B
:103FC00001173D434FF6DD773E401F0542EA174794
:103FD0003E43048105830684F0BD0022028B4FF628
:103FE0008F731A400A43028370470022028B48F6FF
:103FF000FF731A400B0642EA134202837047002205
:10400000828B4FF68F731A400A43828370470022D7
:10401000828B48F6FF731A400B0642EA13428283F2
:10402000704721B1028842F08002028004E00288D9
:104030004FF67F731A400280704721B1828842F0A8
:104040000402828004E082884FF6FB731A4082806B
:10405000704721B1828842F00802828004E08288A1
:104060004FF6F7731A408280704721B1828842F080
:104070000102828004E082884FF6FE731A4082803B
:1040800070470022028B4FF6F7731A400A430283EF
:1040900070470022028B4FF2FF731A400B0642EA70
:1040A0001342028370470022828B4FF6F7731A4047
:1040B0000A43828370470022828B4FF2FF731A40BB
:1040C0000B0642EA1342828370470022028B4FF6AE
:1040D000FB731A400A43028370470022028B4FF69B
:1040E000FF331A400B0642EA134202837047002254
:1040F000828B4FF6FB731A400A438283704700227B
:10410000828B4FF6FF331A400B0642EA134282833A
:1041100070470022028B4FF67F731A400A430283D6
:1041200070470022028BC2F30E020B0642EA1342D2
:10413000028370470022828B4FF67F731A400A4336
:10414000828370470022828BC2F30E020B0642EA82
:104150001342828370470022028C4FF6FD731A408F
:104160000A43028470470022028C4FF6F7731A400C
:104170000A43028470470022028C4FF6DF731A4014
:104180000B0542EA1342028470470022028C4FF66C
:104190007F731A400B0542EA1342028470470022E3
:1041A000028C4FF6FF531A400B0642EA1342028478
:1041B00070470022028C4FF2FF731A400B0642EA4E
:1041C0001342028470470022028C4DF6FF731A409E
:1041D0000B0742EA13420284704730B500230124E2
:1041E0008C40A3B2048CDD43ADB22C400484048C1B
:1041F00002FA01F5ADB22C43048430BD30B5002382
:1042000004248C40A3B2048CDD43ADB22C40048462
:10421000048C02FA01F5ADB22C43048430BD70B5B4
:104220000023002403461846183301258D40ACB204
:10423000058CE643B6B23540058409B1082909D199
:1042400003EB61031D6825F070051D601D681543B3
:104250001D600CE00D1FADB203EB65031D6825F476
:10426000E0451D601D68160645EA16451D6070BDD7
:1042700021B1028842F00202028004E002884FF677
:10428000FD731A400280704721B1028842F0040297
:10429000028004E002884FF6FB731A4002807047E8
:1042A00021B1828842F08002828004E082884FF649
:1042B0007F731A408280704702884FF6F7731A4066
:1042C000028002880A430280704782884FF68F730B
:1042D0001A40828082880A438280704702894FF6A2
:1042E000F8731A40028102890A43028170470289E9
:1042F0004FF67F731A40028102890A430281704798
:104300008184704781857047818670470187704737
:1043100081877047A0F84010704702884FF6FF432E
:104320001A40028002880A43028070470146888E44
:1043300070470146088F70470146888F70470146D5
:10434000B1F8400070470146888C70470146088DDF
:10435000704702460020138A0B4201D0012000E082
:1043600000207047CA430282704730B502460020E1
:1043700000230024158A05EA0103958905EA010452
:1043800013B10CB1012000E0002030BDCA4302820D
:104390007047000010B50446FB48844209D1012152
:1043A0008803FFF7FDF800214FF48040FFF7F8F88D
:1043B00032E0F648844209D101214804FFF7FDF8B4
:1043C00000214FF40030FFF7F8F825E0F048844270
:1043D00009D101218804FFF7F0F800214FF4802073
:1043E000FFF7EBF818E0EB48844209D10121C8043B
:1043F000FFF7E3F800214FF40020FFF7DEF80BE0B1
:10440000E548844208D101210805FFF7D6F80021CC
:104410004FF48010FFF7D1F810BD2DE9F04786B0BA
:1044200004460D460026002700BFB146B246A889C3
:1044300000B100BFA246268A4CF6FF700640E8880D
:1044400006432682A6894EF6F3100640A8882989DD
:104450000843698908430643A681A68A4FF6FF40B0
:104460000640A8890643A68201A8FFF711F8544622
:10447000C548824501D1049F00E0039FA08910F444
:10448000004F08D007EBC70000EB07102968490070
:10449000B0FBF1F807E007EBC70000EB0710296855
:1044A0008900B0FBF1F86420B8FBF0F00601300998
:1044B000642101FB1089A08910F4004F09D032213A
:1044C00001EBC9006421B0FBF1F000F007000643E6
:1044D00008E0322101EB09106421B0FBF1F000F09B
:1044E0000F000643268106B0BDE8F0874FF4165151
:1044F000016000218180C18001810C214181002166
:104500008181704710B50022028A4FF2FF031A40E2
:104510000B884C8823438C882343CC8823431A433D
:10452000028210BD0021018041808180C1807047DE
:1045300021B1828942F40052828104E082894DF6E1
:10454000FF731A4082817047F0B5002400250026D1
:104550000023A1F510676A3F00D100BF0346C1F3F5
:10456000421401F01F05012707FA05F6012C01D1BD
:104570000C3304E0022C01D1103300E014331AB1E3
:104580001F6837431F6002E01F68B7431F60F0BD1C
:1045900010B51AB1838A0B43838204E0838ACC432B
:1045A000A4B22340838210BD028A4FF6F0731A40F2
:1045B0000282028A0A430282704782894FF2FF73A5
:1045C0001A40828182890A438281704721B182899F
:1045D00042F00202828104E082894FF6FD731A40A4
:1045E00082817047028A4FF6DF731A400282028A84
:1045F0000A430282704721B1028A42F48042028259
:1046000004E0028A4BF6FF731A4002827047C1F33E
:1046100008028280704701468888C0F3080070470E
:10462000818941F0010181817047028BD2B20283FE
:10463000028B42EA012202837047028B02F47F421E
:104640000283028B0A430283704721B1828A42F0BF
:104650002002828204E0828A4FF6DF731A4082824F
:10466000704721B1828A42F01002828204E0828A7D
:104670004FF6EF731A408282704721B1828A42F06E
:104680000802828204E0828A4FF6F7731A4082821F
:10469000704721B1828942F40042828103E082891D
:1046A000C2F30E028281704721B1828A42F4006215
:1046B000828204E0828A4FF2FF731A40828270473E
:1046C000828A4FF6FB731A408282828A0A43828270
:1046D000704721B1828A42F00202828204E0828A1B
:1046E0004FF6FD731A408282704702460020B1F5F2
:1046F000007F00D100BF13880B4201D0012000E0F1
:104700000020704701F40072B2F5007F00D100BFB5
:10471000CA430280704770B502460023002400257A
:104720000020A1F510666A3E00D100BFC1F342151A
:1047300001F01F04012606FA04F4012D02D1968926
:10474000344006E0022D02D1168A344001E0968AF8
:1047500034400B12012606FA03F31688334014B1D5
:104760000BB1012000E0002070BD10B50022002335
:10477000A1F510646A3C00D100BF0A1201249440E4
:10478000A3B2DC43048010BD003801400044004067
:1047900000480040004C00400050004001684FF6C7
:1047A000FE72114001600021016041608160C160C2
:1047B0008F49884208D18E490839496841F00F0174
:1047C0008B4A083A516090E089491431884208D1F7
:1047D00087490839496841F0F001854A083A516033
:1047E00083E083492831884208D1814908394968E2
:1047F00041F470617E4A083A516076E07C493C3170
:10480000884208D17A490839496841F47041784AA8
:10481000083A516069E076495031884208D17449BC
:104820000839496841F47021714A083A51605CE0E6
:104830006F496431884208D16D490839496841F4AB
:1048400070016B4A083A51604FE0694978318842FB
:1048500008D167490839496841F07061644A083AEB
:10486000516042E06349884208D1011F096841F064
:104870000F015F4A083AC2F8041436E05D4914316A
:10488000884209D15B49091F096841F0F001584A83
:10489000083AC2F8041428E056492831884209D160
:1048A0005449091F096841F47061514A083AC2F835
:1048B00004141AE04F493C31884209D14D49091F7F
:1048C000096841F470414A4A083AC2F804140CE0FD
:1048D00048495031884208D14649091F096841F4C6
:1048E0007021434A083AC2F80414704710B50022F8
:1048F000026847F6F0739A430C6A8B6823430C698D
:1049000023434C6923438C692343CC6923434C6A7A
:1049100023438C6A23431A430260CB6843600B68CD
:1049200083604B68C36010BD0021016041608160FD
:10493000C160016141618161C16101624162816265
:10494000704721B1026842F00102026004E002688F
:104950004FF6FE731A40026070471AB103680B43AA
:10496000036002E003688B43036070474160704757
:104970000146486880B2704702460020002112F0CC
:10498000805F03D01B4B083B196802E0184B083BC3
:104990001968114201D0012000E00020704710F09A
:1049A000805F03D01349091F086002E010490839ED
:1049B0004860704702460020002112F0805F03D05B
:1049C0000C4B083B196802E0094B083B196811427F
:1049D00001D0012000E00020704710F0805F03D07C
:1049E0000449091F086002E001490839486070471E
:1049F000080002400804024010B502F03BF902F042
:104A00007AFA02F052F910BD10B56FF00400FEF70B
:104A10006DF8334800683349B0FBF1F03249087053
:104A20002F4800682F49B0FBF1F44FF4FA6044437B
:104A300002202D49891C08804FF0E020006940F0D9
:104A400002004FF0E021086108464461006940F02F
:104A50000100086110BD70B500244FF0E0267569B3
:104A6000214E367800FB06F100BF4FF0E026B36917
:104A700010E04FF0E026B2699A420BD09A4202D27F
:104A80009E1A344402E0AE1A1E44344413468C424B
:104A900000D300E0EDE700BF70BD70B504461348D9
:104AA0000078012814D11048801C0088844207DB5C
:104AB0000D48801C008894FBF0F5284604F0C4FBE8
:104AC0000948801C008894FBF0F100FB114084B27F
:104AD0004FF47A7104FB01F0FFF7BDFF70BD0000D9
:104AE000C002002000127A00D4010020FA02002047
:104AF00010B54FF4A060FDF7A7FF10BD014600BF41
:104B0000704700BF464A128812F0400FFAD0C2B276
:104B1000434B1B1D1A80704710B586B00446012117
:104B200044F20500FEF722FD4FF40070ADF81400CA
:104B300003208DF8160018208DF8170005A93948B4
:104B4000FEF76AFA4FF48060ADF8140004208DF887
:104B5000170005A93348FEF75FFA25208DF80000FD
:104B600003208DF801008DF8020001208DF803006C
:104B70006846FDF76EFF01940020ADF80800ADF81F
:104B80000A00ADF80C00ADF810000C20ADF80E00D6
:104B900001A92348FFF741FC012240F224412048AB
:104BA000FFF7D2FC01211E48FFF7C2FC06B010BD82
:104BB00010B502F05FF840F224411948FFF7ABFD51
:104BC00050B3002400211848FFF7BBFE1648FFF73A
:104BD000CFFEC0F1460084B222461449144805F0C5
:104BE00039F91448048021461148FDF745FDE1B22A
:104BF0000F48FCF7D4FF40F224410948FFF7B5FD08
:104C00000748FFF708FD46210748FFF7AFFE0121DF
:104C10000548FFF796FE00BF02F047F810BD000000
:104C20000038014000080140580002409003002075
:104C3000D6030020D801002010B5FF4A1288521C6C
:104C4000FD4B1A801A461288FC4B1B889A4205DBE2
:104C50000122FB4B1A700022F74B1A80F94A127896
:104C60002AB1F94A1268521CF74B1A6002E000227E
:104C7000F54B1A60F44A1268F44B9A4202D30022B0
:104C8000F14B1A60F24A1278012A67D1F14A128870
:104C9000521CF04B1A801A461288B2F5167F07DBB9
:104CA000ED4A1288521CEC4B1A800022E94B1A8004
:104CB000EA4A1278521EC2EBC202521DE84B9B5CBC
:104CC00064225343E54A1278521EC2EBC202921D7F
:104CD000E34CA25C02EB820203EB4203DF4A127850
:104CE000521EC2EBC202D21DA25C1A44DA4B1B88D0
:104CF0009A4212DCD94A1278521CD84B1A702246BA
:104D000012781B789A4205DA0222D14B1A700022DF
:104D1000D24B1A700022D04B1A80D04A1278521E01
:104D2000C2EBC202921CCE4B9B5C64225343CB4A23
:104D30001278521EC2EBC202D21CC94CA25C02EB1A
:104D4000820203EB4203C54A1278521EC2EBC20232
:104D5000121DA25C1A44C34B1A8009E0BC4A1278A7
:104D6000022A05D1B422BF4B1A800022BA4B1A8006
:104D700010BDB84A921C1278072A0CD2DFE802F064
:104D80000405060708090A0005E004E003E002E064
:104D900001E000E000BF00BFAE4A921C1278521C36
:104DA000AC4B9B1C1A701A461278062A01DD0022B1
:104DB0001A707047F8B505460E46ECB1A548C01C00
:104DC0000278A9A1204604F02FFFA248C01C007859
:104DD000401CA049C91C08702146A748006803F080
:104DE00043FB00909DF8000030B16B460022114655
:104DF000A248006804F002FDF8BD7CB5002400253F
:104E000000269AE001AB00930023032201219C4875
:104E1000006802F054FC9B48007868B9681C85B2B1
:104E2000052D02DCFCF725F930E00A2D02DAFCF74B
:104E300030F92BE0002529E092480078012802D1C2
:104E4000FCF717F922E08F48007802280DD1681C82
:104E500085B2142D02DCFCF70CF917E0282D02DADC
:104E6000FCF717F912E0002510E0864800780328C7
:104E70000CD1681C85B20A2D02DCFCF7FAF805E0BB
:104E8000142D02DAFCF705F900E000257E480088C1
:104E90007E49098888421FDB601C84B2B4207149B6
:104EA0000880012C03D101207949086014E0062C08
:104EB00003D10020764908600EE00B2C03D10120BD
:104EC0007349086008E0102C03D100207049086085
:104ED00002E0202C00DB00246E480078012829D154
:104EE000701C86B2042E03DC01206949086021E0B1
:104EF000082E03DC0020664908601BE00C2E03DC52
:104F000001206349086015E0102E03DC0020604991
:104F100008600FE0142E03DC01205D49086009E001
:104F2000182E03DC00205A49086003E0002059498C
:104F3000087000263220FFF7B0FD63E72DE9F04F3F
:104F400085B04FF00008C146C246C346002002901B
:104F50000190C9E104AB0093012303224FF6FF71D6
:104F60004748006802F0ABFB044608F101001FFA55
:104F700080F809F101001FFA80F9B9F1010F17D18A
:104F800045480088052190FBF1F201FB12004249DF
:104F90000988081A1FFA80FB3B480088052190FB0E
:104FA000F1F201FB120038490988081A80B2029018
:104FB0003948078814F0040F02D0FBF7E2FE90E1B5
:104FC00014F0080F02D0FBF701FF8AE114F0100F74
:104FD00002D0FBF705FF84E114F0200F02D0FBF7AD
:104FE00009FF7EE114F0020F05D0FBF76EFD0220F1
:104FF0002A49887075E114F0010FE0D0012027499B
:105000008870274800882040012803D0084600788F
:10501000022873D1FBF717FF12480088203800EBF5
:105020008000092190FBF1F085B2202F3EDBA7F133
:10503000200000EB800035E0040200200202002086
:105040009E010020F90100200802002084270900A9
:10505000B80100209C020020BA010020BC01002001
:1050600062040020E2010020414C49454E54454B6A
:105070002025303364000000AC020020B80200207C
:10508000BC0200200D020020EC010020E6010020FF
:1050900098812142BD010020E0010020AA010020EA
:1050A0009802002090FBF1F086B200E00026FF4855
:1050B000008820280ADBFD480088203800EB8000AB
:1050C000092190FBF1F080B2039001E000200390F1
:1050D0000398FBF7BCFDF648008820280BDBF4485A
:1050E0000088203800EB8000092190FBF1F080B2AD
:1050F00001900FE002E0002001900BE0FBF78EFE34
:10510000EC4805883E46E9480088FBF7A0FDE848E2
:1051100000880190E848008804427DD00120E749DA
:10512000C8708246E6480088401CE5490880084669
:105130000088FA280ADB04AB0022DF480188E14836
:10514000006802F018FC0020DD490880FBF790FEA3
:10515000DD48007801281BD1DC48007810B9DC4814
:10516000007818B12846FBF72AFD0DE0B8F1190FB9
:1051700002D1FBF75FFD07E0B8F1320F04DB4FF01F
:1051800000082846FBF71BFD0198FBF72CFF87E082
:10519000CD48007802281BD1CC48007810B9CC4803
:1051A000007818B10198FBF71EFF0DE0B8F1190F58
:1051B00002D1FBF752FF07E0B8F1320F04DB4FF0EA
:1051C00000080198FBF70FFF2846FBF7F8FC67E0A3
:1051D000C0480078012823D1BC48007810B9BC48E9
:1051E000007820B1BC480078FBF793FE0EE0B8F1E0
:1051F000190F02D1FBF7B6FE08E0B8F1320F05DB5C
:105200004FF00008B4480078FBF783FE2846FBF710
:10521000D6FCB248007800E02CE0FBF7AFFE3FE0A0
:10522000AC480078022821D1A848007810B9A848D5
:10523000007820B1A9480078FBF7A0FE0EE0B8F195
:10524000190F02D1FBF7C3FE08E0B8F1320F05DBFE
:105250004FF00008A1480078FBF790FE9E480078C8
:10526000FBF757FE2846FBF7AAFC19E02846FBF798
:10527000A6FC15E002209149C870BAF1000F04D0D5
:105280004FF0000A00209049087000208C490880E7
:10529000FBF703FE3046FBF792FC0198FBF7A3FEF9
:1052A000B9F1C80F1DDD4FF000098D4800880521B8
:1052B00090FBF1F201FB120089490988081A584550
:1052C0000CD17A480088052190FBF1F201FB120015
:1052D00076490988081A0299884202D00B20FCF707
:1052E000D9FD1420FFF7D9FB34E67CB5002530E06A
:1052F00001AB00930023032211467248006802F0BC
:10530000DEF90446774909880C4201D000251DE0EA
:105310000120754908607549C1F8A80140F6B83008
:10532000854206DC681C85B200206F49091D0860B3
:105330000CE06B480088822804DA01206A49091DC4
:10534000086003E000206849091D08606420FFF739
:10535000A4FBCDE71CB5D4E001AB009300230322EE
:105360003C215848006802F0AAF9044614F0040FE2
:1053700018D000205E49088001AB00224FF6C371AF
:105380005048006802F0F7FA012057490860574971
:10539000C1F8A8015449091D08604FF475705049BF
:1053A000088052E014F0080F18D0002050490880FF
:1053B00001AB00224FF6C3714248006802F0DBFAED
:1053C0000120494908604949C1F8A8014649091D19
:1053D000086040F2CF304249088036E014F0100FE8
:1053E00018D000204249088001AB00224FF6C3715B
:1053F0003448006802F0BFFA01203B4908603B498D
:10540000C1F8A8013849091D086040F2CA30344982
:1054100008801AE014F0200F17D0002034490880CB
:1054200001AB00224FF6C3712648006802F0A3FAD0
:1054300001202D4908602D49C1F8A8012A49091DFC
:10544000086040F2C53026490880002028490880BD
:1054500001AB00224FF6C3711A48006802F08BFAC4
:105460000120214908602149C1F8A8011E49091DF0
:10547000086002201149C8700B20FCF70BFD0120C9
:105480001A49C1F89801FA20FFF707FB00201649D6
:1054900018310860FA20FFF700FB01201349C1F81A
:1054A0009801FA20FFF7F9FA002023E0EC01002030
:1054B000E6010020E20100209A020020AA0100205B
:1054C000FE010020BC020020F70100208101002025
:1054D00001010020F8010020F0010020F10100206E
:1054E000E00100208C0200208081214200802142C6
:1054F0008A020020FF49183108604FF44870FFF716
:10550000CCFA29E72DE9F04F87B00446FA48008825
:10551000A04203DD002007B0BDE8F08FF648B0F8E8
:105520007800A04201DAF548F5E74FF000084FF0A7
:105530003D091F2723E0F04830F81700A04208DD9E
:10554000B94609EB080000EBD071C1F347010F46E3
:1055500015E0E94830F81700A04208DAB84609EB30
:10556000080000EBD071C1F347010F4607E007EBDD
:105570008706304604F0DEFF05462846CBE7A9EB58
:1055800008000128D7D107EB8706DB4931F818005E
:1055900004F0E9FF0690D84931F8190004F0E3FF60
:1055A0000590304604F0C6FF0490DDE9050105F0E2
:1055B00089F80390204604F0D6FF0190069905F083
:1055C00081F8CF49029004F0D3FF8346039904F099
:1055D00093FE8246049904F003FE054628469AE7A6
:1055E0002DE9F04F89B000240025002600BF0027D8
:1055F00000BF4FF001084FF00109F0E00A21002040
:10560000FAF75FFE04460A210120FAF75AFE064621
:1056100040F60770844208DB08AB0122B9480188D4
:10562000B948006802F0A7F973E040F6CF50844211
:1056300008DB08AB0122B5480188B348006802F0D6
:105640009AF966E008AB0022AE480188AE480068CF
:1056500002F091F9B4F5E87F02DA42F2107525E024
:1056600040F66950844202DB45F2D5251EE0A84889
:1056700004FB00FB0020CDE904B0A6A00CC80599EE
:105680001BEB02005941CDE9020104EB8400C0EBA1
:105690008410C0F5242A002003465246CDE906A016
:1056A000029804F09CFA0546CDE90001A8B2FFF784
:1056B00029FF824604F012FF9849088008460088B6
:1056C00000EBC000052190FBF1F0203093490880E9
:1056D00008460088B0F5967F11DB08460088B0F5D3
:1056E000B97F0CDA08460088642190FBF1F201FBD7
:1056F00012008A49098808448849088009E08748D7
:105700000088B0F5B97F04DB8448008846308349BF
:105710000880B6F55D6F12DD002081490880012008
:1057200080490870002080490871B8F1000F53D0FB
:10573000FCF76EFB4FF000084FF001094CE0012030
:1057400079490871B9F1000F05D0FCF761FB4FF002
:1057500000094FF00108002072490870B6F5E87F93
:1057600002DA42F2107725E040F66950864202DB09
:1057700045F2D5271EE0664806FB00FB0020CDE978
:1057800004B064A00CC805991BEB02005941CDE997
:10579000020106EB8600C0EB8610C0F5242A00202B
:1057A00003465246CDE906A0029804F018FA0746CF
:1057B000CDE90001B8B2FFF7A5FE824604F08EFEE7
:1057C000574908800846008800EBC000052190FB7F
:1057D000F1F02030524908806420FFF75EF90DE7B0
:1057E0007CB500240026002529E301AA00214F48AA
:1057F000006802F047FA0446681C85B2152C58D29E
:10580000DFE804F0570B58B1C4F3FF5757F0EFEE41
:10581000EDECEB5757575757EA004548008828B139
:105820004348008843490988884242D101AB00229D
:105830004FF6FF713448006802F09DF83E4800883A
:105840003E49098808433A49088001AB01220846CD
:1058500001882D48006802F08EF801202549086073
:1058600000203749087037490870374908703749B0
:1058700008704FF4AF7036490880E1203549088040
:10588000012035490870284988703248018830481D
:105890000088FBF721FB01202B490870FCF7BFF9BA
:1058A0000B20FCF7F7FA2A48028801210620FCF7B2
:1058B000E3F9B7E201AB00224FF6FF71124800682E
:1058C00002F059F81B4800881949088001AB0122F1
:1058D000084601880C48006802F04DF8012005498F
:1058E000086000201C4908701C49087002200E49FD
:1058F000887035E0808121420E020020000096432E
:105900000000A04090020020BC020020960200206F
:10591000600112000000905F01000000E001002023
:10592000EC01002063000020AA010020A802002052
:105930008A0200208E0200208C0200209A020020A1
:10594000F0010020F1010020F7010020F801002003
:10595000E2010020E6010020F9010020FA01002008
:10596000FCF766F95EE201AB0093002303220121FC
:10597000FA48006801F0A3FEF948007828B1012038
:10598000F84908700020F84908604BE20EB9012080
:1059900000E00020C6B246B101AB0122F348018805
:1059A000EE48006801F0E7FF07E001AB0022EF4896
:1059B0000188EA48006801F0DEFFED480078012820
:1059C00003D10220EA49087002E00120E84908708A
:1059D0000920FCF75FFA25E223E21FE2A7E16CE170
:1059E000D3E09CE016E00CE0FFE701AB0122E148C8
:1059F0000188DA48006801F0BEFF0120DE49087026
:105A000010E201AB0022DB480188D448006801F0B5
:105A1000B2FF07E2D948007810B30020D7490870D8
:105A2000D7480078012807D1D6480088D649098888
:105A30000844D44908800AE0D1480078022806D1F9
:105A4000D2480088D04909880844D049088001AB71
:105A50000122C8480188C148006801F08CFF26E097
:105A6000C7480078012805D1C6480088401DC549AF
:105A700008801CE0C2480078022805D1C34800888D
:105A8000401DC249088012E0C1480078012805D1B4
:105A9000C0480078401CBF49087008E0BC48007846
:105AA000022804D1BC4800780A30BB490870B548C8
:105AB0000088BA490988884203DDB8480088B1499E
:105AC0000880B2480088B6490988884203DDB44896
:105AD0000088AE490880AF480078632802DD0020C6
