:020000040800F2
:1000000048280020D1010008695F00086B5F0008E4
:100010006F5F0008735F0008775F00080000000052
:100020000000000000000000000000007B5F0008EE
:100030007D5F000800000000DF92000831450008E5
:10004000EB010008EB010008EB010008EB010008E0
:10005000EB010008EB010008EB010008EB010008D0
:10006000EB010008EB010008EB010008EB010008C0
:10007000EB010008EB0100084F1B0008EB01000832
:10008000EB010008EB010008EB010008EB010008A0
:10009000EB010008EB010008EB010008EB01000890
:1000A000EB010008EB010008EB010008EB01000880
:1000B000EB0100084F050008EB010008EB01000808
:1000C000EB010008EB010008EB010008EB01000860
:1000D000EB010008E9460008EB010008EB0100080D
:1000E000EB010008EB010008EB01000800F002F84A
:1000F00000F061F80AA090E8000C82448344AAF161
:100100000107DA4501D100F056F8AFF2090EBAE85E
:100110000F0013F0010F18BFFB1A43F0010318473B
:1001200088A00000A8A000000A444FF0000C10F8BE
:10013000013B13F0070408BF10F8014B1D1108BF65
:1001400010F8015B641E05D010F8016B641E01F805
:10015000016BF9D113F0080F1EBF10F8014BAD1C55
:100160000C1B09D16D1E58BF01F801CBFAD505E073
:1001700014F8016B01F8016B6D1EF9D59142D6D3CD
:10018000704700000023002400250026103A28BFF5
:1001900078C1FBD8520728BF30C148BF0B607047F9
:1001A000642909F02F81002070471FB5AFF300804C
:1001B0001FBD10B510BD09F098FB1146FFF7F5FF04
:1001C00005F074FE09F0B6FBFFF7F3FF04F032FA16
:1001D0000948804709480047FEE7FEE7FEE7FEE7DB
:1001E000FEE7FEE7FEE7FEE7FEE7FEE70448054917
:1001F000054A064B7047000049600008ED00000802
:1002000048220020482800204824002048240020BC
:1002100000B587B001214FF4017002F043FF4FF4A5
:10022000004002F0A3FE0320ADF8040000208DF88A
:10023000070001A92E4802F08BFC2E4802F010FAAC
:10024000002002908DF80C008DF80D004FF4602016
:1002500004900020059001208DF8180002A925487F
:1002600002F025FA0121234802F04CFA214802F05D
:100270006BFA00BF1F4802F06CFA0028FAD11D4843
:1002800002F071FA00BF1B4802F072FA0028FAD19E
:1002900007B000BD10B504460723012221461548CA
:1002A00002F09BFA0121134802F06CFA00BF022110
:1002B000104802F0BBFB0028F9D00E4802F0F2FA19
:1002C00010BD2DE9F04104460D460026002708E048
:1002D0002046FFF7DFFF0644052004F07AF9781C7A
:1002E000C7B2AF42F4DBB6FBF5F080B2BDE8F081F7
:1002F000000801400024014008B50121082002F057
:10030000D1FE4020ADF8000010208DF8030003203E
:100310008DF802006946044802F01AFC40210248A8
:1003200002F0C0FC08BD0000000C014008B501212E
:10033000182002F0B7FE4FF42870ADF800004820F6
:100340008DF803006946074802F002FC4FF4604054
:10035000ADF8000048208DF803006946024802F01D
:10036000F7FB08BD000C01400010014010B54E48DD
:100370000078012815D14D480078012811D04A484D
:10038000401E0078401C4849491E08700846007805
:10039000192806D90020891C0870891E0870491C7C
:1003A00008704FF40051424802F060FC3E49183199
:1003B0000870153901F11402127851F822008047B3
:1003C00039491731087010BD10B5FFF7CFFF10BDC8
:1003D00035481830007808B9012070470020FCE744
:1003E00031481830007808B9022070470020FCE737
:1003F0002D481830007808B9032070470020FCE72A
:1004000029481830007888B92748801E0078401C99
:100410002549891E087008460078502804D3012019
:1004200024490870042070470320FCE71E48801E02
:100430000078502822D201201F4908701A48401C19
:100440000078401C1849491C08700120491E08709A
:10045000481C007802280FD1481E007819280BD2BA
:100460000020491C0870891E0870491C0870012072
:100470000E4908700420D6E70420D4E70420D2E710
:1004800009481830007840B90748801E0078401CA1
:100490000549891E0870032070470020054908702F
:1004A0000149891E0870F7E70500002002000020BE
:1004B00000100140010000200000002008B50121CB
:1004C000182002F0EFFD10208DF8030003208DF8B6
:1004D00002004FF48070ADF800006946044802F055
:1004E00037FB4FF48071024802F0DAFB08BD0000D0
:1004F000000C01407FB504460D460121022002F0A8
:10050000DEFDADF80840ADF804500020ADF80A005B
:10051000ADF8060001A9634802F0FAFE012241216C
:10052000604803F041FA1D208DF8000000208DF88E
:10053000010003208DF8020001208DF803006846B9
:1005400002F023F80121574803F009FA7FBD10B5E6
:100550000121544803F0A5FC18B10121514803F0D2
:10056000B1FC10BD30B589B004460D460121022012
:1005700002F0A5FD0121092002F094FD01214A4865
:1005800002F0B1FB2020ADF8200018208DF82300E8
:1005900003208DF8220008A9444802F0D9FAADF8EA
:1005A0001840ADF814500020ADF81A00ADF8160050
:1005B00005A93C4802F0ACFE7020ADF80400012013
:1005C000ADF806000020ADF80A00ADF80C0001A956
:1005D000344802F01CFF0821324803F0F6FA0121EA
:1005E000304803F0BAFA01212E4803F0B8F909B0F7
:1005F00030BD10B52E48007810F0800F4CD101218D
:100600002C4803F04EFCD0B12948007810F0400F80
:1006100015D02748007800F03F003F280AD1244831
:10062000007840F08000224908704FF6FF702249A0
:10063000088004E01E480078401C1D490870022113
:100640001C4803F02EFC38B31948007810F0400F16
:100650000FD01748007840F0800015490870154801
:1006600003F000FC144908800021124803F00FFB3E
:1006700012E000200E4908700F49088000210D4843
:1006800003F0DAFB0A48007840F04000084908709F
:100690000221084803F0FBFA0321064803F012FC8C
:1006A00010BD00000004004000081A00000C0140CA
:1006B0001E000020000C00402000002008B5012191
:1006C000152002F0EFFC10208DF8030003208DF8B8
:1006D000020040F20340ADF800006946044802F011
:1006E00037FA40F20341024802F0DAFA08BD00008E
:1006F000000C014010B554480078012815D153482A
:100700000078012811D05048401E0078401C4E4906
:10071000491E087008460078192806D90020891C4F
:100720000870891E0870491C08704FF40071484811
:1007300002F09CFA444918310870153901F114028D
:10074000127851F8220080473F491731087010BDD8
:1007500010B5FFF7CFFF10BD3B481830007808B93F
:10076000012070470020FCE737481830007808B9AE
:10077000022070470020FCE733481830007810BB97
:100780000120344908703048401C0078401C2E4934
:10079000491C08700120491E0870481C0078022876
:1007A0000FD1481E007819280BD20020491C087070
:1007B000891E0870491C0870012024490870042013
:1007C00070470320FCE70020FAE71F481830007844
:1007D00010BB1D48801E0078401C1B49891E0870F4
:1007E000081D007850B908460078642804D100201C
:1007F00008700120091D0870032070471248801EF0
:100800000078322806D100200F49891E0870012087
:10081000114908700320F0E70420EEE70A48183079
:10082000007840B90848801E0078401C0649891E9F
:100830000870032070470020074908700249891E8C
:100840000870091D0870F5E7290000202600002027
:10085000000C0140240000202500002010B54D4868
:100860000078012815D14C480078012811D049485A
:10087000401E0078401C4749491E08700846007811
:10088000192806D90020891C0870891E0870491C87
:1008900008704FF40041414802F0E8F93D49183131
:1008A0000870153901F11402127851F822008047BE
:1008B00038491731087010BD10B5FFF7CFFF10BDD4
:1008C00034481830007808B9012070470020FCE750
:1008D00030481830007808B9022070470020FCE743
:1008E0002C481830007808B9032070470020FCE736
:1008F00028481830007888B92648801E0078401CA7
:100900002449891E087008460078502804D3012025
:1009100023490870042070470320FCE71D48801E0F
:100920000078502822D201201E4908701948401C26
:100930000078401C1749491C08700120491E0870A6
:10094000481C007802280FD1481E007819280BD2C5
:100950000020491C0870891E0870491C087001207D
:100960000D4908700420D6E70420D4E70420D2E71C
:1009700008481830007840B90648801E0078401CAE
:100980000449891E08700320704700200149891E10
:100990000870F9E74900002046000020000C0140E3
:1009A00045000020440000200020FB4908607047FB
:1009B0000120F949086070470020F8490860704735
:1009C0000120F649086070470020F449091F0860BB
:1009D00070470120F149091F0860704770B504464F
:1009E0000E46002516E0FFF7E7FF022003F0CFFDDB
:1009F00004F08000802802D1FFF7EBFF01E0FFF751
:100A0000E3FFFFF7DDFF022003F0C1FD6006040EE7
:100A1000681CC5B2B542E6DB70BD10B50446FFF7F1
:100A2000C3FF04218020FFF7D9FF08212046FFF7EC
:100A3000D5FFFFF7BDFF10BD2DE9F04104460D467F
:100A40001646FFF7B1FF0321A020FFF7C7FFA1065D
:100A5000080E0621FFF7C2FF002706E028780821CC
:100A6000FFF7BCFF6D1C781CC7B2B742F6DBFFF77F
:100A70009FFFBDE8F08170B504460D46FFF794FF77
:100A80000321A020FFF7AAFFA106080E0621FFF709
:100A9000A5FF08212846FFF7A1FFFFF789FF70BDDA
:100AA00070B504460D46FFF77FFF0321A020FFF736
:100AB00095FFA106080E0621FFF790FF04212846A6
:100AC000FFF78CFFFFF774FF70BD10B50120B2492E
:100AD000091D08600B22B2490020FFF7ADFF10BDD1
:100AE00010B50B22AF490020FFF7A6FF0020AA494E
:100AF000091D086010BD08B501210D2002F0D2FAD1
:100B00000121A94802F0EFF810208DF8030003201E
:100B10008DF802001820ADF800006946A34802F0E5
:100B200017F81821A14802F0BBF84FF41840ADF8AF
:100B3000000069469E4802F00BF84FF418419C48AB
:100B400002F0AEF80A2003F044FD5220FFF765FFE3
:100B50003020FFF762FF0020FFF75FFF0A20FFF75A
:100B60005CFF0220FFF759FF0620FFF756FF0A201F
:100B700003F02FFDFFF7B4FF4FF4FA7003F029FDE7
:100B8000FFF7A3FF4FF4FA7003F023FDFFF7A8FF70
:100B90004FF4FA7003F01DFDFFF797FF4FF4FA7062
:100BA00003F017FDFFF79CFF4FF4FA7003F011FDFF
:100BB000FFF78BFF4FF4FA7003F00BFD08BD38B55B
:100BC00004464FF47A7094FBF0F100FB114064216D
:100BD00090FBF1F0C0B28DF80000642094FBF0F1BE
:100BE00000FB11400A2190FBF1F0C0B28DF801002A
:100BF0000A2094FBF0F100FB1140C0B28DF8020016
:100C00009DF800006B49085C8DF800009DF801001C
:100C1000085C8DF801009DF80200085C8DF8020068
:100C2000032269460E20FFF707FF00205A49091DDD
:100C3000086038BD08B500200090032269460E20E8
:100C4000FFF7FAFE00205449091D086008BD38B5B9
:100C500004464FF47A7094FBF0F100FB11406421DC
:100C600090FBF1F0C0B28DF80000642094FBF0F12D
:100C700000FB11400A2190FBF1F0C0B28DF8010099
:100C80000A2094FBF0F100FB1140C0B28DF8020085
:100C90009DF800004749085C8DF800009DF80100B0
:100CA000085C8DF801009DF80200085C8DF80200D8
:100CB0004148007858B1414800788DF800003F481D
:100CC00040788DF801003D4880788DF802000322BD
:100CD00069460820FFF7B0FE00202F49091D086073
:100CE00038BD38B504464FF47A7094FBF0F100FB40
:100CF0001140642190FBF1F0C0B28DF80000642037
:100D000094FBF0F100FB11400A2190FBF1F0C0B21E
:100D10008DF801000A2094FBF0F100FB1140C0B2F5
:100D20008DF802009DF800002249085C8DF8000053
:100D30009DF80100085C8DF801009DF80200085C38
:100D40008DF802001E48007830B100208DF80000B8
:100D50008DF801008DF80200032269460620FFF796
:100D60006BFE00200C49091D086038BD10B50B2230
:100D700014490020FFF760FE00200749091D0860A4
:100D800010BD10B50B2210490020FFF755FE0020C2
:100D90000149091D086010BD8C812142B00121422A
:100DA000340300207100002000023000000C0140DC
:100DB00000080140D000002064000020BE00002098
:100DC00065000020660000209200002010B50B2274
:100DD000AB490020FFF730FE0020AA49086010BD93
:100DE00010B50B22A8490020FFF726FE0020A549D8
:100DF000086010BD10B50B22A4490020FFF71CFEAF
:100E00000020A049086010BD10B50B22A0490020A9
:100E1000FFF712FE00209B49086010BD10B59D48E9
:100E2000007800F0F7009B4908700846007840F011
:100E300010000870084601781420FFF71CFE0020FF
:100E40009049086010BD10B59248007800F0EF009E
:100E5000904908700846007840F00800087008467D
:100E600001781420FFF707FE00208649086010BDB6
:100E700010B58848007800F0DF0086490870084601
:100E8000007840F040000870084601781420FFF711
:100E9000F2FD00207B49086010BD10B57D48007848
:100EA00000F0BF007B4908700846007840F0200041
:100EB0000870084601781420FFF7DDFD0020714915
:100EC000086010BD38B504464FF47A7094FBF0F119
:100ED00000FB1140642190FBF1F0C0B28DF80000DE
:100EE000642094FBF0F100FB11400A2190FBF1F02B
:100EF000C0B28DF801000A2094FBF0F100FB114014
:100F0000C0B28DF802009DF800006349085C8DF8BE
:100F100000009DF80100085C8DF801009DF80200BA
:100F2000085C8DF80200032269460220FFF784FD69
:100F300000205449086038BD10B5032257490820E5
:100F4000FFF77AFD00204F49086010BD70B50446D8
:100F50000D46D0204F490870084601781420FFF74D
:100F60008AFDFFF7E9FF2046FFF729FE2846FFF735
:100F7000A9FF00204349086070BD10B580211D20E5
:100F8000FFF779FD10BD10B500211D20FFF773FD9F
:100F900010BD38B50446642094FBF0F100FB11400D
:100FA0000A2190FBF1F0C0B28DF800000A2094FBFA
:100FB000F0F100FB1140C0B28DF801009DF8000077
:100FC0003549085C8DF800009DF80100085C8DF83B
:100FD0000100022269460C20FFF72EFD002029495E
:100FE000086038BD08B500200090022269460C2038
:100FF000FFF722FD00202349086008BD38B50446EC
:10100000642094FBF0F100FB11400A2190FBF1F009
:10101000C0B28DF800000A2094FBF0F100FB1140F3
:10102000C0B28DF801009DF800001B49085C8DF8E6
:1010300000009DF80100085C8DF80100022269465D
:101040001020FFF7F9FC00200E49086038BD08B5F4
:1010500000200090022269461020FFF7EDFC0020DE
:101060000849086008BD08B50020009003226946C1
:101070000220FFF7E1FC00200249086008BD0000E3
:101080009D00002090812142A8000020B300002094
:101090007C00002062000020D0000020BE00002064
:1010A00010B54D480078012815D14C48007801282A
:1010B00011D04948401E0078401C4749491E08701D
:1010C00008460078192806D90020891C0870891E56
:1010D0000870491C08704FF40041414801F0C6FDFA
:1010E0003D4918310870153901F11402127851F890
:1010F0002200804738491731087010BD10B5FFF73E
:10110000CFFF10BD34481830007808B9012070476F
:101110000020FCE730481830007808B902207047FA
:101120000020FCE72C481830007808B903207047ED
:101130000020FCE728481830007888B92648801E2F
:101140000078401C2449891E087008460078502801
:1011500004D3012023490870042070470320FCE7D2
:101160001D48801E0078502822D201201E49087098
:101170001948401C0078401C1749491C0870012080
:10118000491E0870481C007802280FD1481E0078BC
:1011900019280BD20020491C0870891E0870491CB0
:1011A000087001200D4908700420D6E70420D4E718
:1011B0000420D2E708481830007840B90648801E5D
:1011C0000078401C0449891E0870032070470020E5
:1011D0000149891E0870F9E7E5000020E2000020BF
:1011E000000C0140E1000020E000002010B54E4856
:1011F0000078012815D14D480078012811D04A48BF
:10120000401E0078401C4849491E08700846007876
:10121000192806D90020891C0870891E0870491CED
:1012200008702021424801F021FD3F491831087023
:10123000153901F11402127851F8220080473A4919
:101240001731087010BD10B5FFF7D0FF10BD36483C
:101250001830007808B9012070470020FCE73248B8
:101260001830007808B9022070470020FCE72E48AB
:101270001830007808B9032070470020FCE72A489E
:101280001830007888B92848801E0078401C26490C
:10129000891E087008460078502804D3012025498B
:1012A0000870042070470320FCE71F48801E007868
:1012B000502822D20120204908701B48401C007889
:1012C000401C1949491C08700120491E0870481C1F
:1012D000007802280FD1481E007819280BD2002070
:1012E000491C0870891E0870491C087001200F49AC
:1012F00008700420D6E70420D4E70420D2E70A4887
:101300001830007840B90848801E0078401C064913
:10131000891E0870032070470020064908700249A2
:10132000891E0870F7E70000050100200201002077
:10133000000C0140010100200001002010B54E48C2
:101340000078012815D14D480078012811D04A486D
:10135000401E0078401C4849491E08700846007825
:10136000192806D90020891C0870891E0870491C9C
:1013700008704FF48041424801F078FC3E49183132
:101380000870153901F11402127851F822008047D3
:1013900039491731087010BD10B5FFF7CFFF10BDE8
:1013A00035481830007808B9012070470020FCE764
:1013B00031481830007808B9022070470020FCE757
:1013C0002D481830007808B9032070470020FCE74A
:1013D00029481830007888B92748801E0078401CBA
:1013E0002549891E087008460078502804D301203A
:1013F00024490870042070470320FCE71E48801E23
:101400000078502822D201201F4908701A48401C39
:101410000078401C1849491C08700120491E0870BA
:10142000481C007802280FD1481E007819280BD2DA
:101430000020491C0870891E0870491C0870012092
:101440000E4908700420D6E70420D4E70420D2E730
:1014500009481830007840B90748801E0078401CC1
:101460000549891E0870032070470020054908704F
:101470000149891E0870F7E725010020220100209C
:1014800000100140210100202001002010B54D482E
:101490000078012815D14C480078012811D049481E
:1014A000401E0078401C4749491E087008460078D5
:1014B000192806D90020891C0870891E0870491C4B
:1014C00008704FF40041414801F0D0FB3D4918310C
:1014D0000870153901F11402127851F82200804782
:1014E00038491731087010BD10B5FFF7CFFF10BD98
:1014F00034481830007808B9012070470020FCE714
:1015000030481830007808B9022070470020FCE706
:101510002C481830007808B9032070470020FCE7F9
:1015200028481830007888B92648801E0078401C6A
:101530002449891E087008460078502804D30120E9
:1015400023490870042070470320FCE71D48801ED3
:101550000078502822D201201E4908701948401CEA
:101560000078401C1749491C08700120491E08706A
:10157000481C007802280FD1481E007819280BD289
:101580000020491C0870891E0870491C0870012041
:101590000D4908700420D6E70420D4E70420D2E7E0
:1015A00008481830007840B90648801E0078401C72
:1015B0000449891E08700320704700200149891ED4
:1015C0000870F9E74501002042010020000C0140AD
:1015D000410100204001002010B54D48007801284D
:1015E00015D14C480078012811D04948401E007898
:1015F000401C4749491E087008460078192806D93A
:101600000020891C0870891E0870491C08704FF45E
:101610000041414801F02AFB3D4918310870153955
:1016200001F11402127851F822008047384917312D
:10163000087010BD10B5FFF7CFFF10BD344818304B
:10164000007808B9012070470020FCE730481830C6
:10165000007808B9022070470020FCE72C481830B9
:10166000007808B9032070470020FCE728481830AC
:10167000007888B92648801E0078401C2449891EBD
:10168000087008460078502804D3012023490870C8
:10169000042070470320FCE71D48801E0078502876
:1016A00022D201201E4908701948401C0078401CB5
:1016B0001749491C08700120491E0870481C007811
:1016C00002280FD1481E007819280BD20020491C8F
:1016D0000870891E0870491C087001200D490870A7
:1016E0000420D6E70420D4E70420D2E708481830C5
:1016F000007840B90648801E0078401C0449891EC5
:1017000008700320704700200149891E0870F9E71E
:101710006501002062010020000C014061010020F1
:101720006001002010B54E480078012815D14D48C1
:101730000078012811D04A48401E0078401C4849D2
:10174000491E087008460078192806D90020891C0F
:101750000870891E0870491C08708021424801F0F9
:1017600085FA3F4918310870153901F114021278D1
:1017700051F8220080473A491731087010BD10B562
:10178000FFF7D0FF10BD36481830007808B90120A7
:1017900070470020FCE732481830007808B9022072
:1017A00070470020FCE72E481830007808B9032065
:1017B00070470020FCE72A481830007888B928488C
:1017C000801E0078401C2649891E08700846007853
:1017D000502804D3012025490870042070470320B5
:1017E000FCE71F48801E0078502822D201202049A3
:1017F00008701B48401C0078401C1949491C08709F
:101800000120491E0870481C007802280FD1481E8C
:10181000007819280BD20020491C0870891E087016
:10182000491C087001200F4908700420D6E70420E5
:10183000D4E70420D2E70A481830007840B90848B5
:10184000801E0078401C0649891E087003207047DE
:101850000020064908700249891E0870F7E7000059
:101860008501002082010020000C01408101002040
:101870008001002000206249C873087448744861E0
:101880000883488388604860086070477EB56E466C
:1018900000210A460B460EC600BF00240025584A08
:1018A0005083128B564B5B8B9A420ADB544A128B45
:1018B000534B5B8BD21A534B1A8064229B1C1A80A9
:1018C00007E04F4A528B4E4B1B8BD21A4D4B9B1C41
:1018D0001A804C4A1288322A04DB4A4A921C128827
:1018E000322A64DA464A128B454B5B8BD21A00923D
:1018F000434A5268424B9A601A4612685A60009AEC
:101900001A601A4612685B68D21A00923C4A126842
:101910003B4B5B68A2EB4302394B9B681A44029233
:10192000374AD27B009B5A430092354A127C344B93
:101930001B685A430192324A527C029B5A430292DC
:10194000DDE900231A44029B1A4400922C4B009AB2
:101950005B691A442A4B5A611A465269002A1BDDF8
:101960001A465269322392FBF3F2274B1A801A4629
:101970001288264B1B889A4203DC244A1288224B89
:101980001A80214A1288224B1B889A4208DB204A7F
:1019900012881D4B1A8003E01C4A12881A4B1A80C9
:1019A000194A128832235A43154B5A6126E0144AC9
:1019B000128B134B5B8B9A4210DB154A1288124B29
:1019C0001A8000220E4B5A619A605A601A600E4AC1
:1019D000128832235A430A4B5A610FE00B4A12888D
:1019E000094B1A800022064B5A619A605A601A60AD
:1019F000054A128832235A43014B5A617EBD0000CA
:101A000040030020A6010020A0010020A401002026
:101A1000A20100202DE9F04104460D4617461E465E
:101A20000121084601F031FB204602F053FCFF483B
:101A30000680FF48056047601020FD498860084621
:101A4000C660002008618020486100208861C8616C
:101A500008624FF48050486200208862204602F0FD
:101A6000E1FCBDE8F08110B504460021204602F0FB
:101A700004FDEE480188EF4802F014FD01212046E4
:101A800002F0FBFC10BD08B50121084601F0FDFA8B
:101A9000E848143002F01EFCE748E5490860E748D2
:101AA0004860002088603220C860002008618020E3
:101AB000486100208861C86108624FF48050486224
:101AC00000208862DB48143002F0ACFC0122402187
:101AD000D948001F02F0F8FA0121D648143002F06C
:101AE000CCFCD44802F0F6FBD348D1490860D44876
:101AF0004860102088603220C86000200861802083
:101B0000486100208861C86108624FF480504862D3
:101B100000208862C74802F085FC01220221C548E6
:101B200002F0B7FC01228021C348001F02F0CCFA6A
:101B30000E208DF8000003208DF801008DF80200C2
:101B400001208DF80300684600F01FFD08BD10B5A8
:101B50004FF4005002F0ACFC30B14FF4005002F0F2
:101B6000BAFC0020B749087010BD002203E0002332
:101B70008354531CDAB28A42F9DB704770B50446CD
:101B80000D4600BFAF4800780128FBD02A46214609
:101B9000AB4807F013FD0021A64802F06EFC294671
:101BA000A44802F07FFC0121A24802F066FC01205B
:101BB000A449087070BD08B50121042001F072FA33
:101BC00004208DF8030003208DF802002020ADF8DA
:101BD000000069469C4800F0BBFF1020ADF80000F3
:101BE0006946994800F0B4FF08BD08B597A00068A1
:101BF000009004216846FFF7C1FF08BD08B594A016
:101C00000068009004216846FFF7B8FF08BD08B5DA
:101C100090A00068009004216846FFF7AFFF08BD60
:101C200008B58DA00068009004216846FFF7A6FF64
:101C300008BD08B589A00068009004216846FFF738
:101C40009DFF08BD7CB504460D46164684A103C918
:101C5000CDE900018DF801408DF802504FF47A7003
:101C600096FBF0F100FB1160642190FBF1F0C0B233
:101C70008DF80300642096FBF0F100FB11600A214F
:101C800090FBF1F0C0B28DF804000A2096FBF0F151
:101C900000FB1160C0B28DF8050007216846FFF710
:101CA0006DFF7CBDFEB504460D46164668466EA126
:101CB0008CC98CC08DF802404FF47A7095FBF0F11E
:101CC00000FB1150642190FBF1F0C0B28DF80300CD
:101CD000642095FBF0F100FB11500A2190FBF1F01C
:101CE000C0B28DF804000A2095FBF0F100FB115002
:101CF000C0B28DF805004FF47A7096FBF0F100FB4E
:101D00001160642190FBF1F0C0B28DF806006420F0
:101D100096FBF0F100FB11600A2190FBF1F0C0B2DC
:101D20008DF807000A2096FBF0F100FB1160C0B2AD
:101D30008DF808000A216846FFF720FFFEBD38B580
:101D400004464CA0006800908DF8024004216846CB
:101D5000FFF714FF38BD38B5044647A0006800906F
:101D60008DF8024004216846FFF708FF38BD00B532
:101D700085B00E2101A807F067FC4048006800907C
:101D80003F480088052190FBF1F201FB12003C491D
:101D90000988081A4FF47A7190FBF1F201FB1200E6
:101DA000642190FBF1F0C0B28DF802003448008845
:101DB000052190FBF1F201FB120031490988081A54
:101DC000642190FBF1F201FB12000A2190FBF1F07B
:101DD000C0B28DF803002A480088052190FBF1F27B
:101DE00001FB120026490988081A0A2190FBF1F22A
:101DF00001FB1200C0B28DF80400224800880521C2
:101E000090FBF1F201FB12001E490988081A4FF4F9
:101E10007A7190FBF1F201FB1200642190FBF1F06A
:101E2000C0B28DF80500174800882DE0B8010020E9
:101E30005C03002044000240043801408803002075
:101E4000EC030020B001002000080140FE0101FF6A
:101E5000FE0102FFFE0A01FFFE0201FFFE0202FF79
:101E6000FE0000000000FF00FE0700000000000070
:101E700000FF0000FE0800FFFE0900FF6CA0000844
:101E8000E2010020E8010020052190FBF1F201FBB6
:101E90001200FF490988081A642190FBF1F201FB46
:101EA00012000A2190FBF1F0C0B28DF80600F8484C
:101EB0000088052190FBF1F201FB1200F44909882A
:101EC000081A0A2190FBF1F201FB1200C0B28DF852
:101ED0000700F048C078012823D1EF4800884FF46C
:101EE0007A7190FBF1F201FB1200642190FBF1F09A
:101EF000C0B28DF80800E848008890FBF1F201FBC1
:101F000012000A2190FBF1F0C0B28DF80900E248FE
:101F1000008890FBF1F201FB1200C0B28DF80A00BC
:101F20003CE0DE480088052190FBF1F201FB120045
:101F3000DA490988081A4FF47A7190FBF1F201FB33
:101F40001200642190FBF1F0C0B28DF80800D34874
:101F50000088052190FBF1F201FB1200CF490988AE
:101F6000081A642190FBF1F201FB12000A2190FB98
:101F7000F1F0C0B28DF80900C8480088052190FB37
:101F8000F1F201FB1200C5490988081A0A2190FBE9
:101F9000F1F201FB1200C0B28DF80A0001208DF8A9
:101FA0000B00BC4800798DF80C00BA48C0788DF859
:101FB0000D00B84880788DF80E0002208DF80F00D3
:101FC00001208DF81000FF208DF8110012216846C5
:101FD000FFF7D4FD05B000BD00B587B0122102A8FF
:101FE00007F032FBAE4800680190AE4800884FF41D
:101FF0007A7190FBF1F201FB1200642190FBF1F089
:10200000C0B28DF80600A748008890FBF1F201FBF2
:1020100012000A2190FBF1F0C0B28DF80700A14830
:10202000008890FBF1F201FB1200C0B28DF80800AD
:10203000974800884FF47A7190FBF1F201FB12008F
:10204000642190FBF1F0C0B28DF80900904800883F
:1020500090FBF1F201FB12000A2190FBF1F0C0B2FB
:102060008DF80A008A48008890FBF1F201FB12000B
:10207000C0B28DF80B0000208DF80C008DF80D001B
:102080008DF80E008DF80F008DF810008DF81100FE
:10209000814800884FF47A7190FBF1F201FB120045
:1020A000642190FBF1F0C0B28DF812007A480088EC
:1020B00090FBF1F201FB12000A2190FBF1F0C0B29B
:1020C0008DF813007448008890FBF1F201FB1200B8
:1020D000C0B28DF81400714800884FF47A7190FBFB
:1020E000F1F201FB1200642190FBF1F0C0B28DF817
:1020F00015006A48008890FBF1F201FB12000A21EA
:1021000090FBF1F0C0B28DF816006448008890FB97
:10211000F1F201FB1200C0B28DF8170001208DF81A
:102120001800FF208DF81900162101A8FFF726FDE1
:1021300007B000BD2DE9FF4104460D4616461F4677
:102140005749091D684691E80C1180E80C110A20D6
:10215000B4FBF0F03C21B0FBF1F04FF47A71B0FB2E
:10216000F1F201FB12006421B0FBF1F0C0B28DF876
:1021700002000A20B4FBF0F03C21B0FBF1F0642136
:10218000B0FBF1F201FB12000A21B0FBF1F0C0B28A
:102190008DF803000A20B4FBF0F03C21B0FBF1F015
:1021A0000A21B0FBF1F201FB1200C0B28DF804006D
:1021B0003C20B4FBF0F0B0FBF1F201FB1200C0B226
:1021C0008DF805004FF47A7095FBF0F100FB11508B
:1021D000642190FBF1F0C0B28DF80600642095FBFD
:1021E000F0F100FB11500A2190FBF1F0C0B28DF824
:1021F00007000A2095FBF0F100FB1150C0B28DF8EA
:1022000008004FF47A7096FBF0F100FB1160642136
:1022100090FBF1F0C0B28DF80900642096FBF0F15C
:1022200000FB11600A2190FBF1F0C0B28DF80A00AA
:102230000A2096FBF0F100FB1160C0B28DF80B0094
:10224000FF208DF80C000D216846FFF797FCBDE8D4
:10225000FF813EB504460D461149143168460EC94A
:102260000EC04FF47A7094FBF0F100FB1140642132
:1022700090FBF1F0C0B28DF80200642094FBF0F105
:1022800000FB11400A2190FBF1F0C0B20CE000000D
:10229000E8010020AA010020DE010020DC0100206E
:1022A00070A00008E20100208DF803000A2094FBD2
:1022B000F0F100FB1140C0B28DF804004FF47A70C9
:1022C00095FBF0F100FB1150642190FBF1F0C0B2DE
:1022D0008DF80500642095FBF0F100FB11500A21F8
:1022E00090FBF1F0C0B28DF806000A2095FBF0F1EA
:1022F00000FB1150C0B28DF80700FF208DF80800D8
:1023000009216846FFF73AFC3EBD1CB504468C49DE
:1023100003C9CDE900010A20B4FBF0F03C21B0FB79
:10232000F1F04FF47A71B0FBF1F201FB120064217D
:10233000B0FBF1F0C0B28DF802000A20B4FBF0F05F
:102340003C21B0FBF1F06421B0FBF1F201FB120083
:102350000A21B0FBF1F0C0B28DF803000A20B4FBF3
:10236000F0F03C21B0FBF1F00A21B0FBF1F201FBEF
:102370001200C0B28DF80400FF208DF80500062180
:102380006846FFF7FBFB1CBD08B56EA00068009017
:1023900004216846FFF7F2FB08BD70B504460D4600
:1023A000042D00DA70BD2078FE287AD160781028DC
:1023B0001CD2DFE800F0C2081C30415279858687C4
:1023C0008889929BA7B7A078012806D1E078FF28DA
:1023D00003D101205C49087008E0A078022805D1EB
:1023E000E078FF2802D1012058490870A5E0A078C4
:1023F000012806D1E078FF2803D101205449087054
:1024000008E0A078022805D1E078FF2802D100205A
:102410004F49087091E0A07801280BD12079FF285E
:1024200008D101204B4908704B490870E0784B49AE
:10243000088000E000BF80E0A07801280BD120795F
:10244000FF2808D101204649087046490870E07805
:102450004249088000E000BF6FE0A078012821D148
:10246000A079FF281ED101203F490870E0780A2199
:1024700090FBF1F201FB12006421484321790A220A
:1024800091FBF2F302FB131101EB810100EB410020
:10249000617991FBF2F302FB131108442F49088084
:1024A00001E04BE000BF48E0A078012806D1E078C9
:1024B000FF2803D101202D49087000E000BF3CE057
:1024C0003BE03AE039E038E0A078012804D1E07838
:1024D000FF2801D1FFF74BFC2FE0A078012804D1A1
:1024E000E078FF2801D1FFF777FD26E0A0780128EA
:1024F00007D1E078FF2804D100211D480088FFF7AC
:10250000A8FE1AE0A07801280BD1E078FF2808D1B6
:102510000023184802881848018818480068FFF707
:1025200009FE0AE0A078012806D1E078FF2803D14F
:1025300012480068FFF7E9FE00BF00BF32E7000065
:1025400090A00008FE2201FF00000020B101002041
:10255000B701002080010020B4010020B20100205A
:1025600000010020B5010020B6010020200100205C
:10257000DE010020E8010020DC0100200402002030
:1025800032490143324A1160704770B5002100237F
:102590000F22C4780CB32E4C246804F4E064C4F514
:1025A000E064210AC1F10403CA40447804FA03F14B
:1025B0008478144021430901264C0678A1550478FB
:1025C00004F01F050124AC4005786D114FF0E026A2
:1025D00006EB8505C5F8004109E0047804F01F0406
:1025E0000125A5401C4C0678761144F8265070BD94
:1025F0001A4A0A400243164B1B1F1A60704741B12A
:10260000134A121D126802434FF0E023C3F8102D45
:1026100007E00F4A121D126882434FF0E023C3F80F
:10262000102D7047042808D14FF0E021096941F0CE
:1026300004014FF0E022116107E04FF0E021096949
:1026400021F004014FF0E022116170470000FA050B
:102650000CED00E000E400E080E100E080FFFF1FFF
:1026600010B50446F748844208D10121401500F016
:1026700033FD0021601500F02FFD17E0F248844281
:1026800008D10121001500F027FD0021201500F0E0
:1026900023FD0BE0ED48844208D10121C80300F07E
:1026A0001BFD00214FF4004000F016FD10BD30B5B9
:1026B000002200234268E64C22400D790C6844EA6F
:1026C0000524224342608268E24C2240D1E9025450
:1026D0002C434D7944EA450422438260C26A22F4C5
:1026E00070020C7C641EE4B2234342EA0352C262CD
:1026F00030BD00210160017141718160C160012123
:102700000174704721B1826842F00102826003E0E7
:10271000826822F001028260704721B1826842F42F
:102720008072826003E0826822F480728260704767
:1027300010B50023CBB21AB144681C43446002E0D8
:1027400044689C43446010BD816841F00801816089
:102750007047014600208A6812F0080F01D001205E
:1027600000E000207047816841F0040181607047FB
:10277000014600208A6812F0040F01D0012000E019
:102780000020704721B1826842F4A002826003E019
:10279000826822F4A00282607047014600208A68A5
:1027A00012F4800F01D0012000E00020704710B526
:1027B00000220023426822F460424B1E42EA433268
:1027C000426010BD21B1426842F40062426003E001
:1027D000426822F4006242607047F0B50024002590
:1027E000092911DDC468A1F10A0606EB4607072690
:1027F00006FA07F5AC43A1F10A0606EB460603FA12
:1028000006F52C43C4600CE0046901EB4107072680
:1028100006FA07F5AC4301EB410603FA06F52C4333
:102820000461072A0FDA446B561E06EB86071F2643
:1028300006FA07F5AC43561E06EB860601FA06F5C6
:102840002C43446322E00D2A0FDA046BD61F06EBFB
:1028500086071F2606FA07F5AC43D61F06EB860649
:1028600001FA06F52C43046310E0C46AA2F10D06D8
:1028700006EB86071F2606FA07F5AC43A2F10D0604
:1028800006EB860601FA06F52C43C462F0BD21B1C1
:10289000826842F48012826003E0826822F480122F
:1028A000826070470146C86C80B2704765484C3002
:1028B0000068704721B1426842F48062426003E0E0
:1028C000426822F480624260704721B1426842F45B
:1028D0008052426003E0426822F4805242607047B6
:1028E0000022826822F4E0420A438260704721B1EC
:1028F000826842F40042826003E0826822F400426F
:102900008260704721B1826842F40212826003E063
:10291000826822F4021282607047014600208A68B1
:1029200012F4001F01D0012000E000207047F0B534
:10293000002400250026092911DDC468A1F10A0739
:1029400007EB470C072707FA0CF5AC43A1F10A0780
:1029500007EB470703FA07F52C43C4600CE0046952
:1029600001EB410C072707FA0CF5AC4301EB4107DB
:1029700003FA07F52C430461846BC4F30156D71C9A
:1029800006F1010CA7EB0C0707EB870C1F2707FAD2
:102990000CF5AC43D71C06F1010CA7EB0C0707EBB9
:1029A000870701FA07F52C438463F0BD10B50022B8
:1029B0000023826B22F440124B1E42EA03528263D0
:1029C00010BD10B50023034618460B441A6010BD15
:1029D0000246002313461A4601F1280003441868F2
:1029E00080B27047002242681B4B1A400A43426083
:1029F00070474162826270470022426822F01F02E3
:102A00000A434260704740B10E490831096841F4F9
:102A10000001124AC2F8081407E00A49083109689F
:102A200021F400010D4AC2F8081470470246002044
:102A300013680B4201D0012000E000207047CA4318
:102A4000026070470024014000280140003C014022
:102A5000FFFEF0FFFDF7F1FFFFFD3FFF002001400B
:102A600070B502460020002300240B125568CEB238
:102A700005EA060415681D4202D00CB1012000E0F1
:102A8000002070BD00220A12D3430360704700008B
:102A900010B50446C748844208D10121042000F043
:102AA0001BFB0021042000F017FB46E0C2488442D3
:102AB00008D10121082000F00FFB0021082000F0C0
:102AC0000BFB3AE0BD48844208D10121102000F000
:102AD00003FB0021102000F0FFFA2EE0B8488442EA
:102AE00008D10121202000F0F7FA0021202000F079
:102AF000F3FA22E0B348844208D10121402000F0DB
:102B0000EBFA0021402000F0E7FA16E0AE488442DC
:102B100008D10121802000F0DFFA0021802000F0A0
:102B2000DBFA0AE0A948844207D10121801500F0B0
:102B3000D3FA0021A01500F0CFFA10BD10B5012185
:102B4000084600F0C9FA0021012000F0C5FA10BDC6
:102B5000F0B500220023002400250026002791F86C
:102B600003C00CF00F0291F803C01CF0100F03D04B
:102B700091F802C04CEA0202B1F800C01CF0FF0F4D
:102B800031D0066800242BE04FF0010C0CFA04F55C
:102B9000B1F800C00CEA0503AB4220D1A5004FF00C
:102BA0000F0C0CFA05F7BE4302FA05FC4CEA0606C8
:102BB00091F803C0BCF1280F06D14FF0010C0CFABC
:102BC00004FCC0F814C00AE091F803C0BCF1480F3F
:102BD00005D14FF0010C0CFA04FCC0F810C0641CC5
:102BE000082CD1D30660B1F800C0BCF1FF0F34DD72
:102BF000466800242EE004F1080C4FF0010E0EFA96
:102C00000CF5B1F800C00CEA0503AB4221D1A500D8
:102C10004FF00F0C0CFA05F7BE4302FA05FC4CEA24
:102C2000060691F803C0BCF1280F05D104F1080C89
:102C30000EFA0CFEC0F814E091F803C0BCF1480F86
:102C400007D104F1080C4FF0010E0EFA0CFEC0F88B
:102C500010E0641C082CCED34660F0BD4FF6FF7127
:102C60000180022181700421C1707047024600205A
:102C700093680B4201D0012000E00020704701461C
:102C8000886880B2704702460020D3680B4201D0AA
:102C9000012000E0002070470146C86880B27047FC
:102CA00001617047416170470AB1016100E0416113
:102CB0007047C16070474FF480320A43826181617E
:102CC00082618269826970470022414B1A684FF61F
:102CD00080731A4042EA00120A433D4B1A60704763
:102CE0003C49C8617047F0B500220023002400254C
:102CF00000F00046B6F1004F02D1354EF46901E014
:102D0000334E7468C0F3034582B200F44016B6F542
:102D1000401F08D124F070642D4E766826F070664E
:102D20002B4F7E6012E000F48016B6F5801F06D1AE
:102D3000032606FA05F39C4344F0706406E0460D52
:102D4000360102FA06F6B44344F0706421B1460D30
:102D5000360102FA06F6344300F00046B6F1004FA1
:102D600002D11B4EF46101E0194E7460F0BD30B524
:102D700000228B071C0F0F2303FA04F2144B0833B5
:102D80008C1053F8244094438D1043F825408C1048
:102D900053F824308C07240F00FA04F423430C4C1E
:102DA00008348D1044F8253030BD0A49DC31086004
:102DB0007047000000080140000C01400010014075
:102DC0000014014000180140001C01400020014097
:102DD0000000014000002042DB48006840F0010094
:102DE000D949086008464068D8490840D649486033
:102DF00008460068D6490840D3490860084600687C
:102E000020F4802008600846406820F4FE004860F6
:102E10004FF41F0088607047CB49096821F4803166
:102E2000C94A11601146096821F480211160B0F58A
:102E3000803F03D0B0F5802F0ED106E0C24909686B
:102E400041F48031C04A116007E0BF49096841F48C
:102E5000A021BD4A116000E000BF00BF704710B55F
:102E600001460022002300204A11012A02D1B64C5B
:102E7000236806E0022A02D1B34C236A01E0B24C77
:102E8000636A01F01F02012494401C4201D001201A
:102E900000E0002010BD70B500240025002600BF12
:102EA0003120FFF7DCFF0646641CB4F5A06F01D0AB
:102EB000002EF5D03120FFF7D2FF08B1012500E048
:102EC0000025284670BD00219F4A116821F0F801B5
:102ED00041EAC001116070479E49086070470022B6
:102EE000994B5A6822F47C1240EA01031A43964B2C
:102EF0005A6070479749086670470021924A5168A6
:102F000021F003010143516070478F48406800F091
:102F10000C00704700218C4A516821F0F0010143F8
:102F2000516070470021884A516821F4E0610143F3
:102F3000516070470021844A516821F4605141EA90
:102F4000C0015160704729B17F4A527A02437E4BDB
:102F50005A7206E07C4A527AC343DBB21A407A4B7B
:102F60005A7270477B49D831086070470021764A11
:102F7000516821F440410143516070470021724A79
:102F800020321170704A82F82010012802D00428E3
:102F90000AD104E001216C4A2032117005E00521BC
:102FA000694A2032117000E000BF00BF70476A49D3
:102FB000086070476449096A0143634A11627047B7
:102FC000654944390860704730B50021002200236C
:102FD00000245D4D6D6805F00C0121B1042905D078
:102FE000082923D105E05D4D056022E05B4D0560B9
:102FF0001FE0554D6D6805F47012534D6D6805F472
:103000008033022505EB92421BB9554D55430560AF
:103010000BE04D4D6D6815F4003F03D0504D554306
:10302000056002E04D4D5543056002E04B4D0560E3
:1030300000BF00BF444D6D6805F0F0010909494D1E
:103040006C5C0568E54045603F4D6D6805F4E061E6
:10305000090A444D6C5C4568E54085603A4D6D68F1
:1030600005F46051C90A3F4D6C5C4568E540C56098
:10307000354D6D6805F44041890B3A4D10356C5C57
:10308000C568B5FBF4F5056130BD29B12E4A52691A
:1030900002432D4B5A6104E02B4A526982432A4B6A
:1030A0005A61704729B1284A92690243264B9A61B6
:1030B00004E0254A92698243234B9A61704729B103
:1030C000214AD2690243204BDA6104E01E4AD269E8
:1030D00082431D4BDA61704729B11B4AD268024313
:1030E000194BDA6004E0184AD2688243164BDA6062
:1030F000704729B1144A12690243134B1A6104E064
:10310000114A12698243104B1A61704712494039C3
:10311000086070470F49C86470470B49C871704711
:103120000948406A40F0807007494862704701468C
:103130000020054A92680A4201D0012000E00020E8
:103140007047014988727047001002400000FFF884
:10315000FFFFF6FE000042428004424200127A0065
:1031600000093D00BA01002010B50446FF48844222
:1031700008D10121C014FFF7AFFF0021E014FFF7D1
:10318000ABFFC4E0B4F1804F08D101210846FFF73E
:10319000B0FF00210120FFF7ACFFB8E0F448844203
:1031A00008D101210220FFF7A4FF00210220FFF730
:1031B000A0FFACE0EF48844208D101210420FFF7D2
:1031C00098FF00210420FFF794FFA0E0EA48844222
:1031D00008D101210820FFF78CFF00210820FFF70C
:1031E00088FF94E0E548844208D101211020FFF7D0
:1031F00080FF00211020FFF77CFF88E0E048844238
:1032000008D101212020FFF774FF00212020FFF7C3
:1032100070FF7CE0DB48844208D101214014FFF7B5
:103220005BFF00216014FFF757FF70E0D64884422F
:1032300009D10121C804FFF74FFF00214FF40020FE
:10324000FFF74AFF63E0D148844209D10121080514
:10325000FFF742FF00214FF48010FFF73DFF56E0DB
:10326000CB48844209D101214805FFF735FF0021F1
:103270004FF40010FFF730FF49E0C648844208D100
:1032800001214020FFF735FF00214020FFF731FFEB
:103290003DE0C148844208D101218020FFF729FF89
:1032A00000218020FFF725FF31E0BC48844208D18F
:1032B00001218015FFF71DFF0021A015FFF719FF61
:1032C00025E0B748844209D101210804FFF704FF33
:1032D00000214FF48030FFF7FFFE18E0B148844230
:1032E00009D101214804FFF7F7FE00214FF4003017
:1032F000FFF7F2FE0BE0AC48844208D101218804BC
:10330000FFF7EAFE00214FF48020FFF7E5FE10BD35
:1033100000220288954B98420ED09A4B98420BD0CF
:10332000B0F1804F08D0924B984205D0914B984213
:1033300002D0914B984204D14FF68F731A404B88BC
:103340001A438E4B984207D08D4B984204D04FF6CB
:10335000FF431A40CB881A4302808B8883850B88F1
:103360000385824B98420BD0864B984208D08C4BF9
:10337000984205D08B4B984202D08B4B984201D19A
:103380000B7A038601238382704770B500220023E5
:103390000024058C4FF6FE7635400584038C848826
:1033A000028B4FF68F752A40B51E2A400D882A439E
:1033B000751E2B400D892B434D882B436B4DA84226
:1033C0000BD0704DA84208D0754DA84205D0754D60
:1033D000A84202D0744DA84213D14FF6F7752B4086
:1033E0004D892B434FF6FB752B408D882B434FF6B1
:1033F000FF652C404FF6FF552C408D892C43CD891D
:103400002C4384800283CD888586038470BD70B58B
:10341000002200230024058C4FF6EF76354005840A
:10342000038C8488028B48F6FF752A404FF6FF45CF
:103430002A400D882D0642EA15424FF6DF752B40D3
:103440000D892D0543EA15434D882D0543EA1543A3
:10345000464DA84202D04B4DA8421BD14FF67F7576
:103460002B404D892D0543EA15434FF6BF752B4080
:103470008D882D0543EA15434FF6FF352C404FF25A
:10348000FF752C408D89AD0444EA1544CD89AD0407
:1034900044EA154484800283CD880587038470BD87
:1034A00070B5002200230024058C4FF6FF663540DE
:1034B0000584038C8488828B4FF68F752A404FF6E3
:1034C000FC752A400D882A434FF6FF552B400D8985
:1034D0002D0643EA15434D882D0643EA1543234D37
:1034E000A84202D0274DA8421BD14FF2FF752B40B6
:1034F0004D892D0643EA15434FF6FF352B408D8845
:103500002D0643EA15434EF6FF752C404DF6FF7528
:103510002C408D892D0544EA1544CD892D0544EABA
:10352000154484808283CD888587038470BD70B5FF
:10353000002200230024058C4EF6FF7635400584DA
:10354000038C8488828B48F6FF752A404FF6FF452E
:103550002A400D882D0642EA15424DF6FF752B4094
:103560000D892D0743EA15434D881FE0002C0140CB
:103570000004004000080040000C00400010004023
:103580000014004000340140004C01400050014054
:103590000054014000180040001C00400020004082
:1035A0000040014000440140004801402D0743EA2B
:1035B0001543F84DA84202D0F74DA84206D14BF66C
:1035C000FF752C408D89AD0544EA154484808283C3
:1035D000CD88A0F84050038470BD828B4FF2FF333A
:1035E0001A408283828B0B0642EA13428283704721
:1035F000F0B5002400250026078C4EF6FF7C07EA74
:103600000C070784848B058C0F073E0C40F6FF47A0
:103610003C40170644EA17441F0744EA1744DD4FAD
:10362000B8420ED0DC4FB8420BD0B0F1804F08D07A
:10363000DA4FB84205D0DA4FB84202D0D94FB8427B
:1036400006D14DF6FF773D4046F480573D4305E0F7
:1036500047F6FF573D4041F480573D43848305843E
:10366000F0BD828B4FF6F3731A408283828B0A433C
:1036700082837047F0B5002400250026078C4FF6A2
:10368000FF6C07EA0C070784848B058C0F063E0C41
:103690004FF60C773C401F0542EA17473C43BD4FAD
:1036A000B8420ED0BC4FB8420BD0B0F1804F08D01A
:1036B000BA4FB84205D0BA4FB84202D0B94FB8425B
:1036C00006D14FF6FF573D4046F480773D4305E075
:1036D0004FF2FF573D4041F480773D43848305849A
:1036E000F0BD028B4FF2FF331A400283028B0B06B0
:1036F00042EA134202837047F0B5002400250026F9
:10370000078C4FF6EF7C07EA0C070784048B058CC7
:103710000F053E0C40F6FF473C401F0744EA1744A4
:10372000170644EA17449B4FB8420ED09A4FB8424E
:103730000BD0B0F1804F08D0984FB84205D0984FC9
:10374000B84202D0974FB84206D14FF6DF773D40DE
:1037500046F010073D4305E04FF65F773D4041F0EE
:1037600010073D4304830584F0BD028B4FF6F373CD
:103770001A400283028B0A4302837047F0B500248B
:103780000025068C4FF6FE773E400684048B058CA0
:103790004FF60C7634401E0542EA164634437D4E01
:1037A000B0420ED07C4EB0420BD0B0F1804F08D06A
:1037B0007A4EB04205D07A4EB04202D0794EB04235
:1037C00006D14FF6FD76354041F00106354305E060
:1037D0004FF6F576354041F0010635430483058404
:1037E000F0BD70B504460D466A4884420ED06A4862
:1037F00084420BD0B4F1804F08D06848844205D091
:103800006748844202D06748844200D100E000BF8C
:10381000288850B92B89AA8869882046FFF7AEFF0F
:10382000E9882046FFF7A1FF25E0288804280AD16F
:103830002B89AA8869882046FFF75EFFE988204621
:10384000FFF74FFF17E0288808280AD12B89AA889C
:1038500069882046FFF70EFFE9882046FFF701FF41
:1038600009E02B89AA8869882046FFF7C1FEE9880C
:103870002046FFF7B2FE70BD2DE9F04104460D462B
:1038800000260127688808B9022600E00026A888DB
:10389000012801D1022700E001272888A0B92B893F
:1038A000AA8869882046FFF769FFE9882046FFF764
:1038B0005CFF2B893A4631462046FFF71DFFE98819
:1038C0002046FFF70EFF13E02B89AA88698820465F
:1038D000FFF712FFE9882046FFF703FF2B893A46DE
:1038E00031462046FFF74AFFE9882046FFF73DFFB3
:1038F000BDE8F0810A884B881A438B881A43CB882D
:103900001A430B891A434B891A438B891A43A0F82F
:10391000442070474FF6FF71818000210180C180F3
:103920004180017270470021018041808180C18007
:10393000018141818181C1817047002101804180E5
:10394000012181800021C180018170470021018017
:1039500041808180C180018141818181704721B195
:10396000028842F00102028004E002884FF6FE73F2
:103970001A400280704731B1B0F8442042F400424E
:10398000A0F8442005E0B0F84420C2F30E02A0F8ED
:1039900044207047002C01400034014000040040E6
:1039A00000080040000C004010B51AB183890B4399
:1039B000838104E08389CC43A4B22340838110BD7A
:1039C0008182704741EA0203A0F84830704710B581
:1039D0001AB183890B43838104E08389CC43A4B269
:1039E0002340838110BD01894FF6F8721140018197
:1039F0007047002202894FF68F731A400A430281F2
:103A0000704730B504460D4629462046FFF7F1FFC2
:103A1000208940F00700208130BD2DE9F0410446A7
:103A20000D4616461F46602D06D13B460122314603
:103A30002046FFF761FE05E03B4601223146204665
:103A4000FFF79CFE29462046FFF7D3FF208940F070
:103A500007002081BDE8F08130B500240489E4B27C
:103A60001D0642EA15450D432C43048130BD2DE966
:103A7000F04104460D461646984600274346324616
:103A800029462046FFF7E8FF27894FF6F8700740E0
:103A900047F007074FF68F70074047F07007278100
:103AA000BDE8F081F0B504460D4616461F463B467C
:103AB000324629462046FFF7CFFF208940F4804058
:103AC0002081F0BD018582827047002202884FF676
:103AD0008F731A400A4302807047F0B50024002516
:103AE00000260489058B068C4FF6F8773C400C4382
:103AF0004FF6FC473D4040F201173D434FF6DD775E
:103B00003E401F0542EA17473E4304810583068471
:103B1000F0BD0022028B4FF68F731A400A430283D6
:103B200070470022028B48F6FF731A400B0642EAE8
:103B30001342028370470022828B4FF68F731A4024
:103B40000A43828370470022828B48F6FF731A4033
:103B50000B0642EA13428283704721B1028842F089
:103B60008002028004E002884FF67F731A400280D0
:103B7000704721B1828842F00402828004E082888A
:103B80004FF6FB731A408280704721B1828842F061
:103B90000802828004E082884FF6F7731A40828020
:103BA000704721B1828842F00102828004E082885D
:103BB0004FF6FE731A40828070470022028B4FF648
:103BC000F7731A400A43028370470022028B4FF2B8
:103BD000FF731A400B0642EA134202837047002229
:103BE000828B4FF6F7731A400A4382837047002294
:103BF000828B4FF2FF731A400B0642EA1342828314
:103C000070470022028B4FF6FB731A400A4302836F
:103C100070470022028B4FF6FF331A400B0642EA30
:103C20001342028370470022828B4FF6FB731A40C7
:103C30000A43828370470022828B4FF6FF331A407B
:103C40000B0642EA1342828370470022028B4FF632
:103C50007F731A400A43028370470022028BC2F32B
:103C60000E020B0642EA1342028370470022828B47
:103C70004FF67F731A400A43828370470022828B7B
:103C8000C2F30E020B0642EA1342828370470022FF
:103C9000028C4FF6FD731A400A43028470470022DB
:103CA000028C4FF6F7731A400A43028470470022D1
:103CB000028C4FF6DF731A400B0542EA134202846E
:103CC00070470022028C4FF67F731A400B0542EAC0
:103CD0001342028470470022028C4FF6FF531A40B1
:103CE0000B0642EA1342028470470022028C4FF214
:103CF000FF731A400B0642EA134202847047002207
:103D0000028C4DF6FF731A400B0742EA13420284FD
:103D1000704730B5002301248C40A3B2048CDD43EE
:103D2000ADB22C400484048C02FA01F5ADB22C43F0
:103D3000048430BD30B5002304248C40A3B2048C2D
:103D4000DD43ADB22C400484048C02FA01F5ADB21F
:103D50002C43048430BD70B500230024034618466C
:103D6000183301258D40ACB2058CE643B6B2354020
:103D7000058409B1082909D103EB61031D6825F009
:103D800070051D601D6815431D600CE00D1FADB270
:103D900003EB65031D6825F4E0451D601D681606EC
:103DA00045EA16451D6070BD21B1028842F002024D
:103DB000028004E002884FF6FD731A4002807047CB
:103DC00021B1028842F00402028004E002884FF62A
:103DD000FB731A400280704721B1828842F0800252
:103DE000828004E082884FF67F731A408280704799
:103DF00002884FF6F7731A40028002880A43028055
:103E0000704782884FF68F731A40828082880A43F7
:103E10008280704702894FF6F8731A400281028946
:103E20000A430281704702894FF67F731A4002816C
:103E300002890A43028170478184704781857047F7
:103E4000818670470187704781877047A0F84010CE
:103E5000704702884FF6FF431A40028002880A43E7
:103E6000028070470146888E70470146088F704770
:103E70000146888F70470146B1F8400070470146FF
:103E8000888C70470146088D704702460020138ACF
:103E90000B4201D0012000E000207047CA4302829B
:103EA000704730B50246002000230024158A05EA39
:103EB0000103958905EA010413B10CB1012000E06A
:103EC000002030BDCA4302827047000010B504468E
:103ED000FB48844209D101218803FFF7FDF8002146
:103EE0004FF48040FFF7F8F832E0F648844209D1F9
:103EF00001214804FFF7FDF800214FF40030FFF7DF
:103F0000F8F825E0F048844209D101218804FFF740
:103F1000F0F800214FF48020FFF7EBF818E0EB48B1
:103F2000844209D10121C804FFF7E3F800214FF4CE
:103F30000020FFF7DEF80BE0E548844208D10121BC
:103F40000805FFF7D6F800214FF48010FFF7D1F8ED
:103F500010BD2DE9F04786B004460D460026002727
:103F600000BFB146B246A88900B100BFA246268A6A
:103F70004CF6FF700640E88806432682A6894EF676
:103F8000F3100640A8882989084369890843064335
:103F9000A681A68A4FF6FF400640A8890643A6825E
:103FA00001A8FFF711F85446C548824501D1049F86
:103FB00000E0039FA08910F4004F08D007EBC70072
:103FC00000EB071029684900B0FBF1F807E007EBA8
:103FD000C70000EB071029688900B0FBF1F86420E6
:103FE000B8FBF0F006013009642101FB1089A089BB
:103FF00010F4004F09D0322101EBC9006421B0FB5D
:10400000F1F000F00700064308E0322101EB09104F
:104010006421B0FBF1F000F00F000643268106B0EA
:10402000BDE8F0874FF41651016000218180C18006
:1040300001810C21418100218181704710B500224E
:10404000028A4FF2FF031A400B884C8823438C8866
:104050002343CC8823431A43028210BD00210180F0
:1040600041808180C180704721B1828942F4005231
:10407000828104E082894DF6FF731A408281704785
:10408000F0B50024002500260023A1F510676A3F43
:1040900000D100BF0346C1F3421401F01F05012700
:1040A00007FA05F6012C01D10C3304E0022C01D1F2
:1040B000103300E014331AB11F6837431F6002E069
:1040C0001F68B7431F60F0BD10B51AB1838A0B4358
:1040D000838204E0838ACC43A4B22340838210BD50
:1040E000028A4FF6F0731A400282028A0A43028261
:1040F000704782894FF2FF731A40828182890A4396
:104100008281704721B1828942F00202828104E0FB
:1041100082894FF6FD731A4082817047028A4FF6FA
:10412000DF731A400282028A0A430282704721B179
:10413000028A42F48042028204E0028A4BF6FF7354
:104140001A4002827047C1F308028280704701461C
:104150008888C0F308007047818941F0010181819E
:104160007047028BD2B20283028B42EA01220283A1
:104170007047028B02F47F420283028B0A43028360
:10418000704721B1828A42F02002828204E0828A52
:104190004FF6DF731A408282704721B1828A42F063
:1041A0001002828204E0828A4FF6EF731A40828204
:1041B000704721B1828A42F00802828204E0828A3A
:1041C0004FF6F7731A408282704721B1828942F418
:1041D0000042828103E08289C2F30E02828170472D
:1041E00021B1828A42F40062828204E0828A4FF224
:1041F000FF731A4082827047828A4FF6FB731A401F
:104200008282828A0A438282704721B1828A42F086
:104210000202828204E0828A4FF6FD731A40828293
:10422000704702460020B1F5007F00D100BF13881F
:104230000B4201D0012000E00020704701F4007221
:10424000B2F5007F00D100BFCA430280704770B54D
:1042500002460023002400250020A1F510666A3ED6
:1042600000D100BFC1F3421501F01F04012606FA78
:1042700004F4012D02D19689344006E0022D02D1CA
:10428000168A344001E0968A34400B12012606FA61
:1042900003F31688334014B10BB1012000E0002075
:1042A00070BD10B500220023A1F510646A3C00D156
:1042B00000BF0A1201249440A3B2DC43048010BD65
:1042C000003801400044004000480040004C0040DD
:1042D0000050004001684FF6FE721140016000215D
:1042E000016041608160C1608F49884208D18E4978
:1042F0000839496841F00F018B4A083A516090E053
:1043000089491431884208D187490839496841F000
:10431000F001854A083A516083E083492831884298
:1043200008D181490839496841F470617E4A083AE8
:10433000516076E07C493C31884208D17A4908399D
:10434000496841F47041784A083A516069E0764919
:104350005031884208D174490839496841F47021C4
:10436000714A083A51605CE06F496431884208D173
:104370006D490839496841F470016B4A083A516047
:104380004FE069497831884208D16749083949685E
:1043900041F07061644A083A516042E063498842E2
:1043A00008D1011F096841F00F015F4A083AC2F8BD
:1043B000041436E05D491431884209D15B49091F74
:1043C000096841F0F001584A083AC2F8041428E09C
:1043D00056492831884209D15449091F096841F4D6
:1043E0007061514A083AC2F804141AE04F493C314E
:1043F000884209D14D49091F096841F470414A4A70
:10440000083AC2F804140CE048495031884208D1F7
:104410004649091F096841F47021434A083AC2F825
:104420000414704710B50022026847F6F0739A43EF
:104430000C6A8B6823430C6923434C6923438C69C2
:104440002343CC6923434C6A23438C6A23431A4396
:104450000260CB6843600B6883604B68C36010BD2B
:104460000021016041608160C16001614161816141
:10447000C161016241628162704721B1026842F00C
:104480000102026004E002684FF6FE731A40026007
:1044900070471AB103680B43036002E003688B4363
:1044A00003607047416070470146486880B27047BA
:1044B00002460020002112F0805F03D01B4B083B16
:1044C000196802E0184B083B1968114201D001201D
:1044D00000E00020704710F0805F03D01349091FEF
:1044E000086002E010490839486070470246002021
:1044F000002112F0805F03D00C4B083B196802E0EA
:10450000094B083B1968114201D0012000E000204E
:10451000704710F0805F03D00449091F086002E073
:104520000149083948607047080002400804024009
:1045300010B501F053FF02F092F801F06AFF10BDD0
:1045400010B56FF00400FEF76DF83348006833498A
:10455000B0FBF1F0324908702F4800682F49B0FBDA
:10456000F1F44FF4FA60444302202D49891C08807D
:104570004FF0E020006940F002004FF0E0210861B8
:1045800008464461006940F00100086110BD70B543
:1045900000244FF0E0267569214E367800FB06F1C5
:1045A00000BF4FF0E026B36910E04FF0E026B2699B
:1045B0009A420BD09A4202D29E1A344402E0AE1ABA
:1045C0001E44344413468C4200D300E0EDE700BFA4
:1045D00070BD70B5044613480078012814D1104806
:1045E000801C0088844207DB0D48801C008894FBF7
:1045F000F0F5284604F0DCF90948801C008894FB9B
:10460000F0F100FB114084B24FF47A7104FB01F029
:10461000FFF7BDFF70BD0000B802002000127A0055
:10462000CE010020F202002010B54FF4A060FDF78B
:10463000A7FF10BD014600BF704700BF464A128861
:1046400012F0400FFAD0C2B2434B1B1D1A807047C4
:1046500010B586B00446012144F20500FEF722FDA4
:104660004FF40070ADF8140003208DF816001820E8
:104670008DF8170005A93948FEF76AFA4FF48060F3
:10468000ADF8140004208DF8170005A93348FEF793
:104690005FFA25208DF8000003208DF801008DF8C9
:1046A000020001208DF803006846FDF76EFF0194BB
:1046B0000020ADF80800ADF80A00ADF80C00ADF828
:1046C00010000C20ADF80E0001A92348FFF741FCB3
:1046D000012240F224412048FFF7D2FC01211E486C
:1046E000FFF7C2FC06B010BD10B501F077FE40F236
:1046F00024411948FFF7ABFD50B3002400211848AE
:10470000FFF7BBFE1648FFF7CFFEC0F1320084B2C0
:1047100022461449144804F051FF144804802146ED
:104720001148FDF73AFEE1B20F48FDF71EFA40F2DC
:1047300024410948FFF7B5FD0748FFF708FD32217E
:104740000748FFF7AFFE01210548FFF796FE00BFBF
:1047500001F05FFE10BD000000380140000801407C
:104760005800024088030020BA030020D401002032
:10477000FA4A1288521CF94B1A801A461288F84BD2
:104780001B889A4205DB0122F64B1A700022F34B7C
:104790001A80F54A12782AB1F44A1268521CF34B77
:1047A0001A6002E00022F14B1A60F04A1268F04BE6
:1047B0009A4202D30022ED4B1A607047ED4A1278FC
:1047C000072A0CD2DFE802F00405060708090A00F0
:1047D00005E004E003E002E001E000E000BF00BF0C
:1047E000E44A1278521CE34B1A701A461278062AD1
:1047F00001DD00221A707047F8B505460E46ECB18F
:10480000DC48401C0278DCA1204604F0C1FDD948F8
:10481000401C0078401CD749491C08702146DA48E2
:10482000006803F0D5F900909DF8000030B16B46A8
:1048300000221146D548006804F094FBF8BD1CB571
:104840002CE001AB0093002303220121D048006833
:1048500002F0E9FACF480088CF490988884219DB7D
:10486000B420CE4908800120CD490860FA20FFF726
:10487000B0FE0020CB49C1F89801FA20FFF7A9FE4D
:104880000120C7490860FA20FFF7A3FE0020C549B0
:10489000C1F898014FF44870FFF79BFED1E72DE96E
:1048A000FC474FF00008C14632E101AB0093012301
:1048B00003224FF6FF71B648006802F0B4FA0446CE
:1048C00008F101001FFA80F809F101001FFA80F9D0
:1048D000B548078814F0040F02D0FCF752FA14E12F
:1048E00014F0080F02D0FCF771FA0EE114F0100F6B
:1048F00002D0FCF775FA08E114F0200F02D0FCF7A3
:1049000079FA02E114F0020F05D0FCF7DEF802207C
:10491000A6498870F9E014F0010FE0D00120A34906
:104920008870A3480088044202D00020087016E076
:1049300001209E490870FCF771FA984805883E46A8
:1049400094480088052190FBF1F201FB1200914987
:104950000988081A1FFA80FA5046FCF778F995483A
:104960000088044270D001209049C87092480088A5
:10497000401C9149088008460088FA280ADB01ABF0
:1049800000228C4801888248006802F0A8FB0020C1
:1049900089490880FCF76CFA8848007801281CD106
:1049A0008748007810B98748007818B12846FCF786
:1049B00006F90DE0B8F1190F02D1FCF73BF907E059
:1049C000B8F1320F04DB4FF000082846FCF7F7F887
:1049D00071480088FCF776FA90E078480078022861
:1049E0001DD17748007810B97648007820B16A4820
:1049F0000088FCF767FA0EE0B8F1190F02D1FCF756
:104A000032FB08E0B8F1320F05DB4FF000086248D6
:104A10000088FCF757FA2846FCF7D1F86EE06A48A0
:104A20000078012822D16648007810B965480078DE
:104A300020B166480078FCF7ACFA0FE0B8F1190F26
:104A400003D1FCF7CFFA09E03AE0B8F1320F05DB09
:104A50004FF000085D480078FCF79BFA2846FCF709
:104A6000AEF85B480078FCF7C9FA47E05648007892
:104A7000022821D15248007810B95248007820B15C
:104A800053480078FCF7BAFA0EE0B8F1190F02D1DA
:104A9000FCF7DDFA08E0B8F1320F05DB4FF0000853
:104AA0004B480078FCF7AAFA48480078FCF771FAFE
:104AB0002846FCF784F821E02846FCF780F81DE042
:104AC00002203A49C8703D480078012802DB0020E6
:104AD0003A490870002038490880FCF7DEF90520C3
:104AE00096FBF0F100FB1160301A1FFA80FA504675
:104AF000FCF765F828480088FCF7E4F9B9F1C80F1D
:104B000003DD4FF00009FDF732F91420FFF761FDD6
:104B1000CBE67CB500256DE001AB009300230322BA
:104B200011461B48006802F07EF9044629490988AD
:104B30000C4201D000255AE00120194918390860BB
:104B40001849C1F8A80140F6B830854244DC681C19
:104B500085B2002012491439086048E000020020A4
:104B6000FE0100209E010020F5010020040200202B
:104B70008427090096020020414C49454E54454B7C
:104B80002025303364000000A4020020B002002081
:104B9000B4020020E8010020E2010020DE01002034
:104BA0009881214200802142DC010020AA010020DE
:104BB0009202002094020020FA010020F30100205C
:104BC0008101002001010020F4010020EC010020FF
:104BD000ED01002086020020FB480088822803DACD
:104BE0000120FA49086002E00020F84908606420CA
:104BF000FFF7EFFC90E71CB5ABE001AB009300239F
:104C000003223C21F248006802F00DF9044614F03A
:104C1000040F18D00020EF49088001AB00224FF6A6
:104C2000C371EB48006802F05AFA0120E749091FF6
:104C30000860E949C1F8A801E44908604FF47570BB
:104C4000E149088052E014F0080F18D00020E14933
:104C5000088001AB00224FF6C371DD48006802F006
:104C60003EFA0120D949091F0860DB49C1F8A801B3
:104C7000D649086040F2CF30D349088036E014F0BE
:104C8000100F18D00020D349088001AB00224FF646
:104C9000C371CF48006802F022FA0120CB49091FF6
:104CA0000860CD49C1F8A801C849086040F2CA307F
:104CB000C54908801AE014F0200F17D00020C5491C
:104CC000088001AB00224FF6C371C148006802F0B2
:104CD00006FA0120BD49091F0860BF49C1F8A801B3
:104CE000BA49086040F2C530B74908800020B94988
:104CF000088001AB00224FF6C371B548006802F08E
:104D0000EEF90120B149091F0860B349C1F8A801B3
:104D1000AE490860FDF72BF80120AF49C1F89801B2
:104D2000FA20FFF756FC0020A84914310860FA2049
:104D3000FFF74FFC0120A849C1F89801FA20FFF7BE
:104D400048FC0020A149143108604FF44870FFF777
:104D500040FC52E72DE9F04F87B004469F48008899
:104D6000A04203DD002007B0BDE8F08F9B48B0F8FB
:104D70007800A04201DA9A48F5E74FF000084FF0BA
:104D80003D091F2723E0954830F81700A04208DDB1
:104D9000B94609EB080000EBD071C1F347010F469B
:104DA00015E08E4830F81700A04208DAB84609EB43
:104DB000080000EBD071C1F347010F4607E007EB95
:104DC0008706304604F06AFF05462846CBE7A9EB84
:104DD00008000128D7D107EB8706804931F8180071
:104DE00004F075FF06907D4931F8190004F06FFF5B
:104DF0000590304604F052FF0490DDE9050105F00E
:104E000015F80390204604F062FF0190069905F022
:104E10000DF87449029004F05FFF8346039904F093
:104E20001FFE8246049904F08FFD054628469AE746
:104E30002DE9F04F89B000240025002600BF00278F
:104E400000BF4FF001084FF0010912E10A210020D4
:104E5000FBF737FA04460A210120FBF732FA06462F
:104E600040F60770844208DB08AB01225E480188E7
:104E70005748006802F033F973E040F6CF5084429F
:104E800008DB08AB0122594801885148006802F04C
:104E900026F966E008AB0022534801884C480068B8
:104EA00002F01DF9B4F5E87F02DA42F2107525E050
:104EB00040F66950844202DB45F2D5251EE04C489D
:104EC00004FB00FB0020CDE904B04AA00CC8059902
:104ED0001BEB02005941CDE9020104EB8400C0EB59
:104EE0008410C0F5242A002003465246CDE906A0CE
:104EF000029804F028FA0546CDE90001A8B2FFF7B0
:104F000029FF824604F09EFE2F490880084600884B
:104F100000EBC000052190FBF1F020302A49088009
:104F200008460088B0F5967F11DB08460088B0F58A
:104F3000B97F0CDA08460088642190FBF1F201FB8E
:104F400012002149098808441F49088009E01E48C9
:104F50000088B0F5B97F04DB1B48008846301A4949
:104F60000880B6F55D6F12DD00202449088001201D
:104F700023490870002023490871B8F1000F75D04B
:104F8000FCF7DDFE4FF000084FF001096EE0012054
:104F90001C490871B9F1000F05D0FCF7D0FE4FF0A5
:104FA00000094FF00108002015490870B6F5E87FA8
:104FB00002DA42F2107747E040F66950864223DB7E
:104FC00045F2D52740E00000DC0100208481214229
:104FD000B402002084020020008021420802002048
:104FE000000096430000A0408A02002090020020AA
:104FF000600112000000905F01000000E801002045
:1050000064000020AA010020F94806FB00FB0020F4
:10501000CDE904B0AFF224000CC805991BEB0200E7
:105020005941CDE9020106EB8600C0EB8610C0F5C0
:10503000242A002003465246CDE906A0029804F037
:1050400082F90746CDE90001B8B2FFF783FE824638
:1050500004F0F8FDE74908800846008800EBC0002E
:10506000052190FBF1F02030E24908806420FFF731
:10507000B0FAEBE67CB5002400250026A1E201AAE7
:105080000021DD48006802F0B1F90446701C86B2C8
:10509000152C50D2DFE804F04F0B506F839BA74FC5
:1050A0004FB0F1F0EFEEED4F4F4F4F4FEC00D348C4
:1050B000008828B1D1480088D149098888423AD16E
:1050C00001AB00224FF6FF71CE48006802F007F8EE
:1050D000CD480088CD4909880843C849088001ABFC
:1050E000012208460188C748006801F0F8FF012046
:1050F000C74908600020C7490870C7490870C749F8
:105100000870C74908704FF4AF70C6490880012085
:10511000C5490870C5480188C2480088FBF716FFDA
:105120000120BE490870FCF760FDBE4802880121DD
:105130000620FCF787FD37E201AB00224FF6FF7136
:10514000B048006801F0CBFFAD480088AB4908804B
:1051500001AB012208460188AA48006801F0BFFFA0
:105160000120AB4908600020AF490870B0490870C1
:10517000FCF744FD18E201AB009300230322012158
:10518000A048006801F04FFEA748007830B1012028
:10519000A849087000209E492831086004E20DB932
:1051A000012000E00020C5B245B101AB0122A248B8
:1051B00001889448006801F092FF07E001AB0022EB
:1051C0009D4801888F48006801F089FFECE101AB40
:1051D00001228E4801888B48006801F080FF012081
:1051E00096490870E0E101AB0022884801888548B3
:1051F000006801F074FFD7E191480078D0B1002039
:105200008F49087085480078012807D185480088B3
:105210008C49098808448349088038E07F48007831
:10522000022834D1814800888649098808447F498A
:1052300008802CE079480078012805D17948008859
:10524000401D7849088022E074480078022805D182
:1052500076480088401D7549088018E0704800783D
:1052600001280BD16B480078401C6A4908700EE099
:1052700099E195E176E13BE177E040E0684800782C
:10528000022804D1644800780A30634908706548F0
:1052900000886D490988884203DD6B4800886149B0
:1052A00008806248008869490988884203DD6748A8
:1052B00000885E49088057480078632802DD002096
:1052C0005449087054480078322802DD00205249C1
:1052D000087052480078012806D1524802880121FE
:1052E0000320FCF7AFFC09E04C480078022805D108
:1052F0004E48028802210320FCF7A4FC54E14748F1
:105300000078012805D147480088401D454908809C
:1053100012E043480078012805D13E480078401C3F
:105320003C49087008E03E480078022804D13A4819
:1053300000780A30384908703A480088424909889C
:10534000884203DD404800883649088031480078AB
:10535000632802DD00202F4908702F48007832288A
:1053600002DD00202C4908701EE13948007868B33E
:105370000020374908702948007801280FD12948B2
:105380000088B42807DD274800882E490988401A7C
:105390002449088096E0B4202249088092E01F4802
:1053A000007802280CD1214800882A4909888842BF
:1053B00007DD1E48008823490988401A1B490880D8
:1053C00080E024480088194908807BE01348007871
:1053D000012841D113480088B42805D0114800881D
:1053E000401F104908806DE0B4200E49088069E034
:1053F00060011200E8010020A002002084020020C9
:1054000088020020B40200208602002094020020BE
:1054100080812142EC010020ED010020F3010020F9
:10542000F4010020DE010020F5010020E20100204F
:10543000F6010020F8010020920200204001002027
:10544000B4010020B2010020E0010020E4010020AE
:10545000B5010020E6010020FF480078022810D1A5
:10546000FE480088FE490988884205DDFB4800881F
:10547000401FFA49088025E0F9480088F74908806C
:1054800020E0F848007801280CD1F748007828B1CE
:10549000F5480078401EF449087013E06320F24993
:1054A00008700FE0EF48007802280BD1EF48007831
:1054B00028B1EE4800780A38EC49087002E0322042
:1054C000EA490870E4480078012806D1E8480288D3
:1054D00001210420FCF7B6FB09E0DF480078022830
:1054E00005D1DE48028802210420FCF7ABFB5BE01B
:1054F000D948007801280DD1DD480088B42805DDA1
:10550000DB480088401FDA4908802AE0B420D849E7
:10551000088026E0D3480078012812D1CF480088BF
:10552000CF490988884207DDCC480088D1490988DD
:10553000401ACA49088014E0C9480088C749088051
:105540000FE0C848007802280BD1C848007828B17D
:10555000C64800780A38C549087002E03220C349BD
:10556000087021E0C3480088C3490988884204DDE7
:10557000C1480088BE4908800BE0BE480088B428B6
:1055800003DAB420BA49088003E0BA480088B84971
:105590000880B748028801210520FCF753FB03E08F
:1055A000FCF7F2FE00E000BF00BF0120B349086035
:1055B0003220FFF70EF80020B149C1F89801B14937
:1055C00008805CE52DE9FC47002400BF002500268B
:1055D000A046A1464FF0010AF0E101AB0093012380
:1055E000032240F23D11A848006801F01CFC074668
:1055F000A64909880F4203D1FAF7E6FEFBF7A8F89F
:10560000A348007818B101240020A149087065B9A9
:10561000A048007808B1022401259F48007840B1D5
:10562000022400209C49087003E09A48007800B9E1
:10563000002517F0010F7ED0FBF73EF9FBF7ACFE1B
:10564000FBF75CFD95480078C0B19548007810B92B
:105650009448007840B10324BAF1000F0ED0FCF753
:10566000DFFA4FF0000A09E000208F490870BAF114
:10567000000F03D1FCF7DDFA4FF0010A8B480078E8
:1056800018B104240020894908708948007818B1AD
:1056900005240020864908702EB98648007830B16C
:1056A0000E24012603E08348007800B900268248D2
:1056B000007818B1062400207F4908707F480088D0
:1056C0000742B8D0FBF7BFFDFCF759F8FBF70CFF1A
:1056D000FBF7B0FF7A48007808B3002078490870DB
:1056E0005D480078401C5C49087008460078022834
:1056F00001DD0120087058480078012806D15C4877
:10570000028801210620FCF79DFA05E05348028833
:1057100002210620FCF796FA0020524908706948D9
:10572000007818B10924002066490870664800789E
:1057300028B10B2400E037E100206349087063487A
:10574000007800286DD000204E49088001204B4988
:105750000860814608F101001FFA80F8B8F10A0FCD
:1057600053DB4FF000083C480078012804D1404842
:105770000088401D3E49088037480078022805D13E
:1057800036480088401D3549088012E035480078C9
:10579000012805D134480078401C3349087008E0DE
:1057A00030480078022804D1304800780A302F4968
:1057B00008702F48008830490988884203DD2E4848
:1057C00000882B490880254800884149098888427B
:1057D00003DD3F480088214908802348007863287A
:1057E00002DD00202049087020480078322802DDC0
:1057F00000201E49087018480078012806D11C486E
:10580000028801210320FCF71DFAC6E01248007847
:105810000228FAD11148028802210320FCF712FA6B
:10582000BBE02C480078002872D000201549088081
:10583000012012490860814608F101001FFA80F832
:10584000B8F10A0FE1DB4FF00008034800780128A7
:105850004ED1074800883FE0F3010020E20100201C
:10586000E6010020F4010020EC010020ED01002001
:10587000DE010020B2010020E001002098812142D9
:1058800000802142FA010020B40200208A02002098
:105890000000002001000020B1010020F5010020DF
:1058A00025000020B7010020F8010020440000205E
:1058B0002001002021010020E000002094020020AF
:1058C0004001002080010020000100208101002013
:1058D000E401002001010020B42805DDFF48008814
:1058E000401FFE4908803AE0B420FC49088036E0B9
:1058F000FB480078022811D1FA480088FA49098843
:10590000884206DDF7480088401FF649088026E0F7
:105910003BE0F5480088F349088020E0F348007830
:1059200001280CD1F248007828B1F1480078401ED7
:10593000EF49087013E06320ED4908700FE0EB4871
:10594000007802280BD1EB48007828B1E9480078AC
:105950000A38E849087002E03220E6490870E04859
:105960000078012806D1DD48028801210420FCF7D7
:1059700069F912E0DA48007802280ED1D948028885
:1059800002210420FCF75EF907E0B9F1000F04D012
:105990000020D949086081468046D848007818B16F
:1059A0000D240020D549087024B12146D448006850
:1059B00001F0D6FD00240A20FEF70BFE0DE62DE9CE
:1059C000F04F85B000BF00BF00260027B046B146AB
:1059D000B246B3460020039004ABCAA200218DE872
:1059E0000E00CA4B02220A21084603F0D4F8C84927
:1059F000086004ABC7A200218DE80E00C74B02224D
:105A000014210A2003F0C7F8C549086004ABC5A2F9
:105A100000218DE80E00C54B02220A21084603F042
:105A2000BAF8C349086004A9B948006803F04CFA01
:105A300004A9BB48006803F047FA9DE104AB00935A
:105A4000002303221146BB48006801F0ECF904462C
:105A5000B9480588B94909880C4205D000260027B5
:105A6000B2460020039084E1B54800780028FAD0BF
:105A700026B9A846781CC7B24FF0010AA6F56060A7
:105A80000F3803D1A5EB08001FFA80F9B6F5616F56
:105A900065DA701C86B20020974914390860A9495C
:105AA000C1F88001A84800780028DCD1B6F5967FBF
:105AB00004DC01209049103108605AE1B6F5617F9D
:105AC00004DC00208C491031086052E140F2DC50C7
:105AD000864204DC012088491031086049E1B6F5AE
