:020000040800F2
:1000000048290020D101000851260008A711000846
:100010004D260008010B00089D6300080000000049
:100020000000000000000000000000004D4B000830
:10003000630D0008000000005F020008E95E000890
:10004000EB010008EB010008EB010008EB010008E0
:10005000EB010008EB010008EB010008650D00084A
:10006000EB010008EB010008EB010008EB010008C0
:10007000EB010008EB0100083D0B0008EB01000854
:10008000EB010008EB010008EB010008EB010008A0
:10009000EB010008EB010008EB010008EB01000890
:1000A000EB010008EB010008EB010008EB01000880
:1000B000EB010008595F0008EB010008EB010008A4
:1000C000EB010008EB010008EB010008EB01000860
:1000D000EB01000805610008EB010008EB010008D6
:1000E000EB010008EB010008EB01000800F002F84A
:1000F00000F05FF80AA090E8000C82448344AAF163
:100100000107DA4501D100F054F8AFF2090EBAE860
:100110000F0013F0010F18BFFB1A43F0010318473B
:1001200060870000808700000A444FF0000C10F840
:10013000013B13F0070408BF10F8014B1D1108BF65
:1001400010F8015B641E05D010F8016B641E01F805
:10015000016BF9D113F0080F1EBF10F8014BAD1C55
:100160000C1B09D16D1E58BF01F801CBFAD505E073
:1001700014F8016B01F8016B6D1EF9D59142D6D3CD
:10018000704700000023002400250026103A28BFF5
:1001900078C1FBD8520728BF30C148BF0B607047F9
:1001A000642900F0CD80002070471FB51FBD10B539
:1001B00010BD00F0B6FA1146FFF7F7FF07F0CCF8D4
:1001C00000F0D4FA03B4FFF7F2FF03BC06F05DF9C8
:1001D0000948804709480047FEE7FEE7FEE7FEE7DB
:1001E000FEE7FEE7FEE7FEE7FEE7FEE70448054917
:1001F000054A064B70470000F95E0008ED00000854
:1002000048230020482900204825002048250020B8
:10021000EFF3108072B6704780F310887047204C5F
:10022000204D25604FF0000484F309881E4C4FF0E8
:10023000010525701D4C4FF08055256062B6FEE724
:1002400030B41A4C4FF08055256030BC704730B444
:10025000164C4FF08055256030BC704700BF72B619
:10026000EFF3098028B1203880E8F00F10490968C1
:10027000086000B50F4880475DF804EB0E480F4951
:100280000A7802700A480E490A680260106890E80D
:10029000F00F203080F309884EF0040E62B67047EC
:1002A00020ED00E00000FFFF6E03002004ED00E001
:1002B0007403002005350008630300206403002058
:1002C0007C030020704700000FB41CB5074B06AA42
:1002D0007B4469460090059800F0D9F900206946F2
:1002E00000F0E8F91CBC5DF814FB0000E10300001D
:1002F00070B5044685690068C10601D5302600E066
:100300002026C00707D070BDD4E9012130469047B0
:10031000206A401C20626D1EF6D570BD70B5044683
:1003200085690078C00707D170BDD4E9012120207C
:100330009047206A401C20626D1EF6D570BD0000FB
:100340002DE9F0410646002410687529314616A5AE
:1003500010D0AFF30080002802DA404213A507E076
:1003600031688A0701D512A502E0490704D511A515
:10037000012401E0AFF3008000210A2206F12407E6
:1003800009E0B0FBF2FCB0FBF2F302FB1C003030E2
:1003900078541846491C0028F3D123462A46304693
:1003A000BDE8F04100F014B9000000002D0000008D
:1003B0002B000000200000002DE9F05F8946044674
:1003C0004FF0000ADFF824B1FB44C0F820A020461B
:1003D000E168884700287DD0252806D0D4E901218E
:1003E0009047206A401C2062F1E700255F462046C6
:1003F000E16888472028064607DB312E05D2B81968
:1004000010F8200C08B10543F1E7A80701D525F045
:100410000405C4F81CA00027C4F818A02A2E09D08F
:10042000304606F02BF838B304EB8708303EC8F8A6
:10043000186019E059F8041B204604EB870291610B
:10044000E1688847012F064618D1E069002820DAC4
:1004500025F020051DE0D8F8180000EB800006EB21
:1004600040003038C8F818002046E1688847064642
:1004700006F004F80028EED1012F0AD02E2E08D164
:100480002046E16888477F1C0646022F45F020057C
:10049000C4DBA069002803DA404245F00105A061F1
:1004A000E80701D025F01005A6B1A6F141001928F2
:1004B00002D8203645F400654A463146204625607C
:1004C0004D46FFF76DFE60B1012807D0ED1D25F008
:1004D000070000E007E000F1080978E705F10409EA
:1004E00075E730467AE7206ABDE8F09FA0840000F7
:1004F000032A40F2308010F0030C00F0158011F850
:10050000013BBCF1020F624498BF11F801CB00F827
:10051000013B38BF11F8013BA2F1040298BF00F87B
:1005200001CB38BF00F8013B11F0030300F0C78096
:10053000083AC0F0088051F8043B083A51F804CB5F
:10054000A0E80810F5E7121D5CBF51F8043B40F825
:10055000043BAFF30080D20724BF11F8013B11F830
:1005600001CB48BF11F8012B24BF00F8013B00F874
:1005700001CB48BF00F8012B70474FF0000200B5D7
:10058000134694469646203922BFA0E80C50A0E8B6
:100590000C50B1F12001BFF4F7AF090728BFA0E864
:1005A0000C5048BF0CC05DF804EB890028BF40F830
:1005B000042B08BF704748BF20F8022B11F0804F72
:1005C00018BF00F8012B704770477047704770479D
:1005D0002DE9F0470D4699469246044600F124085D
:1005E0000168880604D5E06921F01001216000E06F
:1005F0000120A84201DD471B00E00027A1697A190C
:1006000002EB0900081AA0612078C00602D4204637
:10061000FFF76EFE002608E0D4E901211AF8060073
:100620009047206A401C761C20624E45F4DB2078FF
:10063000C0060AD52046FFF75BFE06E0D4E901219B
:1006400030209047206A401C2062381EA7F1010725
:10065000F4DC07E0D4E9012118F805009047206A8E
:10066000401C2062281EA5F10105F3DC2046FFF79F
:1006700055FE2078000602D50220BDE8F087012053
:10068000FBE7000001694A1C02610878704700B569
:100690008FB0CDE901310021059105497944CDE9BB
:1006A000031011466846FFF787FE0FB000BD00003B
:1006B000E5FFFFFF0A6802F8010B0A60704710B5FA
:1006C000203AC0F00B80B1E81850203AA0E818504A
:1006D000B1E81850A0E81850BFF4F5AF5FEA027C0B
:1006E00024BFB1E81850A0E8185044BF18C918C07A
:1006F000BDE810405FEA827C24BF51F8043B40F81B
:10070000043B08BF7047D20728BF31F8023B48BFFF
:1007100011F8012B28BF20F8023B48BF00F8012B3D
:100720007047754600F02CF8AE4605006946534602
:1007300020F00700854618B020B5FFF757FDBDE84B
:1007400020404FF000064FF000074FF000084FF038
:10075000000B21F00701AC46ACE8C009ACE8C009C9
:10076000ACE8C009ACE8C0098D46704710B5044636
:10077000AFF300802046BDE81040FFF723BD000026
:1007800000487047E422002021B1826842F0010253
:10079000826003E0826822F00102826070470000FC
:1007A00010B504461248844208D10121401503F0D7
:1007B0000BFF0021601503F007FF17E00D4884428E
:1007C00008D10121001503F0FFFE0021201503F0E0
:1007D000FBFE0BE00848844208D10121C80303F066
:1007E000F3FE00214FF4004003F0EEFE10BD0000C8
:1007F0000024014000280140003C01400146002047
:100800008A6802F004020AB1012000E0002070476B
:100810000146C86C80B270470246002013680B4046
:100820000BB1012000E000207047014600208A68DB
:1008300002F008020AB1012000E000207047000029
:1008400030B502460020002350680F4C20400D793F
:100850000C6844EA05242043506090680B4C20400B
:10086000D1E902542C434D7944EA45042043906079
:10087000D06A20F470000C7C641EE4B2234340EA8A
:100880000350D06230BD0000FFFEF0FFFDF7F1FF26
:10089000F0B504460D4600200021092D11DDE06869
:1008A000A5F10A0606EB4607072606FA07F1884374
:1008B000A5F10A0606EB460603FA06F10843E060D6
:1008C0000CE0206905EB4507072606FA07F1884387
:1008D00005EB450603FA06F108432061072A0FDA03
:1008E000606B561E06EB86071F2606FA07F1884343
:1008F000561E06EB860605FA06F10843606322E001
:100900000D2A0FDA206BD61F06EB86071F2606FA84
:1009100007F18843D61F06EB860605FA06F1084361
:10092000206310E0E06AA2F10D0606EB86071F26A1
:1009300006FA07F18843A2F10D0606EB860605FAD2
:1009400006F10843E062F0BD816841F00801816072
:10095000704721B1826842F4A002826003E082689D
:1009600022F4A00282607047816841F00401816036
:100970007047000000B587B001214FF4017003F00B
:1009800013FE4FF4004003F0E3FDF320ADF8040044
:1009900000208DF8070001A91C4800F0BDFA0120D5
:1009A000ADF8040000208DF8070001A9184800F0F8
:1009B000B3FA1848FFF7F4FE002002908DF80C00FF
:1009C0008DF80D004FF46020049000200590012068
:1009D0008DF8180002A90F48FFF732FF01210D48DA
:1009E000FFF7D2FE0B48FFF7AFFF00BF0948FFF744
:1009F0001CFF0028FAD10748FFF7B6FF00BF0548E3
:100A0000FFF7FCFE0028FAD107B000BD0008014046
:100A1000000C01400024014000B589B001210820EC
:100A200003F0C2FD4020ADF8040010208DF807004F
:100A300003208DF8060001A9214800F06DFA01217C
:100A4000082003F0B1FD4020ADF8040018208DF817
:100A5000070003208DF8060001A9194800F05CFA90
:100A60000121042003F090FDC820ADF81C004720B0
:100A7000ADF818000020ADF81E00ADF81A008DF892
:100A8000200006A90F4805F0EBFA6020ADF8080039
:100A90000120ADF80A000020ADF810006420ADF888
:100AA0000E0002A9074805F085FA0821054805F05F
:100AB000CDFA0021034805F060FA09B000BD00003E
:100AC000000C01400008004010B500F0E3FF10BD2D
:100AD00010B501F017F810BD10B500F0A1FF10BD62
:100AE00010B500F029FF10BD10B500F05FFF10BD7C
:100AF00010B501F03FF810BD10B501F073F810BD4E
:100B000000BFFEE708B50121152003F04DFD1020C0
:100B10008DF8030003208DF802004FF46070ADF8EB
:100B200000006946044800F0F7F94FF4607102488C
:100B300000F0D1FA08BD0000000C014010B54FF4E0
:100B4000005000F0CFF830B14FF4005000F006F83C
:100B500000200149087010BDEB01002000F0805119
:100B600011B10349086001E0024948607047000084
:100B7000040402400000024021B1026842F0010278
:100B8000026004E002684FF6FE731A40026070478C
:100B900001684FF6FE721140016000210160416062
:100BA0008160C1604B49884208D14A490839496887
:100BB00041F00F01474A083A51608AE04549143133
:100BC000884208D143490839496841F0F001414A57
:100BD000083A51607DE03F492831884208D13D49BB
:100BE0000839496841F470613A4A083A516070E046
:100BF00038493C31884208D136490839496841F4BE
:100C00007041344A083A516063E0324950318842B9
:100C100008D130490839496841F470212D4A083A11
:100C2000516056E02B496431884208D1294908397E
:100C3000496841F47001274A083A516049E0254962
:100C40007831884208D123490839496841F07061F8
:100C5000204A083A51603CE01F49884206D1011FF2
:100C6000096841F00F01021F116032E01A49143186
:100C7000884208D11849091F096841F0F001164A55
:100C8000121F116025E014492831884208D1124909
:100C9000091F096841F470610F4A121F116018E0C2
:100CA0000D493C31884208D10B49091F096841F4BC
:100CB0007041094A121F11600BE007495031884208
:100CC00007D10549091F096841F47021024A121F22
:100CD000116070470800024008040240014648685D
:100CE00080B2704701460020002201F0805313B10A
:100CF000054B1A6801E0054B1A6802EA01030BB1C3
:100D0000012000E000207047000402400000024083
:100D10001AB103680B43036002E003688B4303606E
:100D2000704710B50022026847F6F0739A430C6AC8
:100D30008B6823430C6923434C6923438C69234309
:100D4000CC6923434C6A23438C6A23431A430260D1
:100D5000CB6843600B6883604B68C36010BD416023
:100D60007047704710B501F0E9FE022000F030F83E
:100D7000E8B1142005F048FE4FF480710D4800F0F2
:100D80009FF940B900200C49087001200B490870F8
:100D90000B49087008E00120074908700020074946
:100DA0000870012006490870022000F00BF801F0DD
:100DB000D7FE10BD0008014032030020330300209D
:100DC00063020020014908607047000014040140DC
:100DD000014600200022074B1B6803EA0102054B75
:100DE00014331B680B4013B10AB1012000E000204E
:100DF0007047000000040140002123498279002A45
:100E00003AD00A46126803689A430B461A600A1DD4
:100E1000126803689A430B1D1A60027911440A682C
:100E200003681A430A60184A0832126803689A4332
:100E3000154B08331A601A1D126803689A43124B47
:100E40000C331A604279102A0ED11A1F12680368F7
:100E50001A430D4B08331A601A1D126803681A43AF
:100E6000094B0C331A600DE00749427911440A68B6
:100E700003681A430A6005E0027911440A680368AE
:100E80009A430A6070470000000401400EB501213A
:100E9000052003F089FB01F0DCFB0220ADF808001F
:100EA00004208DF80B0002A90A4800F035F8012152
:100EB000084600F011F80220009000208DF8040090
:100EC00008208DF8050001208DF806006846FFF720
:100ED00093FF0EBD000C014030B500228B071C0FA4
:100EE0000F2303FA04F20B4B8C1053F82430934376
:100EF000084C8D1044F8253023468C1053F82430CC
:100F00008C07240F00FA04F42343024C8D1044F89C
:100F1000253030BD080001402DE9F0410246002592
:100F20000026002000230024002791F803C00CF0C5
:100F30000F0591F803C00CF0100CBCF1000F03D0AA
:100F400091F802C04CEA050591F800C0BCF1000F11
:100F500031D0146800202BE04FF0010C0CFA00F3A4
:100F6000B1F800C00CEA03069E4220D183004FF086
:100F70000F0C0CFA03F7BC4305FA03FC4CEA04041B
:100F800091F803C0BCF1280F06D14FF0010C0CFA08
:100F900000FCC2F814C00AE091F803C0BCF1480F8D
:100FA00005D14FF0010C0CFA00FCC2F810C0401C37
:100FB0000828D1D31460B1F800C0BCF1FF0F34DDB4
:100FC000546800202EE000F1080C4FF0010808FAE8
:100FD0000CF3B1F800C00CEA03069E4221D1830055
:100FE0004FF00F0C0CFA03F7BC4305FA03FC4CEA74
:100FF000040491F803C0BCF1280F05D100F1080CDE
:1010000008FA0CF8C2F8148091F803C0BCF1480F3C
:1010100007D100F1080C4FF0010808FA0CF8C2F8EB
:101020001080401C0828CED35460BDE8F081000039
:10103000F0B50A46002300240021002500F00046F8
:10104000B6F1004F02D11D4EF16901E01B4E7168EF
:10105000C0F3034583B200F44016B6F5401F08D133
:1010600021F07061154E766826F07066134F7E6031
:1010700012E000F48016B6F5801F06D1032606FAAA
:1010800005F4A14341F0706106E0460D360103FA14
:1010900006F6B14341F0706122B1460D360103FA04
:1010A00006F6314300F00046B6F1004F02D1034E80
:1010B000F16101E0014E7160F0BD000000000140EF
:1010C0000246002093680B400BB1012000E0002095
:1010D00070474161704701617047000010B50446D8
:1010E0000723012221460948FFF7D2FB01210748C7
:1010F000FFF72FFC00BF02210448FFF78DFB0028FB
:10110000F9D00248FFF784FB10BD00000024014025
:101110002DE9F04107460C460025002608E0384638
:10112000FFF7DCFF0544052005F06EFC701CC6B21D
:10113000A642F4DBB5FBF4F080B2BDE8F0812DE906
:10114000F04796B081460D464FF0000A0026002772
:10115000B04600240EE04846FFF7C0FF01A941F861
:10116000240001A850F824000644012005F04CFC9E
:10117000601C84B2AC42EEDB1420B6FBF0F72037E3
:1011800000240AE001A850F82400B84203D908F16D
:10119000010000F0FF08601C84B2AC42F2DB404664
:1011A00016B0BDE8F08700BFFEE72DE9F041054627
:1011B0000C46164600F05CF80321A02000F038F839
:1011C000A906080E062100F033F8002706E0207873
:1011D000082100F02DF8641C781CC7B2B742F6DB7A
:1011E00000F04CF8BDE8F08110B5044600F040F87E
:1011F0000421802000F01CF80821204600F018F897
:1012000000F03CF810BD70B504460D4600F030F813
:101210000321A02000F00CF8A106080E062100F022
:1012200007F80821284600F003F800F027F870BD01
:1012300070B504460D46002616E000F089F802203D
:1012400005F006FC04F08000802802D100F022F8AE
:1012500001E000F019F800F081F8022005F0F8FB39
:101260006006040E701CC6B2AE42E6DB70BD000024
:1012700000200149086070478C812142012001490A
:10128000086070478C812142002001490860704746
:10129000B48121420120014908607047B481214294
:1012A00008B501210D2003F07FF901212448FFF743
:1012B000BFFE10208DF8030003208DF8020046F2D7
:1012C0001800ADF8000069461E48FFF725FE46F2FB
:1012D00018011C48FFF7FFFE4FF40040ADF8000076
:1012E00069461948FFF718FE4FF400411648FFF70A
:1012F000F2FE0A2005F088FB5220FFF775FF302030
:10130000FFF772FF0020FFF76FFF0A20FFF76CFF67
:101310000220FFF769FF0620FFF766FF0B48007801
:10132000012806D100F0C8FC4FF4FA7005F06CFB00
:1013300005E000F0C1FC4FF4FA7005F065FB08BD54
:1013400000023000000C0140000801401C02002097
:101350000020014908607047B881214201200149FD
:1013600008607047B88121421FB50024002500267F
:10137000C5E203AA0021F848006801F05FFC0446BA
:10138000701C86B2152C7DD2DFE804F07C0B84AD96
:10139000CAFAF17C7CF07CEF7CEEED7C7C7C7C7C82
:1013A000EC00EE48008828B1EC480088EC49098838
:1013B00088426ED10020EB49087003AB00224FF643
:1013C000FF71E948006801F0FBFAE8480088E84945
:1013D00009880843E149088003AB012208460188D7
:1013E000E148006801F0ECFA0120E2490860E248B7
:1013F000007800F0FB00E04908700020DF49087029
:10140000DF490870DF490870DF4908704FF4AF709A
:10141000DE490880E120DE4908800120DD490870AE
:10142000D849087003A8DCA10022DD4BCDE90021DA
:10143000029002220A21084602F02AF9D9490860DE
:1014400003A8D9A10022DA4BCDE9002102900222A3
:1014500014210A2002F01CF9D649086003A8D6A17D
:101460000022D74BCDE90021029002220A21084632
:1014700002F00EF9D349086003A9CA48006802F0D7
:1014800043F901E023E204E003A9CA48006802F03E
:101490003BF927E20020B349087003AB00224FF666
:1014A000FF71B148006801F08BFAAD480088AB4984
:1014B000088003AB012208460188AB48006801F0B0
:1014C0007FFA0120AB490860AB48007800F0FB00D0
:1014D000A94908700020AF490870BB490870022074
:1014E000BA498870FEE100209E49087003A80023D5
:1014F0000322012100909C48006801F037F9A548BB
:10150000007860B10120B249087000209949091F94
:1015100008609948007840F0200097490870E1E1A0
:101520000020904908700DB9012000E00020054618
:1015300045B103AB0122A74801888B48006801F040
:101540003FFA07E003AB0022A24801888648006802
:1015500001F036FA9D48007801280AD100209B4905
:10156000087009E0BAE1B3E160E192E023E016E03F
:1015700006E0012095490870092003F06DFBB1E1F8
:1015800000207849087003AB012279480188764829
:10159000006801F015FA01208F490870A2E10020CF
:1015A0007049087003AB0022714801886E480068DA
:1015B00001F006FA96E100206A4908708748007831
:1015C00010B30020854908706E480078012807D1C3
:1015D0006E4800888249098808446C4908800AE0FE
:1015E00068480078022806D1694800887C49098843
:1015F00008446749088003AB01225D4801885A48C6
:10160000006801F0DDF916E05E480078012805D198
:101610005E480088401D5D4908800CE0594800780C
:10162000022808D16F480078012804D15848008862
:10163000401D57490880554800886B4909888842F1
:1016400003DD69480088514908805148008867498E
:101650000988884207DD63480078012803D1634880
:1016600000884B49088047480078012804D1474842
:10167000008803F0B3FE0BE042480078022807D14F
:1016800058480078012803D14148008803F0A6FE9D
:1016900028E100203349087055480078A8B300209D
:1016A000534908703748007801280FD1374800881F
:1016B000B42807DD3548008849490988401A33496C
:1016C000088019E0B4203149088015E02D480078E1
:1016D000022811D12E48008846490988884207DD32
:1016E0002B4800883E490988401A2949088003E0B0
:1016F000404800882649088003AB01221C48018825
:101700001948006801F05CF97AE0FFE71D480078AD
:1017100001280DD11D480088B42805D01B48008839
:10172000401F1A4908806BE0B4201849088067E020
:1017300014480078022863D12A48007801285FD134
:10174000134800882B490988884255DD10480088D5
:10175000401F0F49088053E0040300201C030020B1
:10176000200300206A020020180300201E0300202E
:101770002C030020A4812142220200203A020020F2
:101780003B02002041020020420200202A020020E9
:101790002E02002043020020746D72310000000010
:1017A000CD7E00080C030020746D72320000000032
:1017B000C180000810030020746D72330000000027
:1017C000018100081403002044020020DA010020F7
:1017D000460200202A03002090010020F001002092
:1017E000EE0100201C0200202C020020300200200C
:1017F000F101002032020020414800884149088060
:1018000041480078012804D14048008803F0E6FDF3
:101810000BE03D480078022807D13D4800780128B8
:1018200003D13848008803F0D9FD5BE00020394936
:1018300008703548007801281BD13748008837499F
:101840000988884204DD35480088304908800BE06B
:1018500031480088B42803DAB4202C49088003E01A
:101860002D480088294908802848008803F0B6FDE3
:1018700025E025480078022821D125480078012854
:101880001DD12548008826490988884204DD24485E
:1018900000881C4908800EE01F4800881849098804
:1018A000884204DA164800881649088003E01A487E
:1018B0000088144908801348008803F08FFD03ABAB
:1018C0000122184801881848006801F079F809E0F9
:1018D00000201049087003F0FFFC03E000200D49D0
:1018E000087000BF00BF012010490860322005F0D9
:1018F0008BF800200E49C1F898010E49088038E5A0
:10190000320200202E020020410200202A02002084
:101910001C0200206A020020EE0100202C020020A0
:10192000300200202C03002018030020988121425F
:10193000008021424802002010B514480078012898
:1019400013D11348007801280FD012480078401CAA
:101950001049087008460078192806D900200E4959
:1019600008700C490870094908704FF400610B4871
:10197000FFF7A6FB0A4908700A490B4A127851F88A
:10198000220080470849087010BD000006000020B2
:10199000020000200500002007000020000C01408C
:1019A00003000020080000201C00002010B514488F
:1019B0000078012813D11348007801280FD012486D
:1019C0000078401C1049087008460078192806D98C
:1019D00000200E4908700C490870094908704FF43E
:1019E00000410B48FFF76CFB0A4908700A490B4A93
:1019F000127851F8220080470849087010BD000095
:101A000026000020220000202500002027000020C2
:101A1000000C0140230000202C000020400000208A
:101A200010B514480078012813D113480078012814
:101A30000FD012480078401C104908700846007802
:101A4000192806D900200E4908700C490870094968
:101A500008704FF480510B48FFF732FB0A490870B9
:101A60000A490B4A127851F8220080470849087049
:101A700010BD00004A000020460000204900002060
:101A80004B000020000C0140470000204C000020CB
:101A90006000002010B513480078012813D11248C7
:101AA000007801280FD011480078401C0F490870B9
:101AB00008460078192806D900200D4908700B49FE
:101AC00008700849087002210A48FFF7F9FA0A4924
:101AD00008700A490A4A127851F8220080470849DA
:101AE000087010BD360100203201002035010020B1
:101AF00037010020000C0140330100203801002094
:101B00004C01002010B513480078012813D1124869
:101B1000007801280FD011480078401C0F49087048
:101B200008460078192806D900200D4908700B498D
:101B300008700849087008210A48FFF7C1FA0A49E5
:101B400008700A490A4A127851F822008047084969
:101B5000087010BD560100205201002055010020E0
:101B600057010020000801405301002058010020C7
:101B70006C01002010B513480078012813D11248D9
:101B8000007801280FD011480078401C0F490870D8
:101B900008460078192806D900200D4908700B491D
:101BA00008700849087020210A48FFF789FA0A4995
:101BB00008700A490A4A127851F8220080470849F9
:101BC000087010BD76010020720100207501002010
:101BD00077010020000C01407301002078010020F3
:101BE0008C01002010B514480078012813D1134847
:101BF000007801280FD012480078401C1049087066
:101C000008460078192806D900200E4908700C49AA
:101C10000870094908704FF480710B48FFF750FABB
:101C20000A4908700A490B4A127851F82200804785
:101C30000849087010BD0000B6010020B201002064
:101C4000B5010020B701002000080140B3010020C9
:101C5000B8010020CC01002070B504460025002604
:101C600004F02005202D06D11148007840F008002E
:101C70000F49087005E00E48007800F0F7000C49A5
:101C8000087004F08006802E02D144F0200401E0A8
:101C900004F0DF04064801780020FFF7B4FA21467B
:101CA0001E20FFF7B0FA00200249086070BD000056
:101CB000610000209081214210B501200349086095
:101CC000102203490020FFF770FA10BD90812142D5
:101CD000B003002010B5102203490020FFF765FA79
:101CE00000200249086010BDB4000020908121420C
:101CF00038B5044600208DF803002078092805DC5B
:101D000020782849085C8DF800000FE020784128F1
:101D100009DB20785A2806DC207841382249085C03
:101D20008DF8000002E000208DF80000607809289E
:101D300005DC60781B49085C8DF801000FE06078D5
:101D4000412809DB60785A2806DC6078413816495A
:101D5000085C8DF8010002E000208DF80100A078F9
:101D6000092805DCA0780F49085C8DF802000FE017
:101D7000A078412809DBA0785A2806DCA0784138F1
:101D80000949085C8DF8020002E000208DF802008D
:101D9000042269461420FFF708FA0020034908606E
:101DA00038BD0000150100207600002090812142FE
:101DB00010B5042205491420FFF7F7F9044800780C
:101DC000FFF74AFF00200349086010BD9000002083
:101DD000220200209081214210B5102203490020E8
:101DE000FFF7E3F900200249086010BDCC00002095
:101DF0009081214210B5102203490020FFF7D5F948
:101E000000200249086010BDDC00002090812142C2
:101E100010B5102205490020FFF7C7F904480078E3
:101E2000FFF71AFF00200349086010BDEC000020F6
:101E3000220200209081214210B50422034914207F
:101E4000FFF7B3F900200249086010BDFC00002034
:101E50009081214210B50C48007840F008000A49F2
:101E600008700846407840F00800487008468078BE
:101E700000F0F700887003221420FFF796F9002085
:101E80000249086010BD00006700002090812142D7
:101E90002DE9F04104460D460026002705F02006F6
:101EA000202E06D18A48007840F008008849087042
:101EB00005E08748007800F0F700854908708548FC
:101EC0000078A8B18448007840F008008349087081
:101ED0008148407800F0F70048707F48807800F033
:101EE000F70088700020C8707D4908704870DAE0FB
:101EF000B42C05DC00207A4908708020487065E029
:101F0000C82C07DCB42C05DD002075490870C02002
:101F100048705BE0E12C07DCC82C05DD012070492E
:101F20000870C020487051E0FA2C07DCE12C05DD78
:101F300003206B490870C020487047E0B4F5967FD5
:101F400007DCFA2C05DD072065490870C0204870C1
:101F50003CE0B4F5AF7F08DCB4F5967F05DD0F20DB
:101F60005F490870C020487030E0B4F5C87F08DCD5
:101F7000B4F5AF7F05DD8F2059490870C020487047
:101F800024E0B4F5E17F08DCB4F5C87F05DDCF209F
:101F900053490870C020487018E0B4F5EE7F08DAA5
:101FA000B4F5E17F05DDEF204D490870C020487091
:101FB0000CE0B4F5EE7F05DBFF2049490870C02036
:101FC000487003E000204649087048704448407853
:101FD0002844434948700846407800F0DF004870C4
:101FE0004048007858B9202C01DC002407E0A4F117
:101FF000200000EB8000092190FBF1F084B24FF447
:102000007A7094FBF0F100FB1140642190FBF1F039
:1020100032490870642094FBF0F100FB11400A2162
:1020200090FBF1F02D4948700A2094FBF0F100FB81
:1020300011402A498870084600782B49085C40F016
:102040000800264908702748C078012810D10846A2
:1020500040782549085C40F008002049487008464F
:1020600080782149085C00F0F7001C4988700FE077
:102070001A4840781C49085C00F0F700174948707E
:10208000084680781849085C40F0080013498870B9
:1020900014480078012803D172201049C87002E06A
:1020A000F0200E49C8700A4801780020FFF7ABF80D
:1020B00004220A491420FFF778F8022208491C205C
:1020C000FFF773F8002009490860BDE8F0810000BF
:1020D0006100002066000020000100206700002051
:1020E00074000020DA0100201501002090812142B7
:1020F00010B5082006490870002048708870C87024
:1021000004221420FFF751F800200249086010BD96
:10211000670000209081214210B504461022044936
:102120000020FFF742F800200249086010BD0000BF
:10213000A40000209081214210B504464CB93F48CC
:10214000C078012805D100203D490870487088708A
:102150006BE03C48007880B13B48007840F00800D4
:10216000374908703848407800F0F7004870364822
:10217000807800F0F700887057E03048007858B950
:10218000202C01DC002407E0A4F1200000EB8000FB
:10219000092190FBF1F084B24FF47A7094FBF0F1D6
:1021A00000FB1140642190FBF1F025490870642088
:1021B00094FBF0F100FB11400A2190FBF1F0204963
:1021C00048700A2094FBF0F100FB11401C49887014
:1021D0005CB3084600781D49085C40F008001849C7
:1021E00008701648007880B9084640781749085C9E
:1021F00040F0080012494870084680781349085C8E
:1022000000F0F7000E4988700FE00D4840780F4944
:10221000085C00F0F7000A494870084680780B49CE
:10222000085C40F008000649887003220449082031
:10223000FEF7BBFF00200649086010BDDA01002050
:102240006B00002063000020000100201501002029
:102250009081214210B504464CB93F48C07801280E
:1022600005D100203D490870487088706BE03C48FB
:10227000007880B13B48007840F00800374908708A
:102280003848407800F0F70048703648807800F011
:10229000F700887057E03048007858B9202C01DCEE
:1022A000002407E0A4F1200000EB8000092190FB4E
:1022B000F1F084B24FF47A7094FBF0F100FB11401E
:1022C000642190FBF1F025490870642094FBF0F143
:1022D00000FB11400A2190FBF1F0204948700A20D0
:1022E00094FBF0F100FB11401C4988705CB3084678
:1022F00000781D49085C40F008001849087016482D
:10230000007880B9084640781749085C40F008001A
:1023100012494870084680781349085C00F0F700BD
:102320000E4988700FE00D4840780F49085C00F0B6
:10233000F7000A494870084680780B49085C40F06D
:10234000080006498870032204490E20FEF72DFF7D
:1023500000200649086010BDDA0100206E00002050
:10236000640000200001002015010020908121421E
:1023700010B504462F48007858B9202C01DC002401
:1023800007E0A4F1200000EB8000092190FBF1F0B0
:1023900084B24FF47A7094FBF0F100FB1140642199
:1023A00090FBF1F024490870642094FBF0F100FBED
:1023B00011400A2190FBF1F01F4948700A2094FB5C
:1023C000F0F100FB11401C498870084600781B4959
:1023D000085C40F00800184908701648007880B979
:1023E000084640781549085C40F0080012494870DA
:1023F000084680781149085C00F0F7000E498870A3
:102400000FE00D4840780D49085C00F0F7000A49DC
:102410004870084680780949085C40F00800064981
:102420008870032204490220FEF7BFFE0020044901
:10243000086010BDDA0100207100002015010020A5
:102440009081214210B504463948007880B139485E
:10245000007840F00800384908703648407800F0AD
:10246000F70048703348807800F0F700887056E035
:102470003248007858B9202C01DC002407E0A4F190
:10248000200000EB8000092190FBF1F084B24FF4B2
:102490007A7094FBF0F100FB1140642190FBF1F0A5
:1024A00025490870642094FBF0F100FB11400A21DB
:1024B00090FBF1F0204948700A2094FBF0F100FBFA
:1024C00011401D498870084600781D49085C40F09D
:1024D0000800194908701948007880B90846407802
:1024E0001749085C40F00800134948700846807896
:1024F0001349085C00F0F7000F4988700FE00E48A0
:1025000040780F49085C00F0F7000B494870084616
:1025100080780B49085C40F0080007498870032266
:1025200005490220FEF741FE00200649086010BD63
:10253000650000200001002071000020DA01002069
:10254000150100209081214208B50020009003224F
:1025500069460220FEF729FE00200149086008BDF7
:102560009081214210B50C48007840F008000A49DB
:1025700008700846407800F0F700487008468078F8
:1025800000F0F700887003221420FEF70EFE0020F2
:102590000249086010BD00006700002090812142C0
:1025A00010B504460948007800F00F00074908708C
:1025B0000846007820440870084601780020FEF79D
:1025C00022FE00200249086010BD000061000020CA
:1025D0009081214210B50748007800F00F000549AE
:1025E0000870084601780020FEF70DFE0020024921
:1025F000086010BD610000209081214208B50121D2
:10260000182001F0D1FF10208DF8030003208DF871
:1026100002004FF48060ADF8000069460948FEF7FB
:102620007BFC4FF480610748FEF753FD0420ADF8B2
:10263000000069460448FEF76FFC01210248FEF7DE
:102640004AFD08BD000C01400008014000BFFEE744
:10265000704708B54FF4C06000F04CF807208DF8C3
:10266000000001208DF801008DF802008DF80300B4
:10267000684600F007F808BD10B54FF4A06000F000
:1026800039F810BD70B5002100230F22C47804B3BF
:10269000154C246804F4E064C4F5E064210AC1F137
:1026A0000403CA40447804FA03F1847814402143B7
:1026B00009010E4C0678A155047804F01F05012489
:1026C000AC4005786D11AD0005F1E025C5F800417D
:1026D00009E0047804F01F050124AC40044D06789D
:1026E000761145F8264070BD0CED00E000E400E0F6
:1026F00080E100E002490143024A11607047000096
:102700000000FA050CED00E02DE9F04106460D460B
:1027100000271348007820B1102028700020BDE861
:10272000F081FDF775FD07460E48046884B1006826
:1027300040680C49086005202070268100206060F8
:1027400009A0E0603846FDF767FD0020287004E02E
:102750003846FDF761FD722028702046DFE7000053
:1027600061030020500300203F0000002DE9F04FDE
:1027700089B005460F4691469A46129E0020029067
:102780008C48007828B102203070002009B0BDE8E4
:10279000F08F8948007818B10D2030700020F5E7DF
:1027A0002878052803D0012030700020EEE709F0DA
:1027B000800BBBF1000F04D009F07F094FF0010836
:1027C00001E04FF00008FDF723FD0290B9F1000F82
:1027D0004AD0B9F1010F68D0B9F1020F03D0B9F1B5
:1027E000030F76D120E0288900EA0704BC420FD10C
:1027F000B8F1010F02D12889A04328816F480068F1
:1028000004850298FDF708FD002030702046BDE7E2
:102810004B463A4604A92846CDF800A001F0F2F94B
:102820000298FDF7F9FC69E0288900EA07047CB109
:10283000B8F1010F02D12889A04328815F480068C0
:1028400004850298FDF7E8FC0020307020469DE7E3
:102850004B463A4604A92846CDF800A001F0D2F92B
:102860000298FDF7D9FC49E0288927EA0004BC4218
:102870000FD1B8F1010F02D12889204328814F4898
:10288000006804850298FDF7C7FC002030702046E0
:102890007CE74B463A4604A92846CDF800A001F053
:1028A000B1F90298FDF7B8FC28E0288927EA00046E
:1028B00084B1B8F1010F02D12889204328813F4813
:1028C000006804850298FDF7A7FC002030702046C0
:1028D0005CE70BE04B463A4604A92846CDF800A039
:1028E00001F090F90298FDF797FC07E00298FDF7D8
:1028F00093FC00246F203070204647E700BF01F0B2
:1029000089FBFDF785FC02902C48006890F83100A7
:1029100020B32A48006890F831000390002027492E
:10292000096881F8310004A801F018FA0020234951
:10293000096881F830000298FDF76EFC00240398C6
:10294000012805D0022802D10E20307003E000BF1C
:102950000A20307000BF00BF204617E71748006804
:10296000048DB8F1010F1ED1B9F1000F0ED0B9F1ED
:10297000010F0CD0B9F1020F03D0B9F1030F0AD146
:1029800000E000BF2889A04328810BE000BF288910
:102990002043288106E00298FDF73EFC6F2030704E
:1029A0000020F3E600BF0298FDF736FC00203070EF
:1029B0002046EBE661030020620300207403002040
:1029C0002DE9FC5F0446894692461E460020009091
:1029D0002078052804D0012030700020BDE8FC9F3D
:1029E000FDF716FC0090BAF1000F03D0BAF1010F09
:1029F0000AD104E0208920EA090020810BE0208927
:102A000040EA0900208106E00098FDF705FC7120EE
:102A100030700020E2E700BF4FF0000B656855E022
:102A2000A87C40B3012838D0022802D0032844D122
:102A300011E02089298A00EA0107288AB84209D1D1
:102A40003946284601F05CF98046B8F1010F01D102
:102A50004FF0010B38E02089298A00EA01074FB1C5
:102A60003946284601F04CF98046B8F1010F01D1F2
:102A70004FF0010B28E0288A218920EA0107288AE3
:102A8000B84209D13946284601F03AF98046B8F1F2
:102A9000010F01D14FF0010B16E0288A218920EAAD
:102AA00001074FB13946284601F02AF98046B8F1AE
:102AB000010F01D14FF0010B06E00098FDF7ACFBD0
:102AC0006F203070002089E700BF2D68002DA7D14E
:102AD0000098FDF7A1FBBBF1010F01D101F09AFABB
:102AE000FDF796FB0090208901900098FDF794FB7C
:102AF00000203070019871E710B500F017F801F070
:102B000069F901F091F901F0B1F901F039F901F039
:102B1000CBF801F045FA01F055FA01F0E7F901F0C0
:102B20000DFA00F0AFFE00F007F810BD00200149DB
:102B300008807047AC03002070470000064800780A
:102B4000012808D105480078FF2804D203480078FE
:102B5000401C0249087070476E030020610300208A
:102B600010B500241A480078012830D1FDF750FB39
:102B700004461848007820B116480078401E1549D0
:102B8000087014480078F8B913480078E0B901F0EB
:102B90007BFA12481249097850F82100114908605F
:102BA0000F4800781049097888420DD00D48006818
:102BB000806B401C0B49096888630C480068401C06
:102BC0000A490860FDF743FB2046FDF725FB10BDD1
:102BD0006E03002061030020620300200017002024
:102BE000640300207C0300206303002048030020CE
:102BF00070B5054600260F48007808B1002070BD6A
:102C0000FDF706FB06460C480468006820B10A4838
:102C100000684068084908603046FDF7FDFA3CB19D
:102C200001202070002020816560204600F0DCFF3C
:102C30002046E4E7610300204C0300202DE9F04129
:102C400005460F4614464FF000082878012804D0A6
:102C5000012020700020BDE8F0813648007818B1CE
:102C6000022020700020F6E73348007818B10D20CC
:102C700020700020EFE7FDF7CBFA80466E6846B182
:102C8000002068604046FDF7C7FA002020703046FB
:102C9000E1E72A48006890F8300040F00200274938
:102CA000096881F8300000202449096881F8310062
:102CB00022480068C762284600F058FF4046FDF7EA
:102CC000ABFA01F0A7F9FDF7A3FA80461B480068AC
:102CD00090F8310020B101280DD002280AD105E07A
:102CE00016480068066A002020700DE000260E20BD
:102CF000207009E000BF29461048006800F020FF5E
:102D000000260A20207000BF00BF00200B49096880
:102D100081F830000949096881F8310007490968DC
:102D2000C8610649096808624046FDF775FA3046F1
:102D300091E700006103002062030020740300207B
:102D400070B504460D4600262078012801D00120E8
:102D500070BDFDF75DFA0646A07A60B1002302223D
:102D60002946204600F0AAFE3046FDF755FA01F04C
:102D700051F90020ECE7606820B13046FDF74CFACD
:102D80001420E5E765603046FDF746FA0020DFE7EE
:102D90002DE9F04106460F464FF000081F48007825
:102DA00010B10020BDE8F081FDF732FA80461C48E2
:102DB0000568006820B11A48006840681849086032
:102DC0004046FDF729FA3DB3FDF722FA8046154843
:102DD0000468C4B100680068124908604046FDF705
:102DE0001BFA666006EB8700A060E6602661A7829A
:102DF0000020E08202202870002028816C60284694
:102E000000F0F2FE08E006480068686004480560CB
:102E10004046FDF701FA00252846C3E7610300207C
:102E20004C0300208C0300202DE9F04105460E469E
:102E300000272878022802D00120BDE8F081FDF7A4
:102E4000E7F90746A87A60B10023042231462846F4
:102E500000F034FE3846FDF7DFF901F0DBF8002022
:102E6000EBE76C68E08AA18A884204DB3846FDF70C
:102E7000D3F91E20E1E7E168081DE0600E60E08AFA
:102E8000401CE082D4E90210884201D16068E06011
:102E90003846FDF7C1F90020CFE7000010B5002447
:102EA0000B480078012811D1FDF7B2F90446094812
:102EB000007840B908480078FF2804D20648007816
:102EC000401C054908702046FDF7A6F910BD00001A
:102ED0006E030020610300206203002010B500246F
:102EE00013480078012821D1FDF792F904461148D2
:102EF0000078C0B10F480078401E0E49087008469F
:102F0000007860B90C48007828B92046FDF784F9AC
:102F100001F080F80AE02046FDF77EF906E0204641
:102F2000FDF77AF902E02046FDF776F910BD0000C2
:102F30006E030020620300206103002070B5054687
:102F400000260F48007808B1002070BDFDF760F939
:102F500006460C480468006820B10A4800684068CA
:102F6000084908603046FDF757F93CB1032020704E
:102F7000258100206060204600F036FE2046E4E710
:102F8000610300204C0300202DE9F04105460E4668
:102F9000144600272878032803D001202070BDE8BC
:102FA000F0813148007810B102202070F7E72F48F7
:102FB000007810B10D202070F1E7FDF729F90746E0
:102FC000288940B12889401E28813846FDF724F918
:102FD00000202070E3E72648006890F8300040F0B9
:102FE00001002349096881F8300000202049096860
:102FF00081F831001E480068C662284600F0B6FD20
:103000003846FDF709F901F005F8FDF701F9074623
:103010001748006890F8310020B1012809D0022833
:1030200006D102E0002020700BE00E20207008E0A6
:1030300000BF29460E48006800F082FD0A2020707B
:1030400000BF00BF00200A49096881F83000084924
:10305000096881F8310006490968C8613846FDF7FA
:10306000DBF800BF9BE70000610300206203002043
:103070007403002070B5044600252078032801D091
:10308000012070BDFDF7C4F80546A07A60B10023A9
:1030900001221946204600F011FD2846FDF7BCF834
:1030A00000F0B8FF0020ECE720894FF6FF7188425E
:1030B00007D22089401C20812846FDF7ADF800206A
:1030C000DFE72846FDF7A8F83320DAE710B50B480C
:1030D000007890B900F0D8FF0948007809490870D5
:1030E00009480749097850F821000849086008464E
:1030F000006807490860FDF792F810BD6E030020D4
:103100006403002063030020001700207C030020DC
:103110007403002010B50024022000F0F5F9FDF73B
:1031200077F8044600200B4908602046FDF774F844
:10313000322000F0E9F9FDF76BF804460548006815
:10314000054908600120054908702046FDF764F82C
:1031500010BD000070030020580300206003002011
:10316000704700002DE9FE4F06460F4690461C466C
:103170004FF00009FDF74CF881461F48007828B150
:103180004846FDF749F83C20BDE8FE8F1B4850F843
:10319000240060BB0120194941F824004846FDF78E
:1031A0003BF8002342463946304600F009F9824692
:1031B00000200090019003460246514602902046AE
:1031C00000F078FF054635B90D48007801280CD18C
:1031D00000F020FF09E0FDF71BF8814600200749B9
:1031E00041F824004846FDF717F82846CCE7484642
:1031F000FDF712F82820C7E7610300200017002020
:103200006E0300202DE9F04F85B081468A46934633
:103210001C46DDE90F78129D00200390FCF7F8FFB3
:1032200003902348007830B10398FCF7F5FF3C2069
:1032300005B0BDE8F08F1F4850F8240088BB01207E
:103240001C4941F824000398FCF7E6FF2A46414652
:10325000384601F03FF82B465A465146484600F0A2
:10326000AFF804901198CDE9008002953A462046C7
:103270000E9B049900F01EFF064636B90E480078F2
:1032800001280CD100F0C6FE09E0FCF7C1FF039055
:103290000020084941F824000398FCF7BDFF3046A0
:1032A000C6E7FFE70398FCF7B7FF2820C0E7000058
:1032B00061030020001700206E0300207047704754
:1032C0002DE9F04106460F4614464FF00008154818
:1032D000007818B112202070BDE8F081FCF798FF4B
:1032E0008046FF2E03D11048006890F832600F48E6
:1032F00050F826502DB94046FCF78EFF4320207031
:10330000EAE7012D05D14046FCF786FF43202070F7
:10331000E2E7EF644046FCF77FFF0020207000BF2B
:10332000DAE700006103002074030020001700208A
:10333000704700002DE9F04707460D464FF0000AA0
:10334000002028606860FCF763FF8246FF2F03D1EE
:103350001948006890F83270184850F827402CB986
:103360005046FCF759FF4320BDE8F087012C04D1FB
:103370005046FCF751FF4320F6E7207C00F00100A7
:1033800020B95046FCF748FF4520EDE70026D4F869
:103390000C90D4F808805046FCF73EFF00E0761C05
:1033A00058F8041B0029FAD0B0002860A9EB0600E9
:1033B000800068600020D7E7740300200017002019
:1033C00070B5044610464FF080750560051F28460D
:1033D0002C606FF00106051F28462E604FF0123654
:1033E000051F28462E604FF00336051F28462E6025
:1033F0004FF00236051F28462E607610051F28461E
:103400002E60051F284629604FF01136051F2846FB
:103410002E604FF01036051F28462E604FF00936FB
:10342000051F28462E604FF00836051F28462E60DF
:103430004FF00736051F28462E604FF00636051F51
:1034400028462E604FF00536051F28462E604FF0A7
:103450000436051F28462E6070BD00002DE9F0419E
:1034600005464FF00008FCF7D3FE8046FF2D05D13E
:103470002048006890F83250012608E01D48006896
:1034800090F83200A84201D1012600E000261A4837
:1034900050F825402CB94046FCF7BEFE4820BDE858
:1034A000F081012C04D14046FCF7B6FE4320F6E73C
:1034B00094F834701148C05D94F8351088430F4972
:1034C000C8550846C05D30B994F836100C480078ED
:1034D00088430B49087094F8300040F0080084F8E5
:1034E00030004046FCF798FE012E01D100F092FD1D
:1034F0000020D4E77403002000170020660300209A
:10350000650300207047000070B505460026174887
:10351000007800B170BD1648007800B1FAE71DB31D
:10352000FCF776FE06461348006890F834401248CF
:10353000005D1049096891F8351088430E49085517
:103540000846005D40B90B48006890F836100B48FB
:10355000007888430949087006480068C56230460B
:10356000FCF75AFE00F056FD00BFD3E761030020D0
:10357000620300207403002066030020650300201E
:1035800070B5002600F072F8FCF742FE064631489E
:103590000068401C2F4908603046FCF73DFE2E486D
:1035A0000078012853D12D48007820B1012804D09B
:1035B000022809D103E001250BE0002509E00125DF
:1035C00001202649087004E00125002023490870E5
:1035D00000BF00BF05B970BD2148046833E0FCF7A7
:1035E00017FE0646E06A50B3E06A401EE062E06AF9
:1035F00028BB94F8300000F0370040B114F8300FC9
:1036000000F0C800207001206070303C02E0002013
:1036100084F8310094F8300000F0080078B93434B0
:10362000A0781049097808430E49087020780E499F
:10363000085C6178084314F834190B4A50546469E3
:103640003046FCF7E9FD94F832003F28C7D100BFAF
:10365000C1E70000900300206E03002084030020D7
:1036600080030020650300206603002010B5074892
:103670000088401C0549088008460088052803D3B7
:103680000020088000F036F810BD0000AC030020D8
:103690002DE9F05F06460F4690469946DDE90AABF4
:1036A0000C9D1348007820B18B2028700020BDE8C5
:1036B000F09FFFF7F3FB00F0C5F804462CB9FFF7C5
:1036C0000DFC862028700020F1E7012084F82500F9
:1036D000A661E76184F82480C4F80490C4F808A0C7
:1036E000C4F820B0FFF7FAFB002028702046DEE780
:1036F0006103002010B503480068FFF7BBFC0446D7
:10370000204610BDA003002070B505460C46287861
:10371000642803D089202070002070BD1A480078EA
:1037200018B18B2020700020F7E7FFF7B7FB95F862
:103730002500E8B1012810D002280FD003281DD1A0
:10374000284600F099F90021284600F01FF9FFF7FC
:10375000C5FB002020700120DFE700BF00212846C4
:1037600000F014F9FFF7BAFB002020700120D4E725
:10377000FFF7B4FB872020700020CEE7FFF7AEFBF9
:103780008D2020700020C8E7610300202DE9F04162
:1037900005460F4690461C462878642804D08920A8
:1037A00020700020BDE8F0812548007818B18B20FA
:1037B00020700020F6E7FFF771FB95F82500002840
:1037C00032D001282AD0022827D0032832D1284617
:1037D00000F052F900202070B7B1032F02D0042F5F
:1037E00013D108E06E681EB12846A968B04701E011
:1037F0008F2020700CE06E681EB141462846B0470D
:1038000001E08F20207003E002E08420207000BFE0
:1038100000BFFFF763FB0120C4E700BFFFF75EFBBB
:103820008E2020700120BDE7FFF758FB8720207015
:103830000020B7E7FFF752FB8D2020700020B1E792
:10384000610300200C48006808B9002070470A484E
:103850000168094AC86810600020C860086107480C
:103860000088401C054A108005480088401E044A14
:1038700010800846EAE70000A40300209603002019
:10388000940300202DE9F0414FF42071224800F00C
:103890007DFB4021214800F079FB002514E0681CE5
:1038A00086B205EB85001C4901EBC00406EB8600DF
:1038B00001EBC00764202070002084F82500E76039
:1038C00017A02062681C85B20F2DE8D305EB850098
:1038D000114901EBC00464202070002084F8250009
:1038E000E0600FA0206200200E4908600E490880A9
:1038F00010200E49088008480D4908600120FFF794
:103900001DFB0C4908600020FFF718FB0A490860FE
:1039100000F014F8BDE8F081241E0020A42200204D
:103920003F0000009803002096030020940300202D
:10393000A40300209C030020A003002000B587B052
:103940000320002180220A4BCDE90132CDE903108A
:103950004FF6FD700B46074A00900748FFF752FCF0
:1039600006AA06A10020FFF7ABFC07B000BD0000CF
:10397000A4200020A0220020F939000875432F4F11
:10398000532D494920546D720000000070B50B465C
:10399000032580F82550012B05D1154EC5693668E1
:1039A000354445610CE085692DB9114EC56936680D
:1039B0003544456104E00E4E8569366835444561FD
:1039C000057D05F007040B4D05EBC4010D682DB90D
:1039D00008600025C56001258D8006E00A68086042
:1039E000C26010618D886D1C8D800025056170BDE1
:1039F00098030020A422002008B500BF00BF6A463B
:103A000000211A480068FFF7BFFAFFF747FA184885
:103A10000068401C164908600846007800F0070856
:103A2000144800EBC8073C681AE0E6681049606972
:103A30000968884213D1204600F01EF894F824004B
:103A4000022804D101212046FFF7A0FF02E0022056
:103A500084F82500656815B12046A168A84734465A
:103A6000002CE2D1FFF73AFAC9E70000A0030020DA
:103A700098030020A422002030B5057D05F007043E
:103A80000D4D05EBC4031D68854205D1C168196061
:103A900039B100250D6104E00169C268CA6002B154
:103AA0001161012580F825500025C56005619D88BC
:103AB0006D1E9D8030BD0000A42200202DE9F04F36
:103AC00005460F4690469946A87A19490E5C05F1BD
:103AD0000B00805D11F800B00BEBC60000F0FF0A90
:103AE000144850F82A4000202034E0602760207CF1
:103AF00020EA0800207484F81190207C203C00F01B
:103B0000080068B994F836000B49097808430A4957
:103B100008700A48805D94F83510084307498855B5
:103B20002946204600F00CF85046BDE8F08F000012
:103B30006C87000800170020650300206603002042
:103B400010B590F8342001F10B039B5C90F83540E0
:103B5000A34301F10B04A35423469B5C23B98B7A46
:103B600090F83640A3438B7210BD000010B51B4A7D
:103B70001268D061194A126892F8343000F10B02D1
:103B8000D25C164B1B6893F835301A43134B1B68F5
:103B900093F8344000F10B031A55827A0F4B1B68DF
:103BA00093F836301A4382720C4A126892F8341035
:103BB0000B4A525C094B1B6893F835309A43084B0B
:103BC0005A541A46525C42B9044A126892F8363086
:103BD000044A12789A43034B1A7010BD74030020F4
:103BE0006603002065030020014600228A7200203F
:103BF00005E0002301F10B021354421CD0B2082847
:103C0000F7D37047F0B51446059E244F3F6897F8E8
:103C1000307047F02007DFF884C0DCF800C08CF873
:103C200030700027DFF874C0DCF800C08CF8317009
:103C30001A4F3F68FE62194F3F6879620C828B749D
:103C4000164F3F688F6047680F6000274F60C8605D
:103C5000456805B169604160104F3F6897F83420AE
:103C60000F4FBF5CDFF834C0DCF800C09CF835C0F3
:103C700027EA0C07DFF828C00CF802706746BF5C23
:103C80005FB9064F3F6897F836C0064F3F7827EA7E
:103C90000C07DFF810C08CF80070F0BD7403002032
:103CA00066030020650300202DE9F041A0211148A2
:103CB00000F06CF900250DE0681C86B20D4800EBA1
:103CC000051400EB06170020207067600AA0E06072
:103CD000681C85B2092DEFD3064800EB05140020BF
:103CE0002070606004A0E060024804490860BDE8FC
:103CF000F0810000601200203F000000500300200F
:103D0000F0B506460F46B46800202834606027806E
:103D1000207A00F0DF00207200206072207A283CB8
:103D200088B93434A0780B490978084309490870E8
:103D300020780949085C6178084314F83419064A68
:103D40005054012500E00025304600F007F82846D1
:103D5000F0BD0000650300206603002030B5014679
:103D60004A6808682AB9CC68606028B100254560B7
:103D700002E0106000B142608B6800255D6230BDDA
:103D800070B54FF49671114800F000F900230FE070
:103D9000581C85B203EB83000C4901EB800405EB52
:103DA000850001EB8006002020706660581C83B2FD
:103DB0000E2BEDD303EB8300044901EB80040020BC
:103DC0002070606008460249086070BD3411002010
:103DD0004C03002000200A4908600A4908700A497B
:103DE00008700A4908700A4908700A4908600A49B7
:103DF00008600A4908600A4908600A490870704763
:103E00009003002061030020620300206F03002064
:103E10006E03002048030020700300205C03002094
:103E2000580300206003002000210A4A117000207E
:103E300004E00021084A1154411CC8B20828F8D3F4
:103E40000021064A1170064A1170064A1160064A9E
:103E500011607047650300206603002063030020A3
:103E6000640300207C0300207403002070B540F23E
:103E70009451194800F08AF84FF48071174800F007
:103E800085F8002413E0601CC5B2C4EBC40000EB4D
:103E90004000114901EB8003C5EBC50000EB400079
:103EA00001EB80065E610EA0D864601CC4B2102CC9
:103EB000E9D3C4EBC40000EB4000074901EB8003E9
:103EC0000020586106A0D864002006490860024816
:103ED0000549086070BD0000001800200017002090
:103EE0003F000000800300207803002000B587B069
:103EF0000320002180220A4BCDE90132CDE90310D5
:103F00004FF6FF703F23074A00900748FFF77AF902
:103F100006AA06A13F20FFF7D3F907B000BD0000B5
:103F200000150020FC160020E941000875432F4FC2
:103F3000532D49492049646C6500000000B587B0E5
:103F40000320002180220A4BCDE90132CDE9031084
:103F50004FF6FE703E23074A00900748FFF752F9DC
:103F600006AA06A13E20FFF7ABF907B000BD00008E
:103F700000130020FC1400201142000875432F4F4D
:103F8000532D4949205374617400000004E000225D
:103F900000F8012B4A1E91B20029F8D170470000A9
:103FA00010B518210448FFF7F1FF034803490860E2
:103FB00003A00968486110BD941D002088030020FB
:103FC0003F0000002DE9F04178211048FFF7DEFFA7
:103FD00000240DE0601C86B204EB44000B4901EBA9
:103FE000C00506EB460001EBC0072F60601C84B2E1
:103FF000042CEFD304EB4400044901EBC00500207E
:104000002860084602490860BDE8F081AC1D002028
:104010008C03002010B50024FCF7FAF8044613487E
:104020000078F8B912480078E0B900F02DF811488E
:104030001149097850F82100104908600E480078AD
:104040000F49097888420DD00C480068806B401CED
:104050000A49096888630B480068401C09490860E0
:10406000FCF7EEF82046FCF7D7F810BD61030020FE
:104070006203002000170020640300207C0300205E
:1040800063030020480300200649074A1278885C31
:104090000649095C034A515C01EBC001044A1170F6
:1040A000704700006C87000865030020660300204D
:1040B000640300202DE9F84F05460F4690469946C7
:1040C000DDE90AAB00200090FCF7A2F800903F4821
:1040D0000468002C74D0183454F8040C3B49086070
:1040E0000098FCF799F844F8187CA5760020207613
:1040F0006076606144F814BC44F80CAC44F8108C51
:104100000C9824F8080C24F8069C0020E077E810AE
:10411000207705F00700E076217F01208840A07716
:10412000E17E01208840607700206060E060A06050
:104130002062A0626062E062206325A06063183C98
:10414000002606E0002104F1500040F82610701C03
:10415000C6B2002EF6D02046FFF702F82046FFF741
:10416000ADF8FCF755F800901A4840F825401A4879
:10417000006860610020A0611748006810B116480F
:1041800000688461144804603434A07813490978C5
:1041900008431249087020781149085C6178084387
:1041A00014F834190E4A50540E480078401C0D493A
:1041B00008700098FCF730F80020BDE8F88FFFE7A2
:1041C0000098FCF729F84220F7E700007803002068
:1041D0003F0000000017002080030020650300203E
:1041E000660300206F030020002400BF00BFFCF71F
:1041F0000FF8044605480068401C04490860204642
:10420000FCF70AF8FFF75BF8F1E700007003002005
:10421000002400BF02E06420FFF776F91948007817
:104220000028F8D0184800686421B0FBF1F0164966
:1042300008600846006828B9002014490870FF206B
:10424000FFF70CF900BFFBF7E3FF044610480068D6
:104250001049086000200E4908602046FBF7DCFF8B
:104260000C48006808490968B0FBF1F0C0F164002F
:1042700006490870FFF75CF800F00EF83220FFF7EF
:1042800043F9E0E7600300205803002054030020B6
:10429000700300205C0300207CB5002514E0694613
:1042A0002846FFF747F8064666B9094850F8254002
:1042B00044B1012C06D0D4E9020100EB8100606416
:1042C0000198A064681CC5B23F2DE8D97CBD0000F0
:1042D0000017002002F0010343B102F002032BB1EA
:1042E00002E0491E002308C00029FAD170470000EF
:1042F0003EB5002400940194029400210022002382
:10430000564C6083248B554D6D8BAC420ADB534C6D
:10431000248B524D6D8B641B514D2C806424514D68
:104320002C8006E04D4C648B4C4D2D8B641B4D4D09
:104330002C804B4C2488322C03DB4A4C2488322CB2
:1043400063DA464C248B454D6D8B641B0094434CC3
:104350006468424DAC602C4624686C60009C2C6004
:104360002C4624686D68641B00943C4C2568646886
:10437000A5EB4404394DAD682C440294374CE47BE2
:10438000009D6C430094354C247C344D2D686C4367
:104390000194324C647C029D6C430294DDE900453B
:1043A0002C44029D2C4400942C4D009C6D692C449F
:1043B0002A4D6C612C466469002C1BDD2C46646917
:1043C000322594FBF5F4284D2C802C462488274D6B
:1043D0002D88AC4203DC254C2488234D2C80224CB4
:1043E0002488234D2D88AC4208DB214C24881E4DA7
:1043F0002C8003E01D4C24881B4D2C801A4C2488F3
:1044000032256C43154D6C6126E0144C248B134D02
:104410006D8BAC4210DB164C2488134D2C8000248D
:104420000E4D6C61AC606C602C600F4C24883225A2
:104430006C430A4D6C610FE00C4C24880A4D2C80B3
:104440000024064D6C61AC606C602C60064C2488C6
:1044500032256C43014D6C613EBD0000C00300205D
:10446000D6010020D8010020D0010020D401002076
:10447000D20100202DE9F04F87B005463148008871
:10448000A84203DD002007B0BDE8F08F2D48B0F84A
:104490007800A84201DA2C48F5E700263D271F24C2
:1044A0001FE0284830F81400A84206DD2746B81956
:1044B00000EBD071C1F3470413E0224830F8140038
:1044C000A84206DA2646B81900EBD071C1F34704BA
:1044D00007E004EB8409484603F0D4FF80464046D9
:1044E000D1E7B81B0128DCD104EB8409154931F868
:1044F000160003F0DFFF0690124931F8170003F0B1
:10450000D9FF0590484603F0BDFF0490DDE90501A1
:1045100004F0B0F80390284603F0CCFF0190069910
:1045200004F0A8F80949029003F0D8FF83460399E4
:1045300003F0C6FE8246049903F060FE80464046C2
:10454000A1E7000088020020000096430000A04080
:1045500001460020034A506820F440400843506060
:10456000704700000010024029B1064A5269024318
:10457000044B5A6104E0034A52698243014B5A6179
:10458000704700000010024029B1064AD269024378
:10459000044BDA6104E0034AD2698243014BDA61D9
:1045A000704700000010024029B1064A9269024398
:1045B000044B9A6104E0034A92698243014B9A6179
:1045C000704700000010024029B1064AD268024339
:1045D000044BDA6004E0034AD2688243014BDA609C
:1045E000704700000010024030B500210022002476
:1045F00000232D4D6D6805F00C0121B1042905D073
:10460000082923D105E0294D056022E0274D0560EA
:104610001FE0254D6D6805F47012234D6D6805F49B
:104620008034022505EB92421CB9214D55430560AB
:104630000BE01D4D6D6805F400351DB11C4D554353
:10464000056002E0194D5543056002E0174D056015
:1046500000BF00BF144D6D6805F0F0010909154D4C
:104660006B5C0568DD4045600F4D6D6805F4E061E9
:10467000090A104D6B5C4568DD4085600A4D6D6828
:1046800005F46051C90A0B4D6B5C4568DD40C5609F
:10469000054D6D6805F44041890B074D6B5CC5689D
:1046A000B5FBF3F5056130BD0010024000127A0041
:1046B00000093D00FC0100200C02002070B50446FA
:1046C0000E460025042E00DA70BD2078FE287BD12E
:1046D0006078112879D008DC0A2831D2DFE800F0B0
:1046E000301831457AA3F8F6F5F431286ED008DC9D
:1046F00012286CD015286BD01F286AD02F281FD104
:1047000085E13F2878D04F2877D05F28F7D1AEE1F8
:10471000A078012808D1E078FF2805D10120EE49D2
:104720000870EE4988700BE0A078022808D1E07884
:10473000FF2805D10120EA4908700220E749887066
:10474000C6E1A078012806D1E078FF2803D1012036
:10475000E449087008E0A078022805D1E078FF2835
:1047600002D10020DF490870B2E1A07801280ED103
:104770002079FF280BD10120DB490870DB49087044
:10478000E078DB4908800120DA4908701BE0A07856
:10479000022801D1012000E00020A178032901D1E5
:1047A000012100E00021084368B12079FF280AD1E7
:1047B0000120CD490870CD490870E078CC490880C7
:1047C0000220CC49087083E183E1D9E058E1E1E0BF
:1047D000EBE0F8E0A078012810D12079FF280DD176
:1047E0000120C5490870C5490870E078C0490880B3
:1047F0000120C049087015E01DE12FE1A0780228D2
:1048000002D0A07803280DD12079FF280AD10120F9
:10481000B9490870B9490870E078B54908800220A4
:10482000B449087054E1A078012823D1A079FF2869
:1048300020D10120B2490870E0780A2190FBF1F202
:1048400001FB12006421484321790A2291FBF2F313
:1048500002FB131101EB810100EB4100617991FB37
:10486000F2F302FB13110844A14908800120A14979
:10487000087028E0A078022802D0A078032822D16E
:10488000A079FF281FD101209D490870E0780A21F6
:1048900090FBF1F201FB12006421484321790A22C6
:1048A00091FBF2F302FB131101EB810100EB4100DC
:1048B000617991FBF2F302FB131108448C490880E3
:1048C00002208C49087003E143E041E02FE0FFE75C
:1048D000A078012807D1E078FF2804D18948008812
:1048E00000F07CFD22E0A078022807D1E078FF28C4
:1048F00004D18548008800F02BF917E0A078032840
:1049000009D1E078FF2806D10120804908700020F5
:10491000784908700AE0A078042807D1E078FF28D9
:1049200004D101207949087072490870D0E0A0785C
:10493000012802D0A078022809D1E078FF2806D10A
:104940007348028873480188012000F0D1FCBFE061
:10495000BEE0A078012806D1E078FF2803D101202D
:104960005E49087008E0A078022805D1E078FF28A9
:1049700002D1002059490870092000F06DF9A7E024
:10498000A078012805D1E078FF2802D1112000F09D
:1049900063F99DE0E078FF2803D1A0785E490870B4
:1049A00002E000205C49087092E0A079FF2809D15C
:1049B000A0785A490870E078594908702079487001
:1049C0006079887084E0A07801280FD1E078FF2812
:1049D0000CD154480078544908700020514908709F
:1049E000012052490870524908700FE0A07802284F
:1049F0000CD1E078FF2809D100204C4908704A48C2
:104A000000784849087001204949087060E0A078A2
:104A1000012806D1E078FF2803D10120454908701C
:104A200008E0A078022805D1E078FF2802D1002014
:104A3000404908704CE0A078012806DBE078FF28A8
:104A400003D101203C49087007E0A07828B9E0783C
:104A5000FF2802D100203849087039E0A0780128E9
:104A600004D1E078FF2801D100F03CFD30E0A078CF
:104A7000012804D1E078FF2801D100F01DFC27E0D7
:104A8000A07802280CD1E078FF2809D102202B4918
:104A9000087000202A49087001202A49087016E091
:104AA00094F84200FF2812D1002505E0A81C205CE4
:104AB00025494855681CC5B2402DF7DB224840788F
:104AC0001F49087001201D4908701E49087000BF69
:104AD00000BF00BFF8E5000000000020DA01002060
:104AE000EC010020F3010020B0010020F0010020C3
:104AF000EE0100204102002050010020F1010020C1
:104B0000F20100202A02002026020020700100206D
:104B1000340200202E02002055020020E601002071
:104B2000E701002022020020E0010020E101002036
:104B3000EA010020E2010020E3010020F60100204C
:104B4000FA010020FB010020DA0400207047000079
:104B50001CB504463DA103C9CDE900013D480078DC
:104B6000012831D1052094FBF0F100FB1140201AFF
:104B70004FF47A7190FBF1F201FB1200642190FB7B
:104B8000F1F0C0B28DF80300052094FBF0F100FBBA
:104B90001140201A642190FBF1F201FB12000A215E
:104BA00090FBF1F0C0B28DF80400052094FBF0F109
:104BB00000FB1140201A0A2190FBF1F201FB1200C8
:104BC000C0B28DF805003CE0202C08DBA4F12000E9
:104BD00000EB8000092190FBF1F084B200E000249A
:104BE000052094FBF0F100FB1140201A4FF47A717C
:104BF00090FBF1F201FB1200642190FBF1F0C0B2D6
:104C00008DF80300052094FBF0F100FB1140201A01
:104C1000642190FBF1F201FB12000A2190FBF1F0FC
:104C2000C0B28DF80400052094FBF0F100FB1140A8
:104C3000201A0A2190FBF1F201FB1200C0B28DF89C
:104C400005000721684601F085FB1CBDFE06020039
:104C50000000FF00DA0100202DE9F04F89B0814605
:104C6000132104A8FBF789FCFE4800680390002488
:104C700000250020029000260027804682468346B9
:104C800001908DF80D90F848007900287DD0F64805
:104C9000007801283DD1F5480088052190FBF1F20C
:104CA00001FB1200F1490988081A4FF47A7190FB50
:104CB000F1F201FB1200642190FBF1F0C0B28DF81B
:104CC0000E00EA480088052190FBF1F201FB12007A
:104CD000E6490988081A642190FBF1F201FB1200F1
:104CE0000A2190FBF1F0C0B28DF80F00DF48008878
:104CF000052190FBF1F201FB1200DC490988081A3A
:104D00000A2190FBF1F201FB1200C0B28DF81000F5
:104D10004BE0D6480088202809DBD448008820389A
:104D200000EB8000092190FBF1F086B200E0002644
:104D3000052096FBF0F100FB1160301A4FF47A71F8
:104D400090FBF1F201FB1200642190FBF1F0C0B284
:104D50008DF80E00052096FBF0F100FB1160301A73
:104D6000642190FBF1F201FB12000A2190FBF1F0AB
:104D7000C0B28DF80F00052096FBF0F100FB11602A
:104D8000301A0A2190FBF1F200E005E001FB12006D
:104D9000C0B28DF8100008E009208DF80E00062042
:104DA0008DF80F0000208DF81000AF480079002822
:104DB0007DD0AD48007801283DD1AD48008805215F
:104DC00090FBF1F201FB1200A9490988081A4FF47F
:104DD0007A7190FBF1F201FB1200642190FBF1F07B
:104DE000C0B28DF81100A2480088052190FBF1F2B5
:104DF00001FB12009E490988081A642190FBF1F218
:104E000001FB12000A2190FBF1F0C0B28DF81200F4
:104E100097480088052190FBF1F201FB12009449AC
:104E20000988081A0A2190FBF1F201FB1200C0B2B6
:104E30008DF813004BE08E480088202809DB8C4851
:104E40000088203800EB8000092190FBF1F084B24B
:104E500000E00024052094FBF0F100FB1140201A33
:104E60004FF47A7190FBF1F201FB1200642190FB88
:104E7000F1F0C0B28DF81100052094FBF0F100FBB9
:104E80001140201A642190FBF1F201FB12000A216B
:104E900090FBF1F0C0B28DF81200052094FBF0F108
:104EA00000FB1140201A0A2190FBF1F200E005E01E
:104EB00001FB1200C0B28DF8130008E009208DF844
:104EC000110006208DF8120000208DF813006648AE
:104ED000007900287DD06448007801283DD16548DC
:104EE0000088052190FBF1F201FB1200614909885D
:104EF000081A4FF47A7190FBF1F201FB1200642161
:104F000090FBF1F0C0B28DF814005A4800880521DA
:104F100090FBF1F201FB120056490988081A64213E
:104F200090FBF1F201FB12000A2190FBF1F0C0B2FC
:104F30008DF815004F480088052190FBF1F201FB28
:104F400012004C490988081A0A2190FBF1F201FB72
:104F50001200C0B28DF816004BE0464800882028A9
:104F600009DB44480088203800EB8000092190FBD1
:104F7000F1F085B200E00025052095FBF0F100FB83
:104F80001150281A4FF47A7190FBF1F201FB1200D4
:104F9000642190FBF1F0C0B28DF81400052095FB60
:104FA000F0F100FB1150281A642190FBF1F201FB93
:104FB00012000A2190FBF1F0C0B28DF81500052017
:104FC00095FBF0F100FB1150281A0A2190FBF1F239
:104FD00000E005E001FB1200C0B28DF8160008E009
:104FE00009208DF8140006208DF8150000208DF89A
:104FF00016001D48007801284AD11F480088052165
:1050000090FBF1F201FB12001B490988081A4FF4CA
:105010007A7190FBF1F201FB1200642190FBF1F038
:10502000C0B28DF8170014480088052190FBF1F2FA
:1050300001FB120010490988081A642190FBF1F263
:1050400001FB12000A2190FBF1F0C0B28DF81800AC
:1050500009480088052190FBF1F201FB1200064986
:1050600009880BE068870008DA0100203802002078
:1050700034020020360200202A020020081A0A21E9
:1050800090FBF1F201FB1200C0B28DF8190044E070
:105090008548008820280ADB83480088203800EBF8
:1050A0008000092190FBF1F01FFA80F801E04FF039
:1050B0000008052098FBF0F100FB1180A8EB000030
:1050C0004FF47A7190FBF1F201FB1200642190FB26
:1050D000F1F0C0B28DF81700052098FBF0F100FB4D
:1050E0001180A8EB0000642190FBF1F201FB12009B
:1050F0000A2190FBF1F0C0B28DF81800052098FB52
:10510000F0F100FB1180A8EB00000A2190FBF1F206
:1051100001FB1200C0B28DF8190064480078012824
:105120003DD163480088052190FBF1F201FB12009C
:105130005F490988081A4FF47A7190FBF1F201FB7C
:105140001200642190FBF1F0C0B28DF81A005848AB
:105150000088052190FBF1F201FB120054490988F7
:10516000081A642190FBF1F201FB12000A2190FB66
:10517000F1F0C0B28DF81B004D480088052190FB6E
:10518000F1F201FB12004A490988081A0A2190FB32
:10519000F1F201FB1200C0B28DF81C003FE0444860
:1051A0000088202809DB42480088203800EB800076
:1051B000092190FBF1F087B200E00027052097FB62
:1051C000F0F100FB1170381A4FF47A7190FBF1F294
:1051D00001FB1200642190FBF1F0C0B28DF81A00BF
:1051E000052097FBF0F100FB1170381A642190FB49
:1051F000F1F201FB12000A2190FBF1F0C0B28DF830
:105200001B00052097FBF0F100FB1170381A0A21F2
:1052100090FBF1F201FB1200C0B28DF81C00234894
:1052200000788DF81D002348007800F0010018B1C7
:1052300064208DF81E0002E000208DF81E001D483D
:10524000007800F0200018B101208DF81F0002E066
:1052500000208DF81F00154880788DF82000154833
:105260000078C0F3C00008B14FF0080A1148007878
:10527000C0F3400008B14FF0040B0E480078C0F3B3
:10528000001008B1022001904AEA0B00019908437E
:105290008DF82100FF208DF82200172103A801F0CE
:1052A00059F809B0BDE8F08F2A020020DA01002089
:1052B00026020020220200200EB504A207CA8DE8B3
:1052C00007000A21684601F045F80EBDFE5F0100A7
:1052D000010A010304FF000008B504A00068009063
:1052E0000421684601F036F808BD0000FE2201FFE7
:1052F000FEB506460C46154635A207CA8DE80700DE
:105300008DF80260052094FBF0F100FB1140201A9B
:105310004FF47A7190FBF1F201FB1200642190FBD3
:10532000F1F0C0B28DF80300052094FBF0F100FB12
:105330001140201A642190FBF1F201FB12000A21B6
:1053400090FBF1F0C0B28DF80400052094FBF0F161
:1053500000FB1140201A0A2190FBF1F201FB120020
:10536000C0B28DF80500052095FBF0F100FB11504F
:10537000281A4FF47A7190FBF1F201FB12006421BC
:1053800090FBF1F0C0B28DF80600052095FBF0F11E
:1053900000FB1150281A642190FBF1F201FB12006E
:1053A0000A2190FBF1F0C0B28DF80700052095FBB3
:1053B000F0F100FB1150281A0A2190FBF1F201FBD9
:1053C0001200C0B28DF80800684600F0C3FFFEBDB1
:1053D000FE0700000000000000FF00001CB50446AE
:1053E0003DA103C9CDE900013D480078012831D134
:1053F000052094FBF0F100FB1140201A4FF47A7164
:1054000090FBF1F201FB1200642190FBF1F0C0B2BD
:105410008DF80300052094FBF0F100FB1140201AE9
:10542000642190FBF1F201FB12000A2190FBF1F0E4
:10543000C0B28DF80400052094FBF0F100FB114090
:10544000201A0A2190FBF1F201FB1200C0B28DF884
:1054500005003CE0202C08DBA4F1200000EB8000DC
:10546000092190FBF1F084B200E00024052094FBB8
:10547000F0F100FB1140201A4FF47A7190FBF1F229
:1054800001FB1200642190FBF1F0C0B28DF8030023
:10549000052094FBF0F100FB1140201A642190FBE1
:1054A000F1F201FB12000A2190FBF1F0C0B28DF87D
:1054B0000400052094FBF0F100FB1140201A0A21A2
:1054C00090FBF1F201FB1200C0B28DF8050007213C
:1054D000684600F03FFF1CBDFE0601000000FF0013
:1054E000DA0100201CB5334903C9CDE900010024CD
:1054F0004F208DF8010030480078012823D12F4833
:1055000000884FF47A7190FBF1F201FB12006421E4
:1055100090FBF1F0C0B28DF802002848008890FBA3
:10552000F1F201FB12000A2190FBF1F0C0B28DF8FC
:1055300003002248008890FBF1F201FB1200C0B288
:105540008DF804002DE01D480088202809DB1B4849
:105550000088203800EB8000092190FBF1F084B234
:1055600000E000244FF47A7094FBF0F100FB11404E
:10557000642190FBF1F0C0B28DF80200642094FB2E
:10558000F0F100FB11400A2190FBF1F0C0B28DF860
:1055900003000A2094FBF0F100FB1140C0B28DF82B
:1055A0000400FF208DF805000621684600F0D2FEB9
:1055B0001CBD000060870008DA01002028020020DE
:1055C00010B500F001F810BD0CB50020019000905E
:1055D0003348006840F480303149086000BF3048EB
:1055E000006800F4003000900198401C0190009881
:1055F00018B90198B0F5A06FF1D12948006800F4FE
:10560000003010B10120009001E0002000900098CF
:10561000012843D12348006840F010002149086068
:105620000846006820F0030008600846006840F063
:10563000020008601A4840681949486008464068F6
:1056400048600846406840F480604860084640680A
:1056500020F47C1048600846406840F4E810486038
:105660000846006840F08070086000BF0C48006881
:1056700000F000700028F9D00948406820F00300CD
:10568000074948600846406840F00200486000BF93
:105690000348406800F00C000828F9D10CBD000058
:1056A00000100240002002400246002003E00023D8
:1056B0001354431CD8B28842F9DB7047084800787D
:1056C00030B908480078401C06490870032070472C
:1056D0000020054908700349087000BFF7E7000083
:1056E0000300002004000020010000200948007889
:1056F00030B909480078401C0749087003207047FA
:10570000002006490870044908700549087000BF68
:10571000F5E70000230000202400002021000020E5
:10572000280000200748007830B907480078401C5E
:10573000054908700320704700200349087000BF26
:10574000F9E70000470000204800002007480078E3
:1057500030B907480078401C05490870032070479D
:1057600000200349087000BFF9E700003301002062
:10577000340100200848007830B908480078401CFF
:105780000649087003207047002005490870034946
:10579000087000BFF7E7000053010020540100200B
:1057A000510100200848007830B908480078401CB2
:1057B0000649087003207047002005490870034916
:1057C000087000BFF7E7000073010020740100209B
:1057D000710100200748007830B907480078401C64
:1057E000054908700320704700200349087000BF76
:1057F000F9E7000093010020940100200848007898
:1058000030B908480078401C0649087003207047EA
:105810000020054908700349087000BFF7E7000041
:10582000B3010020B4010020B1010020034800783A
:1058300008B9022070470020FCE7000003000020A8
:105840000348007808B9022070470020FCE70000F8
:10585000230000200348007808B902207047002088
:10586000FCE70000470000200348007808B9022048
:1058700070470020FCE70000330100200348007857
:1058800008B9022070470020FCE700005301002007
:105890000348007808B9022070470020FCE70000A8
:1058A000730100200348007808B9022070470020E7
:1058B000FCE70000930100200348007808B90220AB
:1058C00070470020FCE70000B30100200348007887
:1058D00008B9032070470020FCE700000300002007
:1058E0001248007800BB0120114908701148007867
:1058F000401C1049087001200F4908700D480078BD
:1059000002280FD10D48007819280BD20020094930
:1059100008700A4908700849087001200849087091
:10592000042070470320FCE70020FAE72300002052
:105930002000002027000020260000202500002055
:10594000220000200348007808B903207047002097
:10595000FCE70000470000200348007808B9032056
:1059600070470020FCE70000330100200348007866
:1059700008B9032070470020FCE700005301002015
:105980000348007808B9032070470020FCE70000B6
:10599000730100200348007808B9032070470020F5
:1059A000FCE70000930100200348007808B90320B9
:1059B00070470020FCE70000B30100200348007896
:1059C00008B9012070470020FCE700000300002018
:1059D0000348007808B9012070470020FCE7000068
:1059E000230000200348007808B9012070470020F8
:1059F000FCE70000470000200348007808B90120B8
:105A000070470020FCE700003301002003480078C5
:105A100008B9012070470020FCE700005301002076
:105A20000348007808B9012070470020FCE7000017
:105A3000730100200348007808B901207047002056
:105A4000FCE70000930100200348007808B901201A
:105A500070470020FCE70000B30100201C480078DC
:105A600078B91C480078401C1A490870084600782C
:105A7000502804D3012018490870042070470320DF
:105A8000FCE714480078502820D201201349087000
:105A900013480078401C1249087001201149087011
:105AA0000F48007802280FD10F48007819280BD230
:105AB00000200B4908700C4908700A490870012041
:105AC0000A4908700420D9E70420D7E70420D5E765
:105AD000030000200400002001000020000000203E
